S014000051414D4465634653323031392E73726563C0
S11300000C9422010C944B010C944B010C944B0165
S11300100C944B010C944B010C94BA010C94000207
S11300200C944B010C944B010C944B010C944B011C
S11300300C944B010C944B010C9403070C944B014E
S11300400C944B010C944B010C944B010C944B01FC
S11300500C944B010C944B010C944B010C944B01EC
S11300600C944B010C944B010C944B010C944B01DC
S11300700C944B010C944B010C944B010C944B01CC
S11300800C944B010C944B010C944B010C944B01BC
S11300900C944B010C944B010C944B010C944B01AC
S11300A00C944B010C944B010C944B010C944B019C
S11300B00C944B010C944B010C944B010C944B018C
S11300C00C944B010C944B010C944B010C944B017C
S11300D00C944B010C944B010C944B010C944B016C
S11300E00C944B010C944B010C944B010C944B015C
S11300F00C944B010C944B010C944B010C944B014C
S11301000C944B010C944B010C944B010C944B013B
S11301100C944B010C944B010C944B010C944B012B
S11301200C944B010C944B010C944B010C944B011B
S11301300C944B010C944B010C944B010C944B010B
S11301400C944B010C944B010C944B010C944B01FB
S11301500C944B010C944B010C944B010C944B01EB
S11301600C944B010C944B010C944B010C944B01DB
S11301700C944B010C944B010C944B010C944B01CB
S11301800C944B010C944B010C944B010C944B01BB
S11301900C944B010C944B010C944B010C944B01AB
S11301A00C944B010C944B010C944B010C944B019B
S11301B00C94C6140C944B010C944B010C944B01FD
S11301C00C944B010C944B010C944B010C944B017B
S11301D00C944B010C944B010C944B010C944B016B
S11301E00C944B010C944B010C944B010C944B015B
S11301F00C944B010C944B010C944B01E512E51249
S1130200E51232131A132F13E512E51232131A13DF
S11302100C94F11A0C94C7130C941A130C942F1306
S11302200C94EE040C9432130C94B20B0C94371C03
S11302300C9465160C94B6130C9429120C94460273
S11302400C94E51211241FBECFEFCDBFDFE3DEBF58
S113025000E00CBFE5E6F2E38AEA90E48193E03043
S1130260F907E0F310E2A0E0B0E2ECE0F2E400E031
S11302700BBF02C007900D92AC39B107D9F722E346
S1130280ACE9B0E201C01D92A536B207E1F70E94C5
S11302901F140C9404210C940000E0E0F2E081812E
S11302A0817E8C6081838481887F8660848381E001
S11302B0828380A18076816080A311A280916802EC
S11302C08076816080A788E081A710AA11AA80E8BF
S11302D083838081816080830895E0E0F6E081E09B
S11302E0828382E082830E944D01E0E4F8E0108280
S11302F010A211A28FEF9FE086A397A388EC8093AE
S11303008001E0E0F1E0108280E48083808186FD5A
S1130310FDCFE0E0F1E084E88083168A74E2708B1C
S113032061E0618B5DE9528B46E4438B20E430E06D
S1130330248B358B8CE091E3848F958F168E9CE60D
S1130340908F82E0818F128E16A270A361A352A3B4
S113035043A324A335A32CEC30E324A735A716A686
S113036090A781A712A680898068808B87E08093FC
S1130370400808951F920F920FB60F9211240BB6E6
S11303800F922F933F934F935F936F937F938F932A
S11303909F93AF93BF93EF93FF93CF93DF931F92FA
S11303A0CDB7DEB7E0E0F1E081898061818BE0E4E4
S11303B0F8E084858160848719829E012F5F3F4F16
S11303C041E050E060E070E08091522D9091532D17
S11303D00E94F1040F90DF91CF91FF91EF91BF91B3
S11303E0AF919F918F917F916F915F914F913F91C9
S11303F02F910F900BBE0F900FBE0F901F9018956A
S11304001F920F920FB60F9211240BB60F922F93D7
S11304103F934F935F936F937F938F939F93AF9388
S1130420BF93EF93FF93CF93DF931F92CDB7DEB7C4
S1130430E0E0F1E081A1806181A3E0E4F8E084855B
S11304408160848719829E012F5F3F4F42E050E014
S113045060E070E08091522D9091532D0E94F10440
S11304600F90DF91CF91FF91EF91BF91AF919F9149
S11304708F917F916F915F914F913F912F910F9049
S11304800BBE0F900FBE0F901F9018950E94610332
S11304908093522D9093532DE0EAF6E082E081831D
S11304A094E09183E0E8F6E091E091838183812CEC
S11304B0912C0F2EF0EAAF2EF6E0BF2EF02DCC24B7
S11304C0CA94DC2C760100E021E043E050E060E0D7
S11304D070E08091522D9091532D0E94760360FD1F
S11304E005C080910020811143C073C08091002019
S11304F0882389F1C0E0D0E08091502E9091512E54
S1130500895791090E9798F48FEF881A980AE4E6B0
S11305108E169104CCF043E050E060E070E08091EE
S11305204E2E90914F2E0E943B04162F0DC042E098
S113053050E060E070E080914E2E90914F2E0E942A
S11305405C04162F812C912C21968091002090E040
S1130550C817D9078CF280919D208F5F80939D20CE
S1130560F50184818D7F84838481846084833DC08C
S1130570C0E0D0E0FE01E453FF4C8081843158F0A8
S113058041E050E060E070E080914E2E90914F2E5B
S11305900E945C04162F10FF03C010929D2012C00D
S11305A0FFEF8F1A9F0A84E6881691045CF043E0FB
S11305B050E060E070E080914E2E90914F2E0E94AA
S11305C03B04162F21968091002090E0C817D9078C
S11305D08CF280919C208F5F80939C20F501848114
S11305E08B7F848384818260848364E670E080E00E
S11305F090E00E94790E63CF0F93CF93DF931F9205
S1130600CDB7DEB72FB72983F8941BBEFC0108EDE4
S113061004BF608389818FBF0F90DF91CF910F91C9
S11306200895611102C090E001C090E2842B892BEF
S11306308093520008956F71862B8093550008951E
S1130640E0E5F0E09081282F20959223908390811B
S113065089230895682B81E490E00E94FC020895A8
S11306600F931F93CF93C82F00E410E0F80160812B
S1130670687F682B80E490E00E94FC02F80180818E
S11306808C23CF911F910F910895FC019081907F4D
S1130690692B60830895FC019181987F692B6183A4
S11306A00895FC0196819C7F692B66830895000060
S11306B088ED84BF81E08093790008950E945703F8
S11306C00895CF93DF9380E190E00E94FE04EC0153
S11306D0009741F0FC011192119211921192CF01F5
S11306E00E942505CE01DF91CF9108952F923F926C
S11306F04F925F926F927F928F929F92AF92BF922E
S1130700CF92DF92EF92FF920F931F93CF93DF93D9
S1130710EC014A015B01622E702E0E940C0D2880B0
S113072039804A805B8001110DC081E0B201A101D2
S1130730482159216A217B21452B462B472B79F4EB
S113074080E00DC081E0B201A101482159216A2154
S11307507B21481559056A057B0509F080E088234B
S113076081F0662009F470C080949094A094B094B1
S113077082209320A420B52088829982AA82BB82F9
S113078063C0C114D104E104F10409F45DC066201E
S113079029F040E050E060E071E003C040E050E048
S11307A0BA0171107460482959296A297B29970173
S11307B08601CE0104960E943B0F0E94F70D811121
S11307C002C00E9483060E94781091FD39C0F09106
S11307D0A200FF93F87FF093A200688179818A8157
S11307E09B8171100DC021E075016401C622D722DE
S11307F0E822F922CD28CE28CF2879F420E00DC0B4
S113080021E075016401C622D722E822F922C81426
S1130810D904EA04FB0409F020E0222371F06620E5
S113082061F080949094A094B09486229722A82298
S1130830B92288829982AA82BB82FF91F093A20096
S11308401B012C01552402C00E94F70DC201B10105
S1130850DF91CF911F910F91FF90EF90DF90CF9098
S1130860BF90AF909F908F907F906F905F904F90CC
S11308703F902F9008950F931F93F091A200FF9340
S1130880F87FF093A200FC01008111812281338161
S113089040955095609570954023512362237323AE
S11308A04083518362837383FF91F093A200C90153
S11308B0B8011F910F9108954F925F926F927F92AA
S11308C0AF92BF92CF92DF92EF92FF920F931F935A
S11308D0CF93DF93EC016A017B018C01095F1F4F09
S11308E00E940C0DEB85FC8588819981AA81BB81CE
S11308F0C82AD92AEA2AFB2AC882D982EA82FB8238
S11309000E171F0709F442C0C12CD12C7601A48014
S1130910B58080819181A281B381AC01BD0177272B
S1130920B2FD0FC0488059806A807B8044225522E2
S11309306622772221E045284628472889F420E0CA
S11309400FC0488059806A807B80442255226622E9
S1130950772221E0441655066606770609F020E062
S1130960222371F0B0FF04C0C42AD52AE62AF72A4C
S1130970488159816A817B817260CF010E94C30FD3
S1130980EA2DFB2D0E171F0711F603C0C12CD12C25
S11309907601C094D094E094F09488819981AA81DE
S11309A0BB81C822D922EA22FB22C882D982EA82E8
S11309B0FB820E94F70D688179818A819B81DF9196
S11309C0CF911F910F91FF90EF90DF90CF90BF9048
S11309D0AF907F906F905F904F9008950E945C0459
S11309E008950F931F9389019A01AB01BC018EEE08
S11309F094E00E9458131F910F910895CF93DF93B1
S1130A00EC010E940C0D20919E2030919F20C90181
S1130A108C0F9D1F883B4BE0940758F42817390727
S1130A2058F4E901C056DF4D80939E2090939F2097
S1130A3005C0C0E0D0E002C0C0E0D0E00E94F70DE5
S1130A40CE01DF91CF9108950895FC01039681832F
S1130A5092834FEF5FEFBA014383548365837683B8
S1130A60878390878187928710820895FC0112867C
S1130A7013860895CF93DF939C01FB01DC0111964B
S1130A80CD91DC911297C483D5838E819F81868317
S1130A9097838E819F81DC0114966D937C931597C7
S1130AA06E837F8322873387F90180818F5F808300
S1130AB0DF91CF9108950F931F93CF93DF93EB01B1
S1130AC0088119812A813B810F3F4FEF14072407C6
S1130AD0340721F4FC01A185B28511C0DC01139611
S1130AE001C0DF011496ED91FC911597408151816D
S1130AF062817381041715072607370790F7149648
S1130B00ED91FC911597EC83FD83C683D783AE8367
S1130B10BF831496CD93DC9315978A879B87FC013A
S1130B2020812F5F2083DF91CF911F910F91089532
S1130B30CF93DF93FC01A285B385C481D5818681DF
S1130B4097818E839F83C681D781848195818C838D
S1130B509D8311968D919C911297E817F90731F4B2
S1130B608681978111968D939C9312971286138692
S1130B708C9181508C938C91DF91CF910895E0EA10
S1130B80F0E082819281987F92830895CF92DF92E0
S1130B90EF92FF9231E1FC013083319722E220830E
S1130BA03197A3E3A0836B01E12CF12C319760838F
S1130BB03197D0823197E082319761E36083319736
S1130BC060E86083319767E86083319710823197DA
S1130BD01082319762E06083319763E060833197DC
S1130BE064E06083319765E06083319766E06083F9
S1130BF0319767E06083319768E06083319769E0FB
S1130C006083319760E1608331973083319732E1BB
S1130C103083319733E13083319734E13083319736
S1130C2035E13083319736E13083319737E13083D2
S1130C30319738E13083319739E13083319730E2AD
S1130C403083319731E2308331972083319723E227
S1130C5020836A01319740833197D082319726E20D
S1130C602083319727E22083319728E2208331972C
S1130C7029E22083319720E320838897FF90EF9027
S1130C80DF90CF90089583EF91E0809326089093AE
S1130C90270865E080E098E00E94450361E080E079
S1130CA098E00E945103A091C62CB091C72C0D90DE
S1130CB00DBE0D900EBEEF91DF91CF91BF91AF911C
S1130CC09F918F917F916F915F914F913F912F9160
S1130CD01F910F91FF90EF90DF90CF90BF90AF9056
S1130CE09F908F907F906F905F904F903F902F9048
S1130CF01F900F90FF91F093A200FF91FFBFFF910F
S1130D00089581E00895FF93FFB7FF93F091A20047
S1130D10FF93F87FF093A2000F921F9211242F9259
S1130D203F924F925F926F927F928F929F92AF9277
S1130D30BF92CF92DF92EF92FF920F931F932F9364
S1130D403F934F935F936F937F938F939F93AF934F
S1130D50BF93CF93DF93EF93A091C62CB091C72C90
S1130D600DB60D920EB60D920E94950EA091C62C52
S1130D70B091C72C0D900DBE0D900EBEEF91DF917A
S1130D80CF91BF91AF919F918F917F916F915F911F
S1130D904F913F912F911F910F91FF90EF90DF9012
S1130DA0CF90BF90AF909F908F907F906F905F9007
S1130DB04F903F902F901F900F90FF91F093A200BF
S1130DC0FF91FFBFFF910895CF9390914C31892BF0
S1130DD080934C319091A000913041F09091A0000B
S1130DE0923021F09091A000943059F4882349F076
S1130DF00E94BF05C82F10924C310E94950EC093DB
S1130E00A200CF910895FF93FFB7FF93F091A20042
S1130E10FF93F87FF093A2000F921F9211242F9258
S1130E203F924F925F926F927F928F929F92AF9276
S1130E30BF92CF92DF92EF92FF920F931F932F9363
S1130E403F934F935F936F937F938F939F93AF934E
S1130E50BF93CF93DF93EF93A091C62CB091C72C8F
S1130E600DB60D920EB60D920E94BF05C82F0E94BA
S1130E70240DC093A20081E00E94E406A091C62C38
S1130E80B091C72C0D900DBE0D900EBEEF91DF9169
S1130E90CF91BF91AF919F918F917F916F915F910E
S1130EA04F913F912F911F910F91FF90EF90DF9001
S1130EB0CF90BF90AF909F908F907F906F905F90F6
S1130EC04F903F902F901F900F90FF91F093A200AE
S1130ED0FF91FFBFFF911895F091A200FF93F87F57
S1130EE0F093A200FC01968DFF91F093A20081E0A3
S1130EF0911180E00895DC01F091A200FF93F87F46
S1130F00F093A2005E969C915E97FF91F093A200ED
S1130F1081E05F962C91291380E008950F931F932D
S1130F20CF93DF93EC01042F1E8D48A14423B9F124
S1130F30011116C050E08C819D810E94BF2028A120
S1130F408C819D81820F911D8C839D832A813B819D
S1130F508217930720F1888199818C839D831FC018
S1130F6050E08E819F810E94BF2088A190E09195DE
S1130F70819591092E813F81280F391F2E833F834C
S1130F80488159812417350730F42A813B81820F27
S1130F90931F8E839F83023011F4111111501F5F30
S1130FA01E8F80E0DF91CF911F910F910895FC0176
S1130FB040A14423A9F050E026813781240F351F36
S1130FC026833783828193812817390720F0808113
S1130FD0918186839783CB01668177810E94BF20AC
S1130FE00895EF92FF920F931F93CF938C01F0918A
S1130FF0A200FF93F87FF093A200FC01C2A11C168B
S1131000ACF48389811106C011C0F8018389811170
S113101005C00CC07801F3E1EF0EF11CC7010E947A
S1131020810F81110E946610C15079F78FEFF8018A
S113103082A3FF91F093A200F091A200FF93F87FA6
S1131040F093A200F801C1A11C16ACF480858111B3
S113105006C011C0F8018085811105C00CC078015B
S1131060F8E0EF0EF11CC7010E94810F81110E946C
S11310706610C15079F78FEFF80181A3FF91F093C7
S1131080A200CF911F910F91FF90EF900895CF93FD
S1131090DF93EC01F091A200FF93F87FF093A2009C
S11310A04881598128A130E07F8D729FC001739FD0
S11310B0900D1124FA01E80FF91FEA83FB831E8EB9
S11310C04C835D83821B930B840F951F8E839F83B8
S11310D08FEF89A38AA361110CC08885882389F0C6
S11310E0CE0108960E94810F882359F00E9483063E
S11310F008C0CE0108960E942505CE0143960E94A1
S11311002505FF91F093A20081E0DF91CF9108952E
S1131110FF920F931F93CF93DF93082F162FF42E74
S11311206623C9F0869FC001112485960E94FE049F
S1131130EC01009749F416C00F8F18A361E0CE01AB
S11311400E944708FCA20EC0859688839983F4CF39
S1131150C883D983F1CF85E290E00E94FE04EC01BC
S1131160892BB1F7CE01DF91CF911F910F91FF90A1
S11311700895AF92BF92CF92DF92EF92FF920F93B6
S11311801F93CF93DF93CDB7DEB72997CDBFDEBFD3
S11311907C015B012E833F834887598710E06C01F3
S11311A088E0C80ED11CF091A200FF93F87FF09361
S11311B0A200F701968D878D981710F00230D1F4B4
S11311C0402FB501C7010E948E07F7019389992327
S11311D049F0C70143960E94810F882331F00E9491
S11311E0830603C081110E948306FF91F093A2003D
S11311F081E057C08E819F81A885B985892B8A2B70
S11312008B2B29F4FF91F093A20080E04AC01111C6
S113121005C0CE0101960E94F70F11E0FF91F093F3
S1131220A2000E940C0DF091A200FF93F87FF093AE
S1131230A200F70181A18F3F09F411A2F70182A155
S11312408F3F09F412A2FF91F093A200BE016A5FDE
S11312507F4FCE0101960E94081081111CC0C70166
S11312600E947B07882389F04E815F816885798598
S1131270C6010E94230FC7010E94F1070E94F70DC7
S1131280811191CF0E9483068ECFC7010E94F1077E
S11312900E94F70D88CFC7010E94F1070E94F70D45
S11312A080E02996CDBFDEBFDF91CF911F910F91D2
S11312B0FF90EF90DF90CF90BF90AF900895AF92E2
S11312C0BF92CF92DF92FF920F931F93CF93DF933E
S11312D0EC016B015A01022F0E94BF05F82E9E8D6E
S11312E08F8D981710F00230E1F41AA1402FB60147
S11312F0CE010E948E071F3F81F48B89882399F0C9
S1131300CE0143960E94810F882379F0A114B10481
S113131071F081E0F50180830BC01F5F1AA381E0A7
S113132007C080E005C081E003C081E001C081E026
S1131330F092A200DF91CF911F910F91FF90DF9067
S1131340CF90BF90AF900895AF92BF92CF92DF92AB
S1131350EF92FF920F931F93CF93DF93CDB7DEB736
S11313602997CDBFDEBF8C015B012E833F83488765
S11313705987E12C6C0183E1C80ED11CF091A200C5
S1131380FF93F87FF093A200F801F68CFF20B1F0F0
S1131390B501C8010E94D707FA94F801F68E80853A
S11313A0882339F0C80108960E94810F81110E9498
S11313B08306FF91F093A20081E05EC08E819F813D
S11313C0A885B985892B8A2B8B2B29F4FF91F0935F
S11313D0A20080E051C0E11006C0CE0101960E9437
S11313E0F70FEE24E394FF91F093A2000E940C0DFA
S11313F0F091A200FF93F87FF093A200F80181A17D
S11314008F3F09F411A2F80182A18F3F09F412A2BF
S1131410FF91F093A200BE016A5F7F4FCE01019657
S11314200E94081081111CC0C8010E946C07882307
S113143089F04E815F8168857985C6010E94230FFA
S1131440C8010E94F1070E94F70D811197CF0E94F5
S1131450830694CFC8010E94F1070E94F70D8ECF36
S1131460C8010E94F1070E94F70DC8010E946C0791
S1131470882309F483CF80E02996CDBFDEBFDF91B6
S1131480CF911F910F91FF90EF90DF90CF90BF907D
S1131490AF900895DF92EF92FF920F931F93CF9333
S11314A0DF93CDB7DEB72997CDBFDEBF8C014E8366
S11314B05F8368877987D12C7C0183E1E80EF11C76
S11314C0F091A200FF93F87FF093A200F801868DBB
S11314D0882389F08150868F8085882339F0C8015C
S11314E008960E94810F81110E948306FF91F09358
S11314F0A20081E05EC08E819F81A885B985892B79
S11315008A2B8B2B29F4FF91F093A20080E051C029
S1131510D11006C0CE0101960E94F70FDD24D394AA
S1131520FF91F093A2000E940C0DF091A200FF9392
S1131530F87FF093A200F80181A18F3F09F411A272
S1131540F80182A18F3F09F412A2FF91F093A20047
S1131550BE016A5F7F4FCE0101960E94081081117F
S11315601CC0C8010E946C07882389F04E815F81EA
S113157068857985C7010E94230FC8010E94F1077D
S11315800E94F70D81119CCF0E94830699CFC80158
S11315900E94F1070E94F70D93CFC8010E94F10742
S11315A00E94F70DC8010E946C07882309F488CFB4
S11315B080E02996CDBFDEBFDF91CF911F910F91BF
S11315C0FF90EF90DF900895F091A200FF93F87FD1
S11315D0F093A200FC01868DFF91F093A200089580
S11315E0CF93DF93EC01F091A200FF93F87FF09387
S11315F0A20089A18F3F09F419A28AA18F3F09F49F
S11316001AA2FF91F093A2008E8D811104C0CE0125
S113161043960E94600FCE010E94F107DF91CF91A3
S11316200895E091822CF091832C808181110CC06B
S11316308FEF9FEFDC0180935B2C90935C2CA09345
S11316405D2CB0935E2C0895E091822CF091832C54
S11316500780F085E02D0084F185E02D828193815F
S1131660A481B58180935B2C90935C2CA0935D2C1A
S1131670B0935E2C08958F929F92AF92BF92CF92B7
S1131680DF92EF92FF92CF936B017C01C42F809085
S1131690652C9090662CA090672CB090682C80915B
S11316A0C62C9091C72C02960E9498058FEFC816FD
S11316B0D806E806F80669F4CC2359F06091C62CE4
S11316C07091C72C6E5F7F4F8AE69CE20E943A05B8
S11316D03FC0C80CD91CEA1CFB1CE091C62CF0913D
S11316E0C72CC282D382E482F582C814D904EA04E6
S11316F0FB0468F46091C62C7091C72C8091802CF7
S11317009091812C6E5F7F4F0E945B0521C0609198
S1131710C62C7091C72C8091822C9091832C6E5F83
S11317207F4F0E945B0580915B2C90915C2CA09173
S11317305D2CB0915E2CC816D906EA06FB0640F46F
S1131740C0925B2CD0925C2CE0925D2CF0925E2CCB
S1131750CF91FF90EF90DF90CF90BF90AF909F908C
S11317608F900895CAE9DCE28881823010F00E94EB
S113177083060E941E14F8CF4F925F926F927F925D
S11317808F929F92AF92BF92CF92DF92EF92FF928D
S11317900F93CF93DF934C016B015A012901CA01C6
S11317A00E94FE043C01892B09F4EAC08CE290E01B
S11317B00E94FE04EC01892BB1F06B8E7C8EA50196
S11317C065EA70E0C3010E94C82021E0A21AB108B2
S11317D08B8D9C8DA80EB91ED6018C918D8F8C910A
S11317E0811105C018C0C3010E942405C9C0AE01FF
S11317F0425E5F4FF6013196B8E0CB0ED11CCF01AB
S11318002191DA012D93AD01DC018C91882319F02B
S1131810EC15FD05A1F71CA2043008F003E00A8FC3
S11318206E01B2E0CB0ED11CC6010E943605CE017A
S11318300E960E943605CA87DB8784E090E0A0E01C
S1131840B0E0801B9109A109B1098E879F87A88BFD
S1131850B98BCE8BDF8B1FA218A619A61AA61BA6BE
S1131860A201B401C5010E94C60588839983E114CD
S1131870F10419F0F701C083D183F091A200FF9322
S1131880F87FF093A2008091692C8F5F8093692C7C
S11318908091C62C9091C72C892BA9F5C093C62C96
S11318A0D093C72C8091692C8130E9F58AE99CE2B8
S11318B00E94250585EA9CE20E94250580EB9CE2B6
S11318C00E9425058BEB9CE20E9425058FE89CE293
S11318D00E94250584E89CE20E94250585E79CE298
S11318E00E9425058AE69CE20E9425058FE89CE279
S11318F08093822C9093832C84E89CE28093802CA8
S11319009093812C10C08091632C81110CC0E091C4
S1131910C62CF091C72C928D8A8D891720F0C09324
S1131920C62CD093C72C80915F2C8F5F80935F2C43
S11319308DA38A8D9091642C981710F48093642C55
S1131940FBE08F9FC0011124B6018656934D0E947F
S11319503A05FF91F093A2008091632C882361F0F3
S1131960E091C62CF091C72C928D8A8D981730F493
S11319700E94830681E005C081E003C081E001C0CC
S11319808FEFDF91CF910F91FF90EF90DF90CF9089
S1131990BF90AF909F908F907F906F905F904F908B
S11319A00895EF92FF920F930F2EF9E5EF2EFCE2CC
S11319B0FF2EF02D00E020E030E048EC50E061E044
S11319C070E282EB9BE00E94BC0B813009F50E941F
S11319D016118130E9F4E0EAF0E08281887F8283A5
S11319E08FEF9FEFDC0180935B2C90935C2CA09392
S11319F05D2CB0935E2C81E08093632C1092652C57
S1131A001092662C1092672C1092682C0E94430648
S1131A100F91FF90EF9008958091582C8F5F8093E1
S1131A20582C0895F091A200FF93F87FF093A20040
S1131A306091652C7091662C8091672C9091682C34
S1131A40FF91F093A2000895AF92BF92CF92DF92DC
S1131A50EF92FF920F931F93CF93DF938091582CB3
S1131A608111ADC0C090652CD090662CE090672C9D
S1131A70F090682C8FEFC81AD80AE80AF80AC092C6
S1131A80652CD092662CE092672CF092682CC114DD
S1131A90D104E104F104B9F48091822C9091832C57
S1131AA02091802C3091812C2093822C3093832C94
S1131AB08093802C9093812C8091602C8F5F8093F5
S1131AC0602C0E94110B80915B2C90915C2CA09156
S1131AD05D2CB0915E2CC816D906EA06FB0610F4FC
S1131AE0B12C5CC0B12C0F2EFBE0AF2EF02DE09199
S1131AF0822CF091832C808181110CC08FEF9FEF99
S1131B00DC0180935B2C90935C2CA0935D2CB093B0
S1131B105E2C44C0E091822CF091832C0780F085E8
S1131B20E02DC085D1858A819B81AC81BD81C81699
S1131B30D906EA06FB0648F480935B2C90935C2C50
S1131B40A0935D2CB0935E2C29C08E010E5F1F4FB5
S1131B50C8010E949805888D998D892B21F0CE01AA
S1131B600E960E9498058A8D9091642C981710F413
S1131B708093642CA89EC0011124B8018656934D0D
S1131B800E943A05E091C62CF091C72C9A8D828D63
S1131B90981708F4ACCFBB24B394A9CFE091C62C1A
S1131BA0F091C72CE28D8BE0E89FF0011124E656FA
S1131BB0F34D8081823048F0BB24B39406C08091F9
S1131BC0622C8F5F8093622CB12C8091612C8823CE
S1131BD011F0BB24B3948B2DDF91CF911F910F9102
S1131BE0FF90EF90DF90CF90BF90AF900895CF9289
S1131BF0DF92EF92FF920F931F93CF93DF93F091B5
S1131C00A200FF93F87FF093A2008091582C81509A
S1131C108093582C8091582C81115CC08091692C40
S1131C2081112CC05AC0D7011796ED91FC911897D9
S1131C30C085D185CE010E960E9498058E010E5F57
S1131C401F4FC8010E9498058A8D9091642C9817A3
S1131C5010F48093642CD89EC0011124B8018656D8
S1131C60934D0E943A05E091C62CF091C72C9A8DB1
S1131C70828D981788F0C092612C0EC0C0E0D0E02D
S1131C800F2EF5E7EF2EFCE2FF2EF02D0F2EFBE0DA
S1131C90DF2EF02DCC24C394F70180818111C3CFB2
S1131CA0CD2B11F00E94110BC091622CCC2351F06A
S1131CB0D1E00E94240D8111D093612CC150C9F749
S1131CC01092622C8091612C882331F00E9483064B
S1131CD081E003C080E001C080E0FF91F093A200A6
S1131CE0DF91CF911F910F91FF90EF90DF90CF90F4
S1131CF00895CF92DF92EF92FF926B017C01672BE4
S1131D00682B692B59F00E940C0D40E0C701B60105
S1131D100E943B0B0E94F70D811102C00E948306B2
S1131D20FF90EF90DF90CF9008958091582C8823F6
S1131D3021F081E08093612C08951092612CE09150
S1131D40C62CF091C72C038CF48DE02D80819181F9
S1131D50A281B381853A954AA54AB54AD9F48481CA
S1131D609581A681B781853A954AA54AB54A91F4E9
S1131D7080859185A285B385853A954AA54AB54A59
S1131D8049F484859585A685B785853A954AA54AFB
S1131D90B54A61F06091C62C7091C72C8091C62C15
S1131DA09091C72C635E7F4F0E945E038091642CE8
S1131DB0282F30E09BE0899FF0011124E656F34D73
S1131DC0908191110EC04BE08150282F30E0429F4A
S1131DD0F001439FF00D1124E656F34D90819923B1
S1131DE099F39BE0929FA001939F500D1124DA0177
S1131DF0A656B34D1196ED91FC9112970480F5818E
S1131E00E02D1196ED93FC9312974356534DE4172E
S1131E10F50729F444815581FD01418352839BE0F8
S1131E20929FF001939FF00D1124E656F34D01802B
S1131E30F281E02D208531852093C62C3093C72C68
S1131E408093642C0895CF92DF92EF92FF926A01FF
S1131E507B016091C62C7091C72C625F7F4F0E94FA
S1131E605B0541E0C701B6010E943B0BFF90EF9078
S1131E70DF90CF900895CF92DF92EF92FF920F936D
S1131E801F9368017901E091C62CF091C72C70680A
S1131E9046875787608B718B6091C62C7091C72CD5
S1131EA0625F7F4F0E943A0541E0C701B6010E947C
S1131EB03B0B1F910F91FF90EF90DF90CF9008950F
S1131EC0CF92DF92EF92FF92CF936A017B01C22FF0
S1131ED06091C62C7091C72C625F7F4F0E943A05B7
S1131EE0CC2321F0CC24CA94DC2C76014C2FC701DE
S1131EF0B6010E943B0BCF91FF90EF90DF90CF9003
S1131F0008950F931F93CF93DF93DC011796ED9100
S1131F10FC911897C085D1858E01025F1F4FC801BF
S1131F200E9498058091582C811116C00C501109FB
S1131F30C8010E9498058A8D9091642C981710F41A
S1131F408093642CBBE08B9FC0011124B80186569A
S1131F50934D0E943A0505C0B80185E79CE20E94B2
S1131F603A05E091C62CF091C72C9A8D828D891781
S1131F7020F481E08093612C01C080E0DF91CF9157
S1131F801F910F9108950F931F93CF93DF93706860
S1131F90FC014083518362837383C085D1850E9491
S1131FA098058E010E5F1F4FC8010E9498058A8D07
S1131FB09091642C981710F48093642CFBE08F9F0D
S1131FC0C0011124B8018656934D0E943A05E09150
S1131FD0C62CF091C72C9A8D828D891718F481E054
S1131FE08093612CDF91CF911F910F9108952091DF
S1131FF0602CFC0120834091652C5091662C6091EB
S1132000672C7091682C4183528363837483089591
S1132010CF92DF92EF92FF920F931F93CF93DF93B0
S1132020DB01F091A200FF93F87FF093A2004091AE
S1132030652C5091662C6091672C7091682C0D91E1
S11320401D912D913C9113970F3FCFEF1C072C0747
S11320503C0769F1FC01C180D280E380F480E09107
S1132060602CEC01F881FE1729F04C155D056E0516
S11320707F05F8F44C195D096E097F094017510773
S11320806207730768F4FD01041B150B260B370B5D
S113209000831183228333830E94F70F80E00AC0F8
S11320A01D921D921D921C92139781E003C080E043
S11320B001C081E0FF91F093A200DF91CF911F91C5
S11320C00F91FF90EF90DF90CF90089581E080937F
S11320D0612C08958091632C882331F08091582CD1
S11320E0882321F080E0089581E0089582E0089536
S11320F0CF92DF92EF92FF92E091C62CF091C72C21
S11321006685778580899189E091C62CF091C72CEA
S1132110A091C62CB091C72C5A962C91C12CD12CCD
S113212076016894C2F8C21AD108E108F108C6869B
S1132130D786E08AF18AFF90EF90DF90CF900895E0
S1132140CF92DF92EF92FF920F931F93FC01428391
S1132150538364837583828793870417150726073F
S11321603707C0F00C191D092E093F09868597858C
S1132170A089B189081719072A073B0700F5BF0191
S11321806E5F7F4F8091D02C9091D12C0E945B0583
S113219080E018C00C151D052E053F0528F44C15CC
S11321A05D056E057F0568F4BF016E5F7F4F80910A
S11321B0D22C9091D32C0E945B0580E003C081E077
S11321C001C081E01F910F91FF90EF90DF90CF90BD
S11321D00895F091A200FF93F87FF093A2008091FC
S11321E0CE2C9091CF2C892BE9F48FED9CE20E94A8
S11321F0250584ED9CE20E9425058FED9CE28093E9
S1132200D22C9093D32C84ED9CE28093D02C909389
S1132210D12C40E069E085E00E9488088093CE2CB0
S11322209093CF2CFF91F093A2000895EF92FF9228
S11322300F930E94E9108091CE2C9091CF2C892B82
S113224091F00F2EFCECEF2EFCE2FF2EF02D03E0BC
S113225020E030E048EC50E066E070E289E292E190
S11322600E94BC0B01C080E00F91FF90EF90089595
S11322708F929F92AF92BF92CF92DF92EF92FF9292
S11322800F931F93CF93DF93CDB7DEB72997CDBFBD
S1132290DEBFE091CE2CF091CF2C309789F1698389
S11322A02A833B834C835D838E839F836630FCF457
S11322B00E946A10823069F400E0A7019601BE0111
S11322C06F5F7F4F8091CE2C9091CF2C0E94B908E4
S11322D018C000E020E030E0A901BE016F5F7F4F2D
S11322E08091CE2C9091CF2C0E94B9080AC020E096
S11322F0A801BE016F5F7F4FCF010E945F0901C03B
S113230080E02996CDBFDEBFDF91CF911F910F9161
S1132310FF90EF90DF90CF90BF90AF909F908F9001
S113232008952F923F924F925F926F927F928F9275
S11323309F92AF92BF92CF92DF92EF92FF920F9350
S11323401F93CF93DF931C010E94120D2B013C01BC
S11323508091C82C9091C92CA091CA2CB091CB2CFF
S1132360481659066A067B0608F054C03CC007802C
S1132370F085E02D80809180A280B380C085D185D6
S11323808E010E5F1F4FC8010E949805ED89FE89DA
S1132390CE0119958A89813031F58E859F85A8896A
S11323A0B989880D991DAA1DBB1D88169906AA0610
S11323B0BB0670F48A839B83AC83BD83CA87DB87A7
S11323C0B8018091D22C9091D32C0E945B050BC054
S11323D0C12CD12C760100E010E0A501940160E04D
S11323E0CE010E943811E091D22CF091D32C80813F
S11323F08111BDCF8091D02C9091D12C8093D22C7F
S11324009093D32CE093D02CF093D12C81E0F10164
S1132410808302C0F10110824092C82C5092C92CD2
S11324206092CA2C7092CB2CC301B201DF91CF9180
S11324301F910F91FF90EF90DF90CF90BF90AF90DE
S11324409F908F907F906F905F904F903F902F90D0
S11324500895CF93DF93CDB7DEB72E97CDBFDEBF00
S1132460CE0101961C01A82EB32CE091D22CF09140
S1132470D32C8081882309F403C10780F085E02DE3
S113248040805180628073800E940C0DC1010E94C3
S113249091116B877C878D879E87898181115EC0AE
S11324A08B859C85AD85BE8584159505A605B705E8
S11324B0E8F10E94F70DE091D22CF091D32C078023
S11324C0F085E02D80849184C40102960E949805D1
S11324D0D40152968C915297813001F51E964D91FC
S11324E05D916D917C915197440D551D661D771D2D
S11324F0730162010B851C852D853E85C4010E94F4
S1132500A010882359F0C12CD12C760100E010E0F2
S1132510A301920160E0C4010E943811D4015596D0
S1132520ED91FC915697C40119959CC020E0B3012C
S1132530A2018B859C85AD85BE85481B590B6A0B12
S11325407B0B8091CE2C9091CF2C0E94F00A0E949C
S1132550F70D811187C00E94830684C00E94F70D85
S113256081C0898188236CF44E815F816885798577
S1132570EA81FB818C819D811995898188230CF4E2
S113258071C08E809F80D4011C968D919C911D9763
S1132590892B21F0C40102960E949805CE010A9667
S11325A00E9491118B019C018981082E000C990BCA
S11325B0AA0BBB0B8A30910508F054C0FC01882794
S11325C0E250FF4F8F4F0C94A320CA80DB80EC8035
S11325D0FD80F40146855785608971894C0D5D1D28
S11325E06E1D7F1DC4010E94A0108823D9F1D4015F
S11325F05596ED91FC915697C4011995F401828981
S1132600813081F54A815B816C817D8186859785E6
S1132610A089B1899A01AB01280F391F4A1F5B1F9A
S1132620C12CD12C760100E010E060E0C4010E94CE
S1132630381118C04A815B816C817D81D4011E965A
S11326404D935D936D937C935197400F511F621F7F
S1132650731F68017901C4010E94A01003C0C40162
S11326600E94240520E030E0A9016A2D7B2D809191
S1132670CE2C9091CF2C0E94A409811172CFF5CE5B
S11326800E940C0DC1010E9491116B877C878D877C
S11326909E878981811162CFE091D02CF091D12C59
S11326A0808121E0811120E0412C512C32013FCF67
S11326B00F931F93CF93DF93CDB7DEB72997CDBF89
S11326C0DEBFEEEFE9838A839B836C837D832E8355
S11326D03F834887598720E0A801BE016F5F7F4F81
S11326E08091CE2C9091CF2C0E945F092996CDBF6A
S11326F0DEBFDF91CF911F910F910895E0E5F0E0E7
S1132700808181608083818180FFFDCF80E00E9491
S113271030038EE10E94200360E080E00E942A03DF
S113272043E060E080E40E941103E0E5F0E0808192
S113273088608083818183FFFDCF64E080EC0E9408
S11327401B03E0E5F0E080818061808360E080E04D
S11327500E942A03E0E5F0E0818184FFFDCF84E05C
S11327600E94300387E00E9420030895E0E8F6E029
S113277088E08183848300E816E0C8E0F801C78319
S113278064E670E080E090E00E94790EF7CF0F2EAF
S1132790FEE0EF2EF0E2FF2EF02D0F2EFCECAF2E1C
S11327A0F0E3BF2EF02D0F2EFCE0CF2EF1E3DF2E51
S11327B0F02D0EE110E288248394CAE2D0E26894FA
S11327C0992491F80E944317FF92EF921F921F924F
S11327D01F921F920E944E17F5019181F60181818B
S11327E01F929F931F928F931F930F931F921F9279
S11327F01F928F920E944E178091D4318F938091B3
S1132800D3318F938091D8318F938091D7318F9327
S1132810DF93CF931F921F921F929F920E944E1795
S11328200E94D10C64E670E080E090E00E94790E92
S1132830EDB7FEB77A96EDBFFEBFC4CF0895EF9211
S1132840FF920F93CF930E942B1EC82F0E947E13DA
S11328500E94C7150F2EFDECEF2EF1E3FF2EF02D95
S113286001E020E030E042ED50E067E370E286EB07
S113287093E10E94BC0B0F2EF1EDEF2EF1E3FF2E3E
S1132880F02D20E030E04CE251E060E470E287E3B8
S11328909CE10E94BC0B0F2EFFECEF2EF1E3FF2E08
S11328A0F02D20E030E042ED50E06BE470E281EF87
S11328B09AE10E94BC0B0F2EF9E5EF2EF2E3FF2EF6
S11328C0F02D20E030E042ED50E068E570E287EC66
S11328D093E10E94BC0B0F2EFBE5EF2EF2E3FF2EDB
S11328E0F02D20E030E04CE251E060E670E286E456
S11328F092E00E94BC0B0E94610380934E2E909341
S11329004F2E0E9461038093D5319093D6310E945B
S11329106D010E9443178EE090E29F938F931F9264
S11329201F921F921F920E944E178BE690E29F9374
S11329308F931F921F921F9281E08F930E944E17D4
S113294088E790E29F938F931F921F921F9282E0D9
S11329508F930E944E171F92CF9381E890E29F932A
S11329608F931F921F921F9283E08F930E944E17A2
S11329700E94D10C8DB79EB74A968DBF9EBF80E052
S113298090E0CF910F91FF90EF9008951F920F92D6
S11329900FB60F9211240BB60F922F933F934F93C0
S11329A05F936F937F938F939F93AF93BF93EF93B3
S11329B0FF93CF93DF931F92CDB7DEB719829E01A9
S11329C02F5F3F4F41E050E060E070E080915F3264
S11329D0909160320E94F10460E080E09BE00E94EC
S11329E045031092060B0F90DF91CF91FF91EF9169
S11329F0BF91AF919F918F917F916F915F914F9113
S1132A003F912F910F900BBE0F900FBE0F901F9010
S1132A101895CF92DF92EF92FF920F936B017C0196
S1132A2082E0C816D104E104F10408F44EC0E0E0E9
S1132A30FBE081E0868310A211A260E080E09BE0CD
S1132A400E944B038EEFC8168FEFD806E104F10401
S1132A5070F4F694E794D794C794C092260BD0925E
S1132A60270B65E080E09BE00E94450319C080E4E9
S1132A70C81682E4D8068FE0E806F10488F4689466
S1132A8014F8F694E794D794C7941694D1F7C092A7
S1132A90260BD092270B67E080E09BE00E94450361
S1132AA00F2EF4EFCF2EDD24D394E12CF12CF02D56
S1132AB000E021E041E050E060E070E080915F32AE
S1132AC0909160320E94760311C0E0E0FBE081E067
S1132AD0868310A211A260E080E09BE00E944B0379
S1132AE0C12CD12C76016894C1F8B3CF0F91FF901B
S1132AF0EF90DF90CF9008958295807FE0E0F6E03C
S1132B009481282F2F60922394839481892B84832A
S1132B1008951F93CF93DF93C0E6D6E014E01D839E
S1132B2061E070E080E090E00E9409151E83DF916F
S1132B30CF911F910895CF93C82F82958F700E94D3
S1132B407C15E0E6F6E081E0868382E086830E94DD
S1132B5089158C2F8F700E947C150E948915CF9146
S1132B600895CF93C82F82958F700E947C15E0E65C
S1132B70F6E081E0858382E086830E9489158C2FAC
S1132B808F700E947C150E948915CF910895EF9251
S1132B90FF920F93E0E0F6E080E1818380E281839D
S1132BA080E4818380E88183A0E6B6E081E0119629
S1132BB08C93119782E011968C93119784E011966F
S1132BC08C93119784818F70848314968C911497BD
S1132BD0887F14968C9340E066E188E00E94880820
S1132BE080935D3290935E320E94610380935F32E2
S1132BF090936032E12CF12C01E020E030E04EE5CE
S1132C0051E061E970E285E696E10E94BC0B0F9108
S1132C10FF90EF9008958130910579F01CF4892B91
S1132C2039F019C08230910569F0039781F013C01F
S1132C3080E8860F0E949B150EC080EC860F0E94D0
S1132C409B1509C084E9860F0E949B1504C084ED7E
S1132C50860F0E949B1567E270E080E090E00E947E
S1132C60091508950E94B1156BE270E080E090E0D0
S1132C700E94091508950F931F93CF93DF93FC01CE
S1132C80808181110AC011C08991882371F00E944A
S1132C9032160C171D07C1F708C08F010E943216A7
S1132CA0E80121960C5E1F4FEFCFDF91CF911F916A
S1132CB00F910895CF93DF93EA010E940B16CE0182
S1132CC00E943B16DF91CF910895CF93DF93CDB748
S1132CD0DEB7C656D109CDBFDEBF5E0141E5A40E05
S1132CE0B11CFE01319620E208C02193E817F907D0
S1132CF0E1F7FC01A816B90619F0CF014496F5CF07
S1132D0060E47CE980E090E00E94091583E00E9481
S1132D107C1568E873E180E090E00E9409150E9448
S1132D20891560EA70E080E090E00E9409150E9435
S1132D30891560EA70E080E090E00E9409150E9425
S1132D40891560EA70E080E090E00E94091582E055
S1132D500E947C150E94891588E20E949B1580E1DF
S1132D600E949B158CE00E949B1586E00E949B1597
S1132D7010E26E0151E5C50ED11C0F2EF4E14F2E69
S1132D80F02D0F2EF6E18F2E912CF02D5C2C0D2DB5
S1132D9068EC70E080E090E00E94790E40E050E042
S1132DA0BA0180915F32909160320E943B04672B9C
S1132DB0682B692B09F449C042E050E060E070E000
S1132DC080915F32909160320E943B04FE01319603
S1132DD008C01193E817F907E1F7FC018A159B0570
S1132DE0A1F1CF014496F5CF2FEF3FEFA901652D57
S1132DF0702F80915D3290915E320E94A4098823E5
S1132E0021F1F6012181822F90E04497F4F482812C
S1132E108823D9F0908130E0D901499EA00DB11DDD
S1132E20112441E050E04C0F5D1FA40FB51F3396F1
S1132E30A401421B530B9A012C0D3D1D8D93E217E7
S1132E40F30719F081918111F9CF80915D3290914E
S1132E505E320E94E40A8111C7CFCE0101967C0143
S1132E60612C712CA70160E070E0C3010E945A1626
S1132E709FEF691A790AE4E1EE0EF11CF4E06F1693
S1132E80710481F785CF42E050E060E070E080910A
S1132E905F32909160320E945C0408952F923F92B9
S1132EA04F925F926F927F928F929F92AF92BF9256
S1132EB0CF92DF92EF92FF920F931F93CF93DF9302
S1132EC0CDB7DEB76D97CDBFDEBF2BA92B8FAFA9D2
S1132ED0B8AD7E0139E3E30EF11C22E13DE2EEEFF1
S1132EE0FCE21192E217F307E1F70F2EFAEEAF2E90
S1132EF0FCE2BF2EF02D2EEF3CE2F5011192E21719
S1132F00F307E1F7812C912C0F2EFEEFCF2EFCE27C
S1132F10DF2EF02DFCC2853209F0E8C22D0182E0DB
S1132F20480E511C11968C91853609F4DBC138F496
S1132F308336C1F008F048C0853251F0E7C28337C8
S1132F40F9F0883709F468C0863609F0DFC28CC00E
S1132F50F401E651F34D95E29083AFEF8A1A9A0A91
S1132F60D201D5C2F401E651F34DD7018C9180838F
S1132F70BFEF8B1A9B0AF70132967F01D201C7C2B9
S1132F80A7014E5F5F4FD7018D919C919C01B401C5
S1132F90F401E651F34D00E010E006C0D901FD90C4
S1132FA09D01F1920F5F1F4FDC010D900020E9F7A6
S1132FB01197A81BB90B0A171B0780F34D01860E46
S1132FC0971E7A01D201A3C287010E5F1F4F4AE008
S1132FD0B601F701808191810E94CF209401D40130
S1132FE0A651B34D4EEF5CE280E090E005C0FA01DB
S1132FF06191AF016D930196F60101900020E9F70C
S11330003197EE5FFC428E179F0788F34F01820EC3
S1133010931E7801D2017BC287010E5F1F4F40E1EE
S1133020B601D7018D919C910E94CF209401F401A7
S1133030E651F34D4EEF5CE280E090E005C0DA012A
S11330406D91AD0161930196D6010D900020E9F7D1
S11330501197AE5FBC428A179B0788F34D01820E1D
S1133060931E7801D20153C21701B4E02B0E311C18
S1133070D7018D919D910D90BC91A02D8F8B988F30
S1133080A98FBA8F20E030E0A901BC01CD010E94D4
S1133090BE1E811105C020E3F6012083118204C104
S11330A020E030E0A9016F89788D898D9A8D0E9486
S11330B0BE1E88239CF4EDE2D601EC938F89988D93
S11330C0A98DBA8DB0588F8B988FA98FBA8F0F2E78
S11330D0FFEF6F2EFCE27F2EF02D01C0360120E0C1
S11330E030E040E85FE36F89788D898D9A8D0E9486
S11330F01D2088230CF444C200E010E020E030E0FE
S113310040E251E46F89788D898D9A8D0E94C31EA7
S11331106F8B788F898F9A8F0F5F1F4F20E030E07D
S113312040E85FE30E941D20882344F72DEC3CEC2B
S11331304CEC5DE36F89788D898D9A8D0E94BE1E5B
S113314088231CF01AC000E010E020E030E040E2E8
S113315051E46F89788D898D9A8D0E9422206F8B1E
S1133160788F898F9A8F015011092DEC3CEC4CEC2F
S11331705DE30E94BE1E882344F310161106ACF5CD
S11331807301D301A00FB11FAC8FBD8F3D016F89B7
S1133190788D898D9A8D20E030E040E251E40E94E0
S11331A022206F8B788F898F9A8F0E94351F20E39E
S11331B0260FF70121937F01072E000C880B990B32
S11331C00E946D1F9B01AC016F89788D898D9A8D4A
S11331D00E94511EE614F704F1F66F8B788F898FE5
S11331E09A8F0115110589F4DBC1C801E0E3D3010D
S11331F0EC937301F2E0EF0EF11C2EE211962C9386
S113320099236CF000E010E01FC0EC8CFD8C3FEFC4
S1133210E31AF30AEEE2AC8DBD8DEC9312C000E02C
S113322010E0FFEFEF1AFF0AF701319720E3208344
S113323001970F5F1F4F992324F4043011058CF379
S113324031C00430110574F5370184E090E0801B2F
S1133250910BE80EF91E87016F89788D898D9A8DFF
S113326020E030E040E251E40E9422206F8B788F0E
S1133270898F9A8F0E94351F20E3260FD3012D9347
S11332803D01072E000C880B990B0E946D1F9B01BA
S1133290AC016F89788D898D9A8D0E94511E6016BC
S11332A07106F1F6F70110829401F401E651F34D31
S11332B04EEF5CE280E090E005C0DA016D91AD0173
S11332C061930196D6010D900020E9F71197AE5F46
S11332D0BC428A179B0788F34D01820E931E71012D
S11332E0D20115C11701B4E02B0E311CD7018D9109
S11332F09D910D90BC91A02D8F8B988FA98FBA8F23
S113330020E030E0A901BC01CD010E94BE1E811164
S113331005C020E3F60120831182CAC020E030E01A
S1133320A9016F89788D898D9A8D0E94BE1E88238C
S11333309CF4EDE2D601EC938F89988DA98DBA8D1A
S1133340B0588F8B988FA98FBA8F0F2EFFEF6F2EE7
S1133350FCE27F2EF02D01C0360120E030E040E891
S11333605FE36F89788D898D9A8D0E941D20882353
S1133370DCF000E010E020E030E040E251E46F894E
S1133380788D898D9A8D0E94C31E6F8B788F898F5B
S11333909A8F0F5F1F4F20E030E040E85FE30E9408
S11333A01D20882344F702C000E010E02DEC3CEC23
S11333B04CEC5DE36F89788D898D9A8D0E94BE1ED9
S11333C08823C4F420E030E040E251E46F89788D32
S11333D0898D9A8D0E9422206F8B788F898F9A8F86
S11333E0015011092DEC3CEC4CEC5DE30E94BE1E37
S11333F0882344F320E030E040E251E46F89788D83
S1133400898D9A8D0E9422206F8B788F898F9A8F55
S11334100E94351F20E3260FD3012C93072E000CA6
S1133420880B990B0E946D1F9B01AC016F89788DED
S1133430898D9A8D0E94511EF8013197EC8FFD8F72
S1133440EEE2D3011196EC9383010E5F1F4F7301DB
S1133450F6E0EF0EF11C20E030E040E251E40E947F
S113346022206F8B788F898F9A8F0E94351F20E3DB
S1133470260FD8012D938D01072E000C880B990B74
S11334800E946D1F9B01AC016F89788D898D9A8D87
S11334900E94511E0E151F05F1F625E6F301268341
S11334A0B301695F7F4F4AE08C8D9D8D0E94CF20D0
S11334B09401F401E651F34D4EEF5CE280E090E0BC
S11334C005C0DA016D91AD0161930196D6010D90AD
S11334D00020E9F71197AE5FBC428A179B0788F377
S11334E04D01820E931E7101D20111C08A3029F060
S11334F0F401E651F34D808304C0F401E651F34D29
S113350010821196EFEF8E1A9E0A01C0D2018C919F
S1133510811101CD8DA99EA9880D991D44973CF078
S113352084E190E04C012DA93EA9821A930AFE0180
S11335303396CE014796DF011D92A817B907E1F72C
S11335403B8D39838DA98A83181419045CF4CE0148
S1133550880D991D0396D5012D915D0121938E1738
S11335609F07C9F700E02FEF3FEFA901BE016F5F8E
S11335707F4F80915D3290915E320E94B9081BC0EA
S11335802DEC3CEC4CEC5DE36F89788D898D9A8D44
S11335900E94BE1E88230CF4D6CD80E090E026CE97
S11335A020E3EC8DFD8D20837F0132E0E30EF11CDE
S11335B08EE2818346CE6D96CDBFDEBFDF91CF9183
S11335C01F910F91FF90EF90DF90CF90BF90AF903D
S11335D09F908F907F906F905F904F903F902F902F
S11335E00895CF93DF93CDB7DEB7C054D109CDBFD3
S11335F0DEBF212C312CA12CB12C0F2EF9E18F2E02
S1133600F2E39F2EF02D0F2EFAE16F2EFDE27F2EB6
S1133610F02D0F2EFAE34F2EFDE25F2EF02DCC2479
S1133620CA94DC2C760100E021E043E050E060E045
S113363070E08091D5319091D6310E947603637009
S11336407727672B09F4F3C0A9EDB1E3ED90FC9063
S11336509701220F331F220F331FADE4B1E3ED9125
S1133660FC91CF01880F991F880F991F63E070E0C8
S11336700E948F20A7014E0F5F1F7B01E21AF30AFD
S1133680F901E61BF70BBF01E9EDF1E3DE01119649
S1133690219131918FEFA81AB80A4A9DC0014B9D20
S11336A0900D5A9D900D1124821B930B8D939D9325
S11336B095E0A916B10411F4A12CB12CE815F90573
S11336C039F7A2E0EA16F1040CF4B8C062307105CF
S11336D00CF0ADC04FEF5FEFBA0180916132909171
S11336E062320E944A0A81112DC0B5C021913191E4
S11336F0B901625071096830710588F06850710928
S11337006530710570F0655071096430710558F0C9
S1133710235131092530310538F413E005C010E098
S113372003C011E001C012E0880F880F912F93703D
S1133730892B4E175F07D1F68D93FA014A165B0663
S113374061F410C0A2E3BDE2F101EE0FFF1F81E0BE
S113375090E08C0F9D1FE80FF91FAF01485F5F4F8A
S113376080E0C4CF90E2290E311C00E020E030E07C
S1133770A90160E070E080916132909162320E9410
S1133780B9084FEF5FEFBA018091633290916432D0
S11337900E944A0A81112DC04AC021913191B90178
S11337A0625071096830710588F06850710965309C
S11337B0710570F0655071096430710558F023513A
S11337C031092430310538F413E005C010E003C09A
S11337D011E001C012E0880F880F912F9370892B9C
S11337E04E175F07D1F68D93FA016A167B0661F4D2
S11337F010C0A2E1BDE2F101EE0FFF1F81E090E0F5
S11338008C0F9D1FE80FF91FAF01485F5F4F80E0E9
S1133810C4CF00E020E030E0A90160E070E08091D6
S11338206332909164320E94B908212C312C64E6F1
S113383070E080E090E00E94790EF1CE4FEF5FEFF0
S1133840BA0180916132909162320E944A0A8823BF
S113385009F497CF77CF4FEF5FEFBA0180916332CE
S1133860909164320E944A0A8111C3CFE0CFCF9372
S1133870DF93CDB7DEB72897CDBFDEBF8FE790E0EB
S11338808093D7319093D8318093D3319093D431AE
S11338901B821C821D821E82A12CB12C412C512C16
S11338A02982232C312ECC24CA94DC2C760100E00E
S11338B021E043E050E060E070E080914E2E909172
S11338C04F2E0E94760360FFDFC080910020882382
S11338D009F4BAC100E010E090E2491651046CF01A
S11338E041E050E060E070E08091D5319091D631B4
S11338F00E945C04412C512CBDC0F801E45FFE4CD5
S1133900808188230CF05EC0F801E45FFE4C808166
S113391090E02091D7313091D83128173907C4F479
S1133920F801E45FFE4C80818D3D08F4A3C0F801EA
S1133930E45FFE4C808190E08093D7319093D8313E
S11339400A831983812C912C66246394712C92C070
S1133950F801E45FFE4C80818B3A30F08F819885CA
S113396001968F83988786C0F801E45FFE4C8081BE
S11339708A3A08F07FC091E06916710409F07AC0B0
S11339808F81988503970CF475C0ED81FE81EE0F4D
S1133990FF1FE752FE4C9A819083898181838D8138
S11339A09E8101968D839E839FEF491A590A8FE762
S11339B090E08093D7319093D831612C712C1F8281
S11339C0188658C0F801E45FFE4C808190E0209195
S11339D0D3313091D43182179307C4F4F801E45FF2
S11339E0FE4C8081883208F045C0F801E45FFE4C4B
S11339F0808190E08093D3319093D431302E212E66
S1133A0088248394912C612C712C34C0F801E45FD8
S1133A10FE4C8081853530F48F81988501968F83A3
S1133A20988728C0F801E45FFE4C8081893510F145
S1133A3091E089169104F1F48F8198850397D4F06D
S1133A40EB81FC81EE0FFF1FE35BFE4C3082218291
S1133A508B819C8101968B839C839FEF491A590A21
S1133A608FE790E08093D3319093D431812C912CC3
S1133A701F8218860F5F1F4F8091002090E0081767
S1133A8019070CF429CFE0C061FFDEC0809100204B
S1133A90882309F4D9C000E010E090E2A916B1042B
S1133AA06CF042E050E060E070E08091D53190919C
S1133AB0D6310E945C04A12CB12CBDC0F801E453A2
S1133AC0FF4C808188230CF05EC0F801E453FF4C66
S1133AD0808190E02091D7313091D831281739076F
S1133AE0C4F4F801E453FF4C80818D3D08F4A3C075
S1133AF0F801E453FF4C808190E08093D731909398
S1133B00D8310A831983812C912C66246394712CF7
S1133B1092C0F801E453FF4C80818B3A30F08F81DE
S1133B20988501968F83988786C0F801E453FF4CEB
S1133B3080818A3A08F07FC091E06916710409F027
S1133B407AC08F81988503970CF475C0ED81FE814E
S1133B50EE0FFF1FE752FE4C9A8190838981818387
S1133B608D819E8101968D839E839FEFA91AB90A48
S1133B708FE790E08093D7319093D831612C712CEA
S1133B801F82188658C0F801E453FF4C808190E0EE
S1133B902091D3313091D43182179307C4F4F801C2
S1133BA0E453FF4C8081883208F045C0F801E453A7
S1133BB0FF4C808190E08093D3319093D431302EA8
S1133BC0212E88248394912C612C712C34C0F8010B
S1133BD0E453FF4C8081883530F48F8198850196B9
S1133BE08F83988728C0F801E453FF4C8081863581
S1133BF010F191E089169104F1F48F81988503976F
S1133C00D4F0EB81FC81EE0FFF1FE35BFE4C3082AE
S1133C1021828B819C8101968B839C839FEFA91ABF
S1133C20B90A8FE790E08093D3319093D431812CFB
S1133C30912C1F8218860F5F1F4F8091002090E007
S1133C40081719070CF429CF64E670E080E090E0CF
S1133C500E94790E28CE8091780085FF05C080E20D
S1133C608093780081E008958091780080FF05C0FA
S1133C7081E08093780082E008958091780084FF49
S1133C8005C080E18093780083E0089580917800F6
S1133C9081FF05C082E08093780084E0089582E08B
S1133CA008955058BB27AA270E94691E0C94E31F4D
S1133CB00E94D51F38F00E94DC1F20F039F49F3F8A
S1133CC019F426F40C94D21F0EF4E095E7FB0C943F
S1133CD0CC1FE92F0E94F41F58F3BA176207730729
S1133CE08407950720F079F4A6F50C9416200EF4B9
S1133CF0E0950B2EBA2FA02D0B01B90190010C01F8
S1133D00CA01A0011124FF27591B99F0593F50F40F
S1133D10503E68F11A16F040A22F232F342F442767
S1133D20585FF3CF469537952795A795F04053955F
S1133D30C9F77EF41F16BA0B620B730B840BBAF02F
S1133D409150A1F0FF0FBB1F661F771F881FC2F79A
S1133D500EC0BA0F621F731F841F48F487957795AE
S1133D606795B795F7959E3F08F0B0CF9395880F68
S1133D7008F09927EE0F9795879508950E94A81F3C
S1133D8008F481E008950E94D71E0C94E31F0E945A
S1133D90DC1F58F00E94D51F40F029F45F3F29F042
S1133DA00C94CC1F51110C9417200C94D21F0E9418
S1133DB0F41F68F39923B1F3552391F3951B550B25
S1133DC0BB27AA2762177307840738F09F5F5F4FEA
S1133DD0220F331F441FAA1FA9F335D00E2E3AF029
S1133DE0E0E832D091505040E695001CCAF72BD041
S1133DF0FE2F29D0660F771F881FBB1F2617370792
S1133E004807AB07B0E809F0BB0B802DBF01FF27C3
S1133E1093585F4F3AF09E3F510578F00C94CC1FB5
S1133E200C9417205F3FE4F3983ED4F3869577957E
S1133E306795B795F7959F5FC9F7880F911D96957C
S1133E40879597F90895E1E0660F771F881FBB1FD8
S1133E50621773078407BA0720F0621B730B840B85
S1133E60BA0BEE1F88F7E09508950E943C1F6894F2
S1133E70B1110C94172008950E94FC1F88F09F57DD
S1133E8098F0B92F9927B751B0F0E1F0660F771F7A
S1133E90881F991F1AF0BA95C9F714C0B13091F070
S1133EA00E941620B1E008950C941620672F782FF5
S1133EB08827B85F39F0B93FCCF386957795679535
S1133EC0B395D9F73EF490958095709561957F4FA1
S1133ED08F4F9F4F0895E89409C097FB3EF4909547
S1133EE08095709561957F4F8F4F9F4F9923A9F0CF
S1133EF0F92F96E9BB279395F6958795779567955E
S1133F00B795F111F8CFFAF4BB0F11F460FF1BC0A1
S1133F106F5F7F4F8F4F9F4F16C0882311F096E934
S1133F2011C0772321F09EE8872F762F05C06623E2
S1133F3071F096E8862F70E060E02AF09A95660F9B
S1133F40771F881FDAF7880F9695879597F9089554
S1133F50990F0008550FAA0BE0E8FEEF1616170696
S1133F60E807F907C0F012161306E407F50798F0FE
S1133F70621B730B840B950B39F40A2661F0232B17
S1133F80242B252B21F408950A2609F4A140A69593
S1133F908FEF811D811D089597F99F6780E870E078
S1133FA060E008959FEF80EC089500240A941616AB
S1133FB0170618060906089500240A941216130613
S1133FC0140605060895092E0394000C11F48823A1
S1133FD052F0BB0F40F4BF2B11F460FF04C06F5FBD
S1133FE07F4F8F4F9F4F089557FD9058440F551F93
S1133FF059F05F3F71F04795880F97FB991F61F067
S11340009F3F79F087950895121613061406551FDD
S1134010F2CF4695F1DF08C0161617061806991F49
S1134020F1CF86957105610508940895E894BB273E
S113403066277727CB0197F908950E94A81F08F4F3
S11340408FEF08950E9435200C94E31F0E94D51F22
S113405038F00E94DC1F20F0952311F00C94CC1F43
S11340600C94D21F11240C9417200E94F41F70F397
S1134070959FC1F3950F50E0551F629FF001729F09
S1134080BB27F00DB11D639FAA27F00DB11DAA1F18
S1134090649F6627B00DA11D661F829F2227B00D65
S11340A0A11D621F739FB00DA11D621F839FA00DF0
S11340B0611D221F749F3327A00D611D231F849F40
S11340C0600D211D822F762F6A2F11249F57504097
S11340D09AF0F1F088234AF0EE0FFF1FBB1F661F12
S11340E0771F881F91505040A9F79E3F510580F0DB
S11340F00C94CC1F0C9417205F3FE4F3983ED4F348
S1134100869577956795B795F795E7959F5FC1F77E
S1134110FE2B880F911D9695879597F9089597FB27
S1134120072E16F4009407D077FD09D00E94AB2027
S113413007FC05D03EF4909581959F4F08957095A6
S113414061957F4F0895EE0FFF1F881F8BBF079067
S1134150F691E02D1994AA1BBB1B51E107C0AA1FBD
S1134160BB1FA617B70710F0A61BB70B881F991F14
S11341705A95A9F780959095BC01CD010895FB014E
S1134180DC0102C001900D9241505040D8F70895CF
S1134190DC0101C06D9341505040E0F70895BB2706
S11341A04A3031F4992322F4BDE2909581959F4FD2
S11341B00C94DB20BB27FB015527AA27880F991FE6
S11341C0AA1FA41710F0A41B83955051B9F7A05D42
S11341D0AA3308F0A95DA193009779F7B111B193BF
S11341E01192CB010C94F420DC01FC01672F719136
S11341F07723E1F7329704C07C916D9370836291C9
S10F4200AE17BF07C8F30895F894FFCF71
S113420C4049444C4500546D722053766300467209
S113421C656552544F532031302E302E3100613AA3
S113422C20256420623A20256400483A2025642025
S113423C4C3A20256420006C6564426C696E6B00FA
S113424C726561645F5065616B730070686173655E
S113425C5F64657465637400646973706C61790080
S113426C646D6148616E646C657200454455426FBF
S113427C61726420312E300054656D706C6174650C
S113428C005265736574526561736F6E3A202564D0
S10F429C006469737055706461746500FF
S9030000FC
