:100000000C9420010C9449010C9449010C94490171
:100010000C9449010C9449010C94B7010C94FD0116
:100020000C9449010C9449010C9449010C94490128
:100030000C9449010C9449010C944A060C94490112
:100040000C9449010C9449010C9449010C94490108
:100050000C9449010C9449010C9449010C944901F8
:100060000C9449010C9449010C9449010C944901E8
:100070000C9449010C9449010C9449010C944901D8
:100080000C9449010C9449010C9449010C944901C8
:100090000C9449010C9449010C9449010C944901B8
:1000A0000C9449010C9449010C9449010C944901A8
:1000B0000C9449010C9449010C9449010C94490198
:1000C0000C9449010C9449010C9449010C94490188
:1000D0000C9449010C9449010C9449010C94490178
:1000E0000C9449010C9449010C9449010C94490168
:1000F0000C9449010C9449010C9449010C94490158
:100100000C9449010C9449010C9449010C94490147
:100110000C9449010C9449010C9449010C94490137
:100120000C9449010C9449010C9449010C94490127
:100130000C9449010C9449010C9449010C94490117
:100140000C9449010C9449010C9449010C94490107
:100150000C9449010C9449010C9449010C944901F7
:100160000C9449010C9449010C9449010C944901E7
:100170000C9449010C9449010C9449010C944901D7
:100180000C9449010C9449010C9449010C944901C7
:100190000C9449010C9449010C9449010C944901B7
:1001A0000C9449010C9449010C9449010C944901A7
:1001B0000C945C140C9449010C9449010C94490171
:1001C0000C9449010C9449010C9449010C94490187
:1001D0000C9449010C9449010C9449010C94490177
:1001E0000C9449010C9449010C9449010C94490167
:1001F0000C9449010C9449010C94490192119211FB
:100200009211DF11C711DC1192119211DF11C71188
:100210000C94DF110C9463120C94D8120C943504D6
:100220000C945F0A0C9492110C94D6100C94DC116F
:100230000C94871A0C94FB150C94C7110C946F1234
:1002400011241FBECFEFCDBFDFE3DEBF00E00CBF48
:10025000E1E1FFE38AEA90E48193E030F907E0F31B
:1002600010E2A0E0B0E2E6EEFBE300E00BBF02C06C
:1002700007900D92A438B107D9F72FE3A4E8B0E2B4
:1002800001C01D92A131B207E1F70E94CB130C947B
:10029000F11D0C940000E0E4F2E08181817E8C602D
:1002A00081838481887F8660848381E0828380A1CA
:1002B0008076816080A311A280A58076816080A76E
:1002C00088E081A710AA11AA80E8838380818160D9
:1002D00080830895E0E2F6E081E0828382E0828319
:1002E0000E944B01E0E4F8E0108210A211A28FEF0F
:1002F0009FE086A397A388EC80938001E0E0F1E083
:10030000108280E48083808186FDFDCFE0E0F1E013
:1003100084E88083168A74E2708B61E0618B5DE90A
:10032000528B46E4438B20E038E0248B358B86EFFC
:1003300096E3848F958F168E9CE6908F82E0818F56
:10034000128E16A270A361A352A343A324A335A3C4
:1003500024EF3EE224A735A716A690A781A712A6F0
:1003600080898068808B87E08093400808951F9281
:100370000F920FB60F9211240BB60F922F933F934B
:100380004F935F936F937F938F939F93AF93BF939D
:10039000EF93FF93CF93DF931F92CDB7DEB7E0E0EB
:1003A000F1E081898061818BE0E4F8E084858160FF
:1003B000848719829E012F5F3F4F41E050E060E04B
:1003C00070E08091FA2C9091FB2C0E9438040F90E1
:1003D000DF91CF91FF91EF91BF91AF919F918F915D
:1003E0007F916F915F914F913F912F910F900BBE35
:1003F0000F900FBE0F901F9018951F920F920FB67F
:100400000F9211240BB60F922F933F934F935F934C
:100410006F937F938F939F93AF93BF93EF93FF93CC
:10042000CF93DF931F92CDB7DEB7E0E0F1E081A17B
:10043000806181A3E0E4F8E084858160848719828B
:100440009E012F5F3F4F42E050E060E070E08091FE
:10045000FA2C9091FB2C0E9438040F90DF91CF91E1
:10046000FF91EF91BF91AF919F918F917F916F918C
:100470005F914F913F912F910F900BBE0F900FBE48
:100480000F901F9018950F93CF93DF931F92CDB7C6
:10049000DEB72FB72983F8941BBEFC0108ED04BF1B
:1004A000608389818FBF0F90DF91CF910F91089565
:1004B000611102C090E001C090E2842B892B8093EF
:1004C000520008956F71862B809355000895E0E5E2
:1004D000F0E09081282F20959223908390818923AA
:1004E0000895682B81E490E00E94430208950F93E1
:1004F0001F93CF93C82F00E410E0F8016081687F5C
:10050000682B80E490E00E944302F80180818C23F4
:10051000CF911F910F910895FC019081907F692BDD
:1005200060830895FC019181987F692B6183089510
:10053000FC0196819C7F692B66830895000088EDFD
:1005400084BF81E08093790008950E949E020895FF
:10055000CF93DF9380E190E00E944504EC01009787
:1005600041F0FC011192119211921192CF010E945F
:100570006C04CE01DF91CF9108952F923F924F925C
:100580005F926F927F928F929F92AF92BF92CF9223
:10059000DF92EF92FF920F931F93CF93DF93EC01C3
:1005A0004A015B01622E702E0E94B90B28803980AF
:1005B0004A805B8001110DC081E0B201A101482198
:1005C00059216A217B21452B462B472B79F480E06A
:1005D0000DC081E0B201A101482159216A217B218E
:1005E000481559056A057B0509F080E0882381F0EC
:1005F000662009F470C080949094A094B0948220F6
:100600009320A420B52088829982AA82BB8263C0ED
:10061000C114D104E104F10409F45DC0662029F09D
:1006200040E050E060E071E003C040E050E0BA011B
:1006300071107460482959296A297B29970186011C
:10064000CE0104960E94E80D0E94A40C811102C004
:100650000E94CA050E94250F91FD39C0F091A200A9
:10066000FF93F87FF093A200688179818A819B8152
:1006700071100DC021E075016401C622D722E82265
:10068000F922CD28CE28CF2879F420E00DC021E032
:1006900075016401C622D722E822F922C814D904C0
:1006A000EA04FB0409F020E0222371F0662061F0E7
:1006B00080949094A094B09486229722A822B92284
:1006C00088829982AA82BB82FF91F093A2001B01CB
:1006D0002C01552402C00E94A40CC201B101DF917B
:1006E000CF911F910F91FF90EF90DF90CF90BF902F
:1006F000AF909F908F907F906F905F904F903F90C2
:100700002F9008950F931F93F091A200FF93F87F0D
:10071000F093A200FC010081118122813381409578
:100720005095609570954023512362237323408335
:10073000518362837383FF91F093A200C901B801D2
:100740001F910F9108954F925F926F927F92AF9297
:10075000BF92CF92DF92EF92FF920F931F93CF93AE
:10076000DF93EC016A017B018C01095F1F4F0E943E
:10077000B90BEB85FC8588819981AA81BB81C82A48
:10078000D92AEA2AFB2AC882D982EA82FB820E177A
:100790001F0709F442C0C12CD12C7601A480B5807A
:1007A00080819181A281B381AC01BD017727B2FD27
:1007B0000FC0488059806A807B804422552266227F
:1007C000772221E045284628472889F420E00FC0F9
:1007D000488059806A807B80442255226622772295
:1007E00021E0441655066606770609F020E022232C
:1007F00071F0B0FF04C0C42AD52AE62AF72A48813E
:1008000059816A817B817260CF010E94700EEA2D4E
:10081000FB2D0E171F0711F603C0C12CD12C76013A
:10082000C094D094E094F09488819981AA81BB818E
:10083000C822D922EA22FB22C882D982EA82FB821C
:100840000E94A40C688179818A819B81DF91CF917C
:100850001F910F91FF90EF90DF90CF90BF90AF90DE
:100860007F906F905F904F9008950E94A30308952A
:100870000F931F9389019A01AB01BC0185E394E0BA
:100880000E9405121F910F910895CF93DF93EC0101
:100890000E94B90B2091842030918520C9018C0FD2
:1008A0009D1F883B4BE0940758F42817390758F4EC
:1008B000E901CA57DF4D809384209093852005C0BD
:1008C000C0E0D0E002C0C0E0D0E00E94A40CCE01A5
:1008D000DF91CF9108950895FC010396818392835F
:1008E0004FEF5FEFBA014383548365837683878339
:1008F00090878187928710820895FC011286138663
:100900000895CF93DF939C01FB01DC011196CD91FB
:10091000DC911297C483D5838E819F8186839783D0
:100920008E819F81DC0114966D937C9315976E8365
:100930007F8322873387F90180818F5F8083DF91F6
:10094000CF9108950F931F93CF93DF93EB0108810D
:1009500019812A813B810F3F4FEF14072407340789
:1009600021F4FC01A185B28511C0DC01139601C000
:10097000DF011496ED91FC911597408151816281C0
:100980007381041715072607370790F71496ED9122
:10099000FC911597EC83FD83C683D783AE83BF8319
:1009A0001496CD93DC9315978A879B87FC01208151
:1009B0002F5F2083DF91CF911F910F910895CF93E7
:1009C000DF93FC01A285B385C481D581868197819F
:1009D0008E839F83C681D781848195818C839D83FB
:1009E00011968D919C911297E817F90731F4868141
:1009F000978111968D939C931297128613868C91F2
:100A000081508C938C91DF91CF910895E0EAF0E0D2
:100A100082819281987F92830895CF92DF92EF92A4
:100A2000FF9231E1FC013083319722E2208331973C
:100A3000A3E3A0836B01E12CF12C31976083319704
:100A4000D0823197E082319761E36083319760E82B
:100A50006083319767E86083319710823197108205
:100A6000319762E06083319763E06083319764E09F
:100A70006083319765E06083319766E060833197EA
:100A800067E06083319768E06083319769E0608355
:100A9000319760E1608331973083319732E1308361
:100AA000319733E13083319734E13083319735E149
:100AB0003083319736E13083319737E13083319796
:100AC00038E13083319739E13083319730E2308338
:100AD000319731E2308331972083319723E22083AD
:100AE0006A01319740833197D082319726E2208383
:100AF000319727E22083319728E22083319729E23A
:100B00002083319720E320838897FF90EF90DF9038
:100B1000CF90089583EF91E0809326089093270863
:100B200065E080E098E00E948C0261E080E098E05F
:100B30000E949802A091AC2CB091AD2C0D900DBEEE
:100B40000D900EBEEF91DF91CF91BF91AF919F912C
:100B50008F917F916F915F914F913F912F911F9155
:100B60000F91FF90EF90DF90CF90BF90AF909F904C
:100B70008F907F906F905F904F903F902F901F903D
:100B80000F90FF91F093A200FF91FFBFFF91089596
:100B900081E00895FF93FFB7FF93F091A200FF93C8
:100BA000F87FF093A2000F921F9211242F923F9290
:100BB0004F925F926F927F928F929F92AF92BF926D
:100BC000CF92DF92EF92FF920F931F932F933F9359
:100BD0004F935F936F937F938F939F93AF93BF9345
:100BE000CF93DF93EF93A091AC2CB091AD2C0DB6C9
:100BF0000D920EB60D920E94420DA091AC2CB091B8
:100C0000AD2C0D900DBE0D900EBEEF91DF91CF91EA
:100C1000BF91AF919F918F917F916F915F914F9114
:100C20003F912F911F910F91FF90EF90DF90CF9008
:100C3000BF90AF909F908F907F906F905F904F90FC
:100C40003F902F901F900F90FF91F093A200FF9183
:100C5000FFBFFF910895CF939091F63E892B80932B
:100C6000F63E9091A000913041F09091A00092301A
:100C700021F09091A000943059F4882349F00E940B
:100C80000605C82F1092F63E0E94420DC093A200A6
:100C9000CF910895FF93FFB7FF93F091A200FF93C8
:100CA000F87FF093A2000F921F9211242F923F928F
:100CB0004F925F926F927F928F929F92AF92BF926C
:100CC000CF92DF92EF92FF920F931F932F933F9358
:100CD0004F935F936F937F938F939F93AF93BF9344
:100CE000CF93DF93EF93A091AC2CB091AD2C0DB6C8
:100CF0000D920EB60D920E940605C82F0E94D10BD0
:100D0000C093A20081E00E942B06A091AC2CB09170
:100D1000AD2C0D900DBE0D900EBEEF91DF91CF91D9
:100D2000BF91AF919F918F917F916F915F914F9103
:100D30003F912F911F910F91FF90EF90DF90CF90F7
:100D4000BF90AF909F908F907F906F905F904F90EB
:100D50003F902F901F900F90FF91F093A200FF9172
:100D6000FFBFFF911895F091A200FF93F87FF093D9
:100D7000A200FC01968DFF91F093A20081E09111F9
:100D800080E00895DC01F091A200FF93F87FF093DA
:100D9000A2005E969C915E97FF91F093A20081E085
:100DA0005F962C91291380E008950F931F93CF93A2
:100DB000DF93EC01042F1E8D48A14423B9F10111EA
:100DC00016C050E08C819D810E94AC1D28A18C81B1
:100DD0009D81820F911D8C839D832A813B81821787
:100DE000930720F1888199818C839D831FC050E0F7
:100DF0008E819F810E94AC1D88A190E09195819584
:100E000091092E813F81280F391F2E833F8348810E
:100E100059812417350730F42A813B81820F931FB3
:100E20008E839F83023011F4111111501F5F1E8FAA
:100E300080E0DF91CF911F910F910895FC0140A1B7
:100E40004423A9F050E026813781240F351F2683E3
:100E50003783828193812817390720F0808191811F
:100E600086839783CB01668177810E94AC1D0895AC
:100E7000EF92FF920F931F93CF938C01F091A200FA
:100E8000FF93F87FF093A200FC01C2A11C16ACF402
:100E90008389811106C011C0F8018389811105C0C1
:100EA0000CC07801F3E1EF0EF11CC7010E942E0E79
:100EB00081110E94130FC15079F78FEFF80182A3BF
:100EC000FF91F093A200F091A200FF93F87FF093BE
:100ED000A200F801C1A11C16ACF48085811106C0E6
:100EE00011C0F8018085811105C00CC07801F8E0BF
:100EF000EF0EF11CC7010E942E0E81110E94130FEC
:100F0000C15079F78FEFF80181A3FF91F093A20010
:100F1000CF911F910F91FF90EF900895CF93DF93A2
:100F2000EC01F091A200FF93F87FF093A2004881BA
:100F3000598128A130E07F8D729FC001739F900D71
:100F40001124FA01E80FF91FEA83FB831E8E4C83FC
:100F50005D83821B930B840F951F8E839F838FEF7E
:100F600089A38AA361110CC08885882389F0CE01EA
:100F700008960E942E0E882359F00E94CA0508C0C8
:100F8000CE0108960E946C04CE0143960E946C0428
:100F9000FF91F093A20081E0DF91CF910895FF923D
:100FA0000F931F93CF93DF93082F162FF42E6623F2
:100FB000C9F0869FC001112485960E944504EC016A
:100FC000009749F416C00F8F18A361E0CE010E946C
:100FD0008E07FCA20EC0859688839983F4CFC883C0
:100FE000D983F1CF85E290E00E944504EC01892B82
:100FF000B1F7CE01DF91CF911F910F91FF9008952E
:10100000AF92BF92CF92DF92EF92FF920F931F9316
:10101000CF93DF93CDB7DEB72997CDBFDEBF7C017D
:101020005B012E833F834887598710E06C0188E07D
:10103000C80ED11CF091A200FF93F87FF093A2009C
:10104000F701968D878D981710F00230D1F4402F5C
:10105000B501C7010E94D506F7019389992349F08C
:10106000C70143960E942E0E882331F00E94CA05C4
:1010700003C081110E94CA05FF91F093A20081E094
:1010800057C08E819F81A885B985892B8A2B8B2B90
:1010900029F4FF91F093A20080E04AC0111105C02D
:1010A000CE0101960E94A40E11E0FF91F093A200E0
:1010B0000E94B90BF091A200FF93F87FF093A20079
:1010C000F70181A18F3F09F411A2F70182A18F3F9F
:1010D00009F412A2FF91F093A200BE016A5F7F4F54
:1010E000CE0101960E94B50E81111CC0C7010E945D
:1010F000C206882389F04E815F8168857985C601A3
:101100000E94D00DC7010E9438070E94A40C8111D3
:1011100091CF0E94CA058ECFC7010E9438070E9456
:10112000A40C88CFC7010E9438070E94A40C80E05D
:101130002996CDBFDEBFDF91CF911F910F91FF9018
:10114000EF90DF90CF90BF90AF900895AF92BF9295
:10115000CF92DF92FF920F931F93CF93DF93EC0117
:101160006B015A01022F0E940605F82E9E8D8F8D6D
:10117000981710F00230E1F41AA1402FB601CE0109
:101180000E94D5061F3F81F48B89882399F0CE01F8
:1011900043960E942E0E882379F0A114B10471F0B9
:1011A00081E0F50180830BC01F5F1AA381E007C0B7
:1011B00080E005C081E003C081E001C081E0F092E1
:1011C000A200DF91CF911F910F91FF90DF90CF9000
:1011D000BF90AF900895AF92BF92CF92DF92EF92FF
:1011E000FF920F931F93CF93DF93CDB7DEB729976D
:1011F000CDBFDEBF8C015B012E833F8348875987BB
:10120000E12C6C0183E1C80ED11CF091A200FF9388
:10121000F87FF093A200F801F68CFF20B1F0B50141
:10122000C8010E941E07FA94F801F68E8085882373
:1012300039F0C80108960E942E0E81110E94CA053D
:10124000FF91F093A20081E05EC08E819F81A8850E
:10125000B985892B8A2B8B2B29F4FF91F093A2005F
:1012600080E051C0E11006C0CE0101960E94A40E9C
:10127000EE24E394FF91F093A2000E94B90BF09149
:10128000A200FF93F87FF093A200F80181A18F3FA5
:1012900009F411A2F80182A18F3F09F412A2FF9173
:1012A000F093A200BE016A5F7F4FCE0101960E94BB
:1012B000B50E81111CC0C8010E94B306882389F0B5
:1012C0004E815F8168857985C6010E94D00DC80175
:1012D0000E9438070E94A40C811197CF0E94CA0572
:1012E00094CFC8010E9438070E94A40C8ECFC80179
:1012F0000E9438070E94A40CC8010E94B3068823EC
:1013000009F483CF80E02996CDBFDEBFDF91CF9176
:101310001F910F91FF90EF90DF90CF90BF90AF9013
:101320000895F091A200FF93F87FF093A200FC01D2
:10133000868DFF91F093A2000895CF93DF93EC0187
:10134000F091A200FF93F87FF093A20089A18F3F54
:1013500009F419A28AA18F3F09F41AA2FF91F09310
:10136000A2008E8D811104C0CE0143960E940D0E05
:10137000CE010E943807DF91CF910895E091682C4B
:10138000F091692C808181110CC08FEF9FEFDC01FF
:101390008093412C9093422CA093432CB093442CE7
:1013A0000895E091682CF091692C0780F085E02D7C
:1013B0000084F185E02D82819381A481B5818093A1
:1013C000412C9093422CA093432CB093442C08952D
:1013D0008F929F92AF92BF92CF92DF92EF92FF9245
:1013E000CF936B017C01C42F80904B2C90904C2CA0
:1013F000A0904D2CB0904E2C8091AC2C9091AD2CA7
:1014000002960E94DF048FEFC816D806E806F80699
:1014100069F4CC2359F06091AC2C7091AD2C6E5FC7
:101420007F4F80E59CE20E9481043FC0C80CD91C1C
:10143000EA1CFB1CE091AC2CF091AD2CC282D38253
:10144000E482F582C814D904EA04FB0468F46091CC
:10145000AC2C7091AD2C8091662C9091672C6E5FB6
:101460007F4F0E94A20421C06091AC2C7091AD2CE2
:101470008091682C9091692C6E5F7F4F0E94A2042E
:101480008091412C9091422CA091432CB091442CFE
:10149000C816D906EA06FB0640F4C092412CD09249
:1014A000422CE092432CF092442CCF91FF90EF908D
:1014B000DF90CF90BF90AF909F908F900895C0E83D
:1014C000DCE28881823010F00E94CA050E94CA13B3
:1014D000F8CF4F925F926F927F928F929F92AF92CE
:1014E000BF92CF92DF92EF92FF920F93CF93DF9351
:1014F0004C016B015A012901CA010E9445043C01BB
:10150000892B09F4EAC08CE290E00E944504EC01CA
:10151000892BB1F06B8E7C8EA50165EA70E0C3016A
:101520000E94B51D21E0A21AB1088B8D9C8DA80EDA
:10153000B91ED6018C918D8F8C91811105C018C078
:10154000C3010E946B04C9C0AE01425E5F4FF60149
:101550003196B8E0CB0ED11CCF012191DA012D9349
:10156000AD01DC018C91882319F0EC15FD05A1F784
:101570001CA2043008F003E00A8F6E01B2E0CB0E2B
:10158000D11CC6010E947D04CE010E960E947D04EE
:10159000CA87DB8784E090E0A0E0B0E0801B91097F
:1015A000A109B1098E879F87A88BB98BCE8BDF8B62
:1015B0001FA218A619A61AA61BA6A201B401C5014E
:1015C0000E940D0588839983E114F10419F0F70155
:1015D000C083D183F091A200FF93F87FF093A20023
:1015E00080914F2C8F5F80934F2C8091AC2C9091E9
:1015F000AD2C892BA9F5C093AC2CD093AD2C809148
:101600004F2C8130E9F580E89CE20E946C048BE865
:101610009CE20E946C0486E99CE20E946C0481EAD0
:101620009CE20E946C0485E79CE20E946C048AE6BE
:101630009CE20E946C048BE59CE20E946C0480E5B5
:101640009CE20E946C0485E79CE28093682C909356
:10165000692C8AE69CE28093662C9093672C10C0DC
:101660008091492C81110CC0E091AC2CF091AD2CF3
:10167000928D8A8D891720F0C093AC2CD093AD2C1D
:101680008091452C8F5F8093452C8DA38A8D9091FE
:101690004A2C981710F480934A2CFBE08F9FC001CE
:1016A0001124B6018058934D0E948104FF91F0935C
:1016B000A2008091492C882361F0E091AC2CF0913C
:1016C000AD2C928D8A8D981730F40E94CA0581E066
:1016D00005C081E003C081E001C08FEFDF91CF91B1
:1016E0000F91FF90EF90DF90CF90BF90AF909F90C1
:1016F0008F907F906F905F904F900895EF92FF9240
:101700000F930F2EFFE3EF2EFCE2FF2EF02D00E0F3
:1017100020E030E048EC50E064E070E28FE59AE0D1
:101720000E94690A813009F50E94C30F8130E9F4F3
:10173000E0EAF0E08281887F82838FEF9FEFDC0117
:101740008093412C9093422CA093432CB093442C33
:1017500081E08093492C10924B2C10924C2C1092CB
:101760004D2C10924E2C0E948A050F91FF90EF9005
:10177000089580913E2C8F5F80933E2C0895F091C8
:10178000A200FF93F87FF093A20060914B2C709120
:101790004C2C80914D2C90914E2CFF91F093A200F7
:1017A0000895AF92BF92CF92DF92EF92FF920F9384
:1017B0001F93CF93DF9380913E2C8111ADC0C090D9
:1017C0004B2CD0904C2CE0904D2CF0904E2C8FEF69
:1017D000C81AD80AE80AF80AC0924B2CD0924C2CAE
:1017E000E0924D2CF0924E2CC114D104E104F1048E
:1017F000B9F48091682C9091692C2091662C3091DD
:10180000672C2093682C3093692C8093662C9093DE
:10181000672C8091462C8F5F8093462C0E94BE09D6
:101820008091412C9091422CA091432CB091442C5A
:10183000C816D906EA06FB0610F4B12C5CC0B12C20
:101840000F2EFBE0AF2EF02DE091682CF091692C6B
:10185000808181110CC08FEF9FEFDC018093412CC0
:101860009093422CA093432CB093442C44C0E0911D
:10187000682CF091692C0780F085E02DC085D1851A
:101880008A819B81AC81BD81C816D906EA06FB0618
:1018900048F48093412C9093422CA093432CB09316
:1018A000442C29C08E010E5F1F4FC8010E94DF0427
:1018B000888D998D892B21F0CE010E960E94DF0430
:1018C0008A8D90914A2C981710F480934A2CA89EE8
:1018D000C0011124B8018058934D0E948104E09109
:1018E000AC2CF091AD2C9A8D828D981708F4ACCF6A
:1018F000BB24B394A9CFE091AC2CF091AD2CE28D38
:101900008BE0E89FF0011124E058F34D8081823094
:1019100048F0BB24B39406C08091482C8F5F80931D
:10192000482CB12C8091472C882311F0BB24B39410
:101930008B2DDF91CF911F910F91FF90EF90DF9052
:10194000CF90BF90AF900895CF92DF92EF92FF9229
:101950000F931F93CF93DF93F091A200FF93F87F33
:10196000F093A20080913E2C815080933E2C809178
:101970003E2C81115CC080914F2C81112CC05AC02B
:10198000D7011796ED91FC911897C085D185CE01AE
:101990000E960E94DF048E010E5F1F4FC8010E9449
:1019A000DF048A8D90914A2C981710F480934A2C6A
:1019B000D89EC0011124B8018058934D0E94810423
:1019C000E091AC2CF091AD2C9A8D828D981788F017
:1019D000C092472C0EC0C0E0D0E00F2EFBE5EF2EEA
:1019E000FCE2FF2EF02D0F2EFBE0DF2EF02DCC249D
:1019F000C394F70180818111C3CFCD2B11F00E94D8
:101A0000BE09C091482CCC2351F0D1E00E94D10BEB
:101A10008111D093472CC150C9F71092482C809166
:101A2000472C882331F00E94CA0581E003C080E082
:101A300001C080E0FF91F093A200DF91CF911F9150
:101A40000F91FF90EF90DF90CF900895CF92DF92AB
:101A5000EF92FF926B017C01672B682B692B59F089
:101A60000E94B90B40E0C701B6010E94E8090E943C
:101A7000A40C811102C00E94CA05FF90EF90DF9074
:101A8000CF90089580913E2C882321F081E08093AF
:101A9000472C08951092472CE091AC2CF091AD2C7E
:101AA000038CF48DE02D80819181A281B381853AF0
:101AB000954AA54AB54AD9F484819581A681B78112
:101AC000853A954AA54AB54A91F480859185A285C3
:101AD000B385853A954AA54AB54A49F484859585E2
:101AE000A685B785853A954AA54AB54A61F06091C1
:101AF000AC2C7091AD2C8091AC2C9091AD2C635E90
:101B00007F4F0E94A50280914A2C282F30E09BE055
:101B1000899FF0011124E058F34D908191110EC07E
:101B20004BE08150282F30E0429FF001439FF00DA1
:101B30001124E058F34D9081992399F39BE0929FF3
:101B4000A001939F500D1124DA01A058B34D1196B6
:101B5000ED91FC9112970480F581E02D1196ED93A3
:101B6000FC9312974D57534DE417F50729F4448120
:101B70005581FD01418352839BE0929FF001939F29
:101B8000F00D1124E058F34D0180F281E02D208505
:101B900031852093AC2C3093AD2C80934A2C089542
:101BA000CF92DF92EF92FF926A017B016091AC2CA1
:101BB0007091AD2C625F7F4F0E94A20441E0C7018B
:101BC000B6010E94E809FF90EF90DF90CF90089552
:101BD000CF92DF92EF92FF920F931F9368017901EA
:101BE000E091AC2CF091AD2C706846875787608BE4
:101BF000718B6091AC2C7091AD2C625F7F4F0E9415
:101C0000810441E0C701B6010E94E8091F910F91CC
:101C1000FF90EF90DF90CF900895CF92DF92EF92F8
:101C2000FF92CF936A017B01C22F6091AC2C70911F
:101C3000AD2C625F7F4F0E948104CC2321F0CC2425
:101C4000CA94DC2C76014C2FC701B6010E94E8092A
:101C5000CF91FF90EF90DF90CF9008950F931F9357
:101C6000CF93DF93DC011796ED91FC911897C08517
:101C7000D1858E01025F1F4FC8010E94DF04809151
:101C80003E2C811116C00C501109C8010E94DF04BE
:101C90008A8D90914A2C981710F480934A2CBBE0BF
:101CA0008B9FC0011124B8018058934D0E9481047C
:101CB00005C0B8018BE59CE20E948104E091AC2C48
:101CC000F091AD2C9A8D828D891720F481E080935C
:101CD000472C01C080E0DF91CF911F910F910895B3
:101CE0000F931F93CF93DF937068FC014083518360
:101CF00062837383C085D1850E94DF048E010E5FED
:101D00001F4FC8010E94DF048A8D90914A2C9817BA
:101D100010F480934A2CFBE08F9FC0011124B8017E
:101D20008058934D0E948104E091AC2CF091AD2C31
:101D30009A8D828D891718F481E08093472CDF916A
:101D4000CF911F910F9108952091462CFC01208383
:101D500040914B2C50914C2C60914D2C70914E2CFD
:101D600041835283638374830895CF92DF92EF920D
:101D7000FF920F931F93CF93DF93DB01F091A200AB
:101D8000FF93F87FF093A20040914B2C50914C2C84
:101D900060914D2C70914E2C0D911D912D913C9187
:101DA00013970F3FCFEF1C072C073C0769F1FC018D
:101DB000C180D280E380F480E091462CEC01F88170
:101DC000FE1729F04C155D056E057F05F8F44C19DA
:101DD0005D096E097F09401751076207730768F4B0
:101DE000FD01041B150B260B370B00831183228387
:101DF00033830E94A40E80E00AC01D921D921D92A2
:101E00001C92139781E003C080E001C081E0FF9144
:101E1000F093A200DF91CF911F910F91FF90EF906F
:101E2000DF90CF90089581E08093472C08958091B2
:101E3000492C882331F080913E2C882321F080E0CA
:101E4000089581E0089582E00895CF92DF92EF92A5
:101E5000FF92E091AC2CF091AD2C6685778580895E
:101E60009189E091AC2CF091AD2CA091AC2CB0916B
:101E7000AD2C5A962C91C12CD12C76016894C2F8C5
:101E8000C21AD108E108F108C686D786E08AF18A2D
:101E9000FF90EF90DF90CF900895CF92DF92EF9276
:101EA000FF920F931F93FC014283538364837583D6
:101EB000828793870417150726073707C0F00C1988
:101EC0001D092E093F0986859785A089B1890817C4
:101ED00019072A073B0700F5BF016E5F7F4F80910E
:101EE000B62C9091B72C0E94A20480E018C00C156B
:101EF0001D052E053F0528F44C155D056E057F0573
:101F000068F4BF016E5F7F4F8091B82C9091B92C1F
:101F10000E94A20480E003C081E001C081E01F9123
:101F20000F91FF90EF90DF90CF900895F091A20075
:101F3000FF93F87FF093A2008091B42C9091B52C80
:101F4000892BE9F485EC9CE20E946C048AEB9CE20C
:101F50000E946C0485EC9CE28093B82C9093B92C81
:101F60008AEB9CE28093B62C9093B72C40E069E01A
:101F700085E00E94CF078093B42C9093B52CFF91FD
:101F8000F093A2000895EF92FF920F930E94960F94
:101F90008091B42C9091B52C892B91F00F2EF2EBFF
:101FA000EF2EFCE2FF2EF02D03E020E030E048ECC5
:101FB00050E069E070E286ED90E10E94690A01C09C
:101FC00080E00F91FF90EF9008958F929F92AF92D3
:101FD000BF92CF92DF92EF92FF920F931F93CF9316
:101FE000DF93CDB7DEB72997CDBFDEBFE091B42C2C
:101FF000F091B52C309789F169832A833B834C8318
:102000005D838E839F836630FCF40E94170F8230BD
:1020100069F400E0A7019601BE016F5F7F4F8091D8
:10202000B42C9091B52C0E94000818C000E020E06C
:1020300030E0A901BE016F5F7F4F8091B42C909179
:10204000B52C0E9400080AC020E0A801BE016F5F05
:102050007F4FCF010E94A60801C080E02996CDBF26
:10206000DEBFDF91CF911F910F91FF90EF90DF9036
:10207000CF90BF90AF909F908F9008952F923F92F6
:102080004F925F926F927F928F929F92AF92BF9288
:10209000CF92DF92EF92FF920F931F93CF93DF9334
:1020A0001C010E94BF0B2B013C018091AE2C909132
:1020B000AF2CA091B02CB091B12C481659066A06ED
:1020C0007B0608F054C03CC00780F085E02D80807E
:1020D0009180A280B380C085D1858E010E5F1F4F95
:1020E000C8010E94DF04ED89FE89CE0119958A8915
:1020F000813031F58E859F85A889B989880D991D14
:10210000AA1DBB1D88169906AA06BB0670F48A8311
:102110009B83AC83BD83CA87DB87B8018091B82CD1
:102120009091B92C0E94A2040BC0C12CD12C760135
:1021300000E010E0A501940160E0CE010E94E50FEF
:10214000E091B82CF091B92C80818111BDCF8091A4
:10215000B62C9091B72C8093B82C9093B92CE09327
:10216000B62CF093B72C81E0F101808302C0F1011D
:1021700010824092AE2C5092AF2C6092B02C709294
:10218000B12CC301B201DF91CF911F910F91FF904C
:10219000EF90DF90CF90BF90AF909F908F907F9007
:1021A0006F905F904F903F902F900895CF93DF9363
:1021B000CDB7DEB72E97CDBFDEBFCE0101961C0195
:1021C000A82EB32CE091B82CF091B92C80818823F3
:1021D00009F403C10780F085E02D408051806280C2
:1021E00073800E94B90BC1010E943E106B877C87EF
:1021F0008D879E87898181115EC08B859C85AD8589
:10220000BE8584159505A605B705E8F10E94A40CC6
:10221000E091B82CF091B92C0780F085E02D8084F6
:102220009184C40102960E94DF04D40152968C91DD
:102230005297813001F51E964D915D916D917C9183
:102240005197440D551D661D771D730162010B8565
:102250001C852D853E85C4010E944D0F882359F0B1
:10226000C12CD12C760100E010E0A301920160E0C6
:10227000C4010E94E50FD4015596ED91FC9156974B
:10228000C40119959CC020E0B301A2018B859C85F7
:10229000AD85BE85481B590B6A0B7B0B8091B42C16
:1022A0009091B52C0E949D090E94A40C811187C0B9
:1022B0000E94CA0584C00E94A40C81C08981882321
:1022C0006CF44E815F8168857985EA81FB818C8120
:1022D0009D811995898188230CF471C08E809F801F
:1022E000D4011C968D919C911D97892B21F0C401DE
:1022F00002960E94DF04CE010A960E943E108B01D6
:102300009C018981082E000C990BAA0BBB0B8A300B
:10231000910508F054C0FC018827E250FF4F8F4F11
:102320000C94A41DCA80DB80EC80FD80F4014685FE
:102330005785608971894C0D5D1D6E1D7F1DC4011F
:102340000E944D0F8823D9F1D4015596ED91FC914F
:102350005697C4011995F4018289813081F54A812B
:102360005B816C817D8186859785A089B1899A0181
:10237000AB01280F391F4A1F5B1FC12CD12C7601DE
:1023800000E010E060E0C4010E94E50F18C04A813F
:102390005B816C817D81D4011E964D935D936D931D
:1023A0007C935197400F511F621F731F6801790181
:1023B000C4010E944D0F03C0C4010E946B0420E0C1
:1023C00030E0A9016A2D7B2D8091B42C9091B52C21
:1023D0000E94EB08811172CFF5CE0E94B90BC101AA
:1023E0000E943E106B877C878D879E878981811133
:1023F00062CFE091B62CF091B72C808121E0811161
:1024000020E0412C512C32013FCF0F931F93CF93EB
:10241000DF93CDB7DEB72997CDBFDEBFEEEFE983FF
:102420008A839B836C837D832E833F834887598770
:1024300020E0A801BE016F5F7F4F8091B42C909186
:10244000B52C0E94A6082996CDBFDEBFDF91CF91A3
:102450001F910F910895E0E5F0E080818160808315
:10246000818180FFFDCF80E00E9477028EE10E9493
:10247000670260E080E00E94710243E060E080E477
:102480000E945802E0E5F0E08081886080838181CD
:1024900083FFFDCF64E080EC0E946202E0E5F0E0A3
:1024A00080818061808360E080E00E947102E0E5CD
:1024B000F0E0818184FFFDCF84E00E94770287E015
:1024C0000E9467020895E0EAF6E081E08183848358
:1024D00064E670E080E090E00E94260DF9CF0F2EB8
:1024E000F1E1EF2EF0E2FF2EF02D0F2EF4EFAF2EE4
:1024F000FEE2BF2EF02D0F2EF6EFCF2EF6E3DF2EED
:10250000F02D01E210E255245394CDE2D0E268941C
:10251000662461F80F2EFAE38F2EF0E29F2EF02D45
:102520000F2EF3E07F2EF02D0E94D916FF92EF922E
:102530001F921F921F921F920E94E416F501918133
:10254000F60181811F929F931F928F931F930F9388
:102550001F921F921F925F920E94E41680910120A9
:102560008F93809100208F93809103208F9380918F
:1025700002208F93DF93CF931F921F921F926F922F
:102580000E94E4169F928F921F921F921F927F9239
:102590000E94E416EDB7FEB7B096EDBFFEBF0E94F5
:1025A0007E0B64E670E080E090E00E94260DBCCFD8
:1025B000DFE7C0E0CC24CA94DC2C760100E021E007
:1025C00043E050E060E070E08091F62D9091F72DAF
:1025D0000E94BD0260FF6BC06091022070910320D9
:1025E0000091F73E1091F83E40910020509101205B
:1025F000B091FF3EA091003F80E090E0FC01EA50E6
:10260000F94C20812223FCF4FC01EA50F94C208192
:1026100030E06217730774F4FC01EA50F94C208132
:102620002D3D78F1FC01EA50F94C608170E0082FF3
:10263000192F27C0FC01EA50F94C2081203A08F5F7
:102640006D2F7C2F1EC0FC01EA50F94C208130E038
:102650002417350774F4FC01EA50F94C2081233229
:1026600080F4FC01EA50F94C408150E0B82FA92FCA
:1026700008C0FC01EA50F94C2081253610F04D2F9E
:102680005C2F01968330910509F0B8CF409300206C
:102690005093012060930220709303200093F73E33
:1026A0001093F83EB093FF3EA093003F6CC061FFD3
:1026B0006AC060910220709103200091053F109143
:1026C000063F4091002050910120B091FB3EA09127
:1026D000FC3E80E090E0FC01EC50F14D2081222393
:1026E000FCF4FC01EC50F14D208130E062177307DF
:1026F00074F4FC01EC50F14D20812D3D78F1FC018A
:10270000EC50F14D608170E0082F192F27C0FC01BB
:10271000EC50F14D2081203A08F56D2F7C2F1EC022
:10272000FC01EC50F14D208130E02417350774F4A2
:10273000FC01EC50F14D2081233280F4FC01EC507F
:10274000F14D408150E0B82FA92F08C0FC01EC509A
:10275000F14D2081253610F04D2F5C2F01968330EE
:10276000910509F0B8CF4093002050930120609369
:10277000022070930320B093FB3EA093FC3E009395
:10278000053F1093063F64E670E080E090E00E9411
:10279000260D10CF0895EF92FF920F93CF930E94D2
:1027A000401BC82F0E942B120E945D150F2EF9EFBF
:1027B000EF2EFEE3FF2EF02D01E020E030E042EDB1
:1027C00050E06EE370E283E692E10E94690A0F2E08
:1027D000FDEFEF2EFEE3FF2EF02D20E030E04CEB7E
:1027E00052E06EE370E288ED92E10E94690A0F2EDA
:1027F000F9E0EF2EFFE3FF2EF02D20E030E042ED78
:1028000050E06EE370E28FE692E10E94690A0F2EBB
:10281000FBE0EF2EFFE3FF2EF02D20E030E04CE256
:1028200051E067E470E287E89AE10E94690A0E9439
:10283000A8028093F62D9093F72D0E946A010E94C2
:10284000D91681E190E29F938F931F921F921F925E
:102850001F920E94E41682E590E29F938F931F924D
:102860001F921F9281E08F930E94E4168FE590E201
:102870009F938F931F921F921F9282E08F930E94CB
:10288000E4161F92CF9388E690E29F938F931F9256
:102890001F921F9283E08F930E94E4160E947E0B8A
:1028A0008DB79EB74A968DBF9EBF80E090E0CF91D6
:1028B0000F91FF90EF9008951F920F920FB60F9215
:1028C00011240BB60F922F933F934F935F936F9307
:1028D0007F938F939F93AF93BF93EF93FF93CF9388
:1028E000DF931F92CDB7DEB719829E012F5F3F4F56
:1028F00041E050E060E070E080910F3F9091103F28
:102900000E94380460E080E09BE00E948C021092FC
:10291000060B0F90DF91CF91FF91EF91BF91AF9197
:102920009F918F917F916F915F914F913F912F91E7
:102930000F900BBE0F900FBE0F901F901895CF9267
:10294000DF92EF92FF920F936B017C0182E0C81639
:10295000D104E104F10408F44EC0E0E0FBE081E0C2
:10296000868310A211A260E080E09BE00E949202A8
:102970008EEFC8168FEFD806E104F10470F4F694D8
:10298000E794D794C794C092260BD092270B65E0AA
:1029900080E09BE00E948C0219C080E4C81682E4AB
:1029A000D8068FE0E806F10488F4689414F8F694E9
:1029B000E794D794C7941694D1F7C092260BD0927F
:1029C000270B67E080E09BE00E948C020F2EF4EF63
:1029D000CF2EDD24D394E12CF12CF02D00E021E06A
:1029E00041E050E060E070E080910F3F9091103F37
:1029F0000E94BD0211C0E0E0FBE081E0868310A2EE
:102A000011A260E080E09BE00E949202C12CD12CD8
:102A100076016894C1F8B3CF0F91FF90EF90DF90EB
:102A2000CF9008958295807FE0E0F6E09481282F92
:102A30002F60922394839481892B848308951F931C
:102A4000CF93DF93C0E6D6E014E01D8361E070E031
:102A500080E090E00E949F141E83DF91CF911F9130
:102A60000895CF93C82F82958F700E941215E0E6CB
:102A7000F6E081E0868382E086830E941F158C2F1A
:102A80008F700E9412150E941F15CF910895CF9349
:102A9000C82F82958F700E941215E0E6F6E081E063
:102AA000858382E086830E941F158C2F8F700E9481
:102AB00012150E941F15CF910895EF92FF920F9368
:102AC000E0E0F6E080E1818380E2818380E481833D
:102AD00080E88183A0E6B6E081E011968C9311979F
:102AE00082E011968C93119784E011968C93119744
:102AF00084818F70848314968C911497887F1496A8
:102B00008C9340E066E188E00E94CF0780930D3F00
:102B100090930E3F0E94A80280930F3F9093103F26
:102B2000E12CF12C01E020E030E04EE551E068E7D7
:102B300070E28BEF95E10E94690A0F91FF90EF9090
:102B400008958130910579F01CF4892B39F019C072
:102B50008230910569F0039781F013C080E8860FF9
:102B60000E9431150EC080EC860F0E94311509C0FD
:102B700084E9860F0E94311504C084ED860F0E94FF
:102B8000311567E270E080E090E00E949F140895A4
:102B90000E9447156BE270E080E090E00E949F1475
:102BA00008950F931F93CF93DF93FC0180818111D0
:102BB0000AC011C08991882371F00E94C8150C17B2
:102BC0001D07C1F708C08F010E94C815E8012196B2
:102BD0000C5E1F4FEFCFDF91CF911F910F910895A2
:102BE000CF93DF93EA010E94A115CE010E94D11577
:102BF000DF91CF910895CF93DF93CDB7DEB7C6565F
:102C0000D109CDBFDEBF5E0141E5A40EB11CFE01BE
:102C1000319620E208C02193E817F907E1F7FC019B
:102C2000A816B90619F0CF014496F5CF60E47CE907
:102C300080E090E00E949F1483E00E94121568E8F3
:102C400073E180E090E00E949F140E941F1560EAEB
:102C500070E080E090E00E949F140E941F1560EADF
:102C600070E080E090E00E949F140E941F1560EACF
:102C700070E080E090E00E949F1482E00E941215B4
:102C80000E941F1588E20E94311580E10E943115D3
:102C90008CE00E94311586E00E94311510E26E0131
:102CA00051E5C50ED11C0F2EF4E14F2EF02D0F2E45
:102CB000F6E18F2E912CF02D5C2C0D2D68EC70E040
:102CC00080E090E00E94260D40E050E0BA01809143
:102CD0000F3F9091103F0E948203672B682B692B56
:102CE00009F449C042E050E060E070E080910F3F9D
:102CF0009091103F0E948203FE01319608C011930B
:102D0000E817F907E1F7FC018A159B05A1F1CF014E
:102D10004496F5CF2FEF3FEFA901652D702F8091DD
:102D20000D3F90910E3F0E94EB08882321F1F601A0
:102D30002181822F90E04497F4F482818823D9F096
:102D4000908130E0D901499EA00DB11D112441E0D0
:102D500050E04C0F5D1FA40FB51F3396A401421B1A
:102D6000530B9A012C0D3D1D8D93E217F30719F0BB
:102D700081918111F9CF80910D3F90910E3F0E947A
:102D800091098111C7CFCE0101967C01612C712C74
:102D9000A70160E070E0C3010E94F0159FEF691A7F
:102DA000790AE4E1EE0EF11CF4E06F16710481F78C
:102DB00085CF42E050E060E070E080910F3F90915D
:102DC000103F0E94A30308952F923F924F925F926B
:102DD0006F927F928F929F92AF92BF92CF92DF922B
:102DE000EF92FF920F931F93CF93DF93CDB7DEB790
:102DF0006D97CDBFDEBF2BA92B8FAFA9B8AD7E01DC
:102E000039E3E30EF11C28EF3CE2E4EEFCE2119220
:102E1000E217F307E1F70F2EF0EDAF2EFCE2BF2E25
:102E2000F02D24EE3CE2F5011192E217F307E1F7F1
:102E3000812C912C0F2EF4EECF2EFCE2DF2EF02D04
:102E4000FCC2853209F0E8C22D0182E0480E511C17
:102E500011968C91853609F4DBC138F48336C1F0C4
:102E600008F048C0853251F0E7C28337F9F088375F
:102E700009F468C0863609F0DFC28CC0F401E05363
:102E8000F34D95E29083AFEF8A1A9A0AD201D5C228
:102E9000F401E053F34DD7018C918083BFEF8B1A7F
:102EA0009B0AF70132967F01D201C7C2A7014E5F8C
:102EB0005F4FD7018D919C919C01B401F401E053C7
:102EC000F34D00E010E006C0D901FD909D01F192A4
:102ED0000F5F1F4FDC010D900020E9F71197A81B31
:102EE000B90B0A171B0780F34D01860E971E7A0156
:102EF000D201A3C287010E5F1F4F4AE0B601F7015E
:102F0000808191810E94BC1D9401D401A053B34DD6
:102F100044EE5CE280E090E005C0FA016191AF010F
:102F20006D930196F60101900020E9F73197E45E78
:102F3000FC428E179F0788F34F01820E931E780183
:102F4000D2017BC287010E5F1F4F40E1B601D7015E
:102F50008D919C910E94BC1D9401F401E053F34DAE
:102F600044EE5CE280E090E005C0DA016D91AD01D5
:102F700061930196D6010D900020E9F71197A45EA8
:102F8000BC428A179B0788F34D01820E931E78017D
:102F9000D20153C21701B4E02B0E311CD7018D9121
:102FA0009D910D90BC91A02D8F8B988FA98FBA8F7A
:102FB00020E030E0A901BC01CD010E94D31B8111AA
:102FC00005C020E3F6012083118204C120E030E037
:102FD000A9016F89788D898D9A8D0E94D31B8823D2
:102FE0009CF4EDE2D601EC938F89988DA98DBA8D72
:102FF000B0588F8B988FA98FBA8F0F2EF5EE6F2E4A
:10300000FCE27F2EF02D01C0360120E030E040E8E8
:103010005FE36F89788D898D9A8D0E94321D882398
:103020000CF444C200E010E020E030E040E251E463
:103030006F89788D898D9A8D0E94D81B6F8B788FC0
:10304000898F9A8F0F5F1F4F20E030E040E85FE3E9
:103050000E94321D882344F72DEC3CEC4CEC5DE3E0
:103060006F89788D898D9A8D0E94D31B88231CF0DF
:103070001AC000E010E020E030E040E251E46F8947
:10308000788D898D9A8D0E94371D6F8B788F898FEF
:103090009A8F015011092DEC3CEC4CEC5DE30E9441
:1030A000D31B882344F310161106ACF57301D3012A
:1030B000A00FB11FAC8FBD8F3D016F89788D898DB9
:1030C0009A8D20E030E040E251E40E94371D6F8B82
:1030D000788F898F9A8F0E944A1C20E3260FF70170
:1030E00021937F01072E000C880B990B0E94821CF4
:1030F0009B01AC016F89788D898D9A8D0E94661B2A
:10310000E614F704F1F66F8B788F898F9A8F01158B
:10311000110589F4DBC1C801E0E3D301EC9373012D
:10312000F2E0EF0EF11C2EE211962C9399236CF035
:1031300000E010E01FC0EC8CFD8C3FEFE31AF30AB7
:10314000EEE2AC8DBD8DEC9312C000E010E0FFEF1D
:10315000EF1AFF0AF701319720E3208301970F5FF1
:103160001F4F992324F4043011058CF331C004302F
:10317000110574F5370184E090E0801B910BE80E97
:10318000F91E87016F89788D898D9A8D20E030E056
:1031900040E251E40E94371D6F8B788F898F9A8FA0
:1031A0000E944A1C20E3260FD3012D933D01072ED8
:1031B000000C880B990B0E94821C9B01AC016F894B
:1031C000788D898D9A8D0E94661B60167106F1F6C6
:1031D000F70110829401F401E053F34D44EE5CE2F8
:1031E00080E090E005C0DA016D91AD016193019638
:1031F000D6010D900020E9F71197A45EBC428A1712
:103200009B0788F34D01820E931E7101D20115C1F7
:103210001701B4E02B0E311CD7018D919D910D90BB
:10322000BC91A02D8F8B988FA98FBA8F20E030E0B2
:10323000A901BC01CD010E94D31B811105C020E36F
:10324000F60120831182CAC020E030E0A9016F8915
:10325000788D898D9A8D0E94D31B88239CF4EDE292
:10326000D601EC938F89988DA98DBA8DB0588F8B2C
:10327000988FA98FBA8F0F2EF5EE6F2EFCE27F2E5E
:10328000F02D01C0360120E030E040E85FE36F89B7
:10329000788D898D9A8D0E94321D8823DCF000E0A4
:1032A00010E020E030E040E251E46F89788D898DB4
:1032B0009A8D0E94D81B6F8B788F898F9A8F0F5FA2
:1032C0001F4F20E030E040E85FE30E94321D88237A
:1032D00044F702C000E010E02DEC3CEC4CEC5DE368
:1032E0006F89788D898D9A8D0E94D31B8823C4F4B1
:1032F00020E030E040E251E46F89788D898D9A8D2D
:103300000E94371D6F8B788F898F9A8F015011091A
:103310002DEC3CEC4CEC5DE30E94D31B882344F382
:1033200020E030E040E251E46F89788D898D9A8DFC
:103330000E94371D6F8B788F898F9A8F0E944A1C4D
:1033400020E3260FD3012C93072E000C880B990B3A
:103350000E94821C9B01AC016F89788D898D9A8DAA
:103360000E94661BF8013197EC8FFD8FEEE2D301CE
:103370001196EC9383010E5F1F4F7301F6E0EF0E81
:10338000F11C20E030E040E251E40E94371D6F8BD9
:10339000788F898F9A8F0E944A1C20E3260FD801CC
:1033A0002D938D01072E000C880B990B0E94821C17
:1033B0009B01AC016F89788D898D9A8D0E94661B67
:1033C0000E151F05F1F625E6F3012683B301695FAB
:1033D0007F4F4AE08C8D9D8D0E94BC1D9401F401AD
:1033E000E053F34D44EE5CE280E090E005C0DA018A
:1033F0006D91AD0161930196D6010D900020E9F722
:103400001197A45EBC428A179B0788F34D01820E78
:10341000931E7101D20111C08A3029F0F401E053EA
:10342000F34D808304C0F401E053F34D10821196F4
:10343000EFEF8E1A9E0A01C0D2018C91811101CD4D
:103440008DA99EA9880D991D44973CF084E190E0D8
:103450004C012DA93EA9821A930AFE013396CE0192
:103460004796DF011D92A817B907E1F73B8D398315
:103470008DA98A83181419045CF4CE01880D991D56
:103480000396D5012D915D0121938E179F07C9F7F2
:1034900000E02FEF3FEFA901BE016F5F7F4F8091EA
:1034A0000D3F90910E3F0E9400081BC02DEC3CEC9C
:1034B0004CEC5DE36F89788D898D9A8D0E94D31BCA
:1034C00088230CF4D6CD80E090E026CE20E3EC8D6E
:1034D000FD8D20837F0132E0E30EF11C8EE28183BB
:1034E00046CE6D96CDBFDEBFDF91CF911F910F917C
:1034F000FF90EF90DF90CF90BF90AF909F908F9014
:103500007F906F905F904F903F902F9008950E9412
:10351000A8028093FA2C9093FB2CE0EAF6E082E07C
:10352000818394E09183E0E8F6E091E091838183E8
:10353000A12CB12C0F2EF0EA8F2EF6E09F2EF02D4D
:10354000CC24CA94DC2C760100E021E043E050E07A
:1035500060E070E08091FA2C9091FB2C0E94BD02FB
:1035600060FF43C08091F4369091F53601968093C8
:10357000F4369093F536C0E0D0E0FE01EA50F94C05
:103580008081843170F042E050E060E070E0809132
:10359000F62D9091F72D0E94A303162FA12CB12C8C
:1035A00012C08FEFA81AB80AE4E6AE16B1045CF0B8
:1035B00043E050E060E070E08091F62D9091F72DAF
:1035C0000E948203162F2196C115F8E0DF07A9F6A5
:1035D0008091F92C8F5F8093F92CF40184818D7F89
:1035E000848384818460848344C08091F22E90918E
:1035F000F32E01968093F22E9093F32EC0E0D0E04C
:10360000FE01EC50F14D8081843158F041E050E0F2
:1036100060E070E08091F62D9091F72D0E94A30359
:10362000162F10FF03C01092F92C12C0FFEFAF1A33
:10363000BF0A84E6A816B1045CF043E050E060E005
:1036400070E08091F62D9091F72D0E948203162F45
:103650002196C115E8E0DE0799F68091F82C8F5F7E
:103660008093F82CF40184818B7F84838481826031
:10367000848364E670E080E090E00E94260D60CFD5
:103680008091780085FF05C080E28093780081E01A
:1036900008958091780080FF05C081E080937800D4
:1036A00082E008958091780084FF05C080E18093D6
:1036B000780083E008958091780081FF05C082E062
:1036C0008093780084E0089582E008955058BB27E5
:1036D000AA270E947E1B0C94F81C0E94EA1C38F05A
:1036E0000E94F11C20F039F49F3F19F426F40C9449
:1036F000E71C0EF4E095E7FB0C94E11CE92F0E9417
:10370000091D58F3BA17620773078407950720F05D
:1037100079F4A6F50C942B1D0EF4E0950B2EBA2F20
:10372000A02D0B01B90190010C01CA01A0011124C7
:10373000FF27591B99F0593F50F4503E68F11A1673
:10374000F040A22F232F342F4427585FF3CF469504
:1037500037952795A795F0405395C9F77EF41F1626
:10376000BA0B620B730B840BBAF09150A1F0FF0FF0
:10377000BB1F661F771F881FC2F70EC0BA0F621FDC
:10378000731F841F48F4879577956795B795F795CC
:103790009E3F08F0B0CF9395880F08F09927EE0F61
:1037A0009795879508950E94BD1C08F481E00895BF
:1037B0000E94EC1B0C94F81C0E94F11C58F00E9413
:1037C000EA1C40F029F45F3F29F00C94E11C5111F0
:1037D0000C942C1D0C94E71C0E94091D68F399237E
:1037E000B1F3552391F3951B550BBB27AA276217FD
:1037F0007307840738F09F5F5F4F220F331F441F0A
:10380000AA1FA9F335D00E2E3AF0E0E832D091503D
:103810005040E695001CCAF72BD0FE2F29D0660F2A
:10382000771F881FBB1F261737074807AB07B0E86D
:1038300009F0BB0B802DBF01FF2793585F4F3AF073
:103840009E3F510578F00C94E11C0C942C1D5F3FB9
:10385000E4F3983ED4F3869577956795B795F795F9
:103860009F5FC9F7880F911D9695879597F90895E1
:10387000E1E0660F771F881FBB1F6217730784077D
:10388000BA0720F0621B730B840BBA0BEE1F88F78C
:10389000E09508950E94511C6894B1110C942C1D60
:1038A00008950E94111D88F09F5798F0B92F99270D
:1038B000B751B0F0E1F0660F771F881F991F1AF01B
:1038C000BA95C9F714C0B13091F00E942B1DB1E038
:1038D00008950C942B1D672F782F8827B85F39F037
:1038E000B93FCCF3869577956795B395D9F73EF4B4
:1038F00090958095709561957F4F8F4F9F4F08955C
:10390000E89409C097FB3EF4909580957095619579
:103910007F4F8F4F9F4F9923A9F0F92F96E9BB272F
:103920009395F695879577956795B795F111F8CFAB
:10393000FAF4BB0F11F460FF1BC06F5F7F4F8F4F16
:103940009F4F16C0882311F096E911C0772321F00C
:103950009EE8872F762F05C0662371F096E8862FA4
:1039600070E060E02AF09A95660F771F881FDAF7FB
:10397000880F9695879597F90895990F0008550F28
:10398000AA0BE0E8FEEF16161706E807F907C0F0E5
:1039900012161306E407F50798F0621B730B840BED
:1039A000950B39F40A2661F0232B242B252B21F4C7
:1039B00008950A2609F4A140A6958FEF811D811D67
:1039C000089597F99F6780E870E060E008959FEFA1
:1039D00080EC089500240A941616170618060906A6
:1039E000089500240A941216130614060506089575
:1039F000092E0394000C11F4882352F0BB0F40F4FD
:103A0000BF2B11F460FF04C06F5F7F4F8F4F9F4F3C
:103A1000089557FD9058440F551F59F05F3F71F0BE
:103A20004795880F97FB991F61F09F3F79F0879525
:103A30000895121613061406551FF2CF4695F1DFAE
:103A400008C0161617061806991FF1CF869571053E
:103A5000610508940895E894BB2766277727CB0172
:103A600097F908950E94BD1C08F48FEF08950E94F5
:103A70004A1D0C94F81C0E94EA1C38F00E94F11CAC
:103A800020F0952311F00C94E11C0C94E71C1124F8
:103A90000C942C1D0E94091D70F3959FC1F3950F86
:103AA00050E0551F629FF001729FBB27F00DB11DC2
:103AB000639FAA27F00DB11DAA1F649F6627B00D52
:103AC000A11D661F829F2227B00DA11D621F739F3B
:103AD000B00DA11D621F839FA00D611D221F749F49
:103AE0003327A00D611D231F849F600D211D822F90
:103AF000762F6A2F11249F5750409AF0F1F08823B7
:103B00004AF0EE0FFF1FBB1F661F771F881F9150E3
:103B10005040A9F79E3F510580F00C94E11C0C9495
:103B20002C1D5F3FE4F3983ED4F386957795679517
:103B3000B795F795E7959F5FC1F7FE2B880F911D0D
:103B40009695879597F90895EE0FFF1F881F8BBFF5
:103B50000790F691E02D1994FB01DC0102C0019061
:103B60000D9241505040D8F70895DC0101C06D938B
:103B700041505040E0F70895BB274A3031F4992373
:103B800022F4BDE2909581959F4F0C94C81DBB27F0
:103B9000FB015527AA27880F991FAA1FA41710F009
:103BA000A41B83955051B9F7A05DAA3308F0A95D15
:103BB000A193009779F7B111B1931192CB010C94B5
:103BC000E11DDC01FC01672F71917723E1F732974A
:103BD00004C07C916D9370836291AE17BF07C8F3E8
:063BE0000895F894FFCFE8
:103BE6007F007F0049444C4500546D722053766334
:103BF600004672656552544F532031302E302E31B7
:103C060000613A20256420623A20256400483A2063
:103C16002564204C3A2025642000486F69006C65B5
:103C260064426C696E6B00646D6148616E646C65BC
:103C36007200454455426F61726420312E30005443
:103C4600656D706C6174650052657365745265616B
:103C5600736F6E3A202564006469737055706461F1
:043C66007465000081
:00000001FF
