S014000051414D4465634653323031392E73726563C0
S11300000C9422010C944C010C944C010C944C0162
S11300100C944C010C944C010C9491020C94DF024E
S11300200C944C010C944C010C944C010C944C0118
S11300300C944C010C944C010C94660D0C944C01E2
S11300400C944C010C944C010C944C010C944C01F8
S11300500C946B020C944C010C944C010C944C01C8
S11300600C944C010C944C010C944C010C944C01D8
S11300700C944C010C944C010C944C010C944C01C8
S11300800C944C010C944C010C944C010C944C01B8
S11300900C944C010C944C010C944C010C944C01A8
S11300A00C944C010C944C010C944C010C944C0198
S11300B00C944C010C944C010C944C010C944C0188
S11300C00C944C010C944C010C944C010C944C0178
S11300D00C944C010C944C010C944C010C944C0168
S11300E00C944C010C944C010C944C010C944C0158
S11300F00C944C010C944C010C944C010C944C0148
S11301000C944C010C944C010C944C010C944C0137
S11301100C944C010C944C010C944C010C944C0127
S11301200C944C010C944C010C944C010C944C0117
S11301300C944C010C944C010C944C010C944C0107
S11301400C944C010C944C010C944C010C944C01F7
S11301500C944C010C944C010C944C010C944C01E7
S11301600C944C010C944C010C944C010C944C01D7
S11301700C944C010C944C010C944C010C944C01C7
S11301800C944C010C944C010C944C010C944C01B7
S11301900C944C010C944C010C944C010C944C01A7
S11301A00C944C010C944C010C944C010C944C0197
S11301B00C9442230C944C010C944C010C944C016F
S11301C00C944C010C944C010C944C010C944C0177
S11301D00C944C010C944C010C944C010C944C0167
S11301E00C944C010C944C010C944C010C944C0157
S11301F00C944C010C944C010C944C01D31FD31F50
S1130200D31F5A2026205420D31FD31F5A20262020
S11302100C9454200C948D2C0C94FB220C94D31F1E
S11302200C940E1B0C94D5250C945A200C941B2F63
S11302300C9426200C9423030C94E2220C9444087E
S11302400C94B51D11241FBECFEFCDBFDFE3DEBF7D
S113025000E00CBFE9E5F2E38AEA90E48193E03040
S1130260F907E0F3000010E2A0E0B0E2EAE5FAE604
S113027000E00BBF02C007900D92A439B107D9F773
S113028022E3A4E9B0E201C01D92A935B207E1F767
S11302900E9405220C942B350C940000CF93DF931D
S11302A0CDB7DEB780E492E020E432E0F9012181A9
S11302B0217EFC01218380E492E020E432E0F90114
S11302C02481287F2360FC01248380E492E0FC01E4
S11302D0128280E492E020E432E0F90120A1207649
S11302E02160FC0120A380E492E0FC0111A280E4DF
S11302F092E029E3FC01238380E492E020E432E0ED
S1130300F90120812160FC0120830000DF91CF915D
S11303100895CF93DF93CDB7DEB780E296E021E076
S1130320FC01228380E296E022E0FC01228380E447
S113033098E0FC01108280E498E0FC0110A211A274
S113034080E498E027EE33E0FC0126A337A30E9463
S11303504E0180E891E028ECFC01278380E091E0E5
S1130360FC01108280E091E020E4FC012083000085
S113037080E091E0FC018081882F90E080749927CF
S1130380892BB1F780E091E024E8FC01208380E030
S113039091E0FC01168A80E091E025E2FC01208BCB
S11303A080E091E021E0FC01218B80E091E02DE9E7
S11303B0FC01228B80E091E020E2FC01238B80E0B1
S11303C091E020E230E0FC01248B358B80E091E069
S11303D024E031E3FC01248F80E091E024E031E368
S11303E0232F3327FC01258F80E091E0FC01168E3A
S11303F080E091E024E6FC01208F80E091E022E09F
S1130400FC01218F80E091E0FC01128E80E091E0FC
S1130410FC0116A280E091E025E2FC0120A380E02B
S113042091E021E0FC0121A380E091E02DE9FC01B1
S113043022A380E091E020E2FC0123A380E091E08C
S113044020E230E0FC0124A335A380E091E024EC19
S113045030E3FC0124A780E091E024EC30E3232F77
S11304603327FC0125A780E091E0FC0116A680E07B
S113047091E024E6FC0120A780E091E022E0FC0169
S113048021A780E091E0FC0112A680E091E020E049
S113049031E0F90120892068FC01208B80E091E0A3
S11304A020E031E0F90120A12068FC0120A380E4D0
S11304B098E021E0FC01208380E498E021E0FC0145
S11304C0268382EA90E021E0FC01208378940000F6
S11304D0DF91CF9108951F920F9200903F000F92E9
S11304E011248F939F93CF93DF931F921F92CDB7C5
S11304F0DEB789819A81809711F419821A828981E1
S11305009A81019689839A8300000F900F90DF915E
S1130510CF919F918F910F9000923F000F901F9069
S113052018951F920F9200903F000F921124009093
S11305303B000F922F933F934F935F936F937F935F
S11305408F939F93AF93BF93EF93FF93CF93DF93D7
S11305501F921F92CDB7DEB780E091E021E0FC014D
S1130560238380EA96E021E0FC0127831A828091AC
S11305704A2D90914B2D9E012E5F3F4F41E050E05C
S113058060E070E00E94A908898300000F900F903A
S1130590DF91CF91FF91EF91BF91AF919F918F9197
S11305A07F916F915F914F913F912F910F900092A6
S11305B03B000F9000923F000F901F9018951F92E0
S11305C00F9200903F000F92112400903B000F9275
S11305D02F933F934F935F936F937F938F939F9347
S11305E0AF93BF93EF93FF93CF93DF931F921F9229
S11305F0CDB7DEB71A8280914A2D90914B2D9E0182
S11306002E5F3F4F42E050E060E070E00E94A90896
S1130610898300000F900F90DF91CF91FF91EF91AC
S1130620BF91AF919F918F917F916F915F914F9106
S11306303F912F910F9000923B000F9000923F004A
S11306400F901F901895CF92DF92EF92FF920F9325
S1130650CF93DF93CDB7DEB72B97CDBFDEBF8A87AD
S11306609B870E94960580934A2D90934B2D1C8264
S11306701D8280EA96E022E0FC01218380EA96E074
S113068024E0FC01218380E896E021E0FC01218341
S113069080E896E022E0FC01218380914A2D90912C
S11306A04B2DCC24CA94DC2C760100E021E043E0FD
S11306B050E060E070E00E94B905DC01CB018E835C
S11306C09F83A887B9878E819F81A885B98581700A
S11306D09927AA27BB27892B8A2B8B2B09F467C060
S11306E01A821B8242C08091482E9091492E31E09B
S11306F0873891050CF030E08091482E9091492E76
S113070021E0893791050CF420E0832F822388238C
S1130710C1F08C819D8101968C839D838C819D8108
S113072084369105ECF08091462E9091472E43E05B
S113073050E060E070E00E94F106DC01CB018983A7
S11307400FC08091462E9091472E42E050E060E029
S113075070E00E943C07DC01CB0189831C821D826E
S11307608A819B8101968A839B8380910020282F14
S113077030E08A819B81821793070CF4B4CF809177
S113078094208F5F8093942080EA96E020EA36E0FC
S1130790F90124812D7FFC01248380EA96E020EA7C
S11307A036E0F90124812460FC01248360C01A82AC
S11307B01B823CC08A819B818C539F4CFC018081AD
S11307C0843168F08091462E9091472E41E050E0AC
S11307D060E070E00E943C07DC01CB0189838981E1
S11307E0082E000C990B81709927892B19F010920F
S11307F0942017C08C819D8101968C839D838C816C
S11308009D81843691056CF08091462E9091472EFF
S113081043E050E060E070E00E94F106DC01CB01AF
S113082089838A819B8101968A839B83809100209E
S1130830282F30E08A819B81821793070CF4BACF6A
S1130840809195208F5F8093952080EA96E020EA3E
S113085036E0F90124812B7FFC01248380EA96E0B1
S113086020EA36E0F90124812260FC01248364E655
S113087070E080E090E00E94AD150FCF0F93CF930E
S1130880DF9300D000D0CDB7DEB78C839D836E8319
S11308908FE390E0FC0180818B83F8948C819D81AF
S11308A089839A838BE390E0FC01108289819A8189
S11308B02E81FC0108ED04BF20838FE390E02B819F
S11308C0FC01208300002696CDBFDEBFDF91CF91CF
S11308D00F910895CF93DF9300D0CDB7DEB789830E
S11308E06A834B8380E590E02A81222311F020E281
S11308F001C020E03981322B2B81232BFC01228380
S113090000002396CDBFDEBFDF91CF910895CF9332
S1130910DF931F921F92CDB7DEB789836A838A81E2
S11309208F718A8380E590E039812A81232BFC0131
S1130930258300000F900F90DF91CF910895CF93FE
S1130940DF931F921F92CDB7DEB78A8380E590E0D4
S113095020E530E0F9012081322F2A8120952323DC
S1130960FC01208380E590E0FC0190818A81892349
S1130970898389810F900F90DF91CF910895CF9350
S1130980DF9300D0CDB7DEB78A836B839A818B81E6
S1130990892B8983698181E490E00E943E040000F0
S11309A02396CDBFDEBFDF91CF910895CF93DF9320
S11309B01F921F92CDB7DEB78A8380E490E0FC01DA
S11309C08081982F987F8A81892B8983698180E42B
S11309D090E00E943E0480E490E0FC0190818A81D2
S11309E08923898389810F900F90DF91CF91089596
S11309F0CF93DF9300D0CDB7DEB789839A836B831F
S1130A0089819A81FC018081982F907F8B81892B29
S1130A10282F89819A81FC01208300002396CDBF71
S1130A20DEBFDF91CF910895CF93DF9300D0CDB790
S1130A30DEB789839A836B8389819A81FC018181E2
S1130A40982F987F8B81892B282F89819A81FC018B
S1130A50218300002396CDBFDEBFDF91CF9108959F
S1130A60CF93DF9300D0CDB7DEB789839A836B83AE
S1130A7089819A81FC018681982F9C7F8B81892BA7
S1130A80282F89819A81FC01268300002396CDBFFB
S1130A90DEBFDF91CF910895CF93DF9300D01F92F3
S1130AA0CDB7DEB789839A836B837C838BE20E9404
S1130AB0600500002496CDBFDEBFDF91CF9108957D
S1130AC0CF93DF931F921F92CDB7DEB78A838A81BB
S1130AD08B3219F481E089830EC08A818C3219F437
S1130AE082E0898308C08A818F3219F483E0898384
S1130AF002C084E089830E94830500000F900F9058
S1130B00DF91CF910895CF93DF93CDB7DEB7000087
S1130B1084E390E028EDFC01208388E790E021E065
S1130B20FC0121830000DF91CF910895CF93DF93DF
S1130B301F921F92CDB7DEB780E190E00E94D308E8
S1130B4089839A8389819A81892B61F089819A8129
S1130B50FC01108211821282138289819A81049687
S1130B600E94250989819A810F900F90DF91CF917E
S1130B700895CF92DF92EF92FF920F931F93CF933A
S1130B80DF93CDB7DEB76D97CDBFDEBF8A8B9B8B6E
S1130B904C8B5D8B6E8B7F8B288F098FCA8EDB8E7F
S1130BA0EC8EFD8E8A899B8989879A871D821E8295
S1130BB01F8218861B860E94271689859A85FC0148
S1130BC080819181A281B3818C879D87AE87BF8705
S1130BD02C893D894E895F898C859D85AE85BF852D
S1130BE0098DBC01CD010E946208888B8889882305
S1130BF059F18C859D85AE85BF8589839A83AB83A6
S1130C00BC831A8E1B8E1C8E1D8E888D882309F43E
S1130C1065C089859A85FC01208131814281538197
S1130C208C899D89AE89BF8980959095A095B09552
S1130C3082239323A423B52329853A85F90180834C
S1130C409183A283B3834AC08A8D9B8DAC8DBD8D65
S1130C50892B8A2B8B2B59F48C859D85AE85BF857A
S1130C6089839A83AB83BC8381E08B8737C0888D6B
S1130C70882349F08D819E81AF81B885B1608D83D1
S1130C809E83AF83B887898D882349F08D819E81A7
S1130C90AF81B885B4608D839E83AF83B8872C8978
S1130CA03D894E895F898D819E81AF81B885822B74
S1130CB0932BA42BB52B29853A85F90134962A8DDB
S1130CC03B8D4C8D5D8D89019A01AC01BD01CF0135
S1130CD00E94FA1819821A821B821C820E943416FE
S1130CE0898B8A8D9B8DAC8DBD8D892B8A2B8B2B0B
S1130CF009F465C08989882311F40E94BC0C0E9400
S1130D00B81BDC01CB0189839A83AB83BC838981C3
S1130D109A81AB81BC8188279927AA27B270892B35
S1130D208A2B8B2B09F042C0F091A200FF93F87F2D
S1130D30F093A20089859A85FC0180819181A2812A
S1130D40B38189839A83AB83BC832C893D894E8983
S1130D505F8989819A81AB81BC81098DBC01CD01F8
S1130D600E9462088823E9F0888D8823D1F0898560
S1130D709A85FC0120813181428153818C899D892E
S1130D80AE89BF8980959095A095B09582239323D1
S1130D90A423B52329853A85F90180839183A2830D
S1130DA0B38381E08B87FF91F093A20089819A81BC
S1130DB0AB81BC81BB2789839A83AB83BC83898144
S1130DC09A81AB81BC81BC01CD016D96CDBFDEBFE4
S1130DD0DF91CF911F910F91FF90EF90DF90CF9013
S1130DE00895CF93DF93CDB7DEB72C97CDBFDEBF89
S1130DF08F83988749875A876B877C878F819885EB
S1130E0089839A83F091A200FF93F87FF093A20064
S1130E1089819A81FC0180819181A281B3818B8334
S1130E209C83AD83BE8389819A81FC0120813181B9
S1130E304281538189859A85AB85BC85809590953F
S1130E40A095B09582239323A423B52329813A81C5
S1130E50F90180839183A283B383FF91F093A2006D
S1130E608B819C81AD81BE81BC01CD012C96CDBF0F
S1130E70DEBFDF91CF910895CF93DF93CDB7DEB777
S1130E806D97CDBFDEBF888F998F4A8F5B8F6C8F34
S1130E907D8F1B821C821D821E82888D998D88877E
S1130EA099871F828885998504968A879B878A8576
S1130EB09B8503968C879D870E9427168A859B8530
S1130EC0FC018781908589839A8388859985FC01B3
S1130ED020813181428153818A8D9B8DAC8DBD8D62
S1130EE0822B932BA42BB52B28853985F90180837C
S1130EF09183A283B38395C089819A81FC01848103
S1130F0095818E879F8789819A81FC018081918157
S1130F10A281B381888B998BAA8BBB8B1F82888912
S1130F209989AA89BB8988279927AA278C8B9D8BA5
S1130F30AE8BBF8B88899989AA89BB89BB27888B8B
S1130F40998BAA8BBB8B8C899D89AE89BF89882795
S1130F509927AA27B470892B8A2B8B2BB1F4888507
S1130F609985FC0120813181428153818889998945
S1130F70AA89BB8982239323A423B523892B8A2B93
S1130F808B2BE9F081E08F831AC088859985FC0159
S1130F90208131814281538188899989AA89BB89B9
S1130FA0282339234A235B2388899989AA89BB8901
S1130FB0281739074A075B0711F481E08F838F8173
S1130FC0882359F18C899D89AE89BF8988279927FF
S1130FD0AA27B170892B8A2B8B2B81F02B813C8122
S1130FE04D815E8188899989AA89BB89822B932B3B
S1130FF0A42BB52B8B839C83AD83BE838885998575
S1131000FC0180819181A281B381B26029813A81FE
S1131010AC01BD01C9010E94D5198E859F858983C4
S11310209A8329813A818C859D852817390709F08F
S113103063CF88859985FC01208131814281538168
S11310408B819C81AD81BE8180959095A095B09552
S113105082239323A423B52328853985F90180832A
S11310609183A283B3830E94341688859985FC01F9
S113107080819181A281B381BC01CD016D96CDBFE8
S1131080DEBFDF91CF910895CF93DF9300D000D0DE
S1131090CDB7DEB789839A834B835C836D837E836C
S11310A08B819C81AD81BE8129813A81AC01BD01D6
S11310B0C9010E943C0700002696CDBFDEBFDF9128
S11310C0CF9108950F93CF93DF93CDB7DEB72A97CF
S11310D0CDBFDEBF6A837B838C839D832E833F8356
S11310E0488759870A8719828A85882399F42A812F
S11310F03B814C815D818E819F81A885B985822346
S11311009323A423B523892B8A2B8B2BD1F081E045
S1131110898317C02A813B814C815D818E819F81A7
S1131120A885B985282339234A235B238E819F818F
S1131130A885B985281739074A075B0711F481E0A8
S1131140898389812A96CDBFDEBFDF91CF910F912C
S113115008950F931F93CF93DF93CDB7DEB72997ED
S1131160CDBFDEBF8A839B834C835D836E837F8385
S113117028873987288539858C819D81AE81BF81F7
S11311806A817B8189019C01AD0184E498E00E941D
S11311906421898389812996CDBFDEBFDF91CF91F8
S11311A01F910F910895CF93DF9300D01F92CDB775
S11311B0DEB78B839C8319821A820E9427162091A2
S11311C04E2C30914F2C8B819C81820F931F883B36
S11311D09B4018F520914E2C30914F2C8B819C8193
S11311E0280F391F80914E2C90914F2C8217930712
S11311F0A0F480914E2C90914F2C8A569F4D898358
S11312009A8320914E2C30914F2C8B819C81820F9C
S1131210931F80934E2C90934F2C0E9434168981F7
S11312209A812496CDBFDEBFDF91CF910895CF93ED
S1131230DF931F921F92CDB7DEB789839A83000094
S11312400F900F90DF91CF910895CF93DF931F926A
S11312501F92CDB7DEB789839A8389819A819C01D5
S11312602D5F3F4F89819A81FC012183328329813B
S11312703A818FEF9FEFDC01F90183839483A58387
S1131280B68389819A819C012D5F3F4F89819A8120
S1131290FC012783308789819A819C012D5F3F4F10
S11312A089819A81FC012187328789819A81FC0195
S11312B0108200000F900F90DF91CF910895CF938B
S11312C0DF931F921F92CDB7DEB789839A838981FA
S11312D09A81FC011286138600000F900F90DF9113
S11312E0CF910895CF93DF9300D000D0CDB7DEB770
S11312F08B839C836D837E838B819C81FC018181A4
S1131300928189839A838D819E8129813A81FC010E
S11313102483358389819A81FC01268137818D81DB
S11313209E81FC012683378389819A81FC01868111
S113133097812D813E81FC012483358389819A81A3
S11313402D813E81FC01268337838D819E812B81F3
S11313503C81FC01228733878B819C81FC01808145
S113136021E0280F8B819C81FC01208300002696BC
S1131370CDBFDEBFDF91CF910895CF93DF93CDB77B
S1131380DEB72A97CDBFDEBF8F83988769877A87B8
S113139089859A85FC0180819181A281B3818B83A7
S11313A09C83AD83BE838B819C81AD81BE818F3F45
S11313B09F4FAF4FBF4F41F48F819885FC018185CA
S11313C0928589839A8320C08F8198850396898327
S11313D09A8307C089819A81FC01848195818983DC
S11313E09A8389819A81FC0184819581FC01208101
S11313F03181428153818B819C81AD81BE81821771
S11314009307A407B50730F789819A81FC012481E9
S1131410358189859A85FC012483358389859A855C
S1131420FC018481958129853A85FC0126833783D3
S113143089859A8529813A81FC01268337838981AC
S11314409A8129853A85FC012483358389859A8587
S11314502F813885FC01228733878F819885FC0191
S1131460808121E0280F8F819885FC012083000072
S11314702A96CDBFDEBFDF91CF910895CF93DF933E
S113148000D01F92CDB7DEB78B839C838B819C8168
S1131490FC018285938589839A838B819C81FC01DD
S11314A0848195812B813C81F90126813781FC015E
S11314B0268337838B819C81FC01868197812B81D4
S11314C03C81F90124813581FC01248335838981A0
S11314D09A81FC01218132818B819C8128173907F3
S11314E051F48B819C81FC012681378189819A8109
S11314F0FC01218332838B819C81FC01128613863B
S113150089819A81FC0180812FEF280F89819A813A
S1131510FC01208389819A81FC0180812496CDBFBE
S1131520DEBFDF91CF9108951F93CF93DF93CDB7A3
S1131530DEB780EA90E0FC01128180EA90E020EAC4
S113154030E0F9012281287FFC012283812FDF9181
S1131550CF911F910895CF93DF93CDB7DEB72A972C
S1131560CDBFDEBF8D839E836F83788749875A877B
S11315708D819E8121E1FC0120838D819E810197D3
S11315808D839E838D819E8122E2FC0120838D8147
S11315909E8101978D839E838D819E8123E3FC012F
S11315A020838D819E8101978D839E838F81988571
S11315B0CC01A0E0B0E089839A83AB83BC8329810A
S11315C08D819E81FC0120838D819E8101978D8375
S11315D09E8389819A81AB81BC81892F9A2FAB2FFD
S11315E0BB2789839A83AB83BC8329818D819E81A8
S11315F0FC0120838D819E8101978D839E83898147
S11316009A81AB81BC81892F9A2FAB2FBB27898309
S11316109A83AB83BC8329818D819E81FC012083C5
S11316208D819E8101978D839E838D819E8121E38F
S1131630FC0120838D819E8101978D839E838D8102
S11316409E8120E8FC0120838D819E8101978D83FA
S11316509E838D819E8127E8FC0120838D819E815C
S113166001978D839E838D819E81FC0110828D81E3
S11316709E8101978D839E838D819E81FC011082C2
S11316808D819E8101978D839E838D819E8122E031
S1131690FC0120838D819E8101978D839E838D81A2
S11316A09E8123E0FC0120838D819E8101978D839F
S11316B09E838D819E8124E0FC0120838D819E8107
S11316C001978D839E838D819E8125E0FC0120837B
S11316D08D819E8101978D839E838D819E8126E0DD
S11316E0FC0120838D819E8101978D839E838D8152
S11316F09E8127E0FC0120838D819E8101978D834B
S11317009E838D819E8128E0FC0120838D819E81B2
S113171001978D839E838D819E8129E0FC01208326
S11317208D819E8101978D839E838D819E8120E191
S1131730FC0120838D819E8101978D839E838D8101
S11317409E8121E1FC0120838D819E8101978D83FF
S11317509E838D819E8122E1FC0120838D819E8167
S113176001978D839E838D819E8123E1FC012083DB
S11317708D819E8101978D839E838D819E8124E13D
S1131780FC0120838D819E8101978D839E838D81B1
S11317909E8125E1FC0120838D819E8101978D83AB
S11317A09E838D819E8126E1FC0120838D819E8113
S11317B001978D839E838D819E8127E1FC01208387
S11317C08D819E8101978D839E838D819E8128E1E9
S11317D0FC0120838D819E8101978D839E838D8161
S11317E09E8129E1FC0120838D819E8101978D8357
S11317F09E838D819E8120E2FC0120838D819E81C8
S113180001978D839E838D819E8121E2FC0120833B
S11318108D819E8101978D839E838D819E8122E29D
S1131820FC0120838D819E8101978D839E838D8110
S11318309E8123E2FC0120838D819E8101978D830B
S11318409E8389859A85CC01A0E0B0E089839A8340
S1131850AB83BC8329818D819E81FC0120838D8192
S11318609E8101978D839E8389819A81AB81BC81FE
S1131870892F9A2FAB2FBB2789839A83AB83BC8391
S113188029818D819E81FC0120838D819E81019718
S11318908D839E838D819E8126E2FC0120838D8130
S11318A09E8101978D839E838D819E8127E2FC0119
S11318B020838D819E8101978D839E838D819E815E
S11318C028E2FC0120838D819E8101978D839E8374
S11318D08D819E8129E2FC0120838D819E81019767
S11318E08D839E838D819E8120E3FC0120838D81E5
S11318F09E8101978D839E838D819E812A96CDBF83
S1131900DEBFDF91CF910895CF93DF93CDB7DEB7DC
S11319100E94CB0DA091502CB091512C0D900DBE76
S11319200D900EBEEF91DF91CF91BF91AF919F913A
S11319308F917F916F915F914F913F912F911F9163
S11319400F91FF90EF90DF90CF90BF90AF909F905A
S11319508F907F906F905F904F903F902F901F904B
S11319600F90FF91F093A200FF91FFBFFF910895A4
S113197081E0DF91CF910895FF93FFB7FF93F0913A
S1131980A200FF93F87FF093A2000F921F921124FC
S11319902F923F924F925F926F927F928F929F927B
S11319A0AF92BF92CF92DF92EF92FF920F931F9369
S11319B02F933F934F935F936F937F938F939F9353
S11319C0AF93BF93CF93DF93EF93A091502CB0913B
S11319D0512C0DB60D920EB60D920E940218A091D4
S11319E0502CB091512C0D900DBE0D900EBEEF9168
S11319F0DF91CF91BF91AF919F918F917F916F9123
S1131A005F914F913F912F911F910F91FF90EF9014
S1131A10DF90CF90BF90AF909F908F907F906F900A
S1131A205F904F903F902F901F900F90FF91F093F5
S1131A30A200FF91FFBFFF91089500001F93CF9371
S1131A40DF931F92CDB7DEB7898380914431982FFD
S1131A508981892B8093443180EA90E0FC01808164
S1131A60813061F080EA90E0FC018081823031F0C5
S1131A7080EA90E0FC018081843079F480914431E3
S1131A80882359F00E94940A182F109244310E941E
S1131A90021880EA90E0FC01128300000F90DF91AD
S1131AA0CF911F9108951F93CF93DF93CDB7DEB7E6
S1131AB00E94940A182F0E94F21680EA90E0FC011A
S1131AC012830000DF91CF911F910895FF93FFB718
S1131AD0FF93F091A200FF93F87FF093A2000F927E
S1131AE01F9211242F923F924F925F926F927F9296
S1131AF08F929F92AF92BF92CF92DF92EF92FF921A
S1131B000F931F932F933F934F935F936F937F9301
S1131B108F939F93AF93BF93CF93DF93EF93A09152
S1131B20502CB091512C0DB60D920EB60D920E9410
S1131B30530D81E00E941E0DA091502CB091512CA8
S1131B400D900DBE0D900EBEEF91DF91CF91BF9120
S1131B50AF919F918F917F916F915F914F913F9141
S1131B602F911F910F91FF90EF90DF90CF90BF9036
S1131B70AF909F908F907F906F905F904F903F9029
S1131B802F901F900F90FF91F093A200FF91FFBF41
S1131B90FF9118950000CF93DF9300D01F92CDB72B
S1131BA0DEB780E09DE7A0E0B0E089839A83AB8351
S1131BB0BC8389819A81AB81BC81689415F8B69500
S1131BC0A795979587951694D1F789839A83AB83C4
S1131BD0BC8389819A81AB81BC810197A109B10938
S1131BE089839A83AB83BC8380E098E029813A811E
S1131BF0FC0126A337A365E080E098E00E94F80486
S1131C0061E080E098E00E94300500002496CDBF9A
S1131C10DEBFDF91CF910895CF93DF93CDB7DEB7C9
S1131C202597CDBFDEBF8B839C836D838B819C8185
S1131C3089839A83F091A200FF93F87FF093A20026
S1131C4089819A81FC018081918129813A81F901FC
S1131C50278D422F50E029813A81F90120A1222FBA
S1131C6030E0429FB001439F700D529F700D1124CC
S1131C709B01280F391F89819A81FC0122833383B8
S1131C8089819A81FC01168E89819A81FC012081C7
S1131C90318189819A81FC012483358389819A81E8
S1131CA0FC018081918129813A81F901278D222FBC
S1131CB030E0A9014150510929813A81F90120A15B
S1131CC0222F30E0429FB001439F700D529F700D50
S1131CD011249B01280F391F89819A81FC012683D5
S1131CE0378389819A812FEFFC0121A389819A810D
S1131CF02FEFFC0122A38D81882381F489819A81AD
S1131D00FC0180858823A1F089819A8108960E942C
S1131D106D19882369F00E94BC0C0AC089819A81DC
S1131D2008960E94250989819A8143960E94250973
S1131D30FF91F093A20081E02596CDBFDEBFDF9135
S1131D40CF9108950F931F93CF93DF93CDB7DEB751
S1131D502997CDBFDEBF8F8368874987888588230D
S1131D6019F419821A820FC08F81482F50E0888598
S1131D70282F30E0429FC001439F900D529F900D49
S1131D80112489839A8389819A8185960E94D30834
S1131D908B839C838B819C81892B81F08B819C819B
S1131DA085968D839E832B813C818D819E818901C3
S1131DB02985AC0168858F810E94E80E8B819C8106
S1131DC02996CDBFDEBFDF91CF911F910F9108956A
S1131DD00F931F93CF93DF93CDB7DEB72797CDBF74
S1131DE0DEBF89836A834B835C832D830E831F83C9
S1131DF08A81882341F48E819F812E813F81FC0159
S1131E002083318307C08E819F812B813C81FC011B
S1131E10208331838E819F812981FC01278F8E81CC
S1131E209F812A81FC0120A38E819F8161E00E9411
S1131E300C0E8E819F812D81FC0124A30000279626
S1131E40CDBFDEBFDF91CF911F910F9108950F9306
S1131E50CF93DF93CDB7DEB76297CDBFDEBF8A875E
S1131E609B876C877D872E873F87488B598B0A8B8E
S1131E7019828A859B858A839B83F091A200FF93B4
S1131E80F87FF093A2008A819B81FC01268D8A81D0
S1131E909B81FC01878D281718F08A89823019F5F7
S1131EA02C853D858A819B814A89B9010E94DC1178
S1131EB08C838A819B81FC018389882351F08A81E8
S1131EC09B8143960E946D19882341F00E94BC0CAB
S1131ED005C08C81882311F00E94BC0CFF91F09303
S1131EE0A20081E06FC08E859F85A889B989892B5E
S1131EF08A2B8B2B29F4FF91F093A20080E062C01F
S1131F008981882331F4CE0105960E94381A81E034
S1131F108983FF91F093A2000E942716F091A200FA
S1131F20FF93F87FF093A2008A819B81FC0181A139
S1131F308F3F21F48A819B81FC0111A28A819B81BC
S1131F40FC0182A18F3F21F48A819B81FC0112A2B2
S1131F50FF91F093A2009E01225F3F4FCE010596B0
S1131F60B9010E945B1A882331F58A819B810E9402
S1131F7067138823C9F08E859F85A889B9892A812A
S1131F803B81285F3F4FAC01BD01C9010E94D218BB
S1131F908A819B810E94E1120E943416882309F0F1
S1131FA06CCF0E94BC0C69CF8A819B810E94E11294
S1131FB00E94341662CF8A819B810E94E1120E94A2
S1131FC0341680E06296CDBFDEBFDF91CF910F91D2
S1131FD00895CF93DF93CDB7DEB72C97CDBFDEBF87
S1131FE08E839F83688779874A875B872C878E8156
S1131FF09F818A839B830E94940A8C838A819B811C
S1132000FC01268D8A819B81FC01878D281718F09D
S11320108C85823089F58A819B81FC0182A18D8324
S1132020288539858A819B814C85B9010E94DC1100
S11320308D818F3FB9F48A819B81FC018389882338
S1132040C1F08A819B8143960E946D19882389F08F
S11320508A859B85892B69F08A859B8521E0FC0113
S1132060208307C08D818F5F282F8A819B81FC018B
S113207022A381E0898301C0198280EA90E02C8147
S1132080FC01228389812C96CDBFDEBFDF91CF91E5
S11320900895CF93DF93CDB7DEB76197CDBFDEBF91
S11320A08A879B876C877D872E873F87488B598BD0
S11320B019828A859B858A839B83F091A200FF9372
S11320C0F87FF093A2008A819B81FC01868D8C832A
S11320D08C81882311F12C853D858A819B81B901EE
S11320E00E9491128C812FEF280F8A819B81FC0121
S11320F0268F8A819B81FC018085882349F08A810F
S11321009B8108960E946D19882311F00E94BC0CD3
S1132110FF91F093A20081E076C08E859F85A88907
S1132120B989892B8A2B8B2B29F4FF91F093A20078
S113213080E069C08981882331F4CE0105960E942C
S1132140381A81E08983FF91F093A2000E94271638
S1132150F091A200FF93F87FF093A2008A819B8103
S1132160FC0181A18F3F21F48A819B81FC0111A292
S11321708A819B81FC0182A18F3F21F48A819B810A
S1132180FC0112A2FF91F093A2009E01225F3F4F37
S1132190CE010596B9010E945B1A882331F58A8124
S11321A09B810E9446138823C9F08E859F85A88948
S11321B0B9892A813B812D5E3F4FAC01BD01C90124
S11321C00E94D2188A819B810E94E1120E943416D7
S11321D0882309F072CF0E94BC0C6FCF8A819B8147
S11321E00E94E1120E94341668CF8A819B810E946A
S11321F0E1120E9434168A819B810E94461388232F
S113220009F45BCF80E06196CDBFDEBFDF91CF9153
S11322100895CF93DF93CDB7DEB72F97CDBFDEBF41
S11322208A879B874C875D876E877F8719828A851B
S11322309B858A839B83F091A200FF93F87FF093A0
S1132240A2008A819B81FC01868D8C838C818823EA
S1132250D9F08C812FEF280F8A819B81FC01268F76
S11322608A819B81FC018085882349F08A819B8136
S113227008960E946D19882311F00E94BC0CFF91EE
S1132280F093A20081E076C08C859D85AE85BF85E4
S1132290892B8A2B8B2B29F4FF91F093A20080E0E9
S11322A069C08981882331F4CE0105960E94381AC9
S11322B081E08983FF91F093A2000E942716F09198
S11322C0A200FF93F87FF093A2008A819B81FC0116
S11322D081A18F3F21F48A819B81FC0111A28A8113
S11322E09B81FC0182A18F3F21F48A819B81FC01A7
S11322F012A2FF91F093A2009E01245F3F4FCE01F2
S11323000596B9010E945B1A882331F58A819B8165
S11323100E9446138823C9F08C859D85AE85BF85B0
S11323202A813B812D5E3F4FAC01BD01C9010E9452
S1132330D2188A819B810E94E1120E94341688235C
S113234009F079CF0E94BC0C76CF8A819B810E94D0
S1132350E1120E9434166FCF8A819B810E94E112A0
S11323600E9434168A819B810E944613882309F4B3
S113237062CF80E02F96CDBFDEBFDF91CF9108956D
S1132380CF93DF9300D0CDB7DEB78A839B83F091E0
S1132390A200FF93F87FF093A2008A819B81FC0145
S11323A0868D8983FF91F093A20089812396CDBF06
S11323B0DEBFDF91CF910895CF93DF93CDB7DEB722
S11323C02797CDBFDEBF8B839C836D837E834F8332
S11323D01A828B819C81FC01868D89838B819C81EF
S11323E0FC0180A1882309F48EC08F818823D9F54C
S11323F08B819C81FC0180A1482F50E08B819C81C2
S1132400FC01848195812D813E81B9010E94D234E1
S11324108B819C81FC01248135818B819C81FC0111
S113242080A1882F90E0280F391F8B819C81FC01AB
S1132430248335838B819C81FC01248135818B81AC
S11324409C81FC01828193812817390708F45BC0C1
S11324508B819C81FC01208131818B819C81FC01D9
S11324602483358350C08B819C81FC0180A1482F3B
S113247050E08B819C81FC01868197812D813E8176
S1132480B9010E94D2348B819C81FC012681378161
S11324908B819C81FC0180A1882F90E0919581958E
S11324A09109280F391F8B819C81FC012683378376
S11324B08B819C81FC01268137818B819C81FC016D
S11324C08081918128173907A8F48B819C81FC01B4
S11324D0228133818B819C81FC0180A1882F90E033
S11324E0919581959109280F391F8B819C81FC015D
S11324F0268337838F81823031F48981882319F0D0
S1132500898181508983898121E0280F8B819C8175
S1132510FC01268F8A812796CDBFDEBFDF91CF9144
S11325200895CF93DF9300D01F92CDB7DEB7898390
S11325309A836B837C8389819A81FC0180A188239F
S1132540C9F189819A81FC012681378189819A8127
S1132550FC0180A1882F90E0280F391F89819A817E
S1132560FC012683378389819A81FC012681378186
S113257089819A81FC01828193812817390750F05F
S113258089819A81FC012081318189819A81FC01B0
S11325902683378389819A81FC0180A1482F50E0EA
S11325A089819A81FC01268137818B819C81B901C3
S11325B00E94D23400002496CDBFDEBFDF91CF91BC
S11325C00895CF93DF9300D01F92CDB7DEB78B83EE
S11325D09C83F091A200FF93F87FF093A2008B817B
S11325E09C81FC0182A1898312C08B819C81FC01A6
S11325F08389882381F08B819C8143960E946D1985
S1132600882311F00E94031B898181508983898169
S113261018165CF301C000008B819C812FEFFC0134
S113262022A3FF91F093A200F091A200FF93F87F00
S1132630F093A2008B819C81FC0181A18A8312C04A
S11326408B819C81FC018085882381F08B819C8116
S113265008960E946D19882311F00E94031B8A8139
S113266081508A838A8118165CF301C000008B8133
S11326709C812FEFFC0121A3FF91F093A2000000A5
S11326802496CDBFDEBFDF91CF910895CF93DF9322
S113269000D0CDB7DEB78A839B83F091A200FF936D
S11326A0F87FF093A2008A819B81FC01868D8823A8
S11326B019F481E0898301C01982FF91F093A2008B
S11326C089812396CDBFDEBFDF91CF910895CF934B
S11326D0DF9300D0CDB7DEB78A839B83F091A2004D
S11326E0FF93F87FF093A2008A819B81FC01268DE1
S11326F08A819B81FC01878D281719F481E08983E5
S113270001C01982FF91F093A20089812396CDBF65
S1132710DEBFDF91CF910895CF93DF93CDB7DEB7BE
S11327202997CDBFDEBF8B839C834D835E836F83EC
S1132730788729878B819C8189839A83F091A20071
S1132740FF93F87FF093A20089819A81FC0181A113
S11327508F3F21F489819A81FC0111A289819A8198
S1132760FC0182A18F3F21F489819A81FC0112A28C
S1132770FF91F093A20089819A81FC01868D8823C0
S113278071F489819A81FC0173968D819E81AF8158
S1132790B8852985AC01BD01CF010E943919898111
S11327A09A810E94E11200002996CDBFDEBFDF911D
S11327B0CF9108958F929F92AF92BF92CF92DF9262
S11327C0EF92FF920F931F93CF93DF93CDB7DEB7B2
S11327D06097CDBFDEBF8E839F83688779874A87E2
S11327E05B872C873D870E87EF86F88A8A859B85D1
S11327F00E94D3088C839D838C819D81892BB9F0A1
S11328008CE290E00E94D30889839A8389819A811B
S1132810892B41F089819A812C813D81FC01238F90
S1132820348F07C08C819D810E94170902C01982D0
S11328301A8289819A81892B09F18A859B85CC0129
S1132840A0E0B0E009811A814F8558892C853D8527
S113285068857985EE81FF81812C912C58016A016C
S1132860EE8489019C01AD01CF010E94511489813C
S11328709A810E94271581E08B8302C08FEF8B839E
S11328808B816096CDBFDEBFDF91CF911F910F91F9
S1132890FF90EF90DF90CF90BF90AF909F908F907C
S11328A008958F929F92AF92BF92CF92DF92EF9250
S11328B0FF920F931F93CF93DF93CDB7DEB7649747
S11328C0CDBFDEBF8C839D836E837F83288739874A
S11328D04A875B870C871D87EE86CF86D88AA98AAC
S11328E0BA8A8B8A9C8A2885398589899A89FC01C8
S11328F0838D948DA90165EA70E00E94DB34898997
S11329009A89FC01238D348D888599850197820FDE
S1132910931F8A839B83198221C08981882F90E029
S11329202981222F30E04E815F81240F351FF90168
S1132930408129893A89820F931F4D96FC01408377
S11329408981882F90E02E813F81820F931FFC01A3
S11329508081882339F089818F5F898389818830D8
S1132960E0F201C0000089899A89FC0114A28E85D5
S1132970843010F083E08E8789899A892E85FC0142
S1132980228F89899A8902960E945F0989899A8986
S11329900E960E945F0989899A8929893A89FC01DE
S11329A0228733878E85882F90E0A0E0B0E024E072
S11329B030E040E050E079018A01E81AF90A0A0B94
S11329C01B0BD801C70129893A89F90186879787A2
S11329D0A08BB18B89899A8929893A89FC01268B34
S11329E0378B89899A89FC0117A210A611A612A611
S11329F089899A89FC0113A64C855D852C813D81CA
S1132A008A819B81B9010E94AB0A9C0189899A89B8
S1132A10FC01208331838F859889892B39F08F8538
S1132A20988929893A89FC012083318300006496BE
S1132A30CDBFDEBFDF91CF911F910F91FF90EF903B
S1132A40DF90CF90BF90AF909F908F900895CF93D9
S1132A50DF931F921F92CDB7DEB789839A83F091DB
S1132A60A200FF93F87FF093A2008091AE2C8F5FB9
S1132A708093AE2C8091502C9091512C892B69F429
S1132A8089819A818093502C9093512C8091AE2C03
S1132A908130C9F40E94211B16C08091B42C882374
S1132AA091F48091502C9091512CFC01228D8981BC
S1132AB09A81FC01828D821730F089819A818093FA
S1132AC0502C9093512C8091B82C8F5F8093B82C0C
S1132AD02091B82C89819A81FC0125A389819A814E
S1132AE0FC01928D8091B32C891730F489819A81ED
S1132AF0FC01828D8093B32C89819A81AC014E5F55
S1132B005F4F89819A81FC01828D282F30E06BE030
S1132B10629FC001639F900D11248E5A934DBA0198
S1132B200E947209FF91F093A2008091B42C882333
S1132B3071F08091502C9091512CFC01228D89814F
S1132B409A81FC01828D281710F40E94BC0C0000AD
S1132B500F900F90DF91CF910895CF93DF93CDB76E
S1132B60DEB72597CDBFDEBF6A837B838C839D83CD
S1132B7019828A819B81AC81BD81892B8A2B8B2B05
S1132B8071F00E9427168A819B81AC81BD8140E04F
S1132B90BC01CD010E94FE1B0E94341689838981E9
S1132BA0882311F40E94BC0C00002596CDBFDEBF23
S1132BB0DF91CF910895EF92FF920F93CF93DF931C
S1132BC01F92CDB7DEB70F2EFDEBEF2EFCE2FF2EEA
S1132BD0F02D00E020E030E048EC50E061E070E2ED
S1132BE08EE09BE10E94DA1389838981813019F494
S1132BF00E949F1C89838981813009F580EA90E0D5
S1132C0020EA30E0F9012281287FFC0122838FEF42
S1132C109FEFDC018093B92C9093BA2CA093BB2C2A
S1132C20B093BC2C81E08093B42C1092AF2C109202
S1132C30B02C1092B12C1092B22C0E94840C000083
S1132C400F90DF91CF910F91FF90EF900895CF9364
S1132C50DF93CDB7DEB78091BF2C8F5F8093BF2CFD
S1132C600000DF91CF910895CF93DF9300D01F929E
S1132C70CDB7DEB719821A821B82F091A200FF93AE
S1132C80F87FF093A2008091BF2C81508093BF2CD9
S1132C908091BF2C882309F074C08091AE2C8823C6
S1132CA009F46FC046C080919F2C9091A02CFC0128
S1132CB08085918589839A8389819A810E960E9461
S1132CC03E0A89819A8102960E943E0A89819A81EC
S1132CD0FC01928D8091B32C891730F489819A81FB
S1132CE0FC01828D8093B32C89819A81AC014E5F63
S1132CF05F4F89819A81FC01828D282F30E06BE03F
S1132D00629FC001639F900D11248E5A934DBA01A6
S1132D100E94720989819A81FC01228D8091502C34
S1132D209091512CFC01828D281718F081E080933A
S1132D30B62C8091982C882309F0B5CF89819A818B
S1132D40892B11F00E94641B8091B52C8C838C819B
S1132D50882379F00E94F216882319F081E0809389
S1132D60B62C8C8181508C838C81882399F71092A6
S1132D70B52C8091B62C882321F081E08B830E94AE
S1132D80BC0CFF91F093A2008B812496CDBFDEBFD3
S1132D90DF91CF910895CF93DF9300D01F92CDB7E9
S1132DA0DEB7F091A200FF93F87FF093A200809128
S1132DB0AF2C9091B02CA091B12CB091B22C8983FE
S1132DC09A83AB83BC83FF91F093A20089819A819B
S1132DD0AB81BC81BC01CD012496CDBFDEBFDF91A8
S1132DE0CF910895CF93DF93CDB7DEB72D97CDBFA5
S1132DF0DEBF19828091BF2C882309F0F1C0809135
S1132E00AF2C9091B02CA091B12CB091B22C019622
S1132E10A11DB11D8A839B83AC83BD838A819B8161
S1132E20AC81BD818093AF2C9093B02CA093B12C36
S1132E30B093B22C8A819B81AC81BD81892B8A2B72
S1132E408B2BD9F48091942C9091952C8E839F8315
S1132E508091962C9091972C8093942C9093952C00
S1132E608E819F818093962C9093972C8091B72C80
S1132E708F5F8093B72C0E94641B8091B92C909132
S1132E80BA2CA091BB2CB091BC2C2A813B814C81E3
S1132E905D81281739074A075B0708F48AC08091C7
S1132EA0942C9091952CFC018081882361F48FEF00
S1132EB09FEFDC018093B92C9093BA2CA093BB2C88
S1132EC0B093BC2C76C08091942C9091952CFC01ED
S1132ED087819085FC01808591858887998788857D
S1132EE09985FC0182819381A481B5818A879B871E
S1132EF0AC87BD872A813B814C815D818A859B8516
S1132F00AC85BD85281739074A075B0768F48A85AD
S1132F109B85AC85BD858093B92C9093BA2CA093E6
S1132F20BB2CB093BC2C45C08885998502960E9421
S1132F303E0A88859985FC01808D918D892B29F025
S1132F40888599850E960E943E0A88859985FC019C
S1132F50928D8091B32C891730F488859985FC0172
S1132F60828D8093B32C88859985AC014E5F5F4F29
S1132F7088859985FC01828D282F30E06BE0629F63
S1132F80C001639F900D11248E5A934DBA010E9483
S1132F90720988859985FC01228D8091502C90912D
S1132FA0512CFC01828D281708F479CF81E08983A4
S1132FB076CF8091502C9091512CFC01828D282F3A
S1132FC030E04BE0429FC001439F900D11248E5A84
S1132FD0934DFC018081823040F081E0898305C0FB
S1132FE08091B52C8F5F8093B52C8091B62C88236B
S1132FF011F081E0898389812D96CDBFDEBFDF91F9
S1133000CF910895CF93DF93CDB7DEB72997CDBF86
S1133010DEBF8091BF2C882321F081E08093B62C01
S1133020BAC01092B62C8091502C9091512CFC0176
S1133030838D948D8A839B8385EA95EADC018C8356
S11330409D83AE83BF838A819B81FC012081318172
S1133050428153818C819D81AE81BF8128173907BC
S11330604A075B0799F58A819B810496FC012081BC
S11330703181428153818C819D81AE81BF8128172A
S113308039074A075B0711F58A819B810896FC0181
S113309020813181428153818C819D81AE81BF81A8
S11330A0281739074A075B0789F48A819B810C96A4
S11330B0FC0120813181428153818C819D81AE81CB
S11330C0BF81281739074A075B0771F08091502C9C
S11330D09091512C9C01235E3F4F8091502C9091F4
S11330E0512CB9010E944C058091B32C898303C0F3
S11330F08981815089838981282F30E04BE0429F68
S1133100C001439F900D11248E5A934DFC01808180
S1133110882371F38981282F30E04BE0429FC0015E
S1133120439F900D11248E5A934D888799878885E3
S11331309985FC0181819281FC01248135818885F6
S11331409985FC012183328388859985FC0121813D
S113315032818885998503962817390769F488850B
S11331609985FC0181819281FC01248135818885C6
S11331709985FC012183328388859985FC018181AD
S11331809281FC01808591858093502C9093512CE1
S113319089818093B32C00002996CDBFDEBFDF91D7
S11331A0CF910895CF93DF9300D000D0CDB7DEB791
S11331B089839A834B835C836D837E838091502CB7
S11331C09091512C9C01225F3F4F89819A81B901D2
S11331D00E94BD098B819C81AD81BE8141E0BC010F
S11331E0CD010E94FE1B00002696CDBFDEBFDF91FD
S11331F0CF9108950F931F93CF93DF93CDB7DEB78D
S11332002A97CDBFDEBF89839A834B835C836D830A
S11332107E830F83188729873A872091502C309119
S1133220512C8B819C81AD81BE81B068F901868768
S11332309787A08BB18B8091502C9091512C9C013D
S1133240225F3F4F89819A81B9010E9472098F815F
S11332509885A985BA8541E0BC01CD010E94FE1B79
S113326000002A96CDBFDEBFDF91CF911F910F9151
S11332700895CF93DF93CDB7DEB72797CDBFDEBFD9
S113328089839A834B835C836D837E832F838091B0
S1133290502C9091512C9C01225F3F4F89819A813F
S11332A0B9010E9472098F81882339F08FEF9FEF53
S11332B0DC018B839C83AD83BE838B819C81AD8138
S11332C0BE814F81BC01CD010E94FE1B00002796E8
S11332D0CDBFDEBFDF91CF910895CF93DF93CDB7FC
S11332E0DEB72597CDBFDEBF8C839D838C819D8106
S11332F0FC0187819085FC01808591858A839B836D
S11333008A819B810E960E943E0A8091BF2C88235D
S113331051F58A819B8102960E943E0A8A819B8193
S1133320FC01928D8091B32C891730F48A819B81A2
S1133330FC01828D8093B32C8A819B81AC014E5F0A
S11333405F4F8A819B81FC01828D282F30E06BE0E6
S1133350629FC001639F900D11248E5A934DBA0150
S11333600E94720908C08A819B810E96BC0188E97B
S11333709CE20E9472098A819B81FC01228D8091CA
S1133380502C9091512CFC01828D821730F481E0F5
S1133390898381E08093B62C01C0198289812596A6
S11333A0CDBFDEBFDF91CF910895CF93DF93CDB72B
S11333B0DEB72897CDBFDEBF8B839C834D835E83AE
S11333C06F8378878D819E81AF81B885B0682B81AA
S11333D03C81F90180839183A283B3838B819C8197
S11333E0FC018085918589839A838B819C810E94CD
S11333F03E0A89819A8102960E943E0A89819A81B5
S1133400FC01928D8091B32C891730F489819A81C3
S1133410FC01828D8093B32C89819A81AC014E5F2B
S11334205F4F89819A81FC01828D282F30E06BE007
S1133430629FC001639F900D11248E5A934DBA016F
S11334400E94720989819A81FC01228D8091502CFD
S11334509091512CFC01828D821718F481E08093A5
S1133460B62C00002896CDBFDEBFDF91CF91089522
S1133470CF93DF931F921F92CDB7DEB789839A83D0
S11334802091B72C89819A81FC0120838091AF2CF3
S11334909091B02CA091B12CB091B22C29813A8199
S11334A0F90181839283A383B48300000F900F906A
S11334B0DF91CF910895EF92FF920F931F93CF93D3
S11334C0DF93CDB7DEB72D97CDBFDEBF8A879B874D
S11334D06C877D87F091A200FF93F87FF093A200A0
S11334E08091AF2C9091B02CA091B12CB091B22CC2
S11334F08A839B83AC83BD838A859B85FC01818100
S11335009281A381B4812A813B814C815D817901BF
S11335108A01E81AF90A0A0B1B0BD801C7018E832A
S11335209F83A887B9878C859D85FC0180819181C3
S1133530A281B3818F3F9F4FAF4FBF4F11F41982C8
S113354054C08A859B85FC0190818091B72C981783
S113355099F08A859B85FC012181328143815481C4
S11335608A819B81AC81BD8182179307A407B5072B
S113357018F081E0898339C08C859D85FC01208108
S11335803181428153818E819F81A885B9858217BB
S11335909307A407B50700F58C859D85FC01208160
S11335A03181428153818E819F81A885B9857901BA
S11335B08A01E81AF90A0A0B1B0BD801C7012C85EA
S11335C03D85F90180839183A283B3838A859B859A
S11335D00E94381A198209C08C859D85FC011082CD
S11335E011821282138281E08983FF91F093A200F9
S11335F089812D96CDBFDEBFDF91CF911F910F91B1
S1133600FF90EF900895CF93DF93CDB7DEB781E0BD
S11336108093B62C0000DF91CF910895CF93DF9370
S11336201F921F92CDB7DEB789839A830E945C1BD9
S11336308091522C823010F00E94BC0C0E94FD211B
S1133640F5CFCF93DF931F92CDB7DEB7198210C0A9
S11336508981282F30E04BE0429FC001439F900DA9
S113366011248E5A934D0E94250989818F5F898385
S11336708981843068F38EE79CE20E94250989E8F9
S11336809CE20E94250988E99CE20E94250983EABC
S11336909CE20E9425098EE79CE28093942C9093EF
S11336A0952C89E89CE28093962C9093972C0000AB
S11336B00F90DF91CF910895CF93DF93CDB7DEB70D
S11336C00000DF91CF910895CF93DF931F921F9253
S11336D0CDB7DEB78091942C9091952CFC0180811C
S11336E0882361F48FEF9FEFDC018093B92C9093D2
S11336F0BA2CA093BB2CB093BC2C1BC08091942CEF
S11337009091952CFC0187819085FC0180859185A1
S113371089839A8389819A81FC0182819381A4811E
S1133720B5818093B92C9093BA2CA093BB2CB09301
S1133730BC2C00000F900F90DF91CF910895CF9390
S1133740DF931F92CDB7DEB78091B42C882319F490
S113375081E0898308C08091BF2C882319F482E01A
S1133760898301C0198289810F90DF91CF910895D7
S1133770EF92FF920F931F93CF93DF9300D01F928A
S1133780CDB7DEB78091502C9091512CFC018685E9
S11337909785A089B18989839A83AB83BC8360911F
S11337A0502C7091512C8091502C9091512CFC01F3
S11337B0828D882F90E0A0E0B0E024E030E040E08B
S11337C050E079018A01E81AF90A0A0B1B0BD801A7
S11337D0C701FB0186879787A08BB18B89819A816A
S11337E0AB81BC81BC01CD012496CDBFDEBFDF918E
S11337F0CF911F910F91FF90EF900895CF93DF9396
S1133800CDB7DEB72D97CDBFDEBF69877A878B87AB
S11338109C874D878091AF2C9091B02CA091B12CB6
S1133820B091B22C89839A83AB83BC838091502C52
S11338309091512C02960E943E0A89859A85AB8507
S1133840BC858F3F9F4FAF4FBF4F71F48D85882349
S113385059F08091502C9091512C0296BC0183EA2E
S11338609CE20E94720964C029813A814B815C8187
S113387089859A85AB85BC85820F931FA41FB51FCC
S11338808D839E83AF83B8872091502C3091512C27
S11338908D819E81AF81B885F90182839383A4834E
S11338A0B5832D813E814F81588589819A81AB8171
S11338B0BC81281739074A075B0778F48091502C9C
S11338C09091512C9C012E5F3F4F8091962C9091AA
S11338D0972CB9010E94BD092BC08091502C909166
S11338E0512C9C012E5F3F4F8091942C9091952CEC
S11338F0B9010E94BD098091B92C9091BA2CA09174
S1133900BB2CB091BC2C2D813E814F81588528174A
S113391039074A075B0760F48D819E81AF81B885C2
S11339208093B92C9093BA2CA093BB2CB093BC2C4D
S113393000002D96CDBFDEBFDF91CF910895EF92A9
S1133940FF920F93CF93DF931F92CDB7DEB7198207
S11339500E9430218091DA2C9091DB2C892B91F0FC
S11339600F2EFCEDEF2EFCE2FF2EF02D03E020E005
S113397030E048EC50E066E070E285EB9DE10E94A7
S1133980DA13898389810F90DF91CF910F91FF9092
S1133990EF900895CF92DF92EF92FF920F931F93CF
S11339A0CF93DF93CDB7DEB76797CDBFDEBF8B87ED
S11339B09C876D872E873F87488B598B0A8B1B8B7F
S11339C0CC8ADD8AEE8AFF8A19828091DA2C909162
S11339D0DB2C892B09F444C08D858A838E859F85D1
S11339E0A889B9898B839C83AD83BE838B859C8591
S11339F08F8398878D85863034F50E949F1B823093
S1133A0099F4E091DA2CF091DB2C8C899D89AE89B4
S1133A10BF89BE016E5F7F4F00E09C01AD01CF0105
S1133A200E94270F89831CC08091DA2C9091DB2C93
S1133A30BE016E5F7F4F00E020E030E0A9010E94EC
S1133A40270F89830DC08091DA2C9091DB2C4A8951
S1133A505B89BE016E5F7F4F20E00E94E90F89837E
S1133A6089816796CDBFDEBFDF91CF911F910F9102
S1133A70FF90EF90DF90CF900895CF92DF92EF9276
S1133A80FF920F931F93CF93DF93CDB7DEB72B979E
S1133A90CDBFDEBF6C837D838E839F832887398768
S1133AA04A875B878091D62C9091D72CFC01878123
S1133AB09085FC018085918589839A8389819A8187
S1133AC002960E943E0A89819A81FC018289813092
S1133AD0B1F589819A81FC01268537854089518910
S1133AE08C819D81AE81BF81820F931FA41FB51F5E
S1133AF0EC80FD800E811F81288539854A855B8590
S1133B00E981FA816701780189019A01AC01BD015B
S1133B10CF010E94D31E882391F08C819D81AE81B8
S1133B20BF81E981FA81C12CD12C760100E010E03B
S1133B309C01AD0160E0CF010E94CA1C8B83898186
S1133B409A81FC012589368989819A81F90119951F
S1133B5000002B96CDBFDEBFDF91CF911F910F9157
S1133B60FF90EF90DF90CF900895CF93DF93CDB780
S1133B70DEB72797CDBFDEBF8E839F83CE01059628
S1133B800E94501EDC01CB0189839A83AB83BC83E2
S1133B902D8189819A81AB81BC81422FBC01CD01E9
S1133BA00E94D51D0E946C1FE9CFEF92FF920F93E4
S1133BB01F93CF93DF93CDB7DEB72A97CDBFDEBF78
S1133BC06E837F83888799874A870E942716CE0150
S1133BD005960E948E1EDC01CB0189839A83AB83F8
S1133BE0BC838D81882309F04EC08A858823E1F443
S1133BF02E813F814885598589819A81AB81BC8119
S1133C0082179307A407B50778F00E943416298118
S1133C103A814B815C818E819F81A885B985BC01E5
S1133C20CD010E943D1D31C08A85882359F08091C1
S1133C30D82C9091D92CFC01908181E0992309F032
S1133C4080E08A872E813F814885598589819A81C0
S1133C50AB81BC8179018A01E81AF90A0A0B1B0BB2
S1133C60D801C701E091DA2CF091DB2C2A85AC0154
S1133C70BD01CF010E948C130E943416882329F4BD
S1133C800E94BC0C02C00E94341600002A96CDBFCC
S1133C90DEBFDF91CF911F910F91FF90EF900895B8
S1133CA0CF93DF9300D000D0CDB7DEB78D839E8352
S1133CB08091D62C9091D72CFC01908181E099239E
S1133CC009F080E0282F8D819E81FC0120838D8165
S1133CD09E81FC018081882389F48091D62C909167
S1133CE0D72CFC0187819085FC0180819181A28180
S1133CF0B38189839A83AB83BC8304C019821A82FB
S1133D001B821C8289819A81AB81BC81BC01CD015B
S1133D102696CDBFDEBFDF91CF910895CF93DF9379
S1133D2000D000D0CDB7DEB78D839E830E94CB1622
S1133D30DC01CB0189839A83AB83BC838091DE2C25
S1133D409091DF2CA091E02CB091E12C29813A8153
S1133D504B815C81281739074A075B0740F40E94AE
S1133D6076208D819E8121E0FC01208304C08D8119
S1133D709E81FC01108289819A81AB81BC818093F0
S1133D80DE2C9093DF2CA093E02CB093E12C89815E
S1133D909A81AB81BC81BC01CD012696CDBFDEBF2B
S1133DA0DF91CF910895CF92DF92EF92FF920F931C
S1133DB01F93CF93DF93CDB7DEB72F97CDBFDEBF71
S1133DC08A839B834C835D836E837F8308871987F3
S1133DD02A873B87CC86DD86EE86FF8619822A8178
S1133DE03B818C819D81AE81BF81F9018283938364
S1133DF0A483B5838A819B812A813B81FC0122872C
S1133E0033872C813D814E815F8188859985AA8580
S1133E10BB8582179307A407B50740F12885398528
S1133E204A855B858C859D85AE85BF85281B390BAE
S1133E304A0B5B0B8A819B81FC0186859785A0894F
S1133E40B189281739074A075B0718F081E089838D
S1133E5036C08A819B819C012E5F3F4F8091D82C74
S1133E609091D92CB9010E94BD0929C028853985B2
S1133E704A855B858C859D85AE85BF852817390766
S1133E804A075B0780F42C813D814E815F818C85DC
S1133E909D85AE85BF85281739074A075B0718F04B
S1133EA081E089830CC08A819B819C012E5F3F4FF6
S1133EB08091D62C9091D72CB9010E94BD0989819B
S1133EC02F96CDBFDEBFDF91CF911F910F91FF9051
S1133ED0EF90DF90CF900895CF92DF92EF92FF9210
S1133EE00F931F93CF93DF93CDB7DEB76597CDBF05
S1133EF0DEBFE0C08A858823FCF4CE010A960196D1
S1133F0089839A8389819A81FC0120813181898105
S1133F109A81FC0184819581A681B78149815A8166
S1133F20FA010280F381E02DEC8BFD8BAC01BD0125
S1133F308C899D89F90119958A8588230CF4BAC066
S1133F408F8598898B839C838B819C81FC018485DC
S1133F509585892B29F08B819C8102960E943E0ACB
S1133F60CE0143960E948E1EDC01CB018D839E837D
S1133F70AF83B8878A85082E000C990B092E000C94
S1133F80AA0BBB0B40E050E029E030E0841B950B0A
S1133F902817390708F48DC0FC018827E250FF4F29
S1133FA08F4F0C94A734EB84FC840D851E852B85E0
S1133FB03C854D855E858B819C81FC01868597853A
S1133FC0A089B189820F931FA41FB51F2D813E8143
S1133FD04F815885EB81FC816701780189019A0141
S1133FE0AC01BD01CF010E94D31E882309F462C035
S1133FF08B819C81FC01258936898B819C81F90107
S113400019958B819C81FC018289813009F052C011
S11340102B853C854D855E858B819C81FC01868545
S11340209785A089B189820F931FA41FB51FEB81C7
S1134030FC81C12CD12C760100E010E09C01AD0183
S113404060E0CF010E94CA1C898734C08B859C859F
S1134050AD85BE852B813C81F90186879787A08B2E
S1134060B18B8B819C81FC012685378540895189E0
S11340708D819E81AF81B885820F931FA41FB51FC8
S1134080ED80FE800F8118852D813E814F815885FA
S1134090EB81FC816701780189019A01AC01BD01C2
S11340A0CF010E94D31E06C08B819C810E941709F8
S11340B001C000008091DA2C9091DB2CBE01665F78
S11340C07F4F20E030E0A9010E944910882309F0C5
S11340D011CF00006596CDBFDEBFDF91CF911F9158
S11340E00F91FF90EF90DF90CF900895CF92DF92E1
S11340F0EF92FF920F931F93CF93DF93CDB7DEB769
S11341002D97CDBFDEBF82C08091D62C9091D72C45
S1134110FC0187819085FC0180819181A281B3811A
S113412089839A83AB83BC838091D62C9091D72CBE
S1134130FC0187819085FC01808591858D839E8318
S11341408D819E8102960E943E0A8D819E81FC0192
S1134150258936898D819E81F90119958D819E81EC
S1134160FC018289813009F051C08D819E81FC015E
S1134170268537854089518989819A81AB81BC81A3
S1134180820F931FA41FB51F8F839887A987BA87AF
S11341902F81388549855A8589819A81AB81BC8173
S11341A082179307A407B507F8F42D813E818F8108
S11341B09885A985BA85F90182839383A483B583FD
S11341C08D819E812D813E81FC01228733878D81E3
S11341D09E819C012E5F3F4F8091D62C9091D72CCD
S11341E0B9010E94BD0912C089819A81AB81BC8149
S11341F0ED81FE81C12CD12C760100E010E09C0100
S1134200AD0160E0CF010E94CA1C8B878091D62C3F
S11342109091D72CFC018081882309F075CF80917F
S1134220D62C9091D72C8C879D878091D82C9091F7
S1134230D92C8093D62C9093D72C8C859D858093F4
S1134240D82C9093D92C00002D96CDBFDEBFDF91E2
S1134250CF911F910F91FF90EF90DF90CF90089531
S1134260CF93DF93CDB7DEB7F091A200FF93F87F31
S1134270F093A2008091DA2C9091DB2C892BE9F445
S113428080EC9CE20E9425098BEC9CE20E942509AB
S113429080EC9CE28093D62C9093D72C8BEC9CE200
S11342A08093D82C9093D92C40E069E085E00E945B
S11342B0A20E8093DA2C9093DB2CFF91F093A20052
S11342C00000DF91CF9108950F931F93CF93DF9355
S11342D0CDB7DEB76497CDBFDEBF8B879C876D8774
S11342E07E872F87388B498B5A8B0B8B1C8B8EEFD9
S11342F08A838B859C858B839C838D859E858D830A
S11343009E838F859889A989BA898F839887A9877D
S1134310BA878091DA2C9091DB2C4B895C89BE01A1
S11343206E5F7F4F20E00E94E90F89838981649644
S1134330CDBFDEBFDF91CF911F910F910895CF9331
S1134340DF93CDB7DEB780E590E020E530E0F901FA
S113435020812160FC01208380E590E0FC018181C3
S1134360882F90E081709927892BB1F380E00E9417
S1134370D6048EE10E949F0460E080E00E94BF04A6
S113438043E060E080E40E946A0480E590E020E578
S113439030E0F90120812860FC01208380E590E071
S11343A0FC018181882F90E088709927892BB1F3D3
S11343B064E080EC0E94870480E590E020E530E032
S11343C0F90120812061FC01208360E080E00E94EB
S11343D0BF0480E590E0FC018181882F90E080712A
S11343E09927892BB1F384E00E94D60487E00E94C8
S11343F09F040000DF91CF910895CF93DF93CDB751
S1134400DEB70000DF91CF910895EF92FF920F93F2
S1134410CF93DF931F92CDB7DEB70E940232898318
S11344200E949F210E94D72480EA96E021E0FC01AB
S1134430218380E896E028E0FC0121830F2EF5EC2F
S1134440EF2EF1E3FF2EF02D01E020E030E042ED0D
S113445050E06EE070E282EE92E20E94DA130F2ED8
S1134460F9ECEF2EF1E3FF2EF02D01E020E030E037
S11344704CE251E067E170E28BE19FE20E94DA13C3
S11344800F2EF7ECEF2EF1E3FF2EF02D01E020E0EC
S113449030E042ED50E062E270E28DE89CE20E947E
S11344A0DA130F2EFDE4EF2EF2E3FF2EF02D01E0E0
S11344B020E030E042ED50E06FE270E28BEF92E2F8
S11344C00E94DA130F2EFFE4EF2EF2E3FF2EF02DFD
S11344D001E020E030E04CE251E067E370E283E287
S11344E093E00E94DA130E9496058093462E9093DF
S11344F0472E0E9496058093CB319093CC310E9435
S113450089010E94222782E490E2892F8F9382E41A
S113451090E28F931F921F921F921F920E94342742
S11345200F900F900F900F900F900F9082E590E2F4
S1134530892F8F9382E590E28F931F921F921F928F
S113454081E08F930E9434270F900F900F900F906B
S11345500F900F908FE590E2892F8F938FE590E273
S11345608F931F921F921F9282E08F930E94342791
S11345700F900F900F900F900F900F908981882FBC
S113458090E0292F2F938F9388E690E2892F8F93C1
S113459088E690E28F931F921F921F9283E08F937D
S11345A00E9434278DB79EB70896CDBFDEBF0E9408
S11345B0DB1580E090E00F90DF91CF910F91FF9099
S11345C0EF900895CF93DF931F921F92CDB7DEB77C
S11345D089839A8380E896E028E0FC01248380E8BC
S11345E096E028E0FC01278364E670E080E090E038
S11345F00E94AD15F4CFCF93DF931F921F92CDB7D6
S1134600DEB789839A830E94222782E490E2892F6D
S11346108F9382E490E28F931F921F921F921F92B6
S11346200E9434270F900F900F900F900F900F90CF
S11346308091C530282F30E080910531882F90E09B
S1134640432F4F932F93292F2F938F9388E790E233
S1134650892F8F9388E790E28F931F921F921F9266
S113466081E08F930E9434278DB79EB70A96CDBF01
S1134670DEBF0E94DB1564E670E080E090E00E94FB
S1134680AD15C1CF1F920F9200903F000F921124DD
S113469000903B000F922F933F934F935F936F9340
S11346A07F938F939F93AF93BF93EF93FF93CF9396
S11346B0DF931F92CDB7DEB7198280915332909168
S11346C054329E012F5F3F4F41E050E060E070E0C4
S11346D00E94A90860E080E09BE00E94F80480E06A
S11346E09BE0FC01168200000F90DF91CF91FF91B7
S11346F0EF91BF91AF919F918F917F916F915F9156
S11347004F913F912F910F9000923B000F90009298
S11347103F000F901F901895CF92DF92EF92FF9277
S11347200F93CF93DF9300D01F92CDB7DEB7698389
S11347307A838B839C8389819A81AB81BC81029724
S1134740A105B10540F482E090E0A0E0B0E08983E7
S11347509A83AB83BC8380E09BE021E0FC01268349
S113476080E09BE0FC0110A211A260E080E09BE0ED
S11347700E94140589819A81AB81BC818E3F9F4F31
S1134780A105B10598F420E03BE089819A81AB81D1
S1134790BC81B695A79597958795F90186A397A3AC
S11347A065E080E09BE00E94F8041FC089819A8143
S11347B0AB81BC8180349244AF40B105B0F420E0B9
S11347C03BE089819A81AB81BC81689414F8B695E9
S11347D0A795979587951694D1F7F90186A397A382
S11347E067E080E09BE00E94F8048091533290914E
S11347F054320F2EF4EFCF2EDD24D394E12CF12C80
S1134800F02D00E021E041E050E060E070E00E9423
S1134810B90500002496CDBFDEBFDF91CF910F9183
S1134820FF90EF90DF90CF900895CF93DF931F9286
S1134830CDB7DEB7898389818F7089838981829519
S1134840807F898380E096E020E036E0F9013481BE
S113485029812F602323FC01248380E096E020E05B
S113486036E0F90134812981232BFC0124830000E3
S11348700F90DF91CF910895CF93DF931F92CDB71F
S1134880DEB789838981882331F080E696E021E0D0
S1134890FC01258305C080E696E021E0FC01268327
S11348A000000F90DF91CF910895CF93DF931F9273
S11348B0CDB7DEB789838981882331F080E696E01D
S11348C022E0FC01258305C080E696E022E0FC019D
S11348D0268300000F90DF91CF910895CF93DF934B
S11348E01F92CDB7DEB789838981882331F080E6B2
S11348F096E024E0FC01258305C080E696E024E0F0
S1134900FC01268300000F90DF91CF910895CF938F
S1134910DF93CDB7DEB781E00E946E2461E070E0E2
S113492080E090E00E948C2380E00E946E240000CE
S1134930DF91CF910895CF93DF931F92CDB7DEB768
S11349408983898182958F700E94152480E00E945A
S11349503C2480E00E9455240E94872489818F7022
S11349600E9415240E94872400000F90DF91CF91AC
S11349700895CF93DF931F92CDB7DEB789838981E2
S113498082958F700E94152481E00E943C2480E06F
S11349900E9455240E94872489818F700E941524C7
S11349A00E94872400000F90DF91CF910895EF9229
S11349B0FF920F93CF93DF93CDB7DEB780E096E0FD
S11349C020E1FC01218380E096E020E2FC012183C8
S11349D080E096E020E4FC01218380E096E020E87A
S11349E0FC01218380E696E021E0FC01218380E63E
S11349F096E022E0FC01218380E696E024E0FC01BD
S1134A00218380E096E020E036E0F90124812F70D4
S1134A10FC01248380E696E020E636E0F901248157
S1134A20287FFC01248340E066E188E00E94A20E16
S1134A3080935132909352320E9496058093533260
S1134A4090935432E12CF12C01E020E030E04EE56B
S1134A5051E064E870E285ED95E20E94DA1300000B
S1134A60DF91CF910F91FF90EF900895CF93DF9353
S1134A7000D01F92CDB7DEB789839A836B837C8382
S1134A8089819A818130910589F0823091051CF4E5
S1134A90892B39F01AC08230910569F0039781F0AF
S1134AA014C08B8180580E949B240FC08B8180543A
S1134AB00E949B240AC08B818C560E949B2405C0B3
S1134AC08B818C520E949B24000067E270E080E09E
S1134AD090E00E948C2300002496CDBFDEBFDF91BE
S1134AE0CF910895CF93DF931F92CDB7DEB789831B
S1134AF089810E94B9246BE270E080E090E00E941A
S1134B008C2300000F90DF91CF910895CF93DF9312
S1134B1000D01F92CDB7DEB78B839C8319821A8293
S1134B2019C089819A812B813C81820F931FFC01DA
S1134B3080818823A1F089819A812B813C81820F15
S1134B40931FFC0180810E94722589819A810196BC
S1134B5089839A8389819A8144971CF301C0000058
S1134B6000002496CDBFDEBFDF91CF910895CF938F
S1134B70DF9300D000D0CDB7DEB789839A836B83EF
S1134B807C834D835E832B813C8189819A81B90129
S1134B900E9436258D819E810E94862500002696DE
S1134BA0CDBFDEBFDF91CF910895CF93DF93CDB713
S1134BB0DEB7C057D109CDBFDEBF9E0121593F4F9B
S1134BC0F9018083918319821A821B821C821D82BF
S1134BD01E8226C01F8218861AC02D813E8144E1A0
S1134BE0429FC001439F900D11249E012F5F3F4FB0
S1134BF0280F391F8F819885820F931F089620E212
S1134C00FC0120838F81988501968F8398878F81FB
S1134C109885449714F38D819E8101968D839E839C
S1134C208D819E810497B4F260E47CE980E090E099
S1134C300E948C2383E00E94152468E873E180E0DD
S1134C4090E00E948C230E94872460EA70E080E058
S1134C5090E00E948C230E94872460EA70E080E048
S1134C6090E00E948C230E94872460EA70E080E038
S1134C7090E00E948C2382E00E9415240E948724E5
S1134C8088E20E949B2480E10E949B248CE00E9485
S1134C909B2486E00E949B2468EC70E080E090E016
S1134CA00E94AD15809153329091543240E050E00F
S1134CB0BA010E94F106DC01CB01892B8A2B8B2BD4
S1134CC009F496C0809153329091543242E050E0FE
S1134CD060E070E00E94F10619821A8226C01B82ED
S1134CE01C821AC029813A8144E1429FC001439F3A
S1134CF0900D11249E012F5F3F4F280F391F8B8188
S1134D009C81820F931F089620E2FC0120838B81F3
S1134D109C8101968B839C838B819C81449714F3A3
S1134D2089819A81019689839A8389819A810497DA
S1134D30B4F25EC08091513290915232BE01675AF2
S1134D407F4F2FEF3FEFA9010E944910882309F4F8
S1134D504FC019821A8232C0CE01875A9F4FFC017C
S1134D608081482F50E0CE01875A9F4FFC018181FA
S1134D70282F30E089819A81820F931FBE01675AE0
S1134D807F4F29813A81260F371F2E5F3F4FF9014C
S1134D90608174E1749F9001759F300D1124AE0100
S1134DA04F5F5F4F240F351F820F931F0896FC013E
S1134DB0608389819A81019689839A83CE01875A77
S1134DC09F4FFC018181282F30E089819A81820FD5
S1134DD0931F44976CF49E01275A3F4F89819A810F
S1134DE0820F931F0296FC018081882309F0B4CFBF
S1134DF080915132909152320E94C011882309F05F
S1134E0099CF19821A8219C09E01275F3F4F4981A9
S1134E105A8164E1649FC001659F900D1124280F9D
S1134E20391F89819A81A90160E070E00E94B72549
S1134E3089819A81019689839A8389819A810497C9
S1134E401CF32ACFCF93DF93CDB7DEB780915332D3
S1134E509091543242E050E060E070E00E943C07E0
S1134E600000DF91CF910895CF93DF931F921F929B
S1134E70CDB7DEB7CE010E9689839A8329813A8114
S1134E804C855D856A857B85888599850E944E273A
S1134E9000000F900F90DF91CF9108950F93CF935F
S1134EA0DF93CDB7DEB7EC97CDBFDEBF8DAB9EAB46
S1134EB06FAB78AF49AF5AAF2BAF3CAF19821A82B0
S1134EC01B821C820BC08B819C818E51934DFC01F3
S1134ED010828B819C8101968B839C838B819C8126
S1134EE044978CF31D821E820BC08D819E818A5053
S1134EF0934DFC0110828D819E8101968D839E834A
S1134F008D819E8144978CF3BEC18D89853209F0D1
S1134F10A0C189AD9AAD9C012F5F3F4F29AF3AAF35
S1134F20FC0180818D8B8D89882F90E085369105D9
S1134F3009F446C18636910554F48336910501F18E
S1134F40843691050CF070C0859769F09CC1833755
S1134F50910571F18837910509F4A8C08636910549
S1134F6009F4E6C090C189819A818A50934D25E263
S1134F70FC01208389819A81019689839A8383C164
S1134F808BAD9CAD9C012E5F3F4F2BAF3CAFFC0122
S1134F90808191818E8B89819A818A50934D2E894B
S1134FA0FC01208389819A81019689839A836BC14C
S1134FB08BAD9CAD9C012E5F3F4F2BAF3CAFFC01F2
S1134FC0808191818F8B988F1F82188617C02981C9
S1134FD03A818F819885820F931F2F8138854F895D
S1134FE0588D240F351FF90120818A50934DFC01FF
S1134FF020838F81988501968F8398878F89988DD8
S11350000E94E2349C018F81988582179307F8F2FD
S11350108F89988D0E94E2349C0189819A81820F44
S1135020931F89839A832FC18BAD9CAD9C012E5F06
S11350303F4F2BAF3CAFFC0180819181898F9A8FC8
S1135040898D9A8D4AE050E062EE7CE20E94EB3456
S113505019861A8615C029813A8189859A85820F15
S1135060931F29853A852E51334DF90120818A50A9
S1135070934DFC01208389859A85019689879A87B7
S113508082EE9CE20E94E2349C0189859A85821713
S1135090930708F382EE9CE20E94E2349C0189812A
S11350A09A81820F931F89839A83EDC08BAD9CAD47
S11350B09C012E5F3F4F2BAF3CAFFC01808191815F
S11350C0898F9A8F898D9A8D40E150E062EE7CE25F
S11350D00E94EB341B861C8615C029813A818B857E
S11350E09C85820F931F2B853C852E51334DF901EE
S11350F020818A50934DFC0120838B859C850196E9
S11351008B879C8782EE9CE20E94E2349C018B8513
S11351109C858217930708F382EE9CE20E94E23496
S11351209C0189819A81820F931F89839A83ABC0E2
S11351308BAD9CAD9C012C5F3F4F2BAF3CAFFC0172
S113514080819181A281B3818B8F9C8FAD8FBE8F23
S11351508B8D9C8DAD8DBE8DAC01BD0182EE9CE22C
S11351600E941D2A1D861E8615C029813A818D85BF
S11351709E85820F931F2D853E852E51334DF90157
S113518020818A50934DFC0120838D859E85019654
S11351908D879E8782EE9CE20E94E2349C018D857D
S11351A09E858217930708F382EE9CE20E94E23404
S11351B09C0189819A81820F931F89839A8363C09A
S11351C08BAD9CAD9C012C5F3F4F2BAF3CAFFC01E2
S11351D080819181A281B3818B8F9C8FAD8FBE8F93
S11351E08B8D9C8DAD8DBE8DAC01BD0182EE9CE29C
S11351F00E946C2B1F86188A15C029813A818F85DD
S11352009889820F931F2F8538892E51334DF901C8
S113521020818A50934DFC0120838F8598890196C3
S11352208F87988B82EE9CE20E94E2349C018F85EA
S113523098898217930708F382EE9CE20E94E23475
S11352409C0189819A81820F931F89839A8300002C
S11352501AC089819A818A50934D2D89FC0120833B
S113526089819A818A50934DFC0180818A3031F47E
S113527089819A818A50934DFC01108289819A8197
S1135280019689839A8389AD9AAD9C012F5F3F4F24
S113529029AF3AAFFC0180818D8B8D89882309F079
S11352A034CE29813A818FA998AD820F931F4497F8
S11352B054F024E130E08FA998ADA901481B590BA3
S11352C0CA0189839A83198A1A8A0EC09E012F5DA6
S11352D03F4F89899A89820F931FFC011082898923
S11352E09A890196898B9A8B89899A89449774F350
S11352F08DA98F8F8FA988A31B8A1C8A14C08B89C0
S11353009C898A50934DFC0140819E012F5D3F4F43
S11353108B899C89820F931FFC0140838B899C8914
S113532001968B8B9C8B2B893C8989819A812817C8
S113533039072CF38091513290915232BE01615E53
S11353407F4F00E02FEF3FEFA9010E94270F8981D3
S11353509A81EC96CDBFDEBFDF91CF910F91089576
S1135360CF93DF93CDB7DEB72897CDBFDEBF8F8352
S1135370988719821A828F819885FC018081918196
S1135380A281B3818B839C83AD83BE8315C020E04F
S113539030E040E251E46B817C818D819E810E94EA
S11353A0C732DC01CB018B839C83AD83BE838981AF
S11353B09A81019689839A8320E030E040E85FE394
S11353C06B817C818D819E810E9421348823FCF62F
S11353D015C020E030E040E251E46B817C818D8196
S11353E09E810E942634DC01CB018B839C83AD8398
S11353F0BE8389819A81019789839A832DEC3CEC41
S11354004CEC5DE36B817C818D819E810E94C23274
S11354108823FCF22F8138858B819C81AD81BE81EC
S1135420F90180839183A283B38389819A81289629
S1135430CDBFDEBFDF91CF910895CF92DF92EF927F
S1135440FF92CF93DF93CDB7DEB72E97CDBFDEBFEC
S113545089879A874B875C876D877E8719821A8232
S11354601B821C828B859C85AD85BE8520E030E047
S1135470A901BC01CD010E94C232882359F4898557
S11354809A8520E3FC01208389859A850196FC0195
S1135490108218C18B859C85AD85BE8520E030E0E7
S11354A0A901BC01CD010E94C23288239CF48985E4
S11354B09A859C012F5F3F4F29873A872DE2FC0193
S11354C020838B859C85AD85BE85B0588B879C8752
S11354D0AD87BE87CE010B960E94B02989839A833B
S11354E053C08B859C85AD85BE8520E030E040E2CD
S11354F051E4BC01CD010E942634DC01CB01BC0186
S1135500CD010E943933DC01CB018D839E838985D3
S11355109A859C012F5F3F4F29873A872D81205D13
S1135520FC0120838B859C85AD85BE8520E030E021
S113553040E251E4BC01CD010E942634DC01CB01E0
S11355406C017D018D819E81092E000CAA0BBB0B81
S1135550BC01CD010E947133DC01CB019C01AD0182
S1135560C701B6010E945532DC01CB018B879C87B1
S1135570AD87BE878B819C8101968B839C838981B7
S11355809A81019789839A8389819A8118161906C9
S11355900CF4A7CF8B819C81892B51F489859A8542
S11355A09C012F5F3F4F29873A8720E3FC0120832A
S11355B089859A859C012F5F3F4F29873A872EE280
S11355C0FC01208314C089859A859C012F5F3F4F7D
S11355D029873A8720E3FC01208389819A810197F6
S11355E089839A838B819C8101968B839C83898197
S11355F09A8199230CF058C080918F20909190202B
S11356002B813C8128173907F4F24EC08B859C8589
S1135610AD85BE8520E030E040E251E4BC01CD011F
S11356200E942634DC01CB01BC01CD010E94393338
S1135630DC01CB018F83988789859A859C012F5F34
S11356403F4F29873A872F81205DFC0120838B857A
S11356509C85AD85BE8520E030E040E251E4BC018C
S1135660CD010E942634DC01CB016C017D018F81C8
S11356709885092E000CAA0BBB0BBC01CD010E941E
S11356807133DC01CB019C01AD01C701B6010E945D
S11356905532DC01CB018B879C87AD87BE878B811C
S11356A09C8101968B839C8380918F209091902084
S11356B02B813C81281739070CF4A8CF89859A855A
S11356C0FC0110822E96CDBFDEBFDF91CF91FF90FB
S11356D0EF90DF90CF900895CF92DF92EF92FF92F8
S11356E0CF93DF93CDB7DEB72E97CDBFDEBF8987CB
S11356F09A874B875C876D877E871B821C828B858C
S11357009C85AD85BE8520E030E0A901BC01CD01BA
S11357100E94C232882359F489859A8520E3FC01CA
S1135720208389859A850196FC011082ECC08B85C3
S11357309C85AD85BE8520E030E0A901BC01CD018A
S11357400E94C23288239CF489859A859C012F5F2C
S11357503F4F29873A872DE2FC0120838B859C8566
S1135760AD85BE85B0588B879C87AD87BE87CE013B
S11357700B960E94B0298B839C838B859C85AD8579
S1135780BE8520E030E040E251E4BC01CD010E943E
S11357902634DC01CB01BC01CD010E943933DC018C
S11357A0CB018D839E8389859A859C012F5F3F4F12
S11357B029873A872D81205DFC0120838B859C8578
S11357C0AD85BE8520E030E040E251E4BC01CD016E
S11357D00E942634DC01CB016C017D018D819E8108
S11357E0092E000CAA0BBB0BBC01CD010E94713326
S11357F0DC01CB019C01AD01C701B6010E94553209
S1135800DC01CB018B879C87AD87BE878B819C8114
S113581001978B839C8389859A859C012F5F3F4FD9
S113582029873A872EE2FC01208319821A824EC00E
S11358308B859C85AD85BE8520E030E040E251E457
S1135840BC01CD010E942634DC01CB01BC01CD0199
S11358500E943933DC01CB018F83988789859A852F
S11358609C012F5F3F4F29873A872F81205DFC01E0
S113587020838B859C85AD85BE8520E030E040E2A9
S113588051E4BC01CD010E942634DC01CB016C0142
S11358907D018F819885092E000CAA0BBB0BBC01DE
S11358A0CD010E947133DC01CB019C01AD01C70124
S11358B0B6010E945532DC01CB018B879C87AD87F2
S11358C0BE8789819A81019689839A8380919120E8
S11358D09091922029813A81281739070CF4A8CF96
S11358E089859A859C012F5F3F4F29873A8725E652
S11358F0FC01208329853A858B819C814AE050E014
S1135900B9010E94EB342E96CDBFDEBFDF91CF915B
S1135910FF90EF90DF90CF900895CF92DF92EF92B7
S1135920FF920F93CF93DF93CDB7DEB7CA5AD10955
S1135930CDBFDEBF9E0127553F4FF9018083918380
S1135940198E1A8E1B821C821D821E82198A1A8A43
S11359501B8A1C8A1B8E1C8E1D8A1E8A8091CB3149
S11359609091CC31CC24CA94DC2C760100E021E067
S113597043E050E060E070E00E94B905DC01CB0137
S1135980898F9A8F898D9A8D81709927892B39F403
S1135990898D9A8D82709927892B09F445C280914B
S11359A0CD319091CE31880F991F880F991F8D8F1B
S11359B09E8F8091453190914631880F991F880FB1
S11359C0991F23E030E0B9010E949334CB018F8FFB
S11359D098A32091CD313091CE3180914531909171
S11359E04631820F931F89A39AA32F8D38A18D8DE1
S11359F09E8DA901481B590BCA018BA39CA32D8D15
S1135A003E8D8F8D98A1F901E81BF90BCF018DA371
S1135A109EA31B821C827FC08B819C81880F991F4F
S1135A2083539E4CFC01208131818B819C81880FA2
S1135A30991F83539E4CFC01208331838B819C816D
S1135A40880F991F8B5B9E4CFC01208131818B81D7
S1135A509C81880F991F8B5B9E4CFC0120833183B2
S1135A608D819E81AC014F5F5F4F89A19AA1489FB0
S1135A709001499F300D589F300D11248B819C81DA
S1135A80880F991F83539E4CFC0180819181281BB0
S1135A90390B8B819C81880F991FAE014F5F5F4F3B
S1135AA0840F951F8896FC01208331838D819E810C
S1135AB0AC014F5F5F4F89A19AA1489F9001499F14
S1135AC0300D589F300D11248B819C81880F991FB4
S1135AD08B5B9E4CFC0180819181281B390BAE01AC
S1135AE047595F4F8B819C81880F991F840F951FA5
S1135AF0FC01208331838D819E8101968D839E8359
S1135B008D819E81059711F41D821E828B819C815B
S1135B1001968B839C838B819C8180970CF47CCF32
S1135B208BA19CA102972CF08DA19EA102970CF051
S1135B3062C180915532909156324FEF5FEFBA01B6
S1135B400E940911882309F4A5C019861A868DC0FC
S1135B501B861C8673C08D899E89880F991F9E01A0
S1135B602F5F3F4F820F931F8896FC0180819181A4
S1135B708FA398A78D899E8901968D8B9E8B8FA16B
S1135B8098A50A9778F48FA198A5029758F01F82D8
S1135B9018868FA198A5880F991F880F991F89834C
S1135BA09A833FC08FA198A50F9778F48FA198A5E9
S1135BB00A9758F081E090E08F8398878FA198A589
S1135BC0880F991F89839A832CC08FA198A5439726
S1135BD0C0F48FA198A50F97A0F082E090E08F8386
S1135BE098878FA198A5880F991F880F991F9C01EA
S1135BF0ABEABAEA0E94AF349695879589839A8373
S1135C0010C08FA198A5489760F48FA198A54397D9
S1135C1040F083E090E08F8398878FA198A58983D3
S1135C209A838F89982F990F990F8F818370892B6D
S1135C308F8B8B859C8501968B879C878B859C8518
S1135C40049708F488CF89899A89865F924D2F89B1
S1135C50FC01208389899A890196898B9A8B1F8AF2
S1135C6089859A85019689879A8789859A8508976F
S1135C7008F46ECF1B8E1C8E198A1A8A80915532B5
S1135C809091563200E020E030E0A90160E070E03D
S1135C900E94270F80915732909158324FEF5FEF57
S1135CA0BA010E940911882309F4A5C01D861E8625
S1135CB08DC01F86188A73C08D899E89880F991F8D
S1135CC09E012F5F3F4F820F931F8896FC018081B6
S1135CD091818FA398A78D899E8901968D8B9E8B28
S1135CE08FA198A50A9778F48FA198A5029758F0E8
