:100000000C9420010C9449010C9449010C94490171
:100010000C9449010C9449010C94B7010C94FD0116
:100020000C9449010C9449010C9449010C94490128
:100030000C9449010C9449010C944A060C94490112
:100040000C9449010C9449010C9449010C94490108
:100050000C9449010C9449010C9449010C944901F8
:100060000C9449010C9449010C9449010C944901E8
:100070000C9449010C9449010C9449010C944901D8
:100080000C9449010C9449010C9449010C944901C8
:100090000C9449010C9449010C9449010C944901B8
:1000A0000C9449010C9449010C9449010C944901A8
:1000B0000C9449010C9449010C9449010C94490198
:1000C0000C9449010C9449010C9449010C94490188
:1000D0000C9449010C9449010C9449010C94490178
:1000E0000C9449010C9449010C9449010C94490168
:1000F0000C9449010C9449010C9449010C94490158
:100100000C9449010C9449010C9449010C94490147
:100110000C9449010C9449010C9449010C94490137
:100120000C9449010C9449010C9449010C94490127
:100130000C9449010C9449010C9449010C94490117
:100140000C9449010C9449010C9449010C94490107
:100150000C9449010C9449010C9449010C944901F7
:100160000C9449010C9449010C9449010C944901E7
:100170000C9449010C9449010C9449010C944901D7
:100180000C9449010C9449010C9449010C944901C7
:100190000C9449010C9449010C9449010C944901B7
:1001A0000C9449010C9449010C9449010C944901A7
:1001B0000C94C6130C9449010C9449010C94490108
:1001C0000C9449010C9449010C9449010C94490187
:1001D0000C9449010C9449010C9449010C94490177
:1001E0000C9449010C9449010C9449010C94490167
:1001F0000C9449010C9449010C94490192119211FB
:100200009211DF11C711DC1192119211DF11C71188
:100210000C94DF110C9463120C94E4120C943504CA
:100220000C945F0A0C9492110C94D6100C94DC116F
:100230000C94F1190C94C7110C946F120C94651561
:1002400011241FBECFEFCDBFDFE3DEBF00E00CBF48
:10025000E9E1FFE38AEA90E48193E030F907E0F313
:1002600010E2A0E0B0E2E6E6FAE300E00BBF02C075
:1002700007900D92A239B107D9F72FE3A2E9B0E2B6
:1002800001C01D92A931B207E1F70E9435130C9409
:10029000311D0C940000E0E4F2E08181817E8C60ED
:1002A00081838481887F8660848381E0828380A1CA
:1002B0008076816080A311A280A58076816080A76E
:1002C00088E081A710AA11AA80E8838380818160D9
:1002D00080830895E0E2F6E081E0828382E0828319
:1002E0000E944B01E0E4F8E0108210A211A28FEF0F
:1002F0009FE086A397A388EC80938001E0E0F1E083
:10030000108280E48083808186FDFDCFE0E0F1E013
:1003100084E88083168A74E2708B61E0618B5DE90A
:10032000528B46E4438B20E038E0248B358B84E00D
:1003300097E3848F958F168E9CE6908F82E0818F55
:10034000128E16A270A361A352A343A324A335A3C4
:1003500022E03FE224A735A716A690A781A712A600
:1003600080898068808B87E08093400808951F9281
:100370000F920FB60F9211240BB60F922F933F934B
:100380004F935F936F937F938F939F93AF93BF939D
:10039000EF93FF93CF93DF931F92CDB7DEB7E0E0EB
:1003A000F1E081898061818BE0E4F8E084858160FF
:1003B000848719829E012F5F3F4F41E050E060E04B
:1003C00070E08091082D9091092D0E9438040F90C3
:1003D000DF91CF91FF91EF91BF91AF919F918F915D
:1003E0007F916F915F914F913F912F910F900BBE35
:1003F0000F900FBE0F901F9018951F920F920FB67F
:100400000F9211240BB60F922F933F934F935F934C
:100410006F937F938F939F93AF93BF93EF93FF93CC
:10042000CF93DF931F92CDB7DEB7E0E0F1E081A17B
:10043000806181A3E0E4F8E084858160848719828B
:100440009E012F5F3F4F42E050E060E070E08091FE
:10045000082D9091092D0E9438040F90DF91CF91C3
:10046000FF91EF91BF91AF919F918F917F916F918C
:100470005F914F913F912F910F900BBE0F900FBE48
:100480000F901F9018950F93CF93DF931F92CDB7C6
:10049000DEB72FB72983F8941BBEFC0108ED04BF1B
:1004A000608389818FBF0F90DF91CF910F91089565
:1004B000611102C090E001C090E2842B892B8093EF
:1004C000520008956F71862B809355000895E0E5E2
:1004D000F0E09081282F20959223908390818923AA
:1004E0000895682B81E490E00E94430208950F93E1
:1004F0001F93CF93C82F00E410E0F8016081687F5C
:10050000682B80E490E00E944302F80180818C23F4
:10051000CF911F910F910895FC019081907F692BDD
:1005200060830895FC019181987F692B6183089510
:10053000FC0196819C7F692B66830895000088EDFD
:1005400084BF81E08093790008950E949E020895FF
:10055000CF93DF9380E190E00E944504EC01009787
:1005600041F0FC011192119211921192CF010E945F
:100570006C04CE01DF91CF9108952F923F924F925C
:100580005F926F927F928F929F92AF92BF92CF9223
:10059000DF92EF92FF920F931F93CF93DF93EC01C3
:1005A0004A015B01622E702E0E94B90B28803980AF
:1005B0004A805B8001110DC081E0B201A101482198
:1005C00059216A217B21452B462B472B79F480E06A
:1005D0000DC081E0B201A101482159216A217B218E
:1005E000481559056A057B0509F080E0882381F0EC
:1005F000662009F470C080949094A094B0948220F6
:100600009320A420B52088829982AA82BB8263C0ED
:10061000C114D104E104F10409F45DC0662029F09D
:1006200040E050E060E071E003C040E050E0BA011B
:1006300071107460482959296A297B29970186011C
:10064000CE0104960E94E80D0E94A40C811102C004
:100650000E94CA050E94250F91FD39C0F091A200A9
:10066000FF93F87FF093A200688179818A819B8152
:1006700071100DC021E075016401C622D722E82265
:10068000F922CD28CE28CF2879F420E00DC021E032
:1006900075016401C622D722E822F922C814D904C0
:1006A000EA04FB0409F020E0222371F0662061F0E7
:1006B00080949094A094B09486229722A822B92284
:1006C00088829982AA82BB82FF91F093A2001B01CB
:1006D0002C01552402C00E94A40CC201B101DF917B
:1006E000CF911F910F91FF90EF90DF90CF90BF902F
:1006F000AF909F908F907F906F905F904F903F90C2
:100700002F9008950F931F93F091A200FF93F87F0D
:10071000F093A200FC010081118122813381409578
:100720005095609570954023512362237323408335
:10073000518362837383FF91F093A200C901B801D2
:100740001F910F9108954F925F926F927F92AF9297
:10075000BF92CF92DF92EF92FF920F931F93CF93AE
:10076000DF93EC016A017B018C01095F1F4F0E943E
:10077000B90BEB85FC8588819981AA81BB81C82A48
:10078000D92AEA2AFB2AC882D982EA82FB820E177A
:100790001F0709F442C0C12CD12C7601A480B5807A
:1007A00080819181A281B381AC01BD017727B2FD27
:1007B0000FC0488059806A807B804422552266227F
:1007C000772221E045284628472889F420E00FC0F9
:1007D000488059806A807B80442255226622772295
:1007E00021E0441655066606770609F020E022232C
:1007F00071F0B0FF04C0C42AD52AE62AF72A48813E
:1008000059816A817B817260CF010E94700EEA2D4E
:10081000FB2D0E171F0711F603C0C12CD12C76013A
:10082000C094D094E094F09488819981AA81BB818E
:10083000C822D922EA22FB22C882D982EA82FB821C
:100840000E94A40C688179818A819B81DF91CF917C
:100850001F910F91FF90EF90DF90CF90BF90AF90DE
:100860007F906F905F904F9008950E94A30308952A
:100870000F931F9389019A01AB01BC0185E394E0BA
:100880000E9405121F910F910895CF93DF93EC0101
:100890000E94B90B2091922030919320C9018C0FB6
:1008A0009D1F883B4BE0940758F42817390758F4EC
:1008B000E901CC56DF4D809392209093932005C0A0
:1008C000C0E0D0E002C0C0E0D0E00E94A40CCE01A5
:1008D000DF91CF9108950895FC010396818392835F
:1008E0004FEF5FEFBA014383548365837683878339
:1008F00090878187928710820895FC011286138663
:100900000895CF93DF939C01FB01DC011196CD91FB
:10091000DC911297C483D5838E819F8186839783D0
:100920008E819F81DC0114966D937C9315976E8365
:100930007F8322873387F90180818F5F8083DF91F6
:10094000CF9108950F931F93CF93DF93EB0108810D
:1009500019812A813B810F3F4FEF14072407340789
:1009600021F4FC01A185B28511C0DC01139601C000
:10097000DF011496ED91FC911597408151816281C0
:100980007381041715072607370790F71496ED9122
:10099000FC911597EC83FD83C683D783AE83BF8319
:1009A0001496CD93DC9315978A879B87FC01208151
:1009B0002F5F2083DF91CF911F910F910895CF93E7
:1009C000DF93FC01A285B385C481D581868197819F
:1009D0008E839F83C681D781848195818C839D83FB
:1009E00011968D919C911297E817F90731F4868141
:1009F000978111968D939C931297128613868C91F2
:100A000081508C938C91DF91CF910895E0EAF0E0D2
:100A100082819281987F92830895CF92DF92EF92A4
:100A2000FF9231E1FC013083319722E2208331973C
:100A3000A3E3A0836B01E12CF12C31976083319704
:100A4000D0823197E082319761E36083319760E82B
:100A50006083319767E86083319710823197108205
:100A6000319762E06083319763E06083319764E09F
:100A70006083319765E06083319766E060833197EA
:100A800067E06083319768E06083319769E0608355
:100A9000319760E1608331973083319732E1308361
:100AA000319733E13083319734E13083319735E149
:100AB0003083319736E13083319737E13083319796
:100AC00038E13083319739E13083319730E2308338
:100AD000319731E2308331972083319723E22083AD
:100AE0006A01319740833197D082319726E2208383
:100AF000319727E22083319728E22083319729E23A
:100B00002083319720E320838897FF90EF90DF9038
:100B1000CF90089583EF91E0809326089093270863
:100B200065E080E098E00E948C0261E080E098E05F
:100B30000E949802A091BA2CB091BB2C0D900DBED2
:100B40000D900EBEEF91DF91CF91BF91AF919F912C
:100B50008F917F916F915F914F913F912F911F9155
:100B60000F91FF90EF90DF90CF90BF90AF909F904C
:100B70008F907F906F905F904F903F902F901F903D
:100B80000F90FF91F093A200FF91FFBFFF91089596
:100B900081E00895FF93FFB7FF93F091A200FF93C8
:100BA000F87FF093A2000F921F9211242F923F9290
:100BB0004F925F926F927F928F929F92AF92BF926D
:100BC000CF92DF92EF92FF920F931F932F933F9359
:100BD0004F935F936F937F938F939F93AF93BF9345
:100BE000CF93DF93EF93A091BA2CB091BB2C0DB6AD
:100BF0000D920EB60D920E94420DA091BA2CB091AA
:100C0000BB2C0D900DBE0D900EBEEF91DF91CF91DC
:100C1000BF91AF919F918F917F916F915F914F9114
:100C20003F912F911F910F91FF90EF90DF90CF9008
:100C3000BF90AF909F908F907F906F905F904F90FC
:100C40003F902F901F900F90FF91F093A200FF9183
:100C5000FFBFFF910895CF939091043F892B80931C
:100C6000043F9091A000913041F09091A00092300B
:100C700021F09091A000943059F4882349F00E940B
:100C80000605C82F1092043F0E94420DC093A20097
:100C9000CF910895FF93FFB7FF93F091A200FF93C8
:100CA000F87FF093A2000F921F9211242F923F928F
:100CB0004F925F926F927F928F929F92AF92BF926C
:100CC000CF92DF92EF92FF920F931F932F933F9358
:100CD0004F935F936F937F938F939F93AF93BF9344
:100CE000CF93DF93EF93A091BA2CB091BB2C0DB6AC
:100CF0000D920EB60D920E940605C82F0E94D10BD0
:100D0000C093A20081E00E942B06A091BA2CB09162
:100D1000BB2C0D900DBE0D900EBEEF91DF91CF91CB
:100D2000BF91AF919F918F917F916F915F914F9103
:100D30003F912F911F910F91FF90EF90DF90CF90F7
:100D4000BF90AF909F908F907F906F905F904F90EB
:100D50003F902F901F900F90FF91F093A200FF9172
:100D6000FFBFFF911895F091A200FF93F87FF093D9
:100D7000A200FC01968DFF91F093A20081E09111F9
:100D800080E00895DC01F091A200FF93F87FF093DA
:100D9000A2005E969C915E97FF91F093A20081E085
:100DA0005F962C91291380E008950F931F93CF93A2
:100DB000DF93EC01042F1E8D48A14423B9F10111EA
:100DC00016C050E08C819D810E94EC1C28A18C8172
:100DD0009D81820F911D8C839D832A813B81821787
:100DE000930720F1888199818C839D831FC050E0F7
:100DF0008E819F810E94EC1C88A190E09195819545
:100E000091092E813F81280F391F2E833F8348810E
:100E100059812417350730F42A813B81820F931FB3
:100E20008E839F83023011F4111111501F5F1E8FAA
:100E300080E0DF91CF911F910F910895FC0140A1B7
:100E40004423A9F050E026813781240F351F2683E3
:100E50003783828193812817390720F0808191811F
:100E600086839783CB01668177810E94EC1C08956D
:100E7000EF92FF920F931F93CF938C01F091A200FA
:100E8000FF93F87FF093A200FC01C2A11C16ACF402
:100E90008389811106C011C0F8018389811105C0C1
:100EA0000CC07801F3E1EF0EF11CC7010E942E0E79
:100EB00081110E94130FC15079F78FEFF80182A3BF
:100EC000FF91F093A200F091A200FF93F87FF093BE
:100ED000A200F801C1A11C16ACF48085811106C0E6
:100EE00011C0F8018085811105C00CC07801F8E0BF
:100EF000EF0EF11CC7010E942E0E81110E94130FEC
:100F0000C15079F78FEFF80181A3FF91F093A20010
:100F1000CF911F910F91FF90EF900895CF93DF93A2
:100F2000EC01F091A200FF93F87FF093A2004881BA
:100F3000598128A130E07F8D729FC001739F900D71
:100F40001124FA01E80FF91FEA83FB831E8E4C83FC
:100F50005D83821B930B840F951F8E839F838FEF7E
:100F600089A38AA361110CC08885882389F0CE01EA
:100F700008960E942E0E882359F00E94CA0508C0C8
:100F8000CE0108960E946C04CE0143960E946C0428
:100F9000FF91F093A20081E0DF91CF910895FF923D
:100FA0000F931F93CF93DF93082F162FF42E6623F2
:100FB000C9F0869FC001112485960E944504EC016A
:100FC000009749F416C00F8F18A361E0CE010E946C
:100FD0008E07FCA20EC0859688839983F4CFC883C0
:100FE000D983F1CF85E290E00E944504EC01892B82
:100FF000B1F7CE01DF91CF911F910F91FF9008952E
:10100000AF92BF92CF92DF92EF92FF920F931F9316
:10101000CF93DF93CDB7DEB72997CDBFDEBF7C017D
:101020005B012E833F834887598710E06C0188E07D
:10103000C80ED11CF091A200FF93F87FF093A2009C
:10104000F701968D878D981710F00230D1F4402F5C
:10105000B501C7010E94D506F7019389992349F08C
:10106000C70143960E942E0E882331F00E94CA05C4
:1010700003C081110E94CA05FF91F093A20081E094
:1010800057C08E819F81A885B985892B8A2B8B2B90
:1010900029F4FF91F093A20080E04AC0111105C02D
:1010A000CE0101960E94A40E11E0FF91F093A200E0
:1010B0000E94B90BF091A200FF93F87FF093A20079
:1010C000F70181A18F3F09F411A2F70182A18F3F9F
:1010D00009F412A2FF91F093A200BE016A5F7F4F54
:1010E000CE0101960E94B50E81111CC0C7010E945D
:1010F000C206882389F04E815F8168857985C601A3
:101100000E94D00DC7010E9438070E94A40C8111D3
:1011100091CF0E94CA058ECFC7010E9438070E9456
:10112000A40C88CFC7010E9438070E94A40C80E05D
:101130002996CDBFDEBFDF91CF911F910F91FF9018
:10114000EF90DF90CF90BF90AF900895AF92BF9295
:10115000CF92DF92FF920F931F93CF93DF93EC0117
:101160006B015A01022F0E940605F82E9E8D8F8D6D
:10117000981710F00230E1F41AA1402FB601CE0109
:101180000E94D5061F3F81F48B89882399F0CE01F8
:1011900043960E942E0E882379F0A114B10471F0B9
:1011A00081E0F50180830BC01F5F1AA381E007C0B7
:1011B00080E005C081E003C081E001C081E0F092E1
:1011C000A200DF91CF911F910F91FF90DF90CF9000
:1011D000BF90AF900895AF92BF92CF92DF92EF92FF
:1011E000FF920F931F93CF93DF93CDB7DEB729976D
:1011F000CDBFDEBF8C015B012E833F8348875987BB
:10120000E12C6C0183E1C80ED11CF091A200FF9388
:10121000F87FF093A200F801F68CFF20B1F0B50141
:10122000C8010E941E07FA94F801F68E8085882373
:1012300039F0C80108960E942E0E81110E94CA053D
:10124000FF91F093A20081E05EC08E819F81A8850E
:10125000B985892B8A2B8B2B29F4FF91F093A2005F
:1012600080E051C0E11006C0CE0101960E94A40E9C
:10127000EE24E394FF91F093A2000E94B90BF09149
:10128000A200FF93F87FF093A200F80181A18F3FA5
:1012900009F411A2F80182A18F3F09F412A2FF9173
:1012A000F093A200BE016A5F7F4FCE0101960E94BB
:1012B000B50E81111CC0C8010E94B306882389F0B5
:1012C0004E815F8168857985C6010E94D00DC80175
:1012D0000E9438070E94A40C811197CF0E94CA0572
:1012E00094CFC8010E9438070E94A40C8ECFC80179
:1012F0000E9438070E94A40CC8010E94B3068823EC
:1013000009F483CF80E02996CDBFDEBFDF91CF9176
:101310001F910F91FF90EF90DF90CF90BF90AF9013
:101320000895F091A200FF93F87FF093A200FC01D2
:10133000868DFF91F093A2000895CF93DF93EC0187
:10134000F091A200FF93F87FF093A20089A18F3F54
:1013500009F419A28AA18F3F09F41AA2FF91F09310
:10136000A2008E8D811104C0CE0143960E940D0E05
:10137000CE010E943807DF91CF910895E091762C3D
:10138000F091772C808181110CC08FEF9FEFDC01F1
:1013900080934F2C9093502CA093512CB093522CAF
:1013A0000895E091762CF091772C0780F085E02D60
:1013B0000084F185E02D82819381A481B5818093A1
:1013C0004F2C9093502CA093512CB093522C0895F5
:1013D0008F929F92AF92BF92CF92DF92EF92FF9245
:1013E000CF936B017C01C42F8090592C90905A2C84
:1013F000A0905B2CB0905C2C8091BA2C9091BB2C6F
:1014000002960E94DF048FEFC816D806E806F80699
:1014100069F4CC2359F06091BA2C7091BB2C6E5FAB
:101420007F4F8EE59CE20E9481043FC0C80CD91C0E
:10143000EA1CFB1CE091BA2CF091BB2CC282D38237
:10144000E482F582C814D904EA04FB0468F46091CC
:10145000BA2C7091BB2C8091742C9091752C6E5F7E
:101460007F4F0E94A20421C06091BA2C7091BB2CC6
:101470008091762C9091772C6E5F7F4F0E94A20412
:1014800080914F2C9091502CA091512CB091522CC6
:10149000C816D906EA06FB0640F4C0924F2CD0923B
:1014A000502CE092512CF092522CCF91FF90EF9063
:1014B000DF90CF90BF90AF909F908F900895CEE82F
:1014C000DCE28881823010F00E94CA050E94341349
:1014D000F8CF4F925F926F927F928F929F92AF92CE
:1014E000BF92CF92DF92EF92FF920F93CF93DF9351
:1014F0004C016B015A012901CA010E9445043C01BB
:10150000892B09F4EAC08CE290E00E944504EC01CA
:10151000892BB1F06B8E7C8EA50165EA70E0C3016A
:101520000E94F51C21E0A21AB1088B8D9C8DA80E9B
:10153000B91ED6018C918D8F8C91811105C018C078
:10154000C3010E946B04C9C0AE01425E5F4FF60149
:101550003196B8E0CB0ED11CCF012191DA012D9349
:10156000AD01DC018C91882319F0EC15FD05A1F784
:101570001CA2043008F003E00A8F6E01B2E0CB0E2B
:10158000D11CC6010E947D04CE010E960E947D04EE
:10159000CA87DB8784E090E0A0E0B0E0801B91097F
:1015A000A109B1098E879F87A88BB98BCE8BDF8B62
:1015B0001FA218A619A61AA61BA6A201B401C5014E
:1015C0000E940D0588839983E114F10419F0F70155
:1015D000C083D183F091A200FF93F87FF093A20023
:1015E00080915D2C8F5F80935D2C8091BA2C9091BF
:1015F000BB2C892BA9F5C093BA2CD093BB2C80911E
:101600005D2C8130E9F58EE89CE20E946C0489E94A
:101610009CE20E946C0484EA9CE20E946C048FEAC3
:101620009CE20E946C0483E89CE20E946C0488E7C0
:101630009CE20E946C0489E69CE20E946C048EE5A8
:101640009CE20E946C0483E89CE28093762C909349
:10165000772C88E79CE28093742C9093752C10C0B3
:101660008091572C81110CC0E091BA2CF091BB2CC9
:10167000928D8A8D891720F0C093BA2CD093BB2C01
:101680008091532C8F5F8093532C8DA38A8D9091E2
:10169000582C981710F48093582CFBE08F9FC001B2
:1016A0001124B6018257934D0E948104FF91F0935B
:1016B000A2008091572C882361F0E091BA2CF09120
:1016C000BB2C928D8A8D981730F40E94CA0581E058
:1016D00005C081E003C081E001C08FEFDF91CF91B1
:1016E0000F91FF90EF90DF90CF90BF90AF909F90C1
:1016F0008F907F906F905F904F900895EF92FF9240
:101700000F930F2EFDE4EF2EFCE2FF2EF02D00E0F4
:1017100020E030E048EC50E060E070E28FE59AE0D5
:101720000E94690A813009F50E94C30F8130E9F4F3
:10173000E0EAF0E08281887F82838FEF9FEFDC0117
:1017400080934F2C9093502CA093512CB093522CFB
:1017500081E08093572C1092592C10925A2C1092A1
:101760005B2C10925C2C0E948A050F91FF90EF90E9
:10177000089580914C2C8F5F80934C2C0895F091AC
:10178000A200FF93F87FF093A2006091592C709112
:101790005A2C80915B2C90915C2CFF91F093A200CD
:1017A0000895AF92BF92CF92DF92EF92FF920F9384
:1017B0001F93CF93DF9380914C2C8111ADC0C090CB
:1017C000592CD0905A2CE0905B2CF0905C2C8FEF31
:1017D000C81AD80AE80AF80AC092592CD0925A2C92
:1017E000E0925B2CF0925C2CC114D104E104F10472
:1017F000B9F48091762C9091772C2091742C3091B3
:10180000752C2093762C3093772C8093742C9093A6
:10181000752C8091542C8F5F8093542C0E94BE09AC
:1018200080914F2C9091502CA091512CB091522C22
:10183000C816D906EA06FB0610F4B12C5CC0B12C20
:101840000F2EFBE0AF2EF02DE091762CF091772C4F
:10185000808181110CC08FEF9FEFDC0180934F2CB2
:101860009093502CA093512CB093522C44C0E091F3
:10187000762CF091772C0780F085E02DC085D185FE
:101880008A819B81AC81BD81C816D906EA06FB0618
:1018900048F480934F2C9093502CA093512CB093EC
:1018A000522C29C08E010E5F1F4FC8010E94DF0419
:1018B000888D998D892B21F0CE010E960E94DF0430
:1018C0008A8D9091582C981710F48093582CA89ECC
:1018D000C0011124B8018257934D0E948104E09108
:1018E000BA2CF091BB2C9A8D828D981708F4ACCF4E
:1018F000BB24B394A9CFE091BA2CF091BB2CE28D1C
:101900008BE0E89FF0011124E257F34D8081823093
:1019100048F0BB24B39406C08091562C8F5F80930F
:10192000562CB12C8091552C882311F0BB24B394F4
:101930008B2DDF91CF911F910F91FF90EF90DF9052
:10194000CF90BF90AF900895CF92DF92EF92FF9229
:101950000F931F93CF93DF93F091A200FF93F87F33
:10196000F093A20080914C2C815080934C2C80915C
:101970004C2C81115CC080915D2C81112CC05AC00F
:10198000D7011796ED91FC911897C085D185CE01AE
:101990000E960E94DF048E010E5F1F4FC8010E9449
:1019A000DF048A8D9091582C981710F48093582C4E
:1019B000D89EC0011124B8018257934D0E94810422
:1019C000E091BA2CF091BB2C9A8D828D981788F0FB
:1019D000C092552C0EC0C0E0D0E00F2EF9E6EF2EDD
:1019E000FCE2FF2EF02D0F2EFBE0DF2EF02DCC249D
:1019F000C394F70180818111C3CFCD2B11F00E94D8
:101A0000BE09C091562CCC2351F0D1E00E94D10BDD
:101A10008111D093552CC150C9F71092562C80914A
:101A2000552C882331F00E94CA0581E003C080E074
:101A300001C080E0FF91F093A200DF91CF911F9150
:101A40000F91FF90EF90DF90CF900895CF92DF92AB
:101A5000EF92FF926B017C01672B682B692B59F089
:101A60000E94B90B40E0C701B6010E94E8090E943C
:101A7000A40C811102C00E94CA05FF90EF90DF9074
:101A8000CF90089580914C2C882321F081E08093A1
:101A9000552C08951092552CE091BA2CF091BB2C46
:101AA000038CF48DE02D80819181A281B381853AF0
:101AB000954AA54AB54AD9F484819581A681B78112
:101AC000853A954AA54AB54A91F480859185A285C3
:101AD000B385853A954AA54AB54A49F484859585E2
:101AE000A685B785853A954AA54AB54A61F06091C1
:101AF000BA2C7091BB2C8091BA2C9091BB2C635E58
:101B00007F4F0E94A5028091582C282F30E09BE047
:101B1000899FF0011124E257F34D908191110EC07D
:101B20004BE08150282F30E0429FF001439FF00DA1
:101B30001124E257F34D9081992399F39BE0929FF2
:101B4000A001939F500D1124DA01A257B34D1196B5
:101B5000ED91FC9112970480F581E02D1196ED93A3
:101B6000FC9312974F56534DE417F50729F444811F
:101B70005581FD01418352839BE0929FF001939F29
:101B8000F00D1124E257F34D0180F281E02D208504
:101B900031852093BA2C3093BB2C8093582C089518
:101BA000CF92DF92EF92FF926A017B016091BA2C93
:101BB0007091BB2C625F7F4F0E94A20441E0C7017D
:101BC000B6010E94E809FF90EF90DF90CF90089552
:101BD000CF92DF92EF92FF920F931F9368017901EA
:101BE000E091BA2CF091BB2C706846875787608BC8
:101BF000718B6091BA2C7091BB2C625F7F4F0E94F9
:101C0000810441E0C701B6010E94E8091F910F91CC
:101C1000FF90EF90DF90CF900895CF92DF92EF92F8
:101C2000FF92CF936A017B01C22F6091BA2C709111
:101C3000BB2C625F7F4F0E948104CC2321F0CC2417
:101C4000CA94DC2C76014C2FC701B6010E94E8092A
:101C5000CF91FF90EF90DF90CF9008950F931F9357
:101C6000CF93DF93DC011796ED91FC911897C08517
:101C7000D1858E01025F1F4FC8010E94DF04809151
:101C80004C2C811116C00C501109C8010E94DF04B0
:101C90008A8D9091582C981710F48093582CBBE0A3
:101CA0008B9FC0011124B8018257934D0E9481047B
:101CB00005C0B80189E69CE20E948104E091BA2C3B
:101CC000F091BB2C9A8D828D891720F481E080934E
:101CD000552C01C080E0DF91CF911F910F910895A5
:101CE0000F931F93CF93DF937068FC014083518360
:101CF00062837383C085D1850E94DF048E010E5FED
:101D00001F4FC8010E94DF048A8D9091582C9817AC
:101D100010F48093582CFBE08F9FC0011124B80170
:101D20008257934D0E948104E091BA2CF091BB2C14
:101D30009A8D828D891718F481E08093552CDF915C
:101D4000CF911F910F9108952091542CFC01208375
:101D50004091592C50915A2C60915B2C70915C2CC5
:101D600041835283638374830895CF92DF92EF920D
:101D7000FF920F931F93CF93DF93DB01F091A200AB
:101D8000FF93F87FF093A2004091592C50915A2C68
:101D900060915B2C70915C2C0D911D912D913C916B
:101DA00013970F3FCFEF1C072C073C0769F1FC018D
:101DB000C180D280E380F480E091542CEC01F88162
:101DC000FE1729F04C155D056E057F05F8F44C19DA
:101DD0005D096E097F09401751076207730768F4B0
:101DE000FD01041B150B260B370B00831183228387
:101DF00033830E94A40E80E00AC01D921D921D92A2
:101E00001C92139781E003C080E001C081E0FF9144
:101E1000F093A200DF91CF911F910F91FF90EF906F
:101E2000DF90CF90089581E08093552C08958091A4
:101E3000572C882331F080914C2C882321F080E0AE
:101E4000089581E0089582E00895CF92DF92EF92A5
:101E5000FF92E091BA2CF091BB2C66857785808942
:101E60009189E091BA2CF091BB2CA091BA2CB09141
:101E7000BB2C5A962C91C12CD12C76016894C2F8B7
:101E8000C21AD108E108F108C686D786E08AF18A2D
:101E9000FF90EF90DF90CF900895CF92DF92EF9276
:101EA000FF920F931F93FC014283538364837583D6
:101EB000828793870417150726073707C0F00C1988
:101EC0001D092E093F0986859785A089B1890817C4
:101ED00019072A073B0700F5BF016E5F7F4F80910E
:101EE000C42C9091C52C0E94A20480E018C00C154F
:101EF0001D052E053F0528F44C155D056E057F0573
:101F000068F4BF016E5F7F4F8091C62C9091C72C03
:101F10000E94A20480E003C081E001C081E01F9123
:101F20000F91FF90EF90DF90CF900895F091A20075
:101F3000FF93F87FF093A2008091C22C9091C32C64
:101F4000892BE9F483ED9CE20E946C0488EC9CE20E
:101F50000E946C0483ED9CE28093C62C9093C72C66
:101F600088EC9CE28093C42C9093C52C40E069E0FF
:101F700085E00E94CF078093C22C9093C32CFF91E1
:101F8000F093A2000895EF92FF920F930E94960F94
:101F90008091C22C9091C32C892B91F00F2EF0ECE4
:101FA000EF2EFCE2FF2EF02D03E020E030E048ECC5
:101FB00050E065E070E286ED90E10E94690A01C0A0
:101FC00080E00F91FF90EF9008958F929F92AF92D3
:101FD000BF92CF92DF92EF92FF920F931F93CF9316
:101FE000DF93CDB7DEB72997CDBFDEBFE091C22C1E
:101FF000F091C32C309789F169832A833B834C830A
:102000005D838E839F836630FCF40E94170F8230BD
:1020100069F400E0A7019601BE016F5F7F4F8091D8
:10202000C22C9091C32C0E94000818C000E020E050
:1020300030E0A901BE016F5F7F4F8091C22C90916B
:10204000C32C0E9400080AC020E0A801BE016F5FF7
:102050007F4FCF010E94A60801C080E02996CDBF26
:10206000DEBFDF91CF911F910F91FF90EF90DF9036
:10207000CF90BF90AF909F908F9008952F923F92F6
:102080004F925F926F927F928F929F92AF92BF9288
:10209000CF92DF92EF92FF920F931F93CF93DF9334
:1020A0001C010E94BF0B2B013C018091BC2C909124
:1020B000BD2CA091BE2CB091BF2C481659066A06C3
:1020C0007B0608F054C03CC00780F085E02D80807E
:1020D0009180A280B380C085D1858E010E5F1F4F95
:1020E000C8010E94DF04ED89FE89CE0119958A8915
:1020F000813031F58E859F85A889B989880D991D14
:10210000AA1DBB1D88169906AA06BB0670F48A8311
:102110009B83AC83BD83CA87DB87B8018091C62CC3
:102120009091C72C0E94A2040BC0C12CD12C760127
:1021300000E010E0A501940160E0CE010E94E50FEF
:10214000E091C62CF091C72C80818111BDCF809188
:10215000C42C9091C52C8093C62C9093C72CE093EF
:10216000C42CF093C52C81E0F101808302C0F10101
:1021700010824092BC2C5092BD2C6092BE2C70926A
:10218000BF2CC301B201DF91CF911F910F91FF903E
:10219000EF90DF90CF90BF90AF909F908F907F9007
:1021A0006F905F904F903F902F900895CF93DF9363
:1021B000CDB7DEB72E97CDBFDEBFCE0101961C0195
:1021C000A82EB32CE091C62CF091C72C80818823D7
:1021D00009F403C10780F085E02D408051806280C2
:1021E00073800E94B90BC1010E943E106B877C87EF
:1021F0008D879E87898181115EC08B859C85AD8589
:10220000BE8584159505A605B705E8F10E94A40CC6
:10221000E091C62CF091C72C0780F085E02D8084DA
:102220009184C40102960E94DF04D40152968C91DD
:102230005297813001F51E964D915D916D917C9183
:102240005197440D551D661D771D730162010B8565
:102250001C852D853E85C4010E944D0F882359F0B1
:10226000C12CD12C760100E010E0A301920160E0C6
:10227000C4010E94E50FD4015596ED91FC9156974B
:10228000C40119959CC020E0B301A2018B859C85F7
:10229000AD85BE85481B590B6A0B7B0B8091C22C08
:1022A0009091C32C0E949D090E94A40C811187C0AB
:1022B0000E94CA0584C00E94A40C81C08981882321
:1022C0006CF44E815F8168857985EA81FB818C8120
:1022D0009D811995898188230CF471C08E809F801F
:1022E000D4011C968D919C911D97892B21F0C401DE
:1022F00002960E94DF04CE010A960E943E108B01D6
:102300009C018981082E000C990BAA0BBB0B8A300B
:10231000910508F054C0FC018827E250FF4F8F4F11
:102320000C94E41CCA80DB80EC80FD80F4014685BF
:102330005785608971894C0D5D1D6E1D7F1DC4011F
:102340000E944D0F8823D9F1D4015596ED91FC914F
:102350005697C4011995F4018289813081F54A812B
:102360005B816C817D8186859785A089B1899A0181
:10237000AB01280F391F4A1F5B1FC12CD12C7601DE
:1023800000E010E060E0C4010E94E50F18C04A813F
:102390005B816C817D81D4011E964D935D936D931D
:1023A0007C935197400F511F621F731F6801790181
:1023B000C4010E944D0F03C0C4010E946B0420E0C1
:1023C00030E0A9016A2D7B2D8091C22C9091C32C05
:1023D0000E94EB08811172CFF5CE0E94B90BC101AA
:1023E0000E943E106B877C878D879E878981811133
:1023F00062CFE091C42CF091C52C808121E0811145
:1024000020E0412C512C32013FCF0F931F93CF93EB
:10241000DF93CDB7DEB72997CDBFDEBFEEEFE983FF
:102420008A839B836C837D832E833F834887598770
:1024300020E0A801BE016F5F7F4F8091C22C909178
:10244000C32C0E94A6082996CDBFDEBFDF91CF9195
:102450001F910F910895E0E5F0E080818160808315
:10246000818180FFFDCF80E00E9477028EE10E9493
:10247000670260E080E00E94710243E060E080E477
:102480000E945802E0E5F0E08081886080838181CD
:1024900083FFFDCF64E080EC0E946202E0E5F0E0A3
:1024A00080818061808360E080E00E947102E0E5CD
:1024B000F0E0818184FFFDCF84E00E94770287E015
:1024C0000E9467020895E0EAF6E081E08183848358
:1024D00064E670E080E090E00E94260DF9CF0F2EB8
:1024E000FDE0EF2EF0E2FF2EF02D0F2EF2E0AF2EEA
:1024F000FFE2BF2EF02D0F2EF4E0CF2EF7E3DF2EFC
:10250000F02D0DE110E255245394C0E3D0E268941D
:10251000662461F80F2EF0E48F2EF0E29F2EF02D4E
:102520000F2EF3E07F2EF02D0E944316FF92EF92C4
:102530001F921F921F921F920E944E16F5019181C9
:10254000F60181811F929F931F928F931F930F9388
:102550001F921F921F925F920E944E1680910C3F15
:102560008F9380910B3F8F938091083F8F93809141
:10257000073F8F93DF93CF931F921F921F926F920B
:102580000E944E168091012F8F938091002F8F9380
:10259000809103378F93809102378F939F928F9210
:1025A0001F921F921F927F920E944E16EDB7FEB7A8
:1025B000B496EDBFFEBF0E947E0B64E670E080E043
:1025C00090E00E94260DB0CFCC24CA94DC2C76017A
:1025D00000E021E043E050E060E070E08091042EF4
:1025E0009091052E0E94BD0260FF1CC04091073FE4
:1025F0005091083F80E090E0FC01EC5FF84C2081B6
:1026000030E0421753072CF4FC01EC5FF84C40819A
:1026100050E00196883C910579F74093073F50932D
:10262000083F1BC040910B3F50910C3F80E090E071
:10263000FC01EE5FF04D208130E0421753072CF48F
:10264000FC01EE5FF04D408150E00196883C910521
:1026500079F740930B3F50930C3F64E670E080E0C5
:1026600090E00E94260DB0CF0895EF92FF920F9355
:10267000CF930E94801AC82F0E942B120E94C71469
:102680000F2EF9E0EF2EFFE3FF2EF02D01E020E00A
:1026900030E042ED50E06CE470E283E692E10E94AB
:1026A000690A0F2EFFE0EF2EFFE3FF2EF02D20E052
:1026B00030E042ED50E06CE470E284EE92E10E9482
:1026C000690A0F2EF1E1EF2EFFE3FF2EF02D20E03F
:1026D00030E042ED50E06CE470E28FE692E10E945F
:1026E000690A0F2EF3E1EF2EFFE3FF2EF02D20E01D
:1026F00030E04CE251E065E570E281EF99E10E9443
:10270000690A0E94A8028093042E9093052E0E94CD
:102710006A010E9443168DE090E29F938F931F926F
:102720001F921F921F920E944E1680E690E29F9386
:102730008F931F921F921F9281E08F930E944E16DB
:102740008DE690E29F938F931F921F921F9282E0DB
:102750008F930E944E161F92CF9386E790E29F932D
:102760008F931F921F921F9283E08F930E944E16A9
:102770000E947E0B8DB79EB74A968DBF9EBF80E0AC
:1027800090E0CF910F91FF90EF9008951F920F92DC
:102790000FB60F9211240BB60F922F933F934F93C6
:1027A0005F936F937F938F939F93AF93BF93EF93B9
:1027B000FF93CF93DF931F92CDB7DEB719829E01AF
:1027C0002F5F3F4F41E050E060E070E08091173FA5
:1027D0009091183F0E94380460E080E09BE00E94E6
:1027E0008C021092060B0F90DF91CF91FF91EF9129
:1027F000BF91AF919F918F917F916F915F914F9119
:102800003F912F910F900BBE0F900FBE0F901F9016
:102810001895CF92DF92EF92FF920F936B017C019C
:1028200082E0C816D104E104F10408F44EC0E0E0EF
:10283000FBE081E0868310A211A260E080E09BE0D3
:102840000E9492028EEFC8168FEFD806E104F104C1
:1028500070F4F694E794D794C794C092260BD09264
:10286000270B65E080E09BE00E948C0219C080E4A9
:10287000C81682E4D8068FE0E806F10488F468946C
:1028800014F8F694E794D794C7941694D1F7C092AD
:10289000260BD092270B67E080E09BE00E948C0221
:1028A0000F2EF4EFCF2EDD24D394E12CF12CF02D5C
:1028B00000E021E041E050E060E070E08091173FEF
:1028C0009091183F0E94BD0211C0E0E0FBE081E062
:1028D000868310A211A260E080E09BE00E94920239
:1028E000C12CD12C76016894C1F8B3CF0F91FF9021
:1028F000EF90DF90CF9008958295807FE0E0F6E042
:102900009481282F2F60922394839481892B848330
:1029100008951F93CF93DF93C0E6D6E014E01D83A4
:1029200061E070E080E090E00E9409141E83DF9176
:10293000CF911F910895CF93C82F82958F700E94D9
:102940007C14E0E6F6E081E0868382E086830E94E4
:1029500089148C2F8F700E947C140E948914CF914F
:102960000895CF93C82F82958F700E947C14E0E663
:10297000F6E081E0858382E086830E9489148C2FB3
:102980008F700E947C140E948914CF910895EF9259
:10299000FF920F93E0E0F6E080E1818380E28183A3
:1029A00080E4818380E88183A0E6B6E081E011962F
:1029B0008C93119782E011968C93119784E0119675
:1029C0008C93119784818F70848314968C911497C3
:1029D000887F14968C9340E066E188E00E94CF07E0
:1029E0008093153F9093163F0E94A8028093173F53
:1029F0009093183FE12CF12C01E020E030E04EE50F
:102A000051E066E870E285E695E10E94690A0F915F
:102A1000FF90EF9008958130910579F01CF4892B97
:102A200039F019C08230910569F0039781F013C025
:102A300080E8860F0E949B140EC080EC860F0E94D7
:102A40009B1409C084E9860F0E949B1404C084ED86
:102A5000860F0E949B1467E270E080E090E00E9485
:102A6000091408950E94B1146BE270E080E090E0D8
:102A70000E94091408950F931F93CF93DF93FC01D5
:102A8000808181110AC011C08991882371F00E9450
:102A900032150C171D07C1F708C08F010E943215AF
:102AA000E80121960C5E1F4FEFCFDF91CF911F9170
:102AB0000F910895CF93DF93EA010E940B15CE0189
:102AC0000E943B15DF91CF910895CF93DF93CDB74F
:102AD000DEB7C656D109CDBFDEBF5E0141E5A40E0B
:102AE000B11CFE01319620E208C02193E817F907D6
:102AF000E1F7FC01A816B90619F0CF014496F5CF0D
:102B000060E47CE980E090E00E94091483E00E9488
:102B10007C1468E873E180E090E00E9409140E9450
:102B2000891460EA70E080E090E00E9409140E943D
:102B3000891460EA70E080E090E00E9409140E942D
:102B4000891460EA70E080E090E00E94091482E05D
:102B50000E947C140E94891488E20E949B1480E1E8
:102B60000E949B148CE00E949B1486E00E949B14A0
:102B700010E26E0151E5C50ED11C0F2EF4E14F2E6F
:102B8000F02D0F2EF6E18F2E912CF02D5C2C0D2DBB
:102B900068EC70E080E090E00E94260D40E050E09C
:102BA000BA018091173F9091183F0E948203672BD2
:102BB000682B692B09F449C042E050E060E070E006
:102BC0008091173F9091183F0E948203FE01319639
:102BD00008C01193E817F907E1F7FC018A159B0576
:102BE000A1F1CF014496F5CF2FEF3FEFA901652D5D
:102BF000702F8091153F9091163F0E94EB0888231B
:102C000021F1F6012181822F90E04497F4F4828132
:102C10008823D9F0908130E0D901499EA00DB11DE3
:102C2000112441E050E04C0F5D1FA40FB51F3396F7
:102C3000A401421B530B9A012C0D3D1D8D93E217ED
:102C4000F30719F081918111F9CF8091153F90918F
:102C5000163F0E9491098111C7CFCE0101967C01D8
:102C6000612C712CA70160E070E0C3010E945A152D
:102C70009FEF691A790AE4E1EE0EF11CF4E06F1699
:102C8000710481F785CF42E050E060E070E0809110
:102C9000173F9091183F0E94A30308952F923F92EF
:102CA0004F925F926F927F928F929F92AF92BF925C
:102CB000CF92DF92EF92FF920F931F93CF93DF9308
:102CC000CDB7DEB76D97CDBFDEBF2BA92B8FAFA9D8
:102CD000B8AD7E0139E3E30EF11C26E03DE2E2EF00
:102CE000FCE21192E217F307E1F70F2EFEEDAF2E93
:102CF000FCE2BF2EF02D22EF3CE2F5011192E2172B
:102D0000F307E1F7812C912C0F2EF2EFCF2EFCE28E
:102D1000DF2EF02DFCC2853209F0E8C22D0182E0E1
:102D2000480E511C11968C91853609F4DBC138F49C
:102D30008336C1F008F048C0853251F0E7C28337CE
:102D4000F9F0883709F468C0863609F0DFC28CC014
:102D5000F401E252F34D95E29083AFEF8A1A9A0A9A
:102D6000D201D5C2F401E252F34DD7018C91808398
:102D7000BFEF8B1A9B0AF70132967F01D201C7C2BF
:102D8000A7014E5F5F4FD7018D919C919C01B401CB
:102D9000F401E252F34D00E010E006C0D901FD90CD
:102DA0009D01F1920F5F1F4FDC010D900020E9F7AC
:102DB0001197A81BB90B0A171B0780F34D01860E4C
:102DC000971E7A01D201A3C287010E5F1F4F4AE00E
:102DD000B601F701808191810E94FC1C9401D4010D
:102DE000A252B34D42EF5CE280E090E005C0FA01F0
:102DF0006191AF016D930196F60101900020E9F712
:102E00003197E25FFC428E179F0788F34F01820ED5
:102E1000931E7801D2017BC287010E5F1F4F40E1F4
:102E2000B601D7018D919C910E94FC1C9401F40184
:102E3000E252F34D42EF5CE280E090E005C0DA013F
:102E40006D91AD0161930196D6010D900020E9F7D7
:102E50001197A25FBC428A179B0788F34D01820E2F
:102E6000931E7801D20153C21701B4E02B0E311C1E
:102E7000D7018D919D910D90BC91A02D8F8B988F36
:102E8000A98FBA8F20E030E0A901BC01CD010E94DA
:102E9000131B811105C020E3F6012083118204C1B8
:102EA00020E030E0A9016F89788D898D9A8D0E948C
:102EB000131B88239CF4EDE2D601EC938F89988D47
:102EC000A98DBA8DB0588F8B988FA98FBA8F0F2E7E
:102ED000F3EF6F2EFCE27F2EF02D01C0360120E0D3
:102EE00030E040E85FE36F89788D898D9A8D0E948C
:102EF000721C88230CF444C200E010E020E030E0B3
:102F000040E251E46F89788D898D9A8D0E94181B5B
:102F10006F8B788F898F9A8F0F5F1F4F20E030E083
:102F200040E85FE30E94721C882344F72DEC3CECE0
:102F30004CEC5DE36F89788D898D9A8D0E94131B0F
:102F400088231CF01AC000E010E020E030E040E2EE
:102F500051E46F89788D898D9A8D0E94771C6F8BD3
:102F6000788F898F9A8F015011092DEC3CEC4CEC35
:102F70005DE30E94131B882344F310161106ACF581
:102F80007301D301A00FB11FAC8FBD8F3D016F89BD
:102F9000788D898D9A8D20E030E040E251E40E94E6
:102FA000771C6F8B788F898F9A8F0E948A1B20E302
:102FB000260FF70121937F01072E000C880B990B38
:102FC0000E94C21B9B01AC016F89788D898D9A8DFF
:102FD0000E94A61AE614F704F1F66F8B788F898F9A
:102FE0009A8F0115110589F4DBC1C801E0E3D30113
:102FF000EC937301F2E0EF0EF11C2EE211962C938C
:1030000099236CF000E010E01FC0EC8CFD8C3FEFCA
:10301000E31AF30AEEE2AC8DBD8DEC9312C000E032
:1030200010E0FFEFEF1AFF0AF701319720E320834A
:1030300001970F5F1F4F992324F4043011058CF37F
:1030400031C00430110574F5370184E090E0801B35
:10305000910BE80EF91E87016F89788D898D9A8D05
:1030600020E030E040E251E40E94771C6F8B788FC3
:10307000898F9A8F0E948A1B20E3260FD3012D93FC
:103080003D01072E000C880B990B0E94C21B9B016F
:10309000AC016F89788D898D9A8D0E94A61A601671
:1030A0007106F1F6F70110829401F401E252F34D3A
:1030B00042EF5CE280E090E005C0DA016D91AD0185
:1030C00061930196D6010D900020E9F71197A25F58
:1030D000BC428A179B0788F34D01820E931E710133
:1030E000D20115C11701B4E02B0E311CD7018D910F
:1030F0009D910D90BC91A02D8F8B988FA98FBA8F29
:1031000020E030E0A901BC01CD010E94131B811118
:1031100005C020E3F60120831182CAC020E030E020
:10312000A9016F89788D898D9A8D0E94131B882340
:103130009CF4EDE2D601EC938F89988DA98DBA8D20
:10314000B0588F8B988FA98FBA8F0F2EF3EF6F2EF9
:10315000FCE27F2EF02D01C0360120E030E040E897
:103160005FE36F89788D898D9A8D0E94721C882308
:10317000DCF000E010E020E030E040E251E46F8954
:10318000788D898D9A8D0E94181B6F8B788F898F0F
:103190009A8F0F5F1F4F20E030E040E85FE30E940E
:1031A000721C882344F702C000E010E02DEC3CECD8
:1031B0004CEC5DE36F89788D898D9A8D0E94131B8D
:1031C0008823C4F420E030E040E251E46F89788D38
:1031D000898D9A8D0E94771C6F8B788F898F9A8F3B
:1031E000015011092DEC3CEC4CEC5DE30E94131BEB
:1031F000882344F320E030E040E251E46F89788D89
:10320000898D9A8D0E94771C6F8B788F898F9A8F0A
:103210000E948A1B20E3260FD3012C93072E000C5B
:10322000880B990B0E94C21B9B01AC016F89788DA2
:10323000898D9A8D0E94A61AF8013197EC8FFD8F27
:10324000EEE2D3011196EC9383010E5F1F4F7301E1
:10325000F6E0EF0EF11C20E030E040E251E40E9485
:10326000771C6F8B788F898F9A8F0E948A1B20E33F
:10327000260FD8012D938D01072E000C880B990B7A
:103280000E94C21B9B01AC016F89788D898D9A8D3C
:103290000E94A61A0E151F05F1F625E6F3012683F6
:1032A000B301695F7F4F4AE08C8D9D8D0E94FC1CAD
:1032B0009401F401E252F34D42EF5CE280E090E0D1
:1032C00005C0DA016D91AD0161930196D6010D90B3
:1032D0000020E9F71197A25FBC428A179B0788F389
:1032E0004D01820E931E7101D20111C08A3029F066
:1032F000F401E252F34D808304C0F401E252F34D35
:1033000010821196EFEF8E1A9E0A01C0D2018C91A5
:10331000811101CD8DA99EA9880D991D44973CF07E
:1033200084E190E04C012DA93EA9821A930AFE0186
:103330003396CE014796DF011D92A817B907E1F732
:103340003B8D39838DA98A83181419045CF4CE014E
:10335000880D991D0396D5012D915D0121938E173E
:103360009F07C9F700E02FEF3FEFA901BE016F5F94
:103370007F4F8091153F9091163F0E9400081BC01F
:103380002DEC3CEC4CEC5DE36F89788D898D9A8D4A
:103390000E94131B88230CF4D6CD80E090E026CE4B
:1033A00020E3EC8DFD8D20837F0132E0E30EF11CE4
:1033B0008EE2818346CE6D96CDBFDEBFDF91CF9189
:1033C0001F910F91FF90EF90DF90CF90BF90AF9043
:1033D0009F908F907F906F905F904F903F902F9035
:1033E00008950E94A8028093082D9093092DE0EA89
:1033F000F6E082E0818394E09183E0E8F6E091E0FA
:10340000918381830F2EF0EAAF2EF6E0BF2EF02DD0
:10341000CC24CA94DC2C760100E021E043E050E0AB
:1034200060E070E08091082D9091092D0E94BD020E
:1034300060FF2FC0C0E0D0E0FE01EC5FF84C80815F
:103440008431A8F042E050E060E070E08091042E0A
:103450009091052E0E94A30361FF09C0809102375D
:10346000909103370196809302379093033721960A
:10347000CF3F87E0D80701F78091072D8F5F8093BA
:10348000072DF50184818D7F84838481846084830A
:1034900030C0C0E0D0E0FE01EE5FF04D80818431AD
:1034A000B8F041E050E060E070E08091042E90912F
:1034B000052E0E94A30360FF09C08091002F909108
:1034C000012F01968093002F9093012F1092072DCA
:1034D0002196CF3FF7E0DF07F1F68091062D8F5F51
:1034E0008093062DF50184818B7F848384818260A3
:1034F000848364E670E080E090E00E94260D88CF2F
:103500008091780085FF05C080E28093780081E09B
:1035100008958091780080FF05C081E08093780055
:1035200082E008958091780084FF05C080E1809357
:10353000780083E008958091780081FF05C082E0E3
:103540008093780084E0089582E008955058BB2766
:10355000AA270E94BE1A0C94381C0E942A1C38F01C
:103560000E94311C20F039F49F3F19F426F40C948A
:10357000271C0EF4E095E7FB0C94211CE92F0E9418
:10358000491C58F3BA17620773078407950720F0A0
:1035900079F4A6F50C946B1C0EF4E0950B2EBA2F63
:1035A000A02D0B01B90190010C01CA01A001112449
:1035B000FF27591B99F0593F50F4503E68F11A16F5
:1035C000F040A22F232F342F4427585FF3CF469586
:1035D00037952795A795F0405395C9F77EF41F16A8
:1035E000BA0B620B730B840BBAF09150A1F0FF0F72
:1035F000BB1F661F771F881FC2F70EC0BA0F621F5E
:10360000731F841F48F4879577956795B795F7954D
:103610009E3F08F0B0CF9395880F08F09927EE0FE2
:103620009795879508950E94FD1B08F481E0089501
:103630000E942C1B0C94381C0E94311C58F00E94D4
:103640002A1C40F029F45F3F29F00C94211C5111F1
:103650000C946C1C0C94271C0E94491C68F3992341
:10366000B1F3552391F3951B550BBB27AA2762177E
:103670007307840738F09F5F5F4F220F331F441F8B
:10368000AA1FA9F335D00E2E3AF0E0E832D09150BF
:103690005040E695001CCAF72BD0FE2F29D0660FAC
:1036A000771F881FBB1F261737074807AB07B0E8EF
:1036B00009F0BB0B802DBF01FF2793585F4F3AF0F5
:1036C0009E3F510578F00C94211C0C946C1C5F3FBC
:1036D000E4F3983ED4F3869577956795B795F7957B
:1036E0009F5FC9F7880F911D9695879597F9089563
:1036F000E1E0660F771F881FBB1F621773078407FF
:10370000BA0720F0621B730B840BBA0BEE1F88F70D
:10371000E09508950E94911B6894B1110C946C1C63
:1037200008950E94511C88F09F5798F0B92F99274F
:10373000B751B0F0E1F0660F771F881F991F1AF09C
:10374000BA95C9F714C0B13091F00E946B1CB1E07A
:1037500008950C946B1C672F782F8827B85F39F079
:10376000B93FCCF3869577956795B395D9F73EF435
:1037700090958095709561957F4F8F4F9F4F0895DD
:10378000E89409C097FB3EF49095809570956195FB
:103790007F4F8F4F9F4F9923A9F0F92F96E9BB27B1
:1037A0009395F695879577956795B795F111F8CF2D
:1037B000FAF4BB0F11F460FF1BC06F5F7F4F8F4F98
:1037C0009F4F16C0882311F096E911C0772321F08E
:1037D0009EE8872F762F05C0662371F096E8862F26
:1037E00070E060E02AF09A95660F771F881FDAF77D
:1037F000880F9695879597F90895990F0008550FAA
:10380000AA0BE0E8FEEF16161706E807F907C0F066
:1038100012161306E407F50798F0621B730B840B6E
:10382000950B39F40A2661F0232B242B252B21F448
:1038300008950A2609F4A140A6958FEF811D811DE8
:10384000089597F99F6780E870E060E008959FEF22
:1038500080EC089500240A94161617061806090627
:10386000089500240A9412161306140605060895F6
:10387000092E0394000C11F4882352F0BB0F40F47E
:10388000BF2B11F460FF04C06F5F7F4F8F4F9F4FBE
:10389000089557FD9058440F551F59F05F3F71F040
:1038A0004795880F97FB991F61F09F3F79F08795A7
:1038B0000895121613061406551FF2CF4695F1DF30
:1038C00008C0161617061806991FF1CF86957105C0
:1038D000610508940895E894BB2766277727CB01F4
:1038E00097F908950E94FD1B08F48FEF08950E9438
:1038F0008A1C0C94381C0E942A1C38F00E94311C2F
:1039000020F0952311F00C94211C0C94271C1124F9
:103910000C946C1C0E94491C70F3959FC1F3950F89
:1039200050E0551F629FF001729FBB27F00DB11D43
:10393000639FAA27F00DB11DAA1F649F6627B00DD3
:10394000A11D661F829F2227B00DA11D621F739FBC
:10395000B00DA11D621F839FA00D611D221F749FCA
:103960003327A00D611D231F849F600D211D822F11
:10397000762F6A2F11249F5750409AF0F1F0882338
:103980004AF0EE0FFF1FBB1F661F771F881F915065
:103990005040A9F79E3F510580F00C94211C0C94D7
:1039A0006C1C5F3FE4F3983ED4F38695779567955A
:1039B000B795F795E7959F5FC1F7FE2B880F911D8F
:1039C0009695879597F90895EE0FFF1F881F8BBF77
:1039D0000790F691E02D1994FB01DC0102C00190E3
:1039E0000D9241505040D8F70895DC0101C06D930D
:1039F00041505040E0F70895BB274A3031F49923F5
:103A000022F4BDE2909581959F4F0C94081DBB2731
:103A1000FB015527AA27880F991FAA1FA41710F08A
:103A2000A41B83955051B9F7A05DAA3308F0A95D96
:103A3000A193009779F7B111B1931192CB010C9436
:103A4000211DDC01FC01672F71917723E1F732978B
:103A500004C07C916D9370836291AE17BF07C8F369
:063A60000895F894FFCF69
:103A660049444C4500546D72205376630046726596
:103A76006552544F532031302E302E310062756618
:103A86006665725F613A62202564203A20256400EB
:103A96007065616B3A20256420203A202564200059
:103AA600613A2564202020623A2564006C656442F0
:103AB6006C696E6B00646D6148616E646C65720062
:103AC600454455426F61726420312E300054656D55
:103AD600706C617465005265736574526561736FCD
:103AE6006E3A20256400646973705570646174656C
:023AF6000000CE
:00000001FF
