:100000000C9422010C944B010C944B010C944B0169
:100010000C944B010C944B010C94B9010C94FF010E
:100020000C944B010C944B010C944B010C944B0120
:100030000C944B010C944B010C9402070C944B0153
:100040000C944B010C944B010C944B010C944B0100
:100050000C944B010C944B010C944B010C944B01F0
:100060000C944B010C944B010C944B010C944B01E0
:100070000C944B010C944B010C944B010C944B01D0
:100080000C944B010C944B010C944B010C944B01C0
:100090000C944B010C944B010C944B010C944B01B0
:1000A0000C944B010C944B010C944B010C944B01A0
:1000B0000C944B010C944B010C944B010C944B0190
:1000C0000C944B010C944B010C944B010C944B0180
:1000D0000C944B010C944B010C944B010C944B0170
:1000E0000C944B010C944B010C944B010C944B0160
:1000F0000C944B010C944B010C944B010C944B0150
:100100000C944B010C944B010C944B010C944B013F
:100110000C944B010C944B010C944B010C944B012F
:100120000C944B010C944B010C944B010C944B011F
:100130000C944B010C944B010C944B010C944B010F
:100140000C944B010C944B010C944B010C944B01FF
:100150000C944B010C944B010C944B010C944B01EF
:100160000C944B010C944B010C944B010C944B01DF
:100170000C944B010C944B010C944B010C944B01CF
:100180000C944B010C944B010C944B010C944B01BF
:100190000C944B010C944B010C944B010C944B01AF
:1001A0000C944B010C944B010C944B010C944B019F
:1001B0000C940E140C944B010C944B010C944B01B9
:1001C0000C944B010C944B010C944B010C944B017F
:1001D0000C944B010C944B010C944B010C944B016F
:1001E0000C944B010C944B010C944B010C944B015F
:1001F0000C944B010C944B010C944B014A124A1283
:100200004A1297127F1294124A124A1297127F12C0
:100210000C9494120C94F61A0C942C130C94391A16
:100220000C94AD150C941B130C947F120C948E112E
:100230000C94170B0C94ED040C9497120C944A1226
:100240000C94450211241FBECFEFCDBFDFE3DEBF0C
:1002500000E00CBFE1E3F2E38AEA90E48193E0304E
:10026000F907E0F312E2A0E0B0E2E4E2F0E400E03B
:100270000BBF02C007900D92A231B107D9F722E35C
:10028000A2E1B2E201C01D92A133B207E1F70E94E0
:1002900067130C9410200C940000E0E4F2E08181DC
:1002A000817E8C6081838481887F8660848381E005
:1002B000828380A18076816080A311A280A5807650
:1002C000816080A788E081A710AA11AA80E88383B3
:1002D0008081816080830895E0E2F6E081E082839E
:1002E00082E082830E944D01E0E4F8E0108210A2D7
:1002F00011A28FEF9FE086A397A388EC80938001E3
:10030000E0E0F1E0108280E48083808186FDFDCF13
:10031000E0E0F1E084E88083168A74E2708B61E0AB
:10032000618B5DE9528B46E4438B20E430E0248B03
:10033000358B80EE90E3848F958F168E9CE6908FA0
:1003400082E0818F128E16A270A361A352A343A3F1
:1003500024A335A320EA30E324A735A716A690A747
:1003600081A712A680898068808B87E080934008EF
:1003700008951F920F920FB60F9211240BB60F9291
:100380002F933F934F935F936F937F938F939F939D
:10039000AF93BF93EF93FF93CF93DF931F92CDB7AC
:1003A000DEB7E0E0F1E081898061818BE0E4F8E094
:1003B00084858160848719829E012F5F3F4F41E0D1
:1003C00050E060E070E08091A82E9091A92E0E94EC
:1003D000F0040F90DF91CF91FF91EF91BF91AF911A
:1003E0009F918F917F916F915F914F913F912F914D
:1003F0000F900BBE0F900FBE0F901F9018951F927D
:100400000F920FB60F9211240BB60F922F933F93BA
:100410004F935F936F937F938F939F93AF93BF930C
:10042000EF93FF93CF93DF931F92CDB7DEB7E0E05A
:10043000F1E081A1806181A3E0E4F8E0848581603E
:10044000848719829E012F5F3F4F42E050E060E0B9
:1004500070E08091A82E9091A92E0E94F0040F9038
:10046000DF91CF91FF91EF91BF91AF919F918F91CC
:100470007F916F915F914F913F912F910F900BBEA4
:100480000F900FBE0F901F9018950E9460038093ED
:10049000A82E9093A92EE0EAF6E082E0818394E012
:1004A0009183E0E8F6E091E091838183812C912CA7
:1004B0000F2EF0EAAF2EF6E0BF2EF02DCC24CA941A
:1004C000DC2C760100E021E043E050E060E070E0E9
:1004D0008091A82E9091A92E0E94750360FD05C001
:1004E00080910020811143C073C080910020882337
:1004F00089F1C0E0D0E080918121909182218957DB
:1005000091090E9798F48FEF881A980AE4E68E16F0
:100510009104CCF043E050E060E070E08091A42FC3
:100520009091A52F0E943A04162F0DC042E050E092
:1005300060E070E08091A42F9091A52F0E945B0451
:10054000162F812C912C21968091002090E0C817C5
:10055000D9078CF2809113228F5F80931322F501CB
:1005600084818D7F84838481846084833DC0C0E0E6
:10057000D0E0FE01E056FF4C8081843158F041E02C
:1005800050E060E070E08091A42F9091A52F0E9430
:100590005B04162F10FF03C01092132212C0FFEF4E
:1005A0008F1A9F0A84E6881691045CF043E050E0BD
:1005B00060E070E08091A42F9091A52F0E943A04F2
:1005C000162F21968091002090E0C817D9078CF251
:1005D000809112228F5F80931222F50184818B7F9C
:1005E000848384818260848364E670E080E090E0AC
:1005F0000E94DE0D63CF0F93CF93DF931F92CDB791
:10060000DEB72FB72983F8941BBEFC0108ED04BFA9
:10061000608389818FBF0F90DF91CF910F910895F3
:10062000611102C090E001C090E2842B892B80937D
:10063000520008956F71862B809355000895E0E570
:10064000F0E09081282F2095922390839081892338
:100650000895682B81E490E00E94FB0208950F93B7
:100660001F93CF93C82F00E410E0F8016081687FEA
:10067000682B80E490E00E94FB02F80180818C23CB
:10068000CF911F910F910895FC019081907F692B6C
:1006900060830895FC019181987F692B618308959F
:1006A000FC0196819C7F692B66830895000088ED8C
:1006B00084BF81E08093790008950E9456030895D5
:1006C000CF93DF9380E190E00E94FD04EC0100975E
:1006D00041F0FC011192119211921192CF010E94EE
:1006E0002405CE01DF91CF9108952F923F924F9232
:1006F0005F926F927F928F929F92AF92BF92CF92B2
:10070000DF92EF92FF920F931F93CF93DF93EC0151
:100710004A015B01622E702E0E94710C2880398084
:100720004A805B8001110DC081E0B201A101482126
:1007300059216A217B21452B462B472B79F480E0F8
:100740000DC081E0B201A101482159216A217B211C
:10075000481559056A057B0509F080E0882381F07A
:10076000662009F470C080949094A094B094822084
:100770009320A420B52088829982AA82BB8263C07C
:10078000C114D104E104F10409F45DC0662029F02C
:1007900040E050E060E071E003C040E050E0BA01AA
:1007A00071107460482959296A297B2997018601AB
:1007B000CE0104960E94A00E0E945C0D811102C021
:1007C0000E9482060E94DD0F91FD39C0F091A200C7
:1007D000FF93F87FF093A200688179818A819B81E1
:1007E00071100DC021E075016401C622D722E822F4
:1007F000F922CD28CE28CF2879F420E00DC021E0C1
:1008000075016401C622D722E822F922C814D9044E
:10081000EA04FB0409F020E0222371F0662061F075
:1008200080949094A094B09486229722A822B92212
:1008300088829982AA82BB82FF91F093A2001B0159
:100840002C01552402C00E945C0DC201B101DF9150
:10085000CF911F910F91FF90EF90DF90CF90BF90BD
:10086000AF909F908F907F906F905F904F903F9050
:100870002F9008950F931F93F091A200FF93F87F9C
:10088000F093A200FC010081118122813381409507
:1008900050956095709540235123622373234083C4
:1008A000518362837383FF91F093A200C901B80161
:1008B0001F910F9108954F925F926F927F92AF9226
:1008C000BF92CF92DF92EF92FF920F931F93CF933D
:1008D000DF93EC016A017B018C01095F1F4F0E94CD
:1008E000710CEB85FC8588819981AA81BB81C82A1E
:1008F000D92AEA2AFB2AC882D982EA82FB820E1709
:100900001F0709F442C0C12CD12C7601A480B58008
:1009100080819181A281B381AC01BD017727B2FDB5
:100920000FC0488059806A807B804422552266220D
:10093000772221E045284628472889F420E00FC087
:10094000488059806A807B80442255226622772223
:1009500021E0441655066606770609F020E02223BA
:1009600071F0B0FF04C0C42AD52AE62AF72A4881CC
:1009700059816A817B817260CF010E94280FEA2D24
:10098000FB2D0E171F0711F603C0C12CD12C7601C9
:10099000C094D094E094F09488819981AA81BB811D
:1009A000C822D922EA22FB22C882D982EA82FB82AB
:1009B0000E945C0D688179818A819B81DF91CF9152
:1009C0001F910F91FF90EF90DF90CF90BF90AF906D
:1009D0007F906F905F904F9008950E945B04089500
:1009E0000F931F9389019A01AB01BC018DEE94E036
:1009F0000E94BD121F910F910895CF93DF93EC01D8
:100A00000E94710C2091142230911522C9018C0F83
:100A10009D1F883B4BE0940758F42817390758F47A
:100A2000E901CA5EDD4D809314229093152205C022
:100A3000C0E0D0E002C0C0E0D0E00E945C0DCE017A
:100A4000DF91CF9108950895FC01039681839283ED
:100A50004FEF5FEFBA0143835483658376838783C7
:100A600090878187928710820895FC0112861386F1
:100A70000895CF93DF939C01FB01DC011196CD918A
:100A8000DC911297C483D5838E819F81868397835F
:100A90008E819F81DC0114966D937C9315976E83F4
:100AA0007F8322873387F90180818F5F8083DF9185
:100AB000CF9108950F931F93CF93DF93EB0108819C
:100AC00019812A813B810F3F4FEF14072407340718
:100AD00021F4FC01A185B28511C0DC01139601C08F
:100AE000DF011496ED91FC9115974081518162814F
:100AF0007381041715072607370790F71496ED91B1
:100B0000FC911597EC83FD83C683D783AE83BF83A7
:100B10001496CD93DC9315978A879B87FC012081DF
:100B20002F5F2083DF91CF911F910F910895CF9375
:100B3000DF93FC01A285B385C481D581868197812D
:100B40008E839F83C681D781848195818C839D8389
:100B500011968D919C911297E817F90731F48681CF
:100B6000978111968D939C931297128613868C9180
:100B700081508C938C91DF91CF910895E0EAF0E061
:100B800082819281987F92830895CF92DF92EF9233
:100B9000FF9231E1FC013083319722E220833197CB
:100BA000A3E3A0836B01E12CF12C31976083319793
:100BB000D0823197E082319761E36083319760E8BA
:100BC0006083319767E86083319710823197108294
:100BD000319762E06083319763E06083319764E02E
:100BE0006083319765E06083319766E06083319779
:100BF00067E06083319768E06083319769E06083E4
:100C0000319760E1608331973083319732E13083EF
:100C1000319733E13083319734E13083319735E1D7
:100C20003083319736E13083319737E13083319724
:100C300038E13083319739E13083319730E23083C6
:100C4000319731E2308331972083319723E220833B
:100C50006A01319740833197D082319726E2208311
:100C6000319727E22083319728E22083319729E2C8
:100C70002083319720E320838897FF90EF90DF90C7
:100C8000CF90089583EF91E08093260890932708F2
:100C900065E080E098E00E94440361E080E098E035
:100CA0000E945003A0913C2EB0913D2E0D900DBEA0
:100CB0000D900EBEEF91DF91CF91BF91AF919F91BB
:100CC0008F917F916F915F914F913F912F911F91E4
:100CD0000F91FF90EF90DF90CF90BF90AF909F90DB
:100CE0008F907F906F905F904F903F902F901F90CC
:100CF0000F90FF91F093A200FF91FFBFFF91089525
:100D000081E00895FF93FFB7FF93F091A200FF9356
:100D1000F87FF093A2000F921F9211242F923F921E
:100D20004F925F926F927F928F929F92AF92BF92FB
:100D3000CF92DF92EF92FF920F931F932F933F93E7
:100D40004F935F936F937F938F939F93AF93BF93D3
:100D5000CF93DF93EF93A0913C2EB0913D2E0DB633
:100D60000D920EB60D920E94FA0DA0913C2EB091FC
:100D70003D2E0D900DBE0D900EBEEF91DF91CF91E7
:100D8000BF91AF919F918F917F916F915F914F91A3
:100D90003F912F911F910F91FF90EF90DF90CF9097
:100DA000BF90AF909F908F907F906F905F904F908B
:100DB0003F902F901F900F90FF91F093A200FF9112
:100DC000FFBFFF910895CF9390912031892B80939D
:100DD00020319091A000913041F09091A00092308C
:100DE00021F09091A000943059F4882349F00E949A
:100DF000BE05C82F109220310E94FA0DC093A200A8
:100E0000CF910895FF93FFB7FF93F091A200FF9356
:100E1000F87FF093A2000F921F9211242F923F921D
:100E20004F925F926F927F928F929F92AF92BF92FA
:100E3000CF92DF92EF92FF920F931F932F933F93E6
:100E40004F935F936F937F938F939F93AF93BF93D2
:100E5000CF93DF93EF93A0913C2EB0913D2E0DB632
:100E60000D920EB60D920E94BE05C82F0E94890CED
:100E7000C093A20081E00E94E306A0913C2EB091B5
:100E80003D2E0D900DBE0D900EBEEF91DF91CF91D6
:100E9000BF91AF919F918F917F916F915F914F9192
:100EA0003F912F911F910F91FF90EF90DF90CF9086
:100EB000BF90AF909F908F907F906F905F904F907A
:100EC0003F902F901F900F90FF91F093A200FF9101
:100ED000FFBFFF911895F091A200FF93F87FF09368
:100EE000A200FC01968DFF91F093A20081E0911188
:100EF00080E00895DC01F091A200FF93F87FF09369
:100F0000A2005E969C915E97FF91F093A20081E013
:100F10005F962C91291380E008950F931F93CF9330
:100F2000DF93EC01042F1E8D48A14423B9F1011178
:100F300016C050E08C819D810E94CB1F28A18C811E
:100F40009D81820F911D8C839D832A813B81821715
:100F5000930720F1888199818C839D831FC050E085
:100F60008E819F810E94CB1F88A190E091958195F1
:100F700091092E813F81280F391F2E833F8348819D
:100F800059812417350730F42A813B81820F931F42
:100F90008E839F83023011F4111111501F5F1E8F39
:100FA00080E0DF91CF911F910F910895FC0140A146
:100FB0004423A9F050E026813781240F351F268372
:100FC0003783828193812817390720F080819181AE
:100FD00086839783CB01668177810E94CB1F08951A
:100FE000EF92FF920F931F93CF938C01F091A20089
:100FF000FF93F87FF093A200FC01C2A11C16ACF491
:101000008389811106C011C0F8018389811105C04F
:101010000CC07801F3E1EF0EF11CC7010E94E60E4F
:1010200081110E94CB0FC15079F78FEFF80182A395
:10103000FF91F093A200F091A200FF93F87FF0934C
:10104000A200F801C1A11C16ACF48085811106C074
:1010500011C0F8018085811105C00CC07801F8E04D
:10106000EF0EF11CC7010E94E60E81110E94CB0F0A
:10107000C15079F78FEFF80181A3FF91F093A2009F
:10108000CF911F910F91FF90EF900895CF93DF9331
:10109000EC01F091A200FF93F87FF093A200488149
:1010A000598128A130E07F8D729FC001739F900D00
:1010B0001124FA01E80FF91FEA83FB831E8E4C838B
:1010C0005D83821B930B840F951F8E839F838FEF0D
:1010D00089A38AA361110CC08885882389F0CE0179
:1010E00008960E94E60E882359F00E94820608C0E6
:1010F000CE0108960E942405CE0143960E94240545
:10110000FF91F093A20081E0DF91CF910895FF92CB
:101110000F931F93CF93DF93082F162FF42E662380
:10112000C9F0869FC001112485960E94FD04EC0140
:10113000009749F416C00F8F18A361E0CE010E94FA
:101140004608FCA20EC0859688839983F4CFC88395
:10115000D983F1CF85E290E00E94FD04EC01892B58
:10116000B1F7CE01DF91CF911F910F91FF900895BC
:10117000AF92BF92CF92DF92EF92FF920F931F93A5
:10118000CF93DF93CDB7DEB72997CDBFDEBF7C010C
:101190005B012E833F834887598710E06C0188E00C
:1011A000C80ED11CF091A200FF93F87FF093A2002B
:1011B000F701968D878D981710F00230D1F4402FEB
:1011C000B501C7010E948D07F7019389992349F062
:1011D000C70143960E94E60E882331F00E948206E2
:1011E00003C081110E948206FF91F093A20081E06A
:1011F00057C08E819F81A885B985892B8A2B8B2B1F
:1012000029F4FF91F093A20080E04AC0111105C0BB
:10121000CE0101960E945C0F11E0FF91F093A200B5
:101220000E94710CF091A200FF93F87FF093A2004E
:10123000F70181A18F3F09F411A2F70182A18F3F2D
:1012400009F412A2FF91F093A200BE016A5F7F4FE2
:10125000CE0101960E946D0F81111CC0C7010E9432
:101260007A07882389F04E815F8168857985C60178
:101270000E94880EC7010E94F0070E945C0D811138
:1012800091CF0E9482068ECFC7010E94F0070E9474
:101290005C0D88CFC7010E94F0070E945C0D80E0C2
:1012A0002996CDBFDEBFDF91CF911F910F91FF90A7
:1012B000EF90DF90CF90BF90AF900895AF92BF9224
:1012C000CF92DF92FF920F931F93CF93DF93EC01A6
:1012D0006B015A01022F0E94BE05F82E9E8D8F8D44
:1012E000981710F00230E1F41AA1402FB601CE0198
:1012F0000E948D071F3F81F48B89882399F0CE01CE
:1013000043960E94E60E882379F0A114B10471F08F
:1013100081E0F50180830BC01F5F1AA381E007C045
:1013200080E005C081E003C081E001C081E0F0926F
:10133000A200DF91CF911F910F91FF90DF90CF908E
:10134000BF90AF900895AF92BF92CF92DF92EF928D
:10135000FF920F931F93CF93DF93CDB7DEB72997FB
:10136000CDBFDEBF8C015B012E833F834887598749
:10137000E12C6C0183E1C80ED11CF091A200FF9317
:10138000F87FF093A200F801F68CFF20B1F0B501D0
:10139000C8010E94D607FA94F801F68E808588234A
:1013A00039F0C80108960E94E60E81110E9482065B
:1013B000FF91F093A20081E05EC08E819F81A8859D
:1013C000B985892B8A2B8B2B29F4FF91F093A200EE
:1013D00080E051C0E11006C0CE0101960E945C0F72
:1013E000EE24E394FF91F093A2000E94710CF0911F
:1013F000A200FF93F87FF093A200F80181A18F3F34
:1014000009F411A2F80182A18F3F09F412A2FF9101
:10141000F093A200BE016A5F7F4FCE0101960E9449
:101420006D0F81111CC0C8010E946B07882389F0D1
:101430004E815F8168857985C6010E94880EC8014A
:101440000E94F0070E945C0D811197CF0E948206D6
:1014500094CFC8010E94F0070E945C0D8ECFC80196
:101460000E94F0070E945C0DC8010E946B07882350
:1014700009F483CF80E02996CDBFDEBFDF91CF9105
:101480001F910F91FF90EF90DF90CF90BF90AF90A2
:101490000895F091A200FF93F87FF093A200FC0161
:1014A000868DFF91F093A2000895CF93DF93EC0116
:1014B000F091A200FF93F87FF093A20089A18F3FE3
:1014C00009F419A28AA18F3F09F41AA2FF91F0939F
:1014D000A2008E8D811104C0CE0143960E94C50EDC
:1014E000CE010E94F007DF91CF910895E091F82D91
:1014F000F091F92D808181110CC08FEF9FEFDC01FD
:101500008093D12D9093D22DA093D32DB093D42D31
:101510000895E091F82DF091F92D0780F085E02DE8
:101520000084F185E02D82819381A481B58180932F
:10153000D12D9093D22DA093D32DB093D42D089577
:101540008F929F92AF92BF92CF92DF92EF92FF92D3
:10155000CF936B017C01C42F8090DB2D9090DC2D0C
:10156000A090DD2DB090DE2D80913C2E90913D2EEF
:1015700002960E9497058FEFC816D806E806F8066F
:1015800069F4CC2359F060913C2E70913D2E6E5F32
:101590007F4F80EE9DE20E9439053FC0C80CD91CE8
:1015A000EA1CFB1CE0913C2EF0913D2EC282D382BE
:1015B000E482F582C814D904EA04FB0468F460915B
:1015C0003C2E70913D2E8091F62D9091F72D6E5FFF
:1015D0007F4F0E945A0521C060913C2E70913D2E94
:1015E0008091F82D9091F92D6E5F7F4F0E945A05E2
:1015F0008091D12D9091D22DA091D32DB091D42D49
:10160000C816D906EA06FB0640F4C092D12DD09246
:10161000D22DE092D32DF092D42DCF91FF90EF9068
:10162000DF90CF90BF90AF909F908F900895C0E1D2
:10163000DEE28881823010F00E9482060E946613EA
:10164000F8CF4F925F926F927F928F929F92AF925C
:10165000BF92CF92DF92EF92FF920F93CF93DF93DF
:101660004C016B015A012901CA010E94FD043C0191
:10167000892B09F4EAC08CE290E00E94FD04EC01A1
:10168000892BB1F06B8E7C8EA50165EA70E0C301F9
:101690000E94D41F21E0A21AB1088B8D9C8DA80E48
:1016A000B91ED6018C918D8F8C91811105C018C007
:1016B000C3010E942305C9C0AE01425E5F4FF6011F
:1016C0003196B8E0CB0ED11CCF012191DA012D93D8
:1016D000AD01DC018C91882319F0EC15FD05A1F713
:1016E0001CA2043008F003E00A8F6E01B2E0CB0EBA
:1016F000D11CC6010E943505CE010E960E9435050B
:10170000CA87DB8784E090E0A0E0B0E0801B91090D
:10171000A109B1098E879F87A88BB98BCE8BDF8BF0
:101720001FA218A619A61AA61BA6A201B401C501DC
:101730000E94C50588839983E114F10419F0F7012B
:10174000C083D183F091A200FF93F87FF093A200B1
:101750008091DF2D8F5F8093DF2D80913C2E9091C3
:101760003D2E892BA9F5C0933C2ED0933D2E809120
:10177000DF2D8130E9F580E19EE20E9424058BE1B6
:101780009EE20E94240586E29EE20E94240581E3F7
:101790009EE20E94240585E09EE20E9424058AEFD5
:1017A0009DE20E9424058BEE9DE20E94240580EEBE
:1017B0009DE20E94240585E09EE28093F82D90939F
:1017C000F92D8AEF9DE28093F62D9093F72D10C0AE
:1017D0008091D92D81110CC0E0913C2EF0913D2ECD
:1017E000928D8A8D891720F0C0933C2ED0933D2E88
:1017F0008091D52D8F5F8093D52D8DA38A8D90916B
:10180000DA2D981710F48093DA2DFBE08F9FC0013A
:101810001124B601805F914D0E943905FF91F0932C
:10182000A2008091D92D882361F0E0913C2EF091A7
:101830003D2E928D8A8D981730F40E94820681E0A9
:1018400005C081E003C081E001C08FEFDF91CF913F
:101850000F91FF90EF90DF90CF90BF90AF909F904F
:101860008F907F906F905F904F900895EF92FF92CE
:101870000F930F2EFFECEF2EFDE2FF2EF02D00E078
:1018800020E030E048EC50E063E871E287E19BE063
:101890000E94210B813009F50E947B108130E9F410
:1018A000E0EAF0E08281887F82838FEF9FEFDC01A6
:1018B0008093D12D9093D22DA093D32DB093D42D7E
:1018C00081E08093D92D1092DB2D1092DC2D1092A7
:1018D000DD2D1092DE2D0E9442060F91FF90EF90B9
:1018E00008958091CE2D8F5F8093CE2D0895F09135
:1018F000A200FF93F87FF093A2006091DB2D70911E
:10190000DC2D8091DD2D9091DE2DFF91F093A200D2
:101910000895AF92BF92CF92DF92EF92FF920F9312
:101920001F93CF93DF938091CE2D8111ADC0C090D6
:10193000DB2DD090DC2DE090DD2DF090DE2D8FEFB3
:10194000C81AD80AE80AF80AC092DB2DD092DC2D1A
:10195000E092DD2DF092DE2DC114D104E104F104FA
:10196000B9F48091F82D9091F92D2091F62D3091B8
:10197000F72D2093F82D3093F92D8093F62D909329
:10198000F72D8091D62D8F5F8093D62D0E94760AF9
:101990008091D12D9091D22DA091D32DB091D42DA5
:1019A000C816D906EA06FB0610F4B12C5CC0B12CAF
:1019B0000F2EFBE0AF2EF02DE091F82DF091F92DD8
:1019C000808181110CC08FEF9FEFDC018093D12DBE
:1019D0009093D22DA093D32DB093D42D44C0E091F9
:1019E000F82DF091F92D0780F085E02DC085D18587
:1019F0008A819B81AC81BD81C816D906EA06FB06A7
:101A000048F48093D12D9093D22DA093D32DB093F1
:101A1000D42D29C08E010E5F1F4FC8010E9497056B
:101A2000888D998D892B21F0CE010E960E94970505
:101A30008A8D9091DA2D981710F48093DA2DA89E54
:101A4000C0011124B801805F914D0E943905E091D9
:101A50003C2EF0913D2E9A8D828D981708F4ACCFD4
:101A6000BB24B394A9CFE0913C2EF0913D2EE28DA2
:101A70008BE0E89FF0011124E05FF14D808182301E
:101A800048F0BB24B39406C08091D82D8F5F80931B
:101A9000D82DB12C8091D72D882311F0BB24B3947D
:101AA0008B2DDF91CF911F910F91FF90EF90DF90E1
:101AB000CF90BF90AF900895CF92DF92EF92FF92B8
:101AC0000F931F93CF93DF93F091A200FF93F87FC2
:101AD000F093A2008091CE2D81508093CE2D8091E5
:101AE000CE2D81115CC08091DF2D81112CC05AC098
:101AF000D7011796ED91FC911897C085D185CE013D
:101B00000E960E9497058E010E5F1F4FC8010E941E
:101B100097058A8D9091DA2D981710F48093DA2D1D
:101B2000D89EC0011124B801805F914D0E943905F3
:101B3000E0913C2EF0913D2E9A8D828D981788F081
:101B4000C092D72D0EC0C0E0D0E00F2EFBEEEF2EDE
:101B5000FDE2FF2EF02D0F2EFBE0DF2EF02DCC242A
:101B6000C394F70180818111C3CFCD2B11F00E9466
:101B7000760AC091D82DCC2351F0D1E00E94890C77
:101B80008111D093D72DC150C9F71092D82D8091D3
:101B9000D72D882331F00E94820681E003C080E0C7
:101BA00001C080E0FF91F093A200DF91CF911F91DF
:101BB0000F91FF90EF90DF90CF900895CF92DF923A
:101BC000EF92FF926B017C01672B682B692B59F018
:101BD0000E94710C40E0C701B6010E94A00A0E9459
:101BE0005C0D811102C00E948206FF90EF90DF9091
:101BF000CF9008958091CE2D882321F081E08093AD
:101C0000D72D08951092D72DE0913C2EF0913D2EC6
:101C1000038CF48DE02D80819181A281B381853A7E
:101C2000954AA54AB54AD9F484819581A681B781A0
:101C3000853A954AA54AB54A91F480859185A28551
:101C4000B385853A954AA54AB54A49F48485958570
:101C5000A685B785853A954AA54AB54A61F060914F
:101C60003C2E70913D2E80913C2E90913D2E635ED6
:101C70007F4F0E945D038091DA2D282F30E09BE09A
:101C8000899FF0011124E05FF14D908191110EC008
:101C90004BE08150282F30E0429FF001439FF00D30
:101CA0001124E05FF14D9081992399F39BE0929F7D
:101CB000A001939F500D1124DA01A05FB14D119640
:101CC000ED91FC9112970480F581E02D1196ED9332
:101CD000FC9312974D5E514DE417F50729F44481AA
:101CE0005581FD01418352839BE0929FF001939FB8
:101CF000F00D1124E05FF14D0180F281E02D20858F
:101D0000318520933C2E30933D2E8093DA2D08951B
:101D1000CF92DF92EF92FF926A017B0160913C2E9D
:101D200070913D2E625F7F4F0E945A0541E0C701CE
:101D3000B6010E94A00AFF90EF90DF90CF90089527
:101D4000CF92DF92EF92FF920F931F936801790178
:101D5000E0913C2EF0913D2E706846875787608B4E
:101D6000718B60913C2E70913D2E625F7F4F0E947F
:101D7000390541E0C701B6010E94A00A1F910F91E9
:101D8000FF90EF90DF90CF900895CF92DF92EF9287
:101D9000FF92CF936A017B01C22F60913C2E70911C
:101DA0003D2E625F7F4F0E943905CC2321F0CC2469
:101DB000CA94DC2C76014C2FC701B6010E94A00A00
:101DC000CF91FF90EF90DF90CF9008950F931F93E6
:101DD000CF93DF93DC011796ED91FC911897C085A6
:101DE000D1858E01025F1F4FC8010E949705809127
:101DF000CE2D811116C00C501109C8010E94970503
:101E00008A8D9091DA2D981710F48093DA2DBBE02B
:101E10008B9FC0011124B801805F914D0E9439054C
:101E200005C0B8018BEE9DE20E943905E0913C2E81
:101E3000F0913D2E9A8D828D891720F481E0809358
:101E4000D72D01C080E0DF91CF911F910F910895B0
:101E50000F931F93CF93DF937068FC0140835183EE
:101E600062837383C085D1850E9497058E010E5FC2
:101E70001F4FC8010E9497058A8D9091DA2D9817FF
:101E800010F48093DA2DFBE08F9FC0011124B8017C
:101E9000805F914D0E943905E0913C2EF0913D2EDE
:101EA0009A8D828D891718F481E08093D72DDF9168
:101EB000CF911F910F9108952091D62DFC01208381
:101EC0004091DB2D5091DC2D6091DD2D7091DE2D48
:101ED00041835283638374830895CF92DF92EF929C
:101EE000FF920F931F93CF93DF93DB01F091A2003A
:101EF000FF93F87FF093A2004091DB2D5091DC2DF1
:101F00006091DD2D7091DE2D0D911D912D913C91F3
:101F100013970F3FCFEF1C072C073C0769F1FC011B
:101F2000C180D280E380F480E091D62DEC01F8816D
:101F3000FE1729F04C155D056E057F05F8F44C1968
:101F40005D096E097F09401751076207730768F43E
:101F5000FD01041B150B260B370B00831183228315
:101F600033830E945C0F80E00AC01D921D921D9277
:101F70001C92139781E003C080E001C081E0FF91D3
:101F8000F093A200DF91CF911F910F91FF90EF90FE
:101F9000DF90CF90089581E08093D72D08958091B0
:101FA000D92D882331F08091CE2D882321F080E037
:101FB000089581E0089582E00895CF92DF92EF9234
:101FC000FF92E0913C2EF0913D2E668577858089C9
:101FD0009189E0913C2EF0913D2EA0913C2EB09144
:101FE0003D2E5A962C91C12CD12C76016894C2F8C2
:101FF000C21AD108E108F108C686D786E08AF18ABC
:10200000FF90EF90DF90CF900895CF92DF92EF9204
:10201000FF920F931F93FC01428353836483758364
:10202000828793870417150726073707C0F00C1916
:102030001D092E093F0986859785A089B189081752
:1020400019072A073B0700F5BF016E5F7F4F80919C
:10205000462E9091472E0E945A0580E018C00C151C
:102060001D052E053F0528F44C155D056E057F0501
:1020700068F4BF016E5F7F4F8091482E9091492E8A
:102080000E945A0580E003C081E001C081E01F91F9
:102090000F91FF90EF90DF90CF900895F091A20004
:1020A000FF93F87FF093A2008091442E9091452EEB
:1020B000892BE9F485E59EE20E9424058AE49EE2EC
:1020C0000E94240585E59EE28093482E9093492E38
:1020D0008AE49EE28093462E9093472E40E069E08A
:1020E00085E00E9487088093442E9093452EFF91AF
:1020F000F093A2000895EF92FF920F930E944E106A
:102100008091442E9091452E892B91F00F2EF2E470
:10211000EF2EFEE2FF2EF02D03E020E030E048EC51
:1021200050E068E871E28EE891E10E94210B01C065
:1021300080E00F91FF90EF9008958F929F92AF9261
:10214000BF92CF92DF92EF92FF920F931F93CF93A4
:10215000DF93CDB7DEB72997CDBFDEBFE091442E28
:10216000F091452E309789F169832A833B834C8314
:102170005D838E839F836630FCF40E94CF0F823094
:1021800069F400E0A7019601BE016F5F7F4F809167
:10219000442E9091452E0E94B80818C000E020E01F
:1021A00030E0A901BE016F5F7F4F8091442E909176
:1021B000452E0E94B8080AC020E0A801BE016F5F4A
:1021C0007F4FCF010E945E0901C080E02996CDBFFC
:1021D000DEBFDF91CF911F910F91FF90EF90DF90C5
:1021E000CF90BF90AF909F908F9008952F923F9285
:1021F0004F925F926F927F928F929F92AF92BF9217
:10220000CF92DF92EF92FF920F931F93CF93DF93C2
:102210001C010E94770C2B013C0180913E2E909175
:102220003F2EA091402EB091412E481659066A06C5
:102230007B0608F054C03CC00780F085E02D80800C
:102240009180A280B380C085D1858E010E5F1F4F23
:10225000C8010E949705ED89FE89CE0119958A89EA
:10226000813031F58E859F85A889B989880D991DA2
:10227000AA1DBB1D88169906AA06BB0670F48A83A0
:102280009B83AC83BD83CA87DB87B8018091482ECE
:102290009091492E0E945A050BC0C12CD12C760179
:1022A00000E010E0A501940160E0CE010E949D10C5
:1022B000E091482EF091492E80818111BDCF80910F
:1022C000462E9091472E8093482E9093492EE0936E
:1022D000462EF093472E81E0F101808302C0F10188
:1022E000108240923E2E50923F2E6092402E70926D
:1022F000412EC301B201DF91CF911F910F91FF9049
:10230000EF90DF90CF90BF90AF909F908F907F9095
:102310006F905F904F903F902F900895CF93DF93F1
:10232000CDB7DEB72E97CDBFDEBFCE0101961C0123
:10233000A82EB32CE091482EF091492E808188235D
:1023400009F403C10780F085E02D40805180628050
:1023500073800E94710CC1010E94F6106B877C870C
:102360008D879E87898181115EC08B859C85AD8517
:10237000BE8584159505A605B705E8F10E945C0D9C
:10238000E091482EF091492E0780F085E02D808461
:102390009184C40102960E949705D40152968C91B3
:1023A0005297813001F51E964D915D916D917C9112
:1023B0005197440D551D661D771D730162010B85F4
:1023C0001C852D853E85C4010E940510882359F087
:1023D000C12CD12C760100E010E0A301920160E055
:1023E000C4010E949D10D4015596ED91FC91569721
:1023F000C40119959CC020E0B301A2018B859C8586
:10240000AD85BE85481B590B6A0B7B0B8091442E12
:102410009091452E0E94550A0E945C0D811187C043
:102420000E94820684C00E945C0D81C0898188233D
:102430006CF44E815F8168857985EA81FB818C81AE
:102440009D811995898188230CF471C08E809F80AD
:10245000D4011C968D919C911D97892B21F0C4016C
:1024600002960E949705CE010A960E94F6108B01F3
:102470009C018981082E000C990BAA0BBB0B8A309A
:10248000910508F054C0FC018827E250FF4F8F4FA0
:102490000C94AF1FCA80DB80EC80FD80F401468580
:1024A0005785608971894C0D5D1D6E1D7F1DC401AE
:1024B0000E9405108823D9F1D4015596ED91FC9125
:1024C0005697C4011995F4018289813081F54A81BA
:1024D0005B816C817D8186859785A089B1899A0110
:1024E000AB01280F391F4A1F5B1FC12CD12C76016D
:1024F00000E010E060E0C4010E949D1018C04A8115
:102500005B816C817D81D4011E964D935D936D93AB
:102510007C935197400F511F621F731F680179010F
:10252000C4010E94051003C0C4010E94230520E0DD
:1025300030E0A9016A2D7B2D8091442E9091452E8B
:102540000E94A309811172CFF5CE0E94710CC101C6
:102550000E94F6106B877C878D879E878981811109
:1025600062CFE091462EF091472E808121E08111CB
:1025700020E0412C512C32013FCF0F931F93CF937A
:10258000DF93CDB7DEB72997CDBFDEBFEEEFE9838E
:102590008A839B836C837D832E833F8348875987FF
:1025A00020E0A801BE016F5F7F4F8091442E909183
:1025B000452E0E945E092996CDBFDEBFDF91CF91E7
:1025C0001F910F910895E0E5F0E0808181608083A4
:1025D000818180FFFDCF80E00E942F038EE10E9469
:1025E0001F0360E080E00E94290343E060E080E494
:1025F0000E941003E0E5F0E08081886080838181A3
:1026000083FFFDCF64E080EC0E941A03E0E5F0E078
:1026100080818061808360E080E00E942903E0E5A2
:10262000F0E0818184FFFDCF84E00E942F0387E0EA
:102630000E941F030895E0E8F6E088E08183848328
:1026400000E816E0C8E0F801C78364E670E080E0C7
:1026500090E00E94DE0DF7CF00E911E20F2EF0EAC4
:10266000CF2EF0E3DF2EF02D0F2EF0EEEF2EF0E365
:10267000FF2EF02DC0EAD1E2BB24B3940E948B164A
:102680001F930F931F921F921F921F920E949616E4
:10269000F6019181F70181811F929F931F928F9381
:1026A000DF93CF931F921F921F92BF920E949616A4
:1026B0000E94360C64E670E080E090E00E94DE0D3F
:1026C000EDB7FEB77096EDBFFEBFD8CF0895EF927D
:1026D000FF920F93CF930E94371DC82F0E94E312E1
:1026E0000E940F150F2EF1EAEF2EF1E3FF2EF02DD1
:1026F00001E020E030E042ED50E06CEA71E28BE175
:1027000093E10E94210B0F2EF5EAEF2EF1E3FF2E4D
:10271000F02D20E030E04CE251E065EB71E286EF15
:102720009AE10E94210B0F2EF3EAEF2EF1E3FF2E28
:10273000F02D20E030E042ED50E060EC71E289E302
:102740009AE10E94210B0F2EF9E2EF2EF2E3FF2E09
:10275000F02D20E030E042ED50E06DEC71E28CE2D3
:1027600093E10E94210B0F2EFBE2EF2EF2E3FF2EEE
:10277000F02D20E030E04CE251E065ED71E285E4BF
:1027800092E00E94210B0E9460038093A42F9093FB
:10279000A52F0E9460038093A7319093A8310E94D7
:1027A0006C010E948B1680E991E29F938F931F9298
:1027B0001F921F921F920E94961680EE91E29F93A5
:1027C0008F931F921F921F9281E08F930E94961603
:1027D0008DEE91E29F938F931F921F921F9282E042
:1027E0008F930E9496161F92CF9386EF91E29F934C
:1027F0008F931F921F921F9283E08F930E949616D1
:102800000E94360C8DB79EB74A968DBF9EBF80E062
:1028100090E0CF910F91FF90EF9008951F920F924B
:102820000FB60F9211240BB60F922F933F934F9335
:102830005F936F937F938F939F93AF93BF93EF9328
:10284000FF93CF93DF931F92CDB7DEB719829E011E
:102850002F5F3F4F41E050E060E070E080912F3209
:10286000909130320E94F00460E080E09BE00E9492
:1028700044031092060B0F90DF91CF91FF91EF91DF
:10288000BF91AF919F918F917F916F915F914F9188
:102890003F912F910F900BBE0F900FBE0F901F9086
:1028A0001895CF92DF92EF92FF920F936B017C010C
:1028B00082E0C816D104E104F10408F44EC0E0E05F
:1028C000FBE081E0868310A211A260E080E09BE043
:1028D0000E944A038EEFC8168FEFD806E104F10478
:1028E00070F4F694E794D794C794C092260BD092D4
:1028F000270B65E080E09BE00E94440319C080E460
:10290000C81682E4D8068FE0E806F10488F46894DB
:1029100014F8F694E794D794C7941694D1F7C0921C
:10292000260BD092270B67E080E09BE00E944403D7
:102930000F2EF4EFCF2EDD24D394E12CF12CF02DCB
:1029400000E021E041E050E060E070E080912F3253
:10295000909130320E94750311C0E0E0FBE081E00D
:10296000868310A211A260E080E09BE00E944A03EF
:10297000C12CD12C76016894C1F8B3CF0F91FF9090
:10298000EF90DF90CF9008958295807FE0E0F6E0B1
:102990009481282F2F60922394839481892B8483A0
:1029A00008951F93CF93DF93C0E6D6E014E01D8314
:1029B00061E070E080E090E00E9451141E83DF919E
:1029C000CF911F910895CF93C82F82958F700E9449
:1029D000C414E0E6F6E081E0868382E086830E940C
:1029E000D1148C2F8F700E94C4140E94D114CF91E7
:1029F0000895CF93C82F82958F700E94C414E0E68B
:102A0000F6E081E0858382E086830E94D1148C2FDA
:102A10008F700E94C4140E94D114CF910895EF9238
:102A2000FF920F93E0E0F6E080E1818380E2818312
:102A300080E4818380E88183A0E6B6E081E011969E
:102A40008C93119782E011968C93119784E01196E4
:102A50008C93119784818F70848314968C91149732
:102A6000887F14968C9340E066E188E00E94870896
:102A700080932D3290932E320E94600380932F32E8
:102A800090933032E12CF12C01E020E030E04EE573
:102A900051E066E072E28DEA95E10E94210B0F9110
:102AA000FF90EF9008958130910579F01CF4892B07
:102AB00039F019C08230910569F0039781F013C095
:102AC00080E8860F0E94E3140EC080EC860F0E94FF
:102AD000E31409C084E9860F0E94E31404C084ED66
:102AE000860F0E94E31467E270E080E090E00E94AD
:102AF000511408950E94F9146BE270E080E090E0B8
:102B00000E94511408950F931F93CF93DF93FC01FC
:102B1000808181110AC011C08991882371F00E94BF
:102B20007A150C171D07C1F708C08F010E947A158E
:102B3000E80121960C5E1F4FEFCFDF91CF911F91DF
:102B40000F910895CF93DF93EA010E945315CE01B0
:102B50000E948315DF91CF910895CF93DF93CDB776
:102B6000DEB7C656D109CDBFDEBF5E0141E5A40E7A
:102B7000B11CFE01319620E208C02193E817F90745
:102B8000E1F7FC01A816B90619F0CF014496F5CF7C
:102B900060E47CE980E090E00E94511483E00E94B0
:102BA000C41468E873E180E090E00E9451140E9430
:102BB000D11460EA70E080E090E00E9451140E941D
:102BC000D11460EA70E080E090E00E9451140E940D
:102BD000D11460EA70E080E090E00E94511482E03D
:102BE0000E94C4140E94D11488E20E94E31480E180
:102BF0000E94E3148CE00E94E31486E00E94E31438
:102C000010E26E0151E5C50ED11C0F2EF4E14F2EDE
:102C1000F02D0F2EF6E18F2E912CF02D5C2C0D2D2A
:102C200068EC70E080E090E00E94DE0D40E050E053
:102C3000BA0180912F32909130320E943A04672B72
:102C4000682B692B09F449C042E050E060E070E075
:102C500080912F32909130320E943A04FE013196D9
:102C600008C01193E817F907E1F7FC018A159B05E5
:102C7000A1F1CF014496F5CF2FEF3FEFA901652DCC
:102C8000702F80912D3290912E320E94A3098823BB
:102C900021F1F6012181822F90E04497F4F48281A2
:102CA0008823D9F0908130E0D901499EA00DB11D53
:102CB000112441E050E04C0F5D1FA40FB51F339667
:102CC000A401421B530B9A012C0D3D1D8D93E2175D
:102CD000F30719F081918111F9CF80912D329091F4
:102CE0002E320E94490A8111C7CFCE0101967C0184
:102CF000612C712CA70160E070E0C3010E94A21555
:102D00009FEF691A790AE4E1EE0EF11CF4E06F1608
:102D1000710481F785CF42E050E060E070E080917F
:102D20002F32909130320E945B0408952F923F928F
:102D30004F925F926F927F928F929F92AF92BF92CB
:102D4000CF92DF92EF92FF920F931F93CF93DF9377
:102D5000CDB7DEB76D97CDBFDEBF2BA92B8FAFA947
:102D6000B8AD7E0139E3E30EF11C28E83EE2E4E76A
:102D7000FEE21192E217F307E1F70F2EF0E6AF2E15
:102D8000FEE2BF2EF02D24E73EE2F5011192E2179C
:102D9000F307E1F7812C912C0F2EF4E7CF2EFEE202
:102DA000DF2EF02DFCC2853209F0E8C22D0182E051
:102DB000480E511C11968C91853609F4DBC138F40C
:102DC0008336C1F008F048C0853251F0E7C283373E
:102DD000F9F0883709F468C0863609F0DFC28CC084
:102DE000F401E05AF14D95E29083AFEF8A1A9A0A06
:102DF000D201D5C2F401E05AF14DD7018C91808304
:102E0000BFEF8B1A9B0AF70132967F01D201C7C22E
:102E1000A7014E5F5F4FD7018D919C919C01B4013A
:102E2000F401E05AF14D00E010E006C0D901FD9038
:102E30009D01F1920F5F1F4FDC010D900020E9F71B
:102E40001197A81BB90B0A171B0780F34D01860EBB
:102E5000971E7A01D201A3C287010E5F1F4F4AE07D
:102E6000B601F701808191810E94DB1F9401D4019A
:102E7000A05AB14D44E75EE280E090E005C0FA015F
:102E80006191AF016D930196F60101900020E9F781
:102E90003197E457FE428E179F0788F34F01820E49
:102EA000931E7801D2017BC287010E5F1F4F40E164
:102EB000B601D7018D919C910E94DB1F9401F40112
:102EC000E05AF14D44E75EE280E090E005C0DA01AF
:102ED0006D91AD0161930196D6010D900020E9F747
:102EE0001197A457BE428A179B0788F34D01820EA3
:102EF000931E7801D20153C21701B4E02B0E311C8E
:102F0000D7018D919D910D90BC91A02D8F8B988FA5
:102F1000A98FBA8F20E030E0A901BC01CD010E9449
:102F2000CA1D811105C020E3F6012083118204C16E
:102F300020E030E0A9016F89788D898D9A8D0E94FB
:102F4000CA1D88239CF4EDE2D601EC938F89988DFD
:102F5000A98DBA8DB0588F8B988FA98FBA8F0F2EED
:102F6000F5E76F2EFEE27F2EF02D01C0360120E046
:102F700030E040E85FE36F89788D898D9A8D0E94FB
:102F8000291F88230CF444C200E010E020E030E068
:102F900040E251E46F89788D898D9A8D0E94CF1D12
:102FA0006F8B788F898F9A8F0F5F1F4F20E030E0F3
:102FB00040E85FE30E94291F882344F72DEC3CEC96
:102FC0004CEC5DE36F89788D898D9A8D0E94CA1DC6
:102FD00088231CF01AC000E010E020E030E040E25E
:102FE00051E46F89788D898D9A8D0E942E1F6F8B89
:102FF000788F898F9A8F015011092DEC3CEC4CECA5
:103000005DE30E94CA1D882344F310161106ACF537
:103010007301D301A00FB11FAC8FBD8F3D016F892C
:10302000788D898D9A8D20E030E040E251E40E9455
:103030002E1F6F8B788F898F9A8F0E94411E20E3FD
:10304000260FF70121937F01072E000C880B990BA7
:103050000E94791E9B01AC016F89788D898D9A8DB4
:103060000E945D1DE614F704F1F66F8B788F898F4F
:103070009A8F0115110589F4DBC1C801E0E3D30182
:10308000EC937301F2E0EF0EF11C2EE211962C93FB
:1030900099236CF000E010E01FC0EC8CFD8C3FEF3A
:1030A000E31AF30AEEE2AC8DBD8DEC9312C000E0A2
:1030B00010E0FFEFEF1AFF0AF701319720E32083BA
:1030C00001970F5F1F4F992324F4043011058CF3EF
:1030D00031C00430110574F5370184E090E0801BA5
:1030E000910BE80EF91E87016F89788D898D9A8D75
:1030F00020E030E040E251E40E942E1F6F8B788F79
:10310000898F9A8F0E94411E20E3260FD3012D93B1
:103110003D01072E000C880B990B0E94791E9B0124
:10312000AC016F89788D898D9A8D0E945D1D601626
:103130007106F1F6F70110829401F401E05AF14DA5
:1031400044E75EE280E090E005C0DA016D91AD01F8
:1031500061930196D6010D900020E9F71197A457CD
:10316000BE428A179B0788F34D01820E931E7101A0
:10317000D20115C11701B4E02B0E311CD7018D917E
:103180009D910D90BC91A02D8F8B988FA98FBA8F98
:1031900020E030E0A901BC01CD010E94CA1D8111CF
:1031A00005C020E3F60120831182CAC020E030E090
:1031B000A9016F89788D898D9A8D0E94CA1D8823F7
:1031C0009CF4EDE2D601EC938F89988DA98DBA8D90
:1031D000B0588F8B988FA98FBA8F0F2EF5E76F2E6F
:1031E000FEE27F2EF02D01C0360120E030E040E805
:1031F0005FE36F89788D898D9A8D0E94291F8823BE
:10320000DCF000E010E020E030E040E251E46F89C3
:10321000788D898D9A8D0E94CF1D6F8B788F898FC5
:103220009A8F0F5F1F4F20E030E040E85FE30E947D
:10323000291F882344F702C000E010E02DEC3CEC8D
:103240004CEC5DE36F89788D898D9A8D0E94CA1D43
:103250008823C4F420E030E040E251E46F89788DA7
:10326000898D9A8D0E942E1F6F8B788F898F9A8FF0
:10327000015011092DEC3CEC4CEC5DE30E94CA1DA1
:10328000882344F320E030E040E251E46F89788DF8
:10329000898D9A8D0E942E1F6F8B788F898F9A8FC0
:1032A0000E94411E20E3260FD3012C93072E000C11
:1032B000880B990B0E94791E9B01AC016F89788D58
:1032C000898D9A8D0E945D1DF8013197EC8FFD8FDD
:1032D000EEE2D3011196EC9383010E5F1F4F730151
:1032E000F6E0EF0EF11C20E030E040E251E40E94F5
:1032F0002E1F6F8B788F898F9A8F0E94411E20E33B
:10330000260FD8012D938D01072E000C880B990BE9
:103310000E94791E9B01AC016F89788D898D9A8DF1
:103320000E945D1D0E151F05F1F625E6F3012683AB
:10333000B301695F7F4F4AE08C8D9D8D0E94DB1F3A
:103340009401F401E05AF14D44E75EE280E090E040
:1033500005C0DA016D91AD0161930196D6010D9022
:103360000020E9F71197A457BE428A179B0788F3FC
:103370004D01820E931E7101D20111C08A3029F0D5
:10338000F401E05AF14D808304C0F401E05AF14D9C
:1033900010821196EFEF8E1A9E0A01C0D2018C9115
:1033A000811101CD8DA99EA9880D991D44973CF0EE
:1033B00084E190E04C012DA93EA9821A930AFE01F6
:1033C0003396CE014796DF011D92A817B907E1F7A2
:1033D0003B8D39838DA98A83181419045CF4CE01BE
:1033E000880D991D0396D5012D915D0121938E17AE
:1033F0009F07C9F700E02FEF3FEFA901BE016F5F04
:103400007F4F80912D3290912E320E94B8081BC0C0
:103410002DEC3CEC4CEC5DE36F89788D898D9A8DB9
:103420000E94CA1D88230CF4D6CD80E090E026CE01
:1034300020E3EC8DFD8D20837F0132E0E30EF11C53
:103440008EE2818346CE6D96CDBFDEBFDF91CF91F8
:103450001F910F91FF90EF90DF90CF90BF90AF90B2
:103460009F908F907F906F905F904F903F902F90A4
:103470000895CF93DF93CDB7DEB7C054D109CDBF48
:10348000DEBF412C512CA12CB12C0F2EF9EA2F2E8E
:10349000F1E33F2EF02D0F2EF9EE8F2EF1E39F2E4C
:1034A000F02D0F2EF0E96F2EFEE27F2EF02DCC24B2
:1034B000CA94DC2C760100E021E043E050E060E0BB
:1034C00070E08091A7319091A8310E9475036370DC
:1034D0007727672B09F483C0D101ED91FC917F011F
:1034E000EE0CFF1CEE0CFF1CA1E2B1E32D913C9110
:1034F000C901880F991F880F991F63E070E00E942F
:103500009B1FAF01420F531F6B01CE18DF08E9EA82
:10351000F1E3DE011196219131918FEFA81AB80ADB
:103520004A9DC0014B9D900D5A9D900D1124821B08
:10353000930B8D939D9395E0A916B10411F4A12CE2
:10354000B12CE815F90539F7A2E0CA16D1043CF010
:10355000E61AF70AB2E0EB16F1040CF040C0A8E856
:10356000BEE2F201EE0FFF1F81E090E08C0F9D1F85
:10357000E80FF91F2FC021913191B90162507109F3
:103580006830710588F0685071096530710570F018
:10359000655071096430710558F0235131092530A7
:1035A000310538F413E005C010E003C011E001C09C
:1035B00012E0880F880F912F9370892B4E175F07A9
:1035C000D1F68D93FA016A167B0621F490E2490E3A
:1035D000511C05C0AF01485F5F4F80E0CCCF64E66F
:1035E00070E080E090E00E94DE0D61CFCF93DF932A
:1035F000CDB7DEB72C97CDBFDEBF19861A861F82E6
:103600001886412C512C1B861C860F2EFFE78F2E0F
:10361000912CF02D0F2EFFE7AF2EB12CF02DCC24E6
:10362000CA94DC2C760100E021E043E050E060E049
:1036300070E08091A42F9091A52F0E94750360FFE8
:1036400009C18091812190918221181619060CF0F0
:1036500007C200E010E08B859C8580976CF041E00C
:1036600050E060E070E08091A7319091A8310E9415
:103670005B041B861C86E3C0F801EE0FFF1FEE0FF4
:10368000FF1FEF5FFF4DC080D180E280F38020E01C
:1036900030E04EEF52E4C701B6010E94291F181610
:1036A0000CF069C0B5010B2C000C880B990B0E9423
:1036B000791E9B01AC01C701B6010E94291F181693
:1036C000CCF420E030E04CE553E4C701B6010E94A1
:1036D000291F18160CF0B3C0C701B6010E94411E85
:1036E0005B010B831C83212C312C81E090E08983CA
:1036F0009A83A5C020E030E04AE253E4C701B60156
:103700000E94291F181624F49FEF691A790A97C09E
:1037100020E030E04AE253E4C701B6010E94CA1D2E
:1037200088230CF08CC089819A81019709F087C0A9
:1037300093E0691671040CF482C0EF81F885EE0FF6
:10374000FF1FE755FE4C8B8180839C8191838F8185
:10375000988501968F8398878B859C8501968B87AA
:103760009C8719821A82612C712C0F2EFFE7AF2ED5
:10377000F02DB12C64C0B401092C000C880B990BFE
:103780000E94791E9B01AC01C701B6010E94CA1DAF
:103790008823C4F420E030E040E252E4C701B601DF
:1037A0000E94CA1D88230CF04AC0C701B6010E94BE
:1037B000411E4B010D831E8322242394312C198238
:1037C0001A823DC020E030E04AEA52E4C701B60167
:1037D0000E94CA1D882324F49FEF691A790A2FC01A
:1037E00020E030E040EB52E4C701B6010E94291FFF
:1037F00018162CF581E02816310409F593E06916B6
:103800007104ECF0E985FA85EE0FFF1FEF5DFE4CC9
:103810008D8180839E81918389859A850196898790
:103820009A878B859C8501968B879C87212C312CD0
:10383000612C712C0F2EFFE78F2EF02D912C0F5F36
:103840001F4F8091812190918221081719070CF454
:1038500002CF06C161FF04C1809181219091822134
:10386000181619060CF0FCC000E010E090E24916B2
:1038700051046CF042E050E060E070E08091A731CC
:103880009091A8310E945B04412C512CDFC0F801BB
:10389000EE0FFF1FEE0FFF1FEF5FFF4DC080D180C7
:1038A000E280F38020E030E04EEF52E4C701B60141
:1038B0000E94291F18160CF067C0B5010B2C000CD4
:1038C000880B990B0E94791E9B01AC01C701B601C0
:1038D0000E94291F1816CCF420E030E04CE553E498
:1038E000C701B6010E94291F18160CF0AFC0C7010E
:1038F000B6010E94411E5B010B831C83212C312CDD
:1039000081E090E089839A83A1C020E030E04AE220
:1039100053E4C701B6010E94291F181624F49FEF33
:10392000691A790A93C020E030E04AE253E4C70103
:10393000B6010E94CA1D88230CF088C089819A8133
:10394000019709F083C093E0691671040CF47EC0FE
:10395000EF81F885EE0FFF1FE755FE4C8B818083CA
:103960009C8191838F81988501968F8398879FEFA3
:10397000491A590A19821A82612C712C0F2EFFE7FD
:10398000AF2EF02DB12C62C0B401092C000C880BB5
:10399000990B0E94791E9B01AC01C701B6010E94E0
:1039A000CA1D8823C4F420E030E040E252E4C7019D
:1039B000B6010E94CA1D88230CF048C0C701B60199
:1039C0000E94411E4B010D831E8322242394312C1F
:1039D00019821A823BC020E030E040EB52E4C7017C
:1039E000B6010E94CA1D882324F48FEF681A780A52
:1039F0002DC020E030E04AEA52E4C701B6010E943F
:103A0000291F18161CF591E029163104F9F483E0FA
:103A100068167104DCF0E985FA85EE0FFF1FEF5D93
:103A2000FE4C9D8190838E81818389859A85019644
:103A300089879A879FEF491A590A212C312C612CCA
:103A4000712C0F2EFFE78F2EF02D912C0F5F1F4F43
:103A50008091812190918221081719070CF406CFDB
:103A600064E670E080E090E00E94DE0DD8CD8091A9
:103A7000780085FF05C080E28093780081E008959A
:103A80008091780080FF05C081E08093780082E01B
:103A900008958091780084FF05C080E180937800CC
:103AA00083E008958091780081FF05C082E08093D3
:103AB000780084E0089582E008955058BB27AA2733
:103AC0000E94751D0C94EF1E0E94E11E38F00E94AA
:103AD000E81E20F039F49F3F19F426F40C94DE1E02
:103AE0000EF4E095E7FB0C94D81EE92F0E94001F0E
:103AF00058F3BA17620773078407950720F079F423
:103B0000A6F50C94221F0EF4E0950B2EBA2FA02DD3
:103B10000B01B90190010C01CA01A0011124FF277A
:103B2000591B99F0593F50F4503E68F11A16F04075
:103B3000A22F232F342F4427585FF3CF4695379574
:103B40002795A795F0405395C9F77EF41F16BA0B39
:103B5000620B730B840BBAF09150A1F0FF0FBB1FE7
:103B6000661F771F881FC2F70EC0BA0F621F731F30
:103B7000841F48F4879577956795B795F7959E3F8D
:103B800008F0B0CF9395880F08F09927EE0F97951E
:103B9000879508950E94B41E08F481E008950E945C
:103BA000E31D0C94EF1E0E94E81E58F00E94E11ED7
:103BB00040F029F45F3F29F00C94D81E51110C9469
:103BC000231F0C94DE1E0E94001F68F39923B1F39B
:103BD000552391F3951B550BBB27AA276217730733
:103BE000840738F09F5F5F4F220F331F441FAA1FC7
:103BF000A9F335D00E2E3AF0E0E832D09150504083
:103C0000E695001CCAF72BD0FE2F29D0660F771F30
:103C1000881FBB1F261737074807AB07B0E809F016
:103C2000BB0B802DBF01FF2793585F4F3AF09E3F9B
:103C3000510578F00C94D81E0C94231F5F3FE4F3D9
:103C4000983ED4F3869577956795B795F7959F5FDE
:103C5000C9F7880F911D9695879597F90895E1E02A
:103C6000660F771F881FBB1F621773078407BA0789
:103C700020F0621B730B840BBA0BEE1F88F7E095E4
:103C800008950E94481E6894B1110C94231F089552
:103C90000E94081F88F09F5798F0B92F9927B751B5
:103CA000B0F0E1F0660F771F881F991F1AF0BA95E0
:103CB000C9F714C0B13091F00E94221FB1E00895FD
:103CC0000C94221F672F782F8827B85F39F0B93FEF
:103CD000CCF3869577956795B395D9F73EF4909593
:103CE0008095709561957F4F8F4F9F4F0895E89411
:103CF00009C097FB3EF490958095709561957F4F34
:103D00008F4F9F4F9923A9F0F92F96E9BB279395E1
:103D1000F695879577956795B795F111F8CFFAF4F1
:103D2000BB0F11F460FF1BC06F5F7F4F8F4F9F4F22
:103D300016C0882311F096E911C0772321F09EE880
:103D4000872F762F05C0662371F096E8862F70E0E6
:103D500060E02AF09A95660F771F881FDAF7880FC0
:103D60009695879597F90895990F0008550FAA0B16
:103D7000E0E8FEEF16161706E807F907C0F012167E
:103D80001306E407F50798F0621B730B840B950B81
:103D900039F40A2661F0232B242B252B21F40895D6
:103DA0000A2609F4A140A6958FEF811D811D089573
:103DB00097F99F6780E870E060E008959FEF80ECDE
:103DC000089500240A941616170618060906089581
:103DD00000240A9412161306140605060895092EE7
:103DE0000394000C11F4882352F0BB0F40F4BF2B56
:103DF00011F460FF04C06F5F7F4F8F4F9F4F089596
:103E000057FD9058440F551F59F05F3F71F047958B
:103E1000880F97FB991F61F09F3F79F08795089570
:103E2000121613061406551FF2CF4695F1DF08C08F
:103E3000161617061806991FF1CF869571056105AC
:103E400008940895E894BB2766277727CB0197F954
:103E500008950E94B41E08F48FEF08950E94411F38
:103E60000C94EF1E0E94E11E38F00E94E81E20F024
:103E7000952311F00C94D81E0C94DE1E11240C9482
:103E8000231F0E94001F70F3959FC1F3950F50E010
:103E9000551F629FF001729FBB27F00DB11D639FFC
:103EA000AA27F00DB11DAA1F649F6627B00DA11DA2
:103EB000661F829F2227B00DA11D621F739FB00D48
:103EC000A11D621F839FA00D611D221F749F3327B8
:103ED000A00D611D231F849F600D211D822F762F51
:103EE0006A2F11249F5750409AF0F1F088234AF02E
:103EF000EE0FFF1FBB1F661F771F881F915050409A
:103F0000A9F79E3F510580F00C94D81E0C94231FF6
:103F10005F3FE4F3983ED4F3869577956795B79520
:103F2000F795E7959F5FC1F7FE2B880F911D96953A
:103F3000879597F9089597FB072E16F4009407D0FC
:103F400077FD09D00E94B71F07FC05D03EF490957D
:103F500081959F4F0895709561957F4F0895EE0F5D
:103F6000FF1F881F8BBF0790F691E02D1994AA1BA5
:103F7000BB1B51E107C0AA1FBB1FA617B70710F054
:103F8000A61BB70B881F991F5A95A9F78095909586
:103F9000BC01CD010895FB01DC0102C001900D922E
:103FA00041505040D8F70895DC0101C06D93415055
:103FB0005040E0F70895BB274A3031F4992322F4AA
:103FC000BDE2909581959F4F0C94E71FBB27FB01A5
:103FD0005527AA27880F991FAA1FA41710F0A41B02
:103FE00083955051B9F7A05DAA3308F0A95DA1935C
:103FF000009779F7B111B1931192CB010C94002085
:10400000DC01FC01672F71917723E1F7329704C03F
:104010007C916D9370836291AE17BF07C8F30895CA
:04402000F894FFCF42
:104024003F0000FE42C33E264313A64943C3BE6578
:1040340043C0C8774300007E43C0C87743C3BE650E
:104044004313A6494313A64943C33E26430000FE37
:10405400427B82AF42B4675142EB09C24104E8C6D5
:10406400400000000004E8C640EB09C241B46751B7
:10407400427B82AF420000FE427B82AF42B4675172
:1040840042EB09C24104E8C6400000000004E8C64F
:1040940040EB09C241B46751427B82AF420000FE4B
:1040A40042C33E264313A64943C3BE6543C0C877F3
:1040B4004300007E43C0C87743C3BE654313A6498B
:1040C40043C33E26430000000004E8C640EB09C297
:1040D40041B46751427B82AF420000FE42C33E2698
:1040E4004313A64943C3BE6543C0C8774300007E5B
:1040F40043C0C87743C3BE654313A64943C33E26A2
:10410400430000FE427B82AF42B4675142EB09C2D6
:104114004104E8C64000007E43C0C87743C3BE657F
:104124004313A64943C33E26430000FE427B82AFAD
:1041340042B4675142EB09C24104E8C640000000A2
:104144000004E8C640EB09C241B46751427B82AF28
:10415400420000FE42C33E264313A64943C3BE6544
:1041640043C0C877430000FE42C33E264313A6491A
:1041740043C3BE6543C0C8774300007E43C0C877CD
:1041840043C3BE654313A64943C33E26430000FE12
:10419400427B82AF42B4675142EB09C24104E8C694
:1041A40040600049444C4500546D722053766300CE
:1041B4004672656552544F532031302E302E3100F3
:1041C400613A20256420623A202564006C656442CB
:1041D4006C696E6B00726561645F5065616B73003E
:1041E40070686173655F64657465637400646973A2
:1041F400706C617900646D6148616E646C65720015
:10420400454455426F61726420312E300054656D0F
:10421400706C617465005265736574526561736F87
:104224006E3A202564006469737055706461746526
:02423400000088
:00000001FF
