S014000051414D4465634653323031392E73726563C0
S11300000C9422010C944B010C944B010C944B0165
S11300100C944B010C944B010C94D9010C942202C6
S11300200C944B010C944B010C944B010C944B011C
S11300300C944B010C944B010C9425070C944B012C
S11300400C944B010C944B010C944B010C944B01FC
S11300500C94B8010C944B010C944B010C944B017F
S11300600C944B010C944B010C944B010C944B01DC
S11300700C944B010C944B010C944B010C944B01CC
S11300800C944B010C944B010C944B010C944B01BC
S11300900C944B010C944B010C944B010C944B01AC
S11300A00C944B010C944B010C944B010C944B019C
S11300B00C944B010C944B010C944B010C944B018C
S11300C00C944B010C944B010C944B010C944B017C
S11300D00C944B010C944B010C944B010C944B016C
S11300E00C944B010C944B010C944B010C944B015C
S11300F00C944B010C944B010C944B010C944B014C
S11301000C944B010C944B010C944B010C944B013B
S11301100C944B010C944B010C944B010C944B012B
S11301200C944B010C944B010C944B010C944B011B
S11301300C944B010C944B010C944B010C944B010B
S11301400C944B010C944B010C944B010C944B01FB
S11301500C944B010C944B010C944B010C944B01EB
S11301600C944B010C944B010C944B010C944B01DB
S11301700C944B010C944B010C944B010C944B01CB
S11301800C944B010C944B010C944B010C944B01BB
S11301900C944B010C944B010C944B010C944B01AB
S11301A00C944B010C944B010C944B010C944B019B
S11301B00C94D0140C944B010C944B010C944B01F3
S11301C00C944B010C944B010C944B010C944B017B
S11301D00C944B010C944B010C944B010C944B016B
S11301E00C944B010C944B010C944B010C944B015B
S11301F00C944B010C944B010C944B010713071303
S1130200071354133C1351130713071354133C13CC
S11302100C9410050C94D8130C94411C0C94D40B1E
S11302200C944B120C946F160C943C130C945113B5
S11302300C94E7130C94FB1A0C9454130C9468025A
S11302400C94071311241FBECFEFCDBFDFE3DEBF35
S113025000E00CBFE7E5F2E38AEA90E48193E03042
S1130260F907E0F310E2A0E0B0E2ECEDF1E400E025
S11302700BBF02C007900D92A039B107D9F722E352
S1130280A0E9B0E201C01D92A735B207E1F70E94D0
S113029022140C94EC200C940000E0E4F2E0818140
S11302A0817E8C6081838481887F8160848381E006
S11302B0828380A18076816080A311A280A580764C
S11302C0816080A788E081A710AA11AA80E88383AF
S11302D08081816080830895E0E2F6E081E082839A
S11302E082E082830E944D01E0E4F8E0108210A2D3
S11302F011A287EE93E086A397A388EC80938001F4
S1130300E0E0F1E0108280E48083808186FDFDCF0F
S1130310E0E0F1E084E8808381E0868B74E2708B16
S1130320818B6DE9628B36E4338B40E250E0448B81
S1130330558BA2E0B1E3A48FB58F168E2CE6208FE7
S113034092E0918F128E86A370A381A362A333A33C
S113035044A355A342EC50E344A755A716A620A7EF
S113036091A712A690899068908B80934008089575
S11303701F920F920FB60F9211248F939F93809127
S113038090209091912001968093902090939120B9
S113039080919020909191204F9721F41092902079
S11303A0109291209F918F910F900FBE0F901F90EC
S11303B018951F920F920FB60F9211240BB60F923D
S11303C02F933F934F935F936F937F938F939F9359
S11303D0AF93BF93EF93FF93CF93DF931F92CDB768
S11303E0DEB7E0E0F1E081898061818BE0E4F8E050
S11303F084858160848781E08093A70619829E01A9
S11304002F5F3F4F41E050E060E070E08091482D65
S11304109091492D0E9413050F90DF91CF91FF9188
S1130420EF91BF91AF919F918F917F916F915F9168
S11304304F913F912F910F900BBE0F900FBE0F90D5
S11304401F9018951F920F920FB60F9211240BB69E
S11304500F922F933F934F935F936F937F938F9359
S11304609F93AF93BF93EF93FF93CF93DF931F9229
S1130470CDB7DEB7E0E0F1E081A1806181A3E0E4E3
S1130480F8E084858160848719829E012F5F3F4F45
S113049042E050E060E070E08091482D9091492D59
S11304A00E9413050F90DF91CF91FF91EF91BF91BF
S11304B0AF919F918F917F916F915F914F913F91F8
S11304C02F910F900BBE0F900FBE0F901F90189599
S11304D00E9483038093482D9093492DE0EAF6E02F
S11304E082E0818394E09183E0E8F6E091E09183F7
S11304F08183812C912C0F2EF0EAAF2EF6E0BF2ED3
S1130500F02DCC24CA94DC2C760100E021E043E0F9
S113051050E060E070E08091482D9091492D0E9458
S1130520980360FD05C080910020811143C073C011
S113053080910020882389F1C0E0D0E08091462E8C
S11305409091472E895791090E9798F48FEF881A46
S1130550980AE4E68E169104CCF043E050E060E0A3
S113056070E08091442E9091452E0E945D04162FD8
S11305700DC042E050E060E070E08091442E909124
S1130580452E0E947E04162F812C912C2196809159
S1130590002090E0C817D9078CF2809193208F5FD8
S11305A080939320F50184818D7F8483848184608A
S11305B084833DC0C0E0D0E0FE01EE53FF4C808157
S11305C0843158F041E050E060E070E08091442EC6
S11305D09091452E0E947E04162F10FF03C01092A6
S11305E0932012C0FFEF8F1A9F0A84E688169104A5
S11305F05CF043E050E060E070E08091442E909124
S1130600452E0E945D04162F21968091002090E0D3
S1130610C817D9078CF2809192208F5F8093922023
S1130620F50184818B7F848384818260848364E682
S113063070E080E090E00E949B0E63CF0F93CF9315
S1130640DF931F92CDB7DEB72FB72983F8941BBE73
S1130650FC0108ED04BF608389818FBF0F90DF9197
S1130660CF910F910895611102C090E001C090E212
S1130670842B892B8093520008956F71862B80936D
S113068055000895E0E5F0E09081282F209592230D
S11306909083908189230895682B81E490E00E94DF
S11306A01E0308950F931F93CF93C82F00E410E007
S11306B0F8016081687F682B80E490E00E941E034B
S11306C0F80180818C23CF911F910F910895FC0133
S11306D09081907F692B60830895FC019181987FBC
S11306E0692B61830895FC0196819C7F692B668345
S11306F00895000088ED84BF81E080937900089517
S11307000E9479030895CF93DF9380E190E00E94E3
S11307102005EC01009741F0FC0111921192119215
S11307201192CF010E944705CE01DF91CF91089528
S11307302F923F924F925F926F927F928F929F92ED
S1130740AF92BF92CF92DF92EF92FF920F931F93DB
S1130750CF93DF93EC014A015B01622E702E0E945D
S11307602E0D288039804A805B8001110DC081E004
S1130770B201A101482159216A217B21452B462B35
S1130780472B79F480E00DC081E0B201A10148213A
S113079059216A217B21481559056A057B0509F011
S11307A080E0882381F0662009F470C080949094DE
S11307B0A094B09482209320A420B52088829982AA
S11307C0AA82BB8263C0C114D104E104F10409F418
S11307D05DC0662029F040E050E060E071E003C0B5
S11307E040E050E0BA0171107460482959296A291F
S11307F07B2997018601CE0104960E945D0F0E9419
S1130800190E811102C00E94A5060E949A1091FD42
S113081039C0F091A200FF93F87FF093A2006881A1
S113082079818A819B8171100DC021E07501640179
S1130830C622D722E822F922CD28CE28CF2879F45F
S113084020E00DC021E075016401C622D722E82210
S1130850F922C814D904EA04FB0409F020E0222395
S113086071F0662061F080949094A094B0948622F4
S11308709722A822B92288829982AA82BB82FF91F8
S1130880F093A2001B012C01552402C00E94190EF2
S1130890C201B101DF91CF911F910F91FF90EF90B1
S11308A0DF90CF90BF90AF909F908F907F906F908C
S11308B05F904F903F902F9008950F931F93F09166
S11308C0A200FF93F87FF093A200FC010081118144
S11308D02281338140955095609570954023512332
S11308E0622373234083518362837383FF91F09364
S11308F0A200C901B8011F910F9108954F925F9210
S11309006F927F92AF92BF92CF92DF92EF92FF925B
S11309100F931F93CF93DF93EC016A017B018C014A
S1130920095F1F4F0E942E0DEB85FC8588819981FC
S1130930AA81BB81C82AD92AEA2AFB2AC882D98279
S1130940EA82FB820E171F0709F442C0C12CD12C86
S11309507601A480B58080819181A281B381AC01AC
S1130960BD017727B2FD0FC0488059806A807B8023
S1130970442255226622772221E04528462847282A
S113098089F420E00FC0488059806A807B8044222B
S113099055226622772221E044165506660677061C
S11309A009F020E0222371F0B0FF04C0C42AD52A44
S11309B0E62AF72A488159816A817B817260CF01D6
S11309C00E94E50FEA2DFB2D0E171F0711F603C039
S11309D0C12CD12C7601C094D094E094F0948881F9
S11309E09981AA81BB81C822D922EA22FB22C8822A
S11309F0D982EA82FB820E94190E688179818A81F8
S1130A009B81DF91CF911F910F91FF90EF90DF9029
S1130A10CF90BF90AF907F906F905F904F9008956C
S1130A200E947E0408950F931F9389019A01AB01DC
S1130A30BC0180E195E00E947A131F910F91089503
S1130A40CF93DF93EC010E942E0D209194203091DE
S1130A509520C9018C0F9D1F883B4BE0940758F4E7
S1130A602817390758F4E901CA56DF4D80939420BA
S1130A709093952005C0C0E0D0E002C0C0E0D0E073
S1130A800E94190ECE01DF91CF9108950895FC01C3
S1130A900396818392834FEF5FEFBA0143835483BC
S1130AA065837683878390878187928710820895F0
S1130AB0FC01128613860895CF93DF939C01FB01FA
S1130AC0DC011196CD91DC911297C483D5838E817C
S1130AD09F81868397838E819F81DC0114966D9319
S1130AE07C9315976E837F8322873387F9018081F6
S1130AF08F5F8083DF91CF9108950F931F93CF93DE
S1130B00DF93EB01088119812A813B810F3F4FEF6D
S1130B1014072407340721F4FC01A185B28511C010
S1130B20DC01139601C0DF011496ED91FC91159739
S1130B3040815181628173810417150726073707A5
S1130B4090F71496ED91FC911597EC83FD83C68381
S1130B50D783AE83BF831496CD93DC9315978A878E
S1130B609B87FC0120812F5F2083DF91CF911F9110
S1130B700F910895CF93DF93FC01A285B385C481BF
S1130B80D581868197818E839F83C681D781848115
S1130B9095818C839D8311968D919C911297E81772
S1130BA0F90731F48681978111968D939C9312975E
S1130BB0128613868C9181508C938C91DF91CF9106
S1130BC00895E0EAF0E082819281987F928308950B
S1130BD0CF92DF92EF92FF9231E1FC0130833197A3
S1130BE022E220833197A3E3A0836B01E12CF12C53
S1130BF0319760833197D0823197E082319761E3F6
S1130C006083319760E86083319767E86083319748
S1130C10108231971082319762E06083319763E0EC
S1130C206083319764E06083319765E06083319736
S1130C3066E06083319767E06083319768E06083A2
S1130C40319769E06083319760E160833197308345
S1130C50319732E13083319733E13083319734E196
S1130C603083319735E13083319736E130833197E2
S1130C7037E13083319738E13083319739E130837C
S1130C80319730E23083319731E2308331972083DA
S1130C90319723E220836A01319740833197D082D0
S1130CA0319726E22083319727E22083319728E287
S1130CB02083319729E22083319720E3208388978A
S1130CC0FF90EF90DF90CF90089583EF91E08093B1
S1130CD026089093270865E080E098E00E94670367
S1130CE061E080E098E00E947303A091BC2CB09175
S1130CF0BD2C0D900DBE0D900EBEEF91DF91CF91E6
S1130D00BF91AF919F918F917F916F915F914F911F
S1130D103F912F911F910F91FF90EF90DF90CF9013
S1130D20BF90AF909F908F907F906F905F904F9007
S1130D303F902F901F900F90FF91F093A200FF918E
S1130D40FFBFFF91089581E00895FF93FFB7FF93DC
S1130D50F091A200FF93F87FF093A2000F921F92EC
S1130D6011242F923F924F925F926F927F928F92B3
S1130D709F92AF92BF92CF92DF92EF92FF920F9326
S1130D801F932F933F934F935F936F937F938F930F
S1130D909F93AF93BF93CF93DF93EF93A091BC2C1A
S1130DA0B091BD2C0DB60D920EB60D920E94B70EE9
S1130DB0A091BC2CB091BD2C0D900DBE0D900EBE1B
S1130DC0EF91DF91CF91BF91AF919F918F917F91DF
S1130DD06F915F914F913F912F911F910F91FF90D0
S1130DE0EF90DF90CF90BF90AF909F908F907F90C7
S1130DF06F905F904F903F902F901F900F90FF91B6
S1130E00F093A200FF91FFBFFF910895CF939091BB
S1130E104231892B809342319091A000913041F06E
S1130E209091A000923021F09091A000943059F458
S1130E30882349F00E94E105C82F109242310E9494
S1130E40B70EC093A200CF910895FF93FFB7FF930D
S1130E50F091A200FF93F87FF093A2000F921F92EB
S1130E6011242F923F924F925F926F927F928F92B2
S1130E709F92AF92BF92CF92DF92EF92FF920F9325
S1130E801F932F933F934F935F936F937F938F930E
S1130E909F93AF93BF93CF93DF93EF93A091BC2C19
S1130EA0B091BD2C0DB60D920EB60D920E94E105C7
S1130EB0C82F0E94460DC093A20081E00E9406073D
S1130EC0A091BC2CB091BD2C0D900DBE0D900EBE0A
S1130ED0EF91DF91CF91BF91AF919F918F917F91CE
S1130EE06F915F914F913F912F911F910F91FF90BF
S1130EF0EF90DF90CF90BF90AF909F908F907F90B6
S1130F006F905F904F903F902F901F900F90FF91A4
S1130F10F093A200FF91FFBFFF911895F091A200FA
S1130F20FF93F87FF093A200FC01968DFF91F0935C
S1130F30A20081E0911180E00895DC01F091A2000B
S1130F40FF93F87FF093A2005E969C915E97FF91C9
S1130F50F093A20081E05F962C91291380E008951C
S1130F600F931F93CF93DF93EC01042F1E8D48A1A1
S1130F704423B9F1011116C050E08C819D810E9477
S1130F80A72028A18C819D81820F911D8C839D8334
S1130F902A813B818217930720F1888199818C8370
S1130FA09D831FC050E08E819F810E94A72088A14D
S1130FB090E09195819591092E813F81280F391FE9
S1130FC02E833F83488159812417350730F42A81C1
S1130FD03B81820F931F8E839F83023011F4111182
S1130FE011501F5F1E8F80E0DF91CF911F910F91F1
S1130FF00895FC0140A14423A9F050E026813781E3
S1131000240F351F2683378382819381281739075C
S113101020F08081918186839783CB0166817781DB
S11310200E94A7200895EF92FF920F931F93CF93EE
S11310308C01F091A200FF93F87FF093A200FC01D1
S1131040C2A11C16ACF48389811106C011C0F80139
S11310508389811105C00CC07801F3E1EF0EF11C06
S1131060C7010E94A30F81110E948810C15079F713
S11310708FEFF80182A3FF91F093A200F091A200F8
S1131080FF93F87FF093A200F801C1A11C16ACF401
S11310908085811106C011C0F8018085811105C0C9
S11310A00CC07801F8E0EF0EF11CC7010E94A30FF9
S11310B081110E948810C15079F78FEFF80181A344
S11310C0FF91F093A200CF911F910F91FF90EF90A9
S11310D00895CF93DF93EC01F091A200FF93F87F82
S11310E0F093A2004881598128A130E07F8D729F3E
S11310F0C001739F900D1124FA01E80FF91FEA83D0
S1131100FB831E8E4C835D83821B930B840F951F80
S11311108E839F838FEF89A38AA361110CC0888576
S1131120882389F0CE0108960E94A30F882359F0E2
S11311300E94A50608C0CE0108960E944705CE016C
S113114043960E944705FF91F093A20081E0DF914E
S1131150CF910895FF920F931F93CF93DF93082F9E
S1131160162FF42E6623C9F0869FC001112485969C
S11311700E942005EC01009749F416C00F8F18A3B4
S113118061E0CE010E946908FCA20EC085968883A6
S11311909983F4CFC883D983F1CF85E290E00E948C
S11311A02005EC01892BB1F7CE01DF91CF911F917E
S11311B00F91FF900895AF92BF92CF92DF92EF927A
S11311C0FF920F931F93CF93DF93CDB7DEB7299789
S11311D0CDBFDEBF7C015B012E833F8348875987E7
S11311E010E06C0188E0C80ED11CF091A200FF93BE
S11311F0F87FF093A200F701968D878D981710F071
S11312000230D1F4402FB501C7010E94B007F701A5
S11312109389992349F0C70143960E94A30F882319
S113122031F00E94A50603C081110E94A506FF911A
S1131230F093A20081E057C08E819F81A885B98573
S1131240892B8A2B8B2B29F4FF91F093A20080E049
S11312504AC0111105C0CE0101960E94191011E077
S1131260FF91F093A2000E942E0DF091A200FF9333
S1131270F87FF093A200F70181A18F3F09F411A236
S1131280F70182A18F3F09F412A2FF91F093A2000B
S1131290BE016A5F7F4FCE0101960E942A10811120
S11312A01CC0C7010E949D07882389F04E815F817D
S11312B068857985C6010E94450FC7010E941308FD
S11312C00E94190E811191CF0E94A5068ECFC701ED
S11312D00E9413080E94190E88CFC7010E941308A8
S11312E00E94190E80E02996CDBFDEBFDF91CF9119
S11312F01F910F91FF90EF90DF90CF90BF90AF9030
S11313000895AF92BF92CF92DF92FF920F931F93F3
S1131310CF93DF93EC016B015A01022F0E94E10588
S1131320F82E9E8D8F8D981710F00230E1F41AA1DB
S1131330402FB601CE010E94B0071F3F81F48B8974
S1131340882399F0CE0143960E94A30F882379F055
S1131350A114B10471F081E0F50180830BC01F5F1B
S11313601AA381E007C080E005C081E003C081E0EA
S113137001C081E0F092A200DF91CF911F910F9103
S1131380FF90DF90CF90BF90AF900895AF92BF923F
S1131390CF92DF92EF92FF920F931F93CF93DF933D
S11313A0CDB7DEB72997CDBFDEBF8C015B012E839D
S11313B03F8348875987E12C6C0183E1C80ED11C17
S11313C0F091A200FF93F87FF093A200F801F68C4D
S11313D0FF20B1F0B501C8010E94F907FA94F801A1
S11313E0F68E8085882339F0C80108960E94A30FE1
S11313F081110E94A506FF91F093A20081E05EC0D6
S11314008E819F81A885B985892B8A2B8B2B29F402
S1131410FF91F093A20080E051C0E11006C0CE011C
S113142001960E941910EE24E394FF91F093A20018
S11314300E942E0DF091A200FF93F87FF093A2007A
S1131440F80181A18F3F09F411A2F80182A18F3F15
S113145009F412A2FF91F093A200BE016A5F7F4FCC
S1131460CE0101960E942A1081111CC0C8010E945D
S11314708E07882389F04E815F8168857985C6014E
S11314800E94450FC8010E9413080E94190E811181
S113149097CF0E94A50694CFC8010E9413080E940A
S11314A0190E8ECFC8010E9413080E94190EC8019C
S11314B00E948E07882309F483CF80E02996CDBF4C
S11314C0DEBFDF91CF911F910F91FF90EF90DF90DE
S11314D0CF90BF90AF900895DF92EF92FF920F9359
S11314E01F93CF93DF93CDB7DEB72997CDBFDEBF70
S11314F08C014E835F8368877987D12C7C0183E1DB
S1131500E80EF11CF091A200FF93F87FF093A20083
S1131510F801868D882389F08150868F8085882301
S113152039F0C80108960E94A30F81110E94A506F4
S1131530FF91F093A20081E05EC08E819F81A88517
S1131540B985892B8A2B8B2B29F4FF91F093A20068
S113155080E051C0D11006C0CE0101960E9419103E
S1131560DD24D394FF91F093A2000E942E0DF091FC
S1131570A200FF93F87FF093A200F80181A18F3FAE
S113158009F411A2F80182A18F3F09F412A2FF917C
S1131590F093A200BE016A5F7F4FCE0101960E94C4
S11315A02A1081111CC0C8010E948E07882389F06B
S11315B04E815F8168857985C7010E94450FC80106
S11315C00E9413080E94190E81119CCF0E94A50647
S11315D099CFC8010E9413080E94190E93CFC80125
S11315E00E9413080E94190EC8010E948E078823C6
S11315F009F488CF80E02996CDBFDEBFDF91CF917B
S11316001F910F91FF90EF90DF900895F091A20049
S1131610FF93F87FF093A200FC01868DFF91F09375
S1131620A2000895CF93DF93EC01F091A200FF9301
S1131630F87FF093A20089A18F3F09F419A28AA12F
S11316408F3F09F41AA2FF91F093A2008E8D8111AD
S113165004C0CE0143960E94820FCE010E9413085B
S1131660DF91CF910895E091782CF091792C8081CD
S113167081110CC08FEF9FEFDC018093512C90936C
S1131680522CA093532CB093542C0895E091782CB1
S1131690F091792C0780F085E02D0084F185E02D10
S11316A082819381A481B5818093512C9093522C93
S11316B0A093532CB093542C08958F929F92AF9281
S11316C0BF92CF92DF92EF92FF92CF936B017C0196
S11316D0C42F80905B2C90905C2CA0905D2CB090DB
S11316E05E2C8091BC2C9091BD2C02960E94BA0570
S11316F08FEFC816D806E806F80669F4CC2359F02B
S11317006091BC2C7091BD2C6E5F7F4F80E69CE293
S11317100E945C053FC0C80CD91CEA1CFB1CE0916C
S1131720BC2CF091BD2CC282D382E482F582C81411
S1131730D904EA04FB0468F46091BC2C7091BD2CBC
S11317408091762C9091772C6E5F7F4F0E947D055F
S113175021C06091BC2C7091BD2C8091782C90910B
S1131760792C6E5F7F4F0E947D058091512C909162
S1131770522CA091532CB091542CC816D906EA06C9
S1131780FB0640F4C092512CD092522CE092532C80
S1131790F092542CCF91FF90EF90DF90CF90BF90B8
S11317A0AF909F908F900895C0E9DCE288818230E9
S11317B010F00E94A5060E942114F8CF4F925F9268
S11317C06F927F928F929F92AF92BF92CF92DF924D
S11317D0EF92FF920F93CF93DF934C016B015A0169
S11317E02901CA010E9420053C01892B09F4EAC0A1
S11317F08CE290E00E942005EC01892BB1F06B8E05
S11318007C8EA50165EA70E0C3010E94B02021E04E
S1131810A21AB1088B8D9C8DA80EB91ED6018C918D
S11318208D8F8C91811105C018C0C3010E9446059B
S1131830C9C0AE01425E5F4FF6013196B8E0CB0EEF
S1131840D11CCF012191DA012D93AD01DC018C91E2
S1131850882319F0EC15FD05A1F71CA2043008F04B
S113186003E00A8F6E01B2E0CB0ED11CC6010E94C8
S11318705805CE010E960E945805CA87DB8784E07E
S113188090E0A0E0B0E0801B9109A109B1098E8726
S11318909F87A88BB98BCE8BDF8B1FA218A619A6A6
S11318A01AA61BA6A201B401C5010E94E8058883FB
S11318B09983E114F10419F0F701C083D183F09105
S11318C0A200FF93F87FF093A20080915F2C8F5FBA
S11318D080935F2C8091BC2C9091BD2C892BA9F511
S11318E0C093BC2CD093BD2C80915F2C8130E9F542
S11318F080E99CE20E9447058BE99CE20E9447052F
S113190086EA9CE20E94470581EB9CE20E9447051F
S113191085E89CE20E9447058AE79CE20E9447050D
S11319208BE69CE20E94470580E69CE20E94470504
S113193085E89CE28093782C9093792C8AE79CE24A
S11319408093762C9093772C10C08091592C811120
S11319500CC0E091BC2CF091BD2C928D8A8D89171E
S113196020F0C093BC2CD093BD2C8091552C8F5F5C
S11319708093552C8DA38A8D90915A2C981710F42E
S113198080935A2CFBE08F9FC0011124B60180572D
S1131990934D0E945C05FF91F093A2008091592C15
S11319A0882361F0E091BC2CF091BD2C928D8A8D3E
S11319B0981730F40E94A50681E005C081E003C0B9
S11319C081E001C08FEFDF91CF910F91FF90EF90F5
S11319D0DF90CF90BF90AF909F908F907F906F904B
S11319E05F904F900895EF92FF920F930F2EFFE4B4
S11319F0EF2EFCE2FF2EF02D00E020E030E048EC7A
S1131A0050E061E070E284ED9BE00E94DE0B8130E7
S1131A1009F50E9438118130E9F4E0EAF0E08281AE
S1131A20887F82838FEF9FEFDC018093512C90930A
S1131A30522CA093532CB093542C81E08093592CB6
S1131A4010925B2C10925C2C10925D2C10925E2CE8
S1131A500E9465060F91FF90EF90089580914E2C9F
S1131A608F5F80934E2C0895F091A200FF93F87F2E
S1131A70F093A20060915B2C70915C2C80915D2CA2
S1131A8090915E2CFF91F093A2000895AF92BF92C3
S1131A90CF92DF92EF92FF920F931F93CF93DF9336
S1131AA080914E2C8111ADC0C0905B2CD0905C2CE9
S1131AB0E0905D2CF0905E2C8FEFC81AD80AE80AEB
S1131AC0F80AC0925B2CD0925C2CE0925D2CF092D0
S1131AD05E2CC114D104E104F104B9F48091782C92
S1131AE09091792C2091762C3091772C2093782C1E
S1131AF03093792C8093762C9093772C8091562C6C
S1131B008F5F8093562C0E94330B8091512C9091BF
S1131B10522CA091532CB091542CC816D906EA0625
S1131B20FB0610F4B12C5CC0B12C0F2EFBE0AF2EE1
S1131B30F02DE091782CF091792C808181110CC0EA
S1131B408FEF9FEFDC018093512C9093522CA09344
S1131B50532CB093542C44C0E091782CF091792C00
S1131B600780F085E02DC085D1858A819B81AC8179
S1131B70BD81C816D906EA06FB0648F48093512CA9
S1131B809093522CA093532CB093542C29C08E01C3
S1131B900E5F1F4FC8010E94BA05888D998D892B4D
S1131BA021F0CE010E960E94BA058A8D90915A2C8E
S1131BB0981710F480935A2CA89EC0011124B801E0
S1131BC08057934D0E945C05E091BC2CF091BD2C94
S1131BD09A8D828D981708F4ACCFBB24B394A9CF07
S1131BE0E091BC2CF091BD2CE28D8BE0E89FF001DC
S1131BF01124E057F34D8081823048F0BB24B39424
S1131C0006C08091582C8F5F8093582CB12C809102
S1131C10572C882311F0BB24B3948B2DDF91CF91E3
S1131C201F910F91FF90EF90DF90CF90BF90AF90F6
S1131C300895CF92DF92EF92FF920F931F93CF9369
S1131C40DF93F091A200FF93F87FF093A2008091BC
S1131C504E2C815080934E2C80914E2C81115CC06F
S1131C6080915F2C81112CC05AC0D7011796ED9139
S1131C70FC911897C085D185CE010E960E94BA05B5
S1131C808E010E5F1F4FC8010E94BA058A8D909184
S1131C905A2C981710F480935A2CD89EC001112402
S1131CA0B8018057934D0E945C05E091BC2CF091E3
S1131CB0BD2C9A8D828D981788F0C092572C0EC037
S1131CC0C0E0D0E00F2EFBE6EF2EFCE2FF2EF02D5D
S1131CD00F2EFBE0DF2EF02DCC24C394F70180817E
S1131CE08111C3CFCD2B11F00E94330BC091582C1E
S1131CF0CC2351F0D1E00E94460D8111D093572C92
S1131D00C150C9F71092582C8091572C882331F078
S1131D100E94A50681E003C080E001C080E0FF913D
S1131D20F093A200DF91CF911F910F91FF90EF905C
S1131D30DF90CF900895CF92DF92EF92FF926B01E4
S1131D407C01672B682B692B59F00E942E0D40E013
S1131D50C701B6010E945D0B0E94190E811102C0D9
S1131D600E94A506FF90EF90DF90CF900895809198
S1131D704E2C882321F081E08093572C08951092F3
S1131D80572CE091BC2CF091BD2C038CF48DE02DEC
S1131D9080819181A281B381853A954AA54AB54A49
S1131DA0D9F484819581A681B781853A954AA54A5B
S1131DB0B54A91F480859185A285B385853A954A83
S1131DC0A54AB54A49F484859585A685B785853A9B
S1131DD0954AA54AB54A61F06091BC2C7091BD2C1E
S1131DE08091BC2C9091BD2C635E7F4F0E94800338
S1131DF080915A2C282F30E09BE0899FF001112418
S1131E00E057F34D908191110EC04BE08150282F83
S1131E1030E0429FF001439FF00D1124E057F34D51
S1131E209081992399F39BE0929FA001939F500D79
S1131E301124DA01A057B34D1196ED91FC9112973C
S1131E400480F581E02D1196ED93FC9312974D5685
S1131E50534DE417F50729F444815581FD0141836D
S1131E6052839BE0929FF001939FF00D1124E05761
S1131E70F34D0180F281E02D208531852093BC2C27
S1131E803093BD2C80935A2C0895CF92DF92EF9219
S1131E90FF926A017B016091BC2C7091BD2C625F42
S1131EA07F4F0E947D0541E0C701B6010E945D0B92
S1131EB0FF90EF90DF90CF900895CF92DF92EF9252
S1131EC0FF920F931F9368017901E091BC2CF0916C
S1131ED0BD2C706846875787608B718B6091BC2CD2
S1131EE07091BD2C625F7F4F0E945C0541E0C70189
S1131EF0B6010E945D0B1F910F91FF90EF90DF9050
S1131F00CF900895CF92DF92EF92FF92CF936A0120
S1131F107B01C22F6091BC2C7091BD2C625F7F4FFE
S1131F200E945C05CC2321F0CC24CA94DC2C7601DD
S1131F304C2FC701B6010E945D0BCF91FF90EF902B
S1131F40DF90CF9008950F931F93CF93DF93DC011D
S1131F501796ED91FC911897C085D1858E01025F8B
S1131F601F4FC8010E94BA0580914E2C811116C0E2
S1131F700C501109C8010E94BA058A8D90915A2CFF
S1131F80981710F480935A2CBBE08B9FC001112446
S1131F90B8018057934D0E945C0505C0B8018BE6DB
S1131FA09CE20E945C05E091BC2CF091BD2C9A8DC2
S1131FB0828D891720F481E08093572C01C080E042
S1131FC0DF91CF911F910F9108950F931F93CF939A
S1131FD0DF937068FC014083518362837383C085FF
S1131FE0D1850E94BA058E010E5F1F4FC8010E9461
S1131FF0BA058A8D90915A2C981710F480935A2C14
S1132000FBE08F9FC0011124B8018057934D0E94BB
S11320105C05E091BC2CF091BD2C9A8D828D8917C2
S113202018F481E08093572CDF91CF911F910F9189
S113203008952091562CFC01208340915B2C5091F3
S11320405C2C60915D2C70915E2C41835283638380
S113205074830895CF92DF92EF92FF920F931F93B0
S1132060CF93DF93DB01F091A200FF93F87FF0930D
S1132070A20040915B2C50915C2C60915D2C70917E
S11320805E2C0D911D912D913C9113970F3FCFEF35
S11320901C072C073C0769F1FC01C180D280E38056
S11320A0F480E091562CEC01F881FE1729F04C15D0
S11320B05D056E057F05F8F44C195D096E097F090D
S11320C0401751076207730768F4FD01041B150BE1
S11320D0260B370B00831183228333830E9419104C
S11320E080E00AC01D921D921D921C92139781E0FC
S11320F003C080E001C081E0FF91F093A200DF9172
S1132100CF911F910F91FF90EF90DF90CF900895A2
S113211081E08093572C08958091592C882331F0C5
S113212080914E2C882321F080E0089581E0089569
S113213082E00895CF92DF92EF92FF92E091BC2C5F
S1132140F091BD2C6685778580899189E091BC2CBE
S1132150F091BD2CA091BC2CB091BD2C5A962C9121
S1132160C12CD12C76016894C2F8C21AD108E108B6
S1132170F108C686D786E08AF18AFF90EF90DF9057
S1132180CF900895CF92DF92EF92FF920F931F9317
S1132190FC01428353836483758382879387041786
S11321A0150726073707C0F00C191D092E093F092A
S11321B086859785A089B189081719072A073B07DF
S11321C000F5BF016E5F7F4F8091C62C9091C72CA4
S11321D00E947D0580E018C00C151D052E053F05E5
S11321E028F44C155D056E057F0568F4BF016E5F2C
S11321F07F4F8091C82C9091C92C0E947D0580E06E
S113220003C081E001C081E01F910F91FF90EF9026
S1132210DF90CF900895F091A200FF93F87FF093A0
S1132220A2008091C42C9091C52C892BE9F485EDF2
S11322309CE20E9447058AEC9CE20E94470585EDDA
S11322409CE28093C82C9093C92C8AEC9CE28093E6
S1132250C62C9093C72C40E069E085E00E94AA0850
S11322608093C42C9093C52CFF91F093A200089501
S1132270EF92FF920F930E940B118091C42C9091C6
S1132280C52C892B91F00F2EF2ECEF2EFCE2FF2EE1
S1132290F02D03E020E030E048EC50E066E070E22E
S11322A08BE492E10E94DE0B01C080E00F91FF906D
S11322B0EF9008958F929F92AF92BF92CF92DF9248
S11322C0EF92FF920F931F93CF93DF93CDB7DEB7B7
S11322D02997CDBFDEBFE091C42CF091C52C309777
S11322E089F169832A833B834C835D838E839F8337
S11322F06630FCF40E948C10823069F400E0A7017F
S11323009601BE016F5F7F4F8091C42C9091C52CC4
S11323100E94DB0818C000E020E030E0A901BE0103
S11323206F5F7F4F8091C42C9091C52C0E94DB0875
S11323300AC020E0A801BE016F5F7F4FCF010E9459
S1132340810901C080E02996CDBFDEBFDF91CF9126
S11323501F910F91FF90EF90DF90CF90BF90AF90BF
S11323609F908F9008952F923F924F925F926F9219
S11323707F928F929F92AF92BF92CF92DF92EF9211
S1132380FF920F931F93CF93DF931C010E94340D90
S11323902B013C018091BE2C9091BF2CA091C02CAC
S11323A0B091C12C481659066A067B0608F054C041
S11323B03CC00780F085E02D80809180A280B380AE
S11323C0C085D1858E010E5F1F4FC8010E94BA05DA
S11323D0ED89FE89CE0119958A89813031F58E8582
S11323E09F85A889B989880D991DAA1DBB1D8816CA
S11323F09906AA06BB0670F48A839B83AC83BD83CB
S1132400CA87DB87B8018091C82C9091C92C0E949F
S11324107D050BC0C12CD12C760100E010E0A50194
S1132420940160E0CE010E945A11E091C82CF09111
S1132430C92C80818111BDCF8091C62C9091C72C6D
S11324408093C82C9093C92CE093C62CF093C72C8E
S113245081E0F101808302C0F10110824092BE2C20
S11324605092BF2C6092C02C7092C12CC301B20157
S1132470DF91CF911F910F91FF90EF90DF90CF905C
S1132480BF90AF909F908F907F906F905F904F9090
S11324903F902F900895CF93DF93CDB7DEB72E975B
S11324A0CDBFDEBFCE0101961C01A82EB32CE09156
S11324B0C82CF091C92C8081882309F403C10780BA
S11324C0F085E02D40805180628073800E942E0D43
S11324D0C1010E94B3116B877C878D879E87898198
S11324E081115EC08B859C85AD85BE85841595055F
S11324F0A605B705E8F10E94190EE091C82CF091E9
S1132500C92C0780F085E02D80849184C401029653
S11325100E94BA05D40152968C915297813001F5EC
S11325201E964D915D916D917C915197440D551D71
S1132530661D771D730162010B851C852D853E8503
S1132540C4010E94C210882359F0C12CD12C7601F9
S113255000E010E0A301920160E0C4010E945A115E
S1132560D4015596ED91FC915697C40119959CC0E0
S113257020E0B301A2018B859C85AD85BE85481BF7
S1132580590B6A0B7B0B8091C42C9091C52C0E9433
S1132590120B0E94190E811187C00E94A50684C0E7
S11325A00E94190E81C0898188236CF44E815F8159
S11325B068857985EA81FB818C819D811995898162
S11325C088230CF471C08E809F80D4011C968D9159
S11325D09C911D97892B21F0C40102960E94BA0593
S11325E0CE010A960E94B3118B019C018981082EA9
S11325F0000C990BAA0BBB0B8A30910508F054C050
S1132600FC018827E250FF4F8F4F0C948B20CA8027
S1132610DB80EC80FD80F4014685578560897189F3
S11326204C0D5D1D6E1D7F1DC4010E94C2108823C8
S1132630D9F1D4015596ED91FC915697C4011995A1
S1132640F4018289813081F54A815B816C817D81CD
S113265086859785A089B1899A01AB01280F391F16
S11326604A1F5B1FC12CD12C760100E010E060E012
S1132670C4010E945A1118C04A815B816C817D811A
S1132680D4011E964D935D936D937C935197400FA7
S1132690511F621F731F68017901C4010E94C21097
S11326A003C0C4010E94460520E030E0A9016A2D60
S11326B07B2D8091C42C9091C52C0E94C609811158
S11326C072CFF5CE0E942E0DC1010E94B3116B870B
S11326D07C878D879E878981811162CFE091C62C8A
S11326E0F091C72C808121E0811120E0412C512CF4
S11326F032013FCF0F931F93CF93DF93CDB7DEB754
S11327002997CDBFDEBFEEEFE9838A839B836C8379
S11327107D832E833F834887598720E0A801BE012B
S11327206F5F7F4F8091C42C9091C52C0E948109CA
S11327302996CDBFDEBFDF91CF911F910F910895F0
S1132740E0E5F0E0808181608083818180FFFDCFBE
S113275080E00E9452038EE10E94420360E080E028
S11327600E944C0343E060E080E40E943303E0E510
S1132770F0E0808188608083818183FFFDCF64E005
S113278080EC0E943D03E0E5F0E08081806180837D
S113279060E080E00E944C03E0E5F0E0818184FF8A
S11327A0FDCF84E00E94520387E00E944203089513
S11327B088E08093840600E816E0C8E0F801C78347
S11327C064E670E080E090E00E949B0EF7CF0EE09C
S11327D010E20F2EF2ECCF2EF0E3DF2EF02D0F2EB1
S11327E0F2E0EF2EF1E3FF2EF02DCEE1D0E2BB2498
S11327F0B3940E944D171F930F931F921F921F9221
S11328001F920E945817F6019181F70181811F924E
S11328109F931F928F93DF93CF931F921F921F92C8
S1132820BF920E9458170E94F30C64E670E080E0A7
S113283090E00E949B0EEDB7FEB77096EDBFFEBF11
S1132840D8CF0895EF92FF920F93CF93DF930E9416
S1132850131ED82F0E94A0130E94D115C1E0C0936B
S1132860A10688E0809381060F2EF3ECEF2EF1E3AE
S1132870FF2EF02D01E020E030E042ED50E06AE26E
S113288070E288ED93E10E94DE0B0F2EF7ECEF2E41
S1132890F1E3FF2EF02D20E030E04CE251E063E361
S11328A070E281E49CE10E94DE0B0F2EF5ECEF2E2A
S11328B0F1E3FF2EF02D20E030E042ED50E06EE336
S11328C070E28BEF9AE10E94DE0B0F2EFBE4EF2EF9
S11328D0F2E3FF2EF02D20E030E042ED50E06BE417
S11328E070E287EE93E10E94DE0B0F2EFDE4EF2EE3
S11328F0F2E3FF2EF02D20E030E04CE251E063E5FE
S113290070E288E692E00E94DE0B0E9483038093CB
S1132910442E9093452E0E9483038093C931909353
S1132920CA310E946C010E944D178EE090E29F9381
S11329308F931F921F921F921F920E9458178EE529
S113294090E29F938F931F921F921F92CF930E94A6
S113295058178BE690E29F938F931F921F921F92BA
S113296082E08F930E9458171F92DF9384E790E2CE
S11329709F938F931F921F921F9283E08F930E94C5
S113298058170E94F30C8DB79EB74A968DBF9EBF11
S113299080E090E0DF91CF910F91FF90EF90089548
S11329A01F920F920FB60F9211240BB60F922F9312
S11329B03F934F935F936F937F938F939F93AF93C3
S11329C0BF93EF93FF93CF93DF931F92CDB7DEB7FF
S11329D019829E012F5F3F4F41E050E060E070E0BC
S11329E080915132909152320E94130560E080E050
S11329F09BE00E9467031092060B0F90DF91CF912A
S1132A00FF91EF91BF91AF919F918F917F916F91C2
S1132A105F914F913F912F910F900BBE0F900FBE7E
S1132A200F901F901895CF92DF92EF92FF920F9321
S1132A306B017C0182E0C816D104E104F10408F4BE
S1132A404EC0E0E0FBE081E0868310A211A260E0CA
S1132A5080E09BE00E946D038EEFC8168FEFD806CE
S1132A60E104F10470F4F694E794D794C794C09207
S1132A70260BD092270B65E080E09BE00E94670361
S1132A8019C080E4C81682E4D8068FE0E806F10491
S1132A9088F4689414F8F694E794D794C794169439
S1132AA0D1F7C092260BD092270B67E080E09BE021
S1132AB00E9467030F2EF4EFCF2EDD24D394E12C74
S1132AC0F12CF02D00E021E041E050E060E070E006
S1132AD080915132909152320E94980311C0E0E0EB
S1132AE0FBE081E0868310A211A260E080E09BE01D
S1132AF00E946D03C12CD12C76016894C1F8B3CF28
S1132B000F91FF90EF90DF90CF9008958295807F92
S1132B10E0E0F6E09481282F2F609223948394813F
S1132B20892B848308951F93CF93DF93C0E6D6E067
S1132B3014E01D8361E070E080E090E00E941315D2
S1132B401E83DF91CF911F910895CF93C82F829553
S1132B508F700E948615E0E6F6E081E0868382E0CD
S1132B6086830E9493158C2F8F700E9486150E9475
S1132B709315CF910895CF93C82F82958F700E949B
S1132B808615E0E6F6E081E0858382E086830E9494
S1132B9093158C2F8F700E9486150E949315CF91E8
S1132BA00895EF92FF920F93E0E0F6E080E18183D5
S1132BB080E2818380E4818380E88183A0E6B6E0BB
S1132BC081E011968C93119782E011968C93119762
S1132BD084E011968C93119784818F70848314966A
S1132BE08C911497887F14968C9340E066E188E07A
S1132BF00E94AA0880934F32909350320E9483031C
S1132C008093513290935232E12CF12C01E020E078
S1132C1030E04EE551E064E870E28FE696E10E9410
S1132C20DE0B0F91FF90EF9008958130910579F0BC
S1132C301CF4892B39F019C08230910569F003978F
S1132C4081F013C080E8860F0E94A5150EC080ECA9
S1132C50860F0E94A51509C084E9860F0E94A51558
S1132C6004C084ED860F0E94A51567E270E080E041
S1132C7090E00E94131508950E94BB156BE270E06A
S1132C8080E090E00E94131508950F931F93CF9353
S1132C90DF93FC01808181110AC011C089918823CE
S1132CA071F00E943C160C171D07C1F708C08F0174
S1132CB00E943C16E80121960C5E1F4FEFCFDF9176
S1132CC0CF911F910F910895CF93DF93EA010E9452
S1132CD01516CE010E944516DF91CF910895CF932A
S1132CE0DF93CDB7DEB7C656D109CDBFDEBF5E01D7
S1132CF041E5A40EB11CFE01319620E208C02193E7
S1132D00E817F907E1F7FC01A816B90619F0CF0195
S1132D104496F5CF60E47CE980E090E00E941315CE
S1132D2083E00E94861568E873E180E090E00E94E9
S1132D3013150E94931560EA70E080E090E00E9411
S1132D4013150E94931560EA70E080E090E00E9401
S1132D5013150E94931560EA70E080E090E00E94F1
S1132D60131582E00E9486150E94931588E20E9442
S1132D70A51580E10E94A5158CE00E94A51586E0AA
S1132D800E94A51510E26E0151E5C50ED11C0F2E4F
S1132D90F4E14F2EF02D0F2EF6E18F2E912CF02D15
S1132DA05C2C0D2D68EC70E080E090E00E949B0E9E
S1132DB040E050E0BA0180915132909152320E9429
S1132DC05D04672B682B692B09F449C042E050E08D
S1132DD060E070E080915132909152320E945D0423
S1132DE0FE01319608C01193E817F907E1F7FC01D9
S1132DF08A159B05A1F1CF014496F5CF2FEF3FEF44
S1132E00A901652D702F80914F32909150320E940C
S1132E10C609882321F1F6012181822F90E044978D
S1132E20F4F482818823D9F0908130E0D901499E5D
S1132E30A00DB11D112441E050E04C0F5D1FA40F03
S1132E40B51F3396A401421B530B9A012C0D3D1D53
S1132E508D93E217F30719F081918111F9CF8091D5
S1132E604F32909150320E94060B8111C7CFCE0190
S1132E7001967C01612C712CA70160E070E0C30114
S1132E800E9464169FEF691A790AE4E1EE0EF11CC0
S1132E90F4E06F16710481F785CF42E050E060E002
S1132EA070E080915132909152320E947E040895D4
S1132EB02F923F924F925F926F927F928F929F9246
S1132EC0AF92BF92CF92DF92EF92FF920F931F9334
S1132ED0CF93DF93CDB7DEB76D97CDBFDEBF2BA900
S1132EE02B8FAFA9B8AD7E0139E3E30EF11C28E0C6
S1132EF03DE2E4EFFCE21192E217F307E1F70F2E53
S1132F00F0EEAF2EFCE2BF2EF02D24EF3CE2F501F3
S1132F101192E217F307E1F7812C912C0F2EF4EFB5
S1132F20CF2EFCE2DF2EF02DFCC2853209F0E8C280
S1132F302D0182E0480E511C11968C91853609F4BE
S1132F40DBC138F48336C1F008F048C0853251F053
S1132F50E7C28337F9F0883709F468C0863609F088
S1132F60DFC28CC0F401E052F34D95E29083AFEFE1
S1132F708A1A9A0AD201D5C2F401E052F34DD7015C
S1132F808C918083BFEF8B1A9B0AF70132967F01E5
S1132F90D201C7C2A7014E5F5F4FD7018D919C91AB
S1132FA09C01B401F401E052F34D00E010E006C0CE
S1132FB0D901FD909D01F1920F5F1F4FDC010D902F
S1132FC00020E9F71197A81BB90B0A171B0780F318
S1132FD04D01860E971E7A01D201A3C287010E5FAE
S1132FE01F4F4AE0B601F701808191810E94B7200A
S1132FF09401D401A052B34D44EF5CE280E090E030
S113300005C0FA016191AF016D930196F60101903B
S11330100020E9F73197E45FFC428E179F0788F39D
S11330204F01820E931E7801D2017BC287010E5F8D
S11330301F4F40E1B601D7018D919C910E94B720AA
S11330409401F401E052F34D44EF5CE280E090E03F
S113305005C0DA016D91AD0161930196D6010D9021
S11330600020E9F71197A45FBC428A179B0788F3F5
S11330704D01820E931E7801D20153C21701B4E0B0
S11330802B0E311CD7018D919D910D90BC91A02DDB
S11330908F8B988FA98FBA8F20E030E0A901BC01F3
S11330A0CD010E94A61E811105C020E3F6012083F4
S11330B0118204C120E030E0A9016F89788D898DE7
S11330C09A8D0E94A61E88239CF4EDE2D601EC930F
S11330D08F89988DA98DBA8DB0588F8B988FA98FB1
S11330E0BA8F0F2EF5EF6F2EFCE27F2EF02D01C06C
S11330F0360120E030E040E85FE36F89788D898D08
S11331009A8D0E94052088230CF444C200E010E04C
S113311020E030E040E251E46F89788D898D9A8D0A
S11331200E94AB1E6F8B788F898F9A8F0F5F1F4F12
S113313020E030E040E85FE30E940520882344F764
S11331402DEC3CEC4CEC5DE36F89788D898D9A8D88
S11331500E94A61E88231CF01AC000E010E020E0A4
S113316030E040E251E46F89788D898D9A8D0E9418
S11331700A206F8B788F898F9A8F015011092DEC5B
S11331803CEC4CEC5DE30E94A61E882344F310162D
S11331901106ACF57301D301A00FB11FAC8FBD8F25
S11331A03D016F89788D898D9A8D20E030E040E271
S11331B051E40E940A206F8B788F898F9A8F0E9426
S11331C01D1F20E3260FF70121937F01072E000C1A
S11331D0880B990B0E94551F9B01AC016F89788D58
S11331E0898D9A8D0E94391EE614F704F1F66F8BCF
S11331F0788F898F9A8F0115110589F4DBC1C80175
S1133200E0E3D301EC937301F2E0EF0EF11C2EE244
S113321011962C9399236CF000E010E01FC0EC8C05
S1133220FD8C3FEFE31AF30AEEE2AC8DBD8DEC9317
S113323012C000E010E0FFEFEF1AFF0AF701319728
S113324020E3208301970F5F1F4F992324F4043058
S113325011058CF331C00430110574F5370184E095
S113326090E0801B910BE80EF91E87016F89788D21
S1133270898D9A8D20E030E040E251E40E940A20DA
S11332806F8B788F898F9A8F0E941D1F20E3260FE2
S1133290D3012D933D01072E000C880B990B0E943E
S11332A0551F9B01AC016F89788D898D9A8D0E9481
S11332B0391E60167106F1F6F70110829401F401CB
S11332C0E052F34D44EF5CE280E090E005C0DA01A7
S11332D06D91AD0161930196D6010D900020E9F73F
S11332E01197A45FBC428A179B0788F34D01820E95
S11332F0931E7101D20115C11701B4E02B0E311CCC
S1133300D7018D919D910D90BC91A02D8F8B988F9D
S1133310A98FBA8F20E030E0A901BC01CD010E9441
S1133320A61E811105C020E3F60120831182CAC0C4
S113333020E030E0A9016F89788D898D9A8D0E94F3
S1133340A61E88239CF4EDE2D601EC938F89988D18
S1133350A98DBA8DB0588F8B988FA98FBA8F0F2EE5
S1133360F5EF6F2EFCE27F2EF02D01C0360120E038
S113337030E040E85FE36F89788D898D9A8D0E94F3
S113338005208823DCF000E010E020E030E040E29B
S113339051E46F89788D898D9A8D0E94AB1E6F8B55
S11333A0788F898F9A8F0F5F1F4F20E030E040E8BD
S11333B05FE30E940520882344F702C000E010E088
S11333C02DEC3CEC4CEC5DE36F89788D898D9A8D06
S11333D00E94A61E8823C4F420E030E040E251E4B9
S11333E06F89788D898D9A8D0E940A206F8B788FD2
S11333F0898F9A8F015011092DEC3CEC4CEC5DE364
S11334000E94A61E882344F320E030E040E251E409
S11334106F89788D898D9A8D0E940A206F8B788FA1
S1133420898F9A8F0E941D1F20E3260FD3012C93AE
S1133430072E000C880B990B0E94551F9B01AC01B1
S11334406F89788D898D9A8D0E94391EF801319784
S1133450EC8FFD8FEEE2D3011196EC9383010E5FA6
S11334601F4F7301F6E0EF0EF11C20E030E040E264
S113347051E40E940A206F8B788F898F9A8F0E9463
S11334801D1F20E3260FD8012D938D01072E000C5C
S1133490880B990B0E94551F9B01AC016F89788D95
S11334A0898D9A8D0E94391E0E151F05F1F625E6A9
S11334B0F3012683B301695F7F4F4AE08C8D9D8DB4
S11334C00E94B7209401F401E052F34D44EF5CE212
S11334D080E090E005C0DA016D91AD016193019641
S11334E0D6010D900020E9F71197A45FBC428A171A
S11334F09B0788F34D01820E931E7101D20111C006
S11335008A3029F0F401E052F34D808304C0F401C1
S1133510E052F34D10821196EFEF8E1A9E0A01C00D
S1133520D2018C91811101CD8DA99EA9880D991D7F
S113353044973CF084E190E04C012DA93EA9821A05
S1133540930AFE013396CE014796DF011D92A81718
S1133550B907E1F73B8D39838DA98A8318141904BF
S11335605CF4CE01880D991D0396D5012D915D0162
S113357021938E179F07C9F700E02FEF3FEFA901B2
S1133580BE016F5F7F4F80914F32909150320E9405
S1133590DB081BC02DEC3CEC4CEC5DE36F89788DB3
S11335A0898D9A8D0E94A61E88230CF4D6CD80E0C6
S11335B090E026CE20E3EC8DFD8D20837F0132E068
S11335C0E30EF11C8EE2818346CE6D96CDBFDEBF45
S11335D0DF91CF911F910F91FF90EF90DF90CF90EB
S11335E0BF90AF909F908F907F906F905F904F901F
S11335F03F902F900895CF93DF93CDB7DEB7C0549B
S1133600D109CDBFDEBF212C312CA12CB12C0F2E22
S1133610FBE08F2EF2E39F2EF02D0F2EF0E16F2EA4
S1133620FDE27F2EF02D0F2EF0E34F2EFDE25F2EF4
S1133630F02DCC24CA94DC2C760100E021E043E098
S113364050E060E070E08091C9319091CA310E94ED
S1133650980363707727672B09F4F3C0ABECB1E3ED
S1133660ED90FC909701220F331F220F331FA3E428
S1133670B1E3ED91FC91CF01880F991F880F991F39
S113368063E070E00E947720A7014E0F5F1F7B016B
S1133690E21AF30AF901E61BF70BBF01EBECF1E3C5
S11336A0DE011196219131918FEFA81AB80A4A9D33
S11336B0C0014B9D900D5A9D900D1124821B930BBC
S11336C08D939D9395E0A916B10411F4A12CB12C0E
S11336D0E815F90539F7A2E0EA16F1040CF4B8C0CC
S11336E0623071050CF0ADC04FEF5FEFBA0180910D
S11336F05332909154320E946C0A81112DC0B5C08E
S113370021913191B901625071096830710588F0D5
S1133710685071096530710570F065507109643045
S1133720710558F0235131092530310538F413E07F
S113373005C010E003C011E001C012E0880F880F3B
S1133740912F9370892B4E175F07D1F68D93FA0151
S11337504A165B0661F410C0A8E2BDE2F101EE0F67
S1133760FF1F81E090E08C0F9D1FE80FF91FAF0150
S1133770485F5F4F80E0C4CF90E2290E311C00E027
S113378020E030E0A90160E070E080915332909134
S113379054320E94DB084FEF5FEFBA01809155323B
S11337A0909156320E946C0A81112DC04AC0219119
S11337B03191B901625071096830710588F068501F
S11337C071096530710570F06550710964307105D7
S11337D058F0235131092430310538F413E005C081
S11337E010E003C011E001C012E0880F880F912F90
S11337F09370892B4E175F07D1F68D93FA016A16E1
S11338007B0661F410C0A8E0BDE2F101EE0FFF1FDA
S113381081E090E08C0F9D1FE80FF91FAF01485F16
S11338205F4F80E0C4CF00E020E030E0A90160E019
S113383070E080915532909156320E94DB08212C21
S1133840312C64E670E080E090E00E949B0EF1CEA3
S11338504FEF5FEFBA0180915332909154320E943E
S11338606C0A882309F497CF77CF4FEF5FEFBA0143
S113387080915532909156320E946C0A8111C3CFC7
S1133880E0CFCF93DF93CDB7DEB72C97CDBFDEBFAC
S11338901F82188619861A86A12CB12C212C312C52
S11338A02FE730E00F2EFFE76F2E712CF02D2B87C2
S11338B03C87CC24CA94DC2C760100E021E043E070
S11338C050E060E070E08091442E9091452E0E947B
S11338D0980360FFCFC080910020882309F49CC125
S11338E000E010E092E0291631046CF041E050E071
S11338F060E070E08091C9319091CA310E947E04E9
S1133900212C312CADC0F801EE5FFE4C8081882360
S11339100CF054C0F801EE5FFE4C808190E0681614
S11339207906ACF4F801EE5FFE4C80818D3D08F41D
S113393097C0F801EE5FFE4C6080712C0D831E83EE
S1133940412C512C21E030E029833A8389C0F801CD
S1133950EE5FFE4C80818B3A20F03FEF831A930A8E
S11339607FC0F801EE5FFE4C80818A3A08F078C08F
S113397089819A81019709F073C093E089169104B3
S11339800CF46EC0E985FA85EE0FFF1FE553FE4C7B
S11339902D8120833E81318389859A85019689878B
S11339A09A879FEF291A390A19821A82812C912C3D
S11339B00F2EFFE76F2EF02D712C52C0F801EE5F31
S11339C0FE4C808190E02B853C8582179307BCF4E4
S11339D0F801EE5FFE4C8081883208F041C0F801A6
S11339E0EE5FFE4C3081832F90E08B879C870B83A6
S11339F01C8344244394512C19821A8231C0F80147
S1133A00EE5FFE4C8081853520F42FEF821A920AF6
S1133A1027C0F801EE5FFE4C8081893508F131E062
S1133A2043165104E9F483E088169104CCF0EF8145
S1133A30F885EE0FFF1FED5BFE4C9B8190832C817C
S1133A4021838F81988501968F8398879FEF291A08
S1133A50390A412C512C812C912C2FE72B871C8661
S1133A600F5F1F4F8091002090E0081719070CF496
S1133A7039CFD2C061FFD0C080910020882309F4DF
S1133A80CBC000E010E032E0A316B1046CF042E0D9
S1133A9050E060E070E08091C9319091CA310E9499
S1133AA07E04A12CB12CAFC0F801EE53FF4C8081F1
S1133AB088230CF056C0F801EE53FF4C808190E04F
S1133AC068167906ACF4F801EE53FF4C80818D3D05
S1133AD008F499C0F801EE53FF4C6080712C0D83FB
S1133AE01E83412C512C81E090E089839A838BC002
S1133AF0F801EE53FF4C80818B3A20F09FEF891A36
S1133B00990A81C0F801EE53FF4C80818A3A08F08B
S1133B107AC029813A812130310509F074C033E03B
S1133B20831691040CF46FC0E985FA85EE0FFF1F2C
S1133B30E553FE4C8D8180839E81918329853A854E
S1133B402F5F3F4F29873A873FEFA31AB30A1982A1
S1133B501A82812C912C0F2EFFE76F2EF02D712CE1
S1133B6052C0F801EE53FF4C808190E02B853C85D8
S1133B7082179307BCF4F801EE53FF4C808188321E
S1133B8008F041C0F801EE53FF4C3081832F90E0E0
S1133B908B879C870B831C8344244394512C198268
S1133BA01A8231C0F801EE53FF4C8081883520F42D
S1133BB02FEF821A920A27C0F801EE53FF4C80813E
S1133BC0863508F131E043165104E9F483E08816A0
S1133BD09104CCF0EF81F885EE0FFF1FED5BFE4CF6
S1133BE09B8190832C8121838F81988501968F837B
S1133BF098879FEFA91AB90A412C512C812C912C3A
S1133C002FE72B871C860F5F1F4F8091002090E0C9
S1133C10081719070CF437CF64E670E080E090E0F1
S1133C200E949B0E46CE8091780085FF05C080E2FD
S1133C308093780081E008958091780080FF05C02A
S1133C4081E08093780082E008958091780084FF79
S1133C5005C080E18093780083E008958091780026
S1133C6081FF05C082E08093780084E0089582E0BB
S1133C7008955058BB27AA270E94511E0C94CB1FAD
S1133C800E94BD1F38F00E94C41F20F039F49F3FEA
S1133C9019F426F40C94BA1F0EF4E095E7FB0C9487
S1133CA0B41FE92F0E94DC1F58F3BA176207730789
S1133CB08407950720F079F4A6F50C94FE1F0EF402
S1133CC0E0950B2EBA2FA02D0B01B90190010C0128
S1133CD0CA01A0011124FF27591B99F0593F50F440
S1133CE0503E68F11A16F040A22F232F342F442798
S1133CF0585FF3CF469537952795A795F040539590
S1133D00C9F77EF41F16BA0B620B730B840BBAF05F
S1133D109150A1F0FF0FBB1F661F771F881FC2F7CA
S1133D200EC0BA0F621F731F841F48F487957795DE
S1133D306795B795F7959E3F08F0B0CF9395880F98
S1133D4008F09927EE0F9795879508950E94901F84
S1133D5008F481E008950E94BF1E0C94CB1F0E94BA
S1133D60C41F58F00E94BD1F40F029F45F3F29F0A2
S1133D700C94B41F51110C94FF1F0C94BA1F0E9491
S1133D80DC1F68F39923B1F3552391F3951B550B6D
S1133D90BB27AA2762177307840738F09F5F5F4F1A
S1133DA0220F331F441FAA1FA9F335D00E2E3AF059
S1133DB0E0E832D091505040E695001CCAF72BD071
S1133DC0FE2F29D0660F771F881FBB1F26173707C2
S1133DD04807AB07B0E809F0BB0B802DBF01FF27F4
S1133DE093585F4F3AF09E3F510578F00C94B41FFE
S1133DF00C94FF1F5F3FE4F3983ED4F386957795C8
S1133E006795B795F7959F5FC9F7880F911D9695AC
S1133E10879597F90895E1E0660F771F881FBB1F08
S1133E20621773078407BA0720F0621B730B840BB5
S1133E30BA0BEE1F88F7E09508950E94241F68943A
S1133E40B1110C94FF1F08950E94E41F88F09F573E
S1133E5098F0B92F9927B751B0F0E1F0660F771FAA
S1133E60881F991F1AF0BA95C9F714C0B13091F0A0
S1133E700E94FE1FB1E008950C94FE1F672F782F57
S1133E808827B85F39F0B93FCCF386957795679565
S1133E90B395D9F73EF490958095709561957F4FD1
S1133EA08F4F9F4F0895E89409C097FB3EF4909577
S1133EB08095709561957F4F8F4F9F4F9923A9F0FF
S1133EC0F92F96E9BB279395F6958795779567958E
S1133ED0B795F111F8CFFAF4BB0F11F460FF1BC0D2
S1133EE06F5F7F4F8F4F9F4F16C0882311F096E965
S1133EF011C0772321F09EE8872F762F05C0662313
S1133F0071F096E8862F70E060E02AF09A95660FCB
S1133F10771F881FDAF7880F9695879597F9089584
S1133F20990F0008550FAA0BE0E8FEEF16161706C6
S1133F30E807F907C0F012161306E407F50798F02E
S1133F40621B730B840B950B39F40A2661F0232B47
S1133F50242B252B21F408950A2609F4A140A695C3
S1133F608FEF811D811D089597F99F6780E870E0A8
S1133F7060E008959FEF80EC089500240A941616DB
S1133F80170618060906089500240A941216130643
S1133F90140605060895092E0394000C11F48823D1
S1133FA052F0BB0F40F4BF2B11F460FF04C06F5FED
S1133FB07F4F8F4F9F4F089557FD9058440F551FC3
S1133FC059F05F3F71F04795880F97FB991F61F097
S1133FD09F3F79F087950895121613061406551F0E
S1133FE0F2CF4695F1DF08C0161617061806991F7A
S1133FF0F1CF86957105610508940895E894BB276F
S113400066277727CB0197F908950E94901F08F43B
S11340108FEF08950E941D200C94CB1F0E94BD1F9A
S113402038F00E94C41F20F0952311F00C94B41FA3
S11340300C94BA1F11240C94FF1F0E94DC1F70F310
S1134040959FC1F3950F50E0551F629FF001729F39
S1134050BB27F00DB11D639FAA27F00DB11DAA1F48
S1134060649F6627B00DA11D661F829F2227B00D95
S1134070A11D621F739FB00DA11D621F839FA00D20
S1134080611D221F749F3327A00D611D231F849F70
S1134090600D211D822F762F6A2F11249F575040C7
S11340A09AF0F1F088234AF0EE0FFF1FBB1F661F42
S11340B0771F881F91505040A9F79E3F510580F00B
S11340C00C94B41F0C94FF1F5F3FE4F3983ED4F3A9
S11340D0869577956795B795F795E7959F5FC1F7AF
S11340E0FE2B880F911D9695879597F9089597FB58
S11340F0072E16F4009407D077FD09D00E94932070
S113410007FC05D03EF4909581959F4F08957095D6
S113411061957F4F0895EE0FFF1F881F8BBF079097
S1134120F691E02D1994AA1BBB1B51E107C0AA1FED
S1134130BB1FA617B70710F0A61BB70B881F991F44
S11341405A95A9F780959095BC01CD010895FB017E
S1134150DC0102C001900D9241505040D8F70895FF
S1134160DC0101C06D9341505040E0F70895BB2736
S11341704A3031F4992322F4BDE2909581959F4F02
S11341800C94C320BB27FB015527AA27880F991F2E
S1134190AA1FA41710F0A41B83955051B9F7A05D72
S11341A0AA3308F0A95DA193009779F7B111B193EF
S11341B01192CB010C94DC20DC01FC01672F71917E
S11341C07723E1F7329704C07C916D9370836291F9
S10F41D0AE17BF07C8F30895F894FFCFA2
S11341DC4049444C4500546D72205376630046723A
S11341EC656552544F532031302E302E3100613AD4
S11341FC20256420623A202564006C6564426C6955
S113420C6E6B00726561645F5065616B73007068FE
S113421C6173655F64657465637400646973706C61
S113422C617900646D6148616E646C65720045442B
S113423C55426F61726420312E300054656D706C80
S113424C617465005265736574526561736F6E3A7F
S113425C2025640064697370557064617465000092
S9030000FC
