:100000000C941A010C9443010C9443010C94430189
:100010000C9443010C9443010C9443010C94430150
:100020000C9443010C9443010C9443010C94430140
:100030000C9443010C9443010C944C050C94430123
:100040000C9443010C9443010C9443010C94430120
:100050000C9443010C9443010C9443010C94430110
:100060000C9443010C9443010C9443010C94430100
:100070000C9443010C9443010C9443010C944301F0
:100080000C9443010C9443010C9443010C944301E0
:100090000C9443010C9443010C9443010C944301D0
:1000A0000C9443010C9443010C9443010C944301C0
:1000B0000C9443010C9443010C9443010C944301B0
:1000C0000C9443010C9443010C9443010C944301A0
:1000D0000C9443010C9443010C9443010C94430190
:1000E0000C9443010C9443010C9443010C94430180
:1000F0000C9443010C9443010C9443010C94430170
:100100000C9443010C9443010C9443010C9443015F
:100110000C9443010C9443010C9443010C9443014F
:100120000C9443010C9443010C9443010C9443013F
:100130000C9443010C9443010C9443010C9443012F
:100140000C9443010C9443010C9443010C9443011F
:100150000C9443010C9443010C9443010C9443010F
:100160000C9443010C9443010C9443010C944301FF
:100170000C9443010C9443010C9443010C944301EF
:100180000C9443010C9443010C9443010C944301DF
:100190000C9443010C9443010C9443010C944301CF
:1001A0000C9443010C9443010C9443010C944301BF
:1001B0000C94D0110C9443010C9443010C94430112
:1001C0000C9443010C9443010C9443010C9443019F
:1001D0000C9443010C9443010C9443010C9443018F
:1001E0000C9443010C9443010C9443010C9443017F
:1001F0000C9443010C9443010C944301941094100B
:100200009410E110C910DE1094109410E110C91080
:100210000C94E1100C94C9100C9437030C94DE106C
:100220000C9494100C94D80F0C946F130C946511CB
:100230000C94610911241FBECFEFCDBFDFE3DEBFF9
:1002400000E00CBFE3EDFCE28AEA90E48193E03049
:10025000F907E0F310E2A0E0B0E2ECE5F5E300E03E
:100260000BBF02C007900D92A835B107D9F72CE259
:10027000A8E5B0E201C01D92A33DB207E1F70E94DC
:1002800077110C94AC1A0C9400000F93CF93DF936A
:100290001F92CDB7DEB72FB72983F8941BBEFC01A0
:1002A00008ED04BF608389818FBF0F90DF91CF91EC
:1002B0000F910895611102C090E001C090E2842B7B
:1002C000892B8093520008956F71862B809355007F
:1002D0000895E0E5F0E09081282F20959223908307
:1002E000908189230895682B81E490E00E94450164
:1002F00008950F931F93CF93C82F00E410E0F801E7
:100300006081687F682B80E490E00E944501F801DD
:1003100080818C23CF911F910F910895FC019081D2
:10032000907F692B60830895FC019181987F692BF0
:1003300061830895FC0196819C7F692B66830895F3
:10034000000088ED84BF81E08093790008950E94C9
:10035000A0010895CF93DF9380E190E00E944703CE
:10036000EC01009741F0FC0111921192119211924F
:10037000CF010E946E03CE01DF91CF9108952F929D
:100380003F924F925F926F927F928F929F92AF9225
:10039000BF92CF92DF92EF92FF920F931F93CF9372
:1003A000DF93EC014A015B01622E702E0E94BB0AB2
:1003B000288039804A805B8001110DC081E0B20144
:1003C000A101482159216A217B21452B462B472B2E
:1003D00079F480E00DC081E0B201A10148215921EA
:1003E0006A217B21481559056A057B0509F080E0E3
:1003F000882381F0662009F470C080949094A094C2
:10040000B09482209320A420B52088829982AA8269
:10041000BB8263C0C114D104E104F10409F45DC0DE
:10042000662029F040E050E060E071E003C040E069
:1004300050E0BA0171107460482959296A297B2952
:1004400097018601CE0104960E94EA0C0E94A60B39
:10045000811102C00E94CC040E94270E91FD39C078
:10046000F091A200FF93F87FF093A2006881798158
:100470008A819B8171100DC021E075016401C62243
:10048000D722E822F922CD28CE28CF2879F420E0FF
:100490000DC021E075016401C622D722E822F922AD
:1004A000C814D904EA04FB0409F020E0222371F007
:1004B000662061F080949094A094B0948622972254
:1004C000A822B92288829982AA82BB82FF91F093E6
:1004D000A2001B012C01552402C00E94A60BC201E0
:1004E000B101DF91CF911F910F91FF90EF90DF90BD
:1004F000CF90BF90AF909F908F907F906F905F90C4
:100500004F903F902F9008950F931F93F091A2006A
:10051000FF93F87FF093A200FC01008111812281FA
:100520003381409550956095709540235123622307
:1005300073234083518362837383FF91F093A200FE
:10054000C901B8011F910F9108954F925F926F9268
:100550007F92AF92BF92CF92DF92EF92FF920F9372
:100560001F93CF93DF93EC016A017B018C01095F3C
:100570001F4F0E94BB0AEB85FC8588819981AA8167
:10058000BB81C82AD92AEA2AFB2AC882D982EA82F0
:10059000FB820E171F0709F442C0C12CD12C760133
:1005A000A480B58080819181A281B381AC01BD011D
:1005B0007727B2FD0FC0488059806A807B80442233
:1005C00055226622772221E045284628472889F4CB
:1005D00020E00FC0488059806A807B8044225522E9
:1005E0006622772221E0441655066606770609F052
:1005F00020E0222371F0B0FF04C0C42AD52AE62AE5
:10060000F72A488159816A817B817260CF010E94FB
:10061000720DEA2DFB2D0E171F0711F603C0C12C1A
:10062000D12C7601C094D094E094F0948881998183
:10063000AA81BB81C822D922EA22FB22C882D982A0
:10064000EA82FB820E94A60B688179818A819B8164
:10065000DF91CF911F910F91FF90EF90DF90CF909E
:10066000BF90AF907F906F905F904F9008950E94E1
:10067000A50208950F931F9389019A01AB01BC0154
:1006800087E393E00E9407111F910F910895CF9384
:10069000DF93EC010E94BB0A209158203091592031
:1006A000C9018C0F9D1F883B4BE0940758F4281715
:1006B000390758F4E901C65ADF4D809358209093CA
:1006C000592005C0C0E0D0E002C0C0E0D0E00E94E8
:1006D000A60BCE01DF91CF9108950895FC010396FA
:1006E000818392834FEF5FEFBA0143835483658325
:1006F0007683878390878187928710820895FC0193
:10070000128613860895CF93DF939C01FB01DC01D1
:100710001196CD91DC911297C483D5838E819F81F0
:10072000868397838E819F81DC0114966D937C93E1
:1007300015976E837F8322873387F90180818F5FCE
:100740008083DF91CF9108950F931F93CF93DF9311
:10075000EB01088119812A813B810F3F4FEF14077C
:100760002407340721F4FC01A185B28511C0DC0106
:10077000139601C0DF011496ED91FC91159740810D
:10078000518162817381041715072607370790F797
:100790001496ED91FC911597EC83FD83C683D78366
:1007A000AE83BF831496CD93DC9315978A879B877E
:1007B000FC0120812F5F2083DF91CF911F910F914A
:1007C0000895CF93DF93FC01A285B385C481D581C1
:1007D000868197818E839F83C681D781848195810D
:1007E0008C839D8311968D919C911297E817F90740
:1007F00031F48681978111968D939C93129712867E
:1008000013868C9181508C938C91DF91CF910895B8
:10081000E0EAF0E082819281987F92830895CF92FE
:10082000DF92EF92FF9231E1FC013083319722E2B7
:1008300020833197A3E3A0836B01E12CF12C319746
:1008400060833197D0823197E082319761E3608392
:10085000319760E86083319767E860833197108251
:1008600031971082319762E06083319763E0608353
:10087000319764E06083319765E06083319766E08B
:100880006083319767E06083319768E060833197D8
:1008900069E06083319760E16083319730833197FD
:1008A00032E13083319733E13083319734E1308363
:1008B000319735E13083319736E13083319737E135
:1008C0003083319738E13083319739E13083319784
:1008D00030E23083319731E2308331972083319792
:1008E00023E220836A01319740833197D082319788
:1008F00026E22083319727E22083319728E2208364
:10090000319729E22083319720E320838897FF9055
:10091000EF90DF90CF90089583EF91E080932608C9
:100920009093270865E080E098E00E948E0161E0E6
:1009300080E098E00E949A01A091802CB091812CD7
:100940000D900DBE0D900EBEEF91DF91CF91BF9136
:10095000AF919F918F917F916F915F914F913F9157
:100960002F911F910F91FF90EF90DF90CF90BF904C
:10097000AF909F908F907F906F905F904F903F903F
:100980002F901F900F90FF91F093A200FF91FFBF57
:10099000FF91089581E00895FF93FFB7FF93F091D1
:1009A000A200FF93F87FF093A2000F921F921124F0
:1009B0002F923F924F925F926F927F928F929F926F
:1009C000AF92BF92CF92DF92EF92FF920F931F935D
:1009D0002F933F934F935F936F937F938F939F9347
:1009E000AF93BF93CF93DF93EF93A091802CB091FF
:1009F000812C0DB60D920EB60D920E94440CA09162
:100A0000802CB091812C0D900DBE0D900EBEEF91FB
:100A1000DF91CF91BF91AF919F918F917F916F9116
:100A20005F914F913F912F911F910F91FF90EF9008
:100A3000DF90CF90BF90AF909F908F907F906F90FE
:100A40005F904F903F902F901F900F90FF91F093E9
:100A5000A200FF91FFBFFF910895CF939091CC2CFE
:100A6000892B8093CC2C9091A000913041F09091F3
:100A7000A000923021F09091A000943059F4882386
:100A800049F00E940804C82F1092CC2C0E94440CFC
:100A9000C093A200CF910895FF93FFB7FF93F09109
:100AA000A200FF93F87FF093A2000F921F921124EF
:100AB0002F923F924F925F926F927F928F929F926E
:100AC000AF92BF92CF92DF92EF92FF920F931F935C
:100AD0002F933F934F935F936F937F938F939F9346
:100AE000AF93BF93CF93DF93EF93A091802CB091FE
:100AF000812C0DB60D920EB60D920E940804C82FDF
:100B00000E94D30AC093A20081E00E942D05A0910B
:100B1000802CB091812C0D900DBE0D900EBEEF91EA
:100B2000DF91CF91BF91AF919F918F917F916F9105
:100B30005F914F913F912F911F910F91FF90EF90F7
:100B4000DF90CF90BF90AF909F908F907F906F90ED
:100B50005F904F903F902F901F900F90FF91F093D8
:100B6000A200FF91FFBFFF911895F091A200FF93A3
:100B7000F87FF093A200FC01968DFF91F093A20004
:100B800081E0911180E00895DC01F091A200FF93D3
:100B9000F87FF093A2005E969C915E97FF91F09390
:100BA000A20081E05F962C91291380E008950F93B5
:100BB0001F93CF93DF93EC01042F1E8D48A1442394
:100BC000B9F1011116C050E08C819D810E94671A15
:100BD00028A18C819D81820F911D8C839D832A8108
:100BE0003B818217930720F1888199818C839D83B3
:100BF0001FC050E08E819F810E94671A88A190E0FB
:100C00009195819591092E813F81280F391F2E835F
:100C10003F83488159812417350730F42A813B816D
:100C2000820F931F8E839F83023011F41111115094
:100C30001F5F1E8F80E0DF91CF911F910F9108956C
:100C4000FC0140A14423A9F050E026813781240F04
:100C5000351F26833783828193812817390720F037
:100C60008081918186839783CB01668177810E9401
:100C7000671A0895EF92FF920F931F93CF938C0101
:100C8000F091A200FF93F87FF093A200FC01C2A1B3
:100C90001C16ACF48389811106C011C0F801838948
:100CA000811105C00CC07801F3E1EF0EF11CC70102
:100CB0000E94300D81110E94150EC15079F78FEFFF
:100CC000F80182A3FF91F093A200F091A200FF939C
:100CD000F87FF093A200F801C1A11C16ACF4808546
:100CE000811106C011C0F8018085811105C00CC0BA
:100CF0007801F8E0EF0EF11CC7010E94300D811160
:100D00000E94150EC15079F78FEFF80181A3FF9172
:100D1000F093A200CF911F910F91FF90EF90089553
:100D2000CF93DF93EC01F091A200FF93F87FF09353
:100D3000A2004881598128A130E07F8D729FC001B7
:100D4000739F900D1124FA01E80FF91FEA83FB83CA
:100D50001E8E4C835D83821B930B840F951F8E83A5
:100D60009F838FEF89A38AA361110CC08885882394
:100D700089F0CE0108960E94300D882359F00E9418
:100D8000CC0408C0CE0108960E946E03CE014396A3
:100D90000E946E03FF91F093A20081E0DF91CF915A
:100DA0000895FF920F931F93CF93DF93082F162F71
:100DB000F42E6623C9F0869FC001112485960E94F7
:100DC0004703EC01009749F416C00F8F18A361E0A8
:100DD000CE010E949006FCA20EC08596888399835E
:100DE000F4CFC883D983F1CF85E290E00E94470316
:100DF000EC01892BB1F7CE01DF91CF911F910F91BB
:100E0000FF900895AF92BF92CF92DF92EF92FF9240
:100E10000F931F93CF93DF93CDB7DEB72997CDBF45
:100E2000DEBF7C015B012E833F834887598710E03A
:100E30006C0188E0C80ED11CF091A200FF93F87FEE
:100E4000F093A200F701968D878D981710F002306D
:100E5000D1F4402FB501C7010E94D705F70193894E
:100E6000992349F0C70143960E94300D882331F041
:100E70000E94CC0403C081110E94CC04FF91F09326
:100E8000A20081E057C08E819F81A885B985892BFA
:100E90008A2B8B2B29F4FF91F093A20080E04AC0AB
:100EA000111105C0CE0101960E94A60D11E0FF911F
:100EB000F093A2000E94BB0AF091A200FF93F87F7A
:100EC000F093A200F70181A18F3F09F411A2F7016D
:100ED00082A18F3F09F412A2FF91F093A200BE01FC
:100EE0006A5F7F4FCE0101960E94B70D81111CC031
:100EF000C7010E94C405882389F04E815F816885FF
:100F00007985C6010E94D20CC7010E943A060E9450
:100F1000A60B811191CF0E94CC048ECFC7010E94F5
:100F20003A060E94A60B88CFC7010E943A060E948B
:100F3000A60B80E02996CDBFDEBFDF91CF911F9138
:100F40000F91FF90EF90DF90CF90BF90AF900895FA
:100F5000AF92BF92CF92DF92FF920F931F93CF93E6
:100F6000DF93EC016B015A01022F0E940804F82E56
:100F70009E8D8F8D981710F00230E1F41AA1402F4A
:100F8000B601CE010E94D7051F3F81F48B898823CB
:100F900099F0CE0143960E94300D882379F0A11478
:100FA000B10471F081E0F50180830BC01F5F1AA3CB
:100FB00081E007C080E005C081E003C081E001C09E
:100FC00081E0F092A200DF91CF911F910F91FF90ED
:100FD000DF90CF90BF90AF900895AF92BF92CF9225
:100FE000DF92EF92FF920F931F93CF93DF93CDB7D2
:100FF000DEB72997CDBFDEBF8C015B012E833F8317
:1010000048875987E12C6C0183E1C80ED11CF0910F
:10101000A200FF93F87FF093A200F801F68CFF2066
:10102000B1F0B501C8010E942006FA94F801F68ECD
:101030008085882339F0C80108960E94300D8111FF
:101040000E94CC04FF91F093A20081E05EC08E81EB
:101050009F81A885B985892B8A2B8B2B29F4FF9139
:10106000F093A20080E051C0E11006C0CE010196CD
:101070000E94A60DEE24E394FF91F093A2000E943B
:10108000BB0AF091A200FF93F87FF093A200F80151
:1010900081A18F3F09F411A2F80182A18F3F09F4C9
:1010A00012A2FF91F093A200BE016A5F7F4FCE01B2
:1010B00001960E94B70D81111CC0C8010E94B505A0
:1010C000882389F04E815F8168857985C6010E94F9
:1010D000D20CC8010E943A060E94A60B811197CF3C
:1010E0000E94CC0494CFC8010E943A060E94A60B2D
:1010F0008ECFC8010E943A060E94A60BC8010E942A
:10110000B505882309F483CF80E02996CDBFDEBFE3
:10111000DF91CF911F910F91FF90EF90DF90CF90D3
:10112000BF90AF900895F091A200FF93F87FF093E5
:10113000A200FC01868DFF91F093A2000895CF9349
:10114000DF93EC01F091A200FF93F87FF093A200EF
:1011500089A18F3F09F419A28AA18F3F09F41AA22D
:10116000FF91F093A2008E8D811104C0CE014396B1
:101170000E940F0DCE010E943A06DF91CF91089593
:10118000E0913C2CF0913D2C808181110CC08FEFBF
:101190009FEFDC018093152C9093162CA093172CB5
:1011A000B093182C0895E0913C2CF0913D2C0780D1
:1011B000F085E02D0084F185E02D82819381A4816A
:1011C000B5818093152C9093162CA093172CB09377
:1011D000182C08958F929F92AF92BF92CF92DF9278
:1011E000EF92FF92CF936B017C01C42F80901F2C54
:1011F0009090202CA090212CB090222C8091802CBB
:101200009091812C02960E94E1038FEFC816D806B8
:10121000E806F80669F4CC2359F06091802C7091AF
:10122000812C6E5F7F4F84E29CE20E9483033FC06B
:10123000C80CD91CEA1CFB1CE091802CF091812C7D
:10124000C282D382E482F582C814D904EA04FB0482
:1012500068F46091802C7091812C80913A2C90914F
:101260003B2C6E5F7F4F0E94A40321C06091802CB5
:101270007091812C80913C2C90913D2C6E5F7F4F22
:101280000E94A4038091152C9091162CA091172CEC
:10129000B091182CC816D906EA06FB0640F4C09295
:1012A000152CD092162CE092172CF092182CCF917E
:1012B000FF90EF90DF90CF90BF90AF909F908F9076
:1012C0000895C4E5DCE28881823010F00E94CC04ED
:1012D0000E947611F8CF4F925F926F927F928F9219
:1012E0009F92AF92BF92CF92DF92EF92FF920F93B5
:1012F000CF93DF934C016B015A012901CA010E946F
:1013000047033C01892B09F4EAC08CE290E00E947B
:101310004703EC01892BB1F06B8E7C8EA50165EA49
:1013200070E0C3010E94701A21E0A21AB1088B8DEF
:101330009C8DA80EB91ED6018C918D8F8C91811138
:1013400005C018C0C3010E946D03C9C0AE01425E52
:101350005F4FF6013196B8E0CB0ED11CCF01219141
:10136000DA012D93AD01DC018C91882319F0EC1585
:10137000FD05A1F71CA2043008F003E00A8F6E01FE
:10138000B2E0CB0ED11CC6010E947F03CE010E96A7
:101390000E947F03CA87DB8784E090E0A0E0B0E092
:1013A000801B9109A109B1098E879F87A88BB98BF2
:1013B000CE8BDF8B1FA218A619A61AA61BA6A20108
:1013C000B401C5010E940F0488839983E114F104DC
:1013D00019F0F701C083D183F091A200FF93F87F49
:1013E000F093A2008091232C8F5F8093232C809117
:1013F000802C9091812C892BA9F5C093802CD093BF
:10140000812C8091232C8130E9F584E59CE20E94B7
:101410006E038FE59CE20E946E038AE69CE20E94C6
:101420006E0385E79CE20E946E0389E49CE20E94C1
:101430006E038EE39CE20E946E038FE29CE20E94A8
:101440006E0384E29CE20E946E0389E49CE2809336
:101450003C2C90933D2C8EE39CE280933A2C90930D
:101460003B2C10C080911D2C81110CC0E091802C70
:10147000F091812C928D8A8D891720F0C093802C59
:10148000D093812C8091192C8F5F8093192C8DA380
:101490008A8D90911E2C981710F480931E2CFBE0DF
:1014A0008F9FC0011124B6018C5A934D0E94830373
:1014B000FF91F093A20080911D2C882361F0E091B0
:1014C000802CF091812C928D8A8D981730F40E9497
:1014D000CC0481E005C081E003C081E001C08FEF52
:1014E000DF91CF910F91FF90EF90DF90CF90BF9061
:1014F000AF909F908F907F906F905F904F900895E6
:10150000EF92FF920F930F2EF3E1EF2EFCE2FF2EEE
:10151000F02D00E020E030E048EC50E060E070E2C8
:1015200081E699E00E946B09813009F50E94C50EA1
:101530008130E9F4E0EAF0E08281887F82838FEFF6
:101540009FEFDC018093152C9093162CA093172C01
:10155000B093182C81E080931D2C10921F2C1092B8
:10156000202C1092212C1092222C0E948C040F917E
:10157000FF90EF9008958091122C8F5F8093122C32
:101580000895F091A200FF93F87FF093A20060917C
:101590001F2C7091202C8091212C9091222CFF9156
:1015A000F093A2000895AF92BF92CF92DF92EF9294
:1015B000FF920F931F93CF93DF938091122C811191
:1015C000ADC0C0901F2CD090202CE090212CF0902A
:1015D000222C8FEFC81AD80AE80AF80AC0921F2CEA
:1015E000D092202CE092212CF092222CC114D10414
:1015F000E104F104B9F480913C2C90913D2C2091B0
:101600003A2C30913B2C20933C2C30933D2C8093F2
:101610003A2C90933B2C80911A2C8F5F80931A2C3C
:101620000E94C0088091152C9091162CA091172C27
:10163000B091182CC816D906EA06FB0610F4B12C96
:101640005CC0B12C0F2EFBE0AF2EF02DE0913C2CB6
:10165000F0913D2C808181110CC08FEF9FEFDC0158
:101660008093152C9093162CA093172CB093182CC4
:1016700044C0E0913C2CF0913D2C0780F085E02D9A
:10168000C085D1858A819B81AC81BD81C816D90670
:10169000EA06FB0648F48093152C9093162CA09331
:1016A000172CB093182C29C08E010E5F1F4FC80154
:1016B0000E94E103888D998D892B21F0CE010E9631
:1016C0000E94E1038A8D90911E2C981710F480934C
:1016D0001E2CA89EC0011124B8018C5A934D0E9463
:1016E0008303E091802CF091812C9A8D828D981744
:1016F00008F4ACCFBB24B394A9CFE091802CF09137
:10170000812CE28D8BE0E89FF0011124EC5AF34D1F
:101710008081823048F0BB24B39406C080911C2C99
:101720008F5F80931C2CB12C80911B2C882311F08F
:10173000BB24B3948B2DDF91CF911F910F91FF901C
:10174000EF90DF90CF90BF90AF900895CF92DF924F
:10175000EF92FF920F931F93CF93DF93F091A2002C
:10176000FF93F87FF093A2008091122C8150809318
:10177000122C8091122C81115CC08091232C81113C
:101780002CC05AC0D7011796ED91FC911897C085CF
:10179000D185CE010E960E94E1038E010E5F1F4F90
:1017A000C8010E94E1038A8D90911E2C981710F4B5
:1017B00080931E2CD89EC0011124B8018C5A934DE1
:1017C0000E948303E091802CF091812C9A8D828D70
:1017D000981788F0C0921B2C0EC0C0E0D0E00F2EEE
:1017E000FFE2EF2EFCE2FF2EF02D0F2EFBE0DF2EAE
:1017F000F02DCC24C394F70180818111C3CFCD2B70
:1018000011F00E94C008C0911C2CCC2351F0D1E0F3
:101810000E94D30A8111D0931B2CC150C9F710929A
:101820001C2C80911B2C882331F00E94CC0481E079
:1018300003C080E001C080E0FF91F093A200DF913F
:10184000CF911F910F91FF90EF90DF90CF9008956F
:10185000CF92DF92EF92FF926B017C01672B682B96
:10186000692B59F00E94BB0A40E0C701B6010E94F3
:10187000EA080E94A60B811102C00E94CC04FF90CE
:10188000EF90DF90CF9008958091122C882321F063
:1018900081E080931B2C089510921B2CE091802CEA
:1018A000F091812C038CF48DE02D80819181A281B7
:1018B000B381853A954AA54AB54AD9F48481958180
:1018C000A681B781853A954AA54AB54A91F48085A3
:1018D0009185A285B385853A954AA54AB54A49F4CA
:1018E00084859585A685B785853A954AA54AB54AE2
:1018F00061F06091802C7091812C8091802C90916E
:10190000812C635E7F4F0E94A70180911E2C282F9F
:1019100030E09BE0899FF0011124EC5AF34D908157
:1019200091110EC04BE08150282F30E0429FF00112
:10193000439FF00D1124EC5AF34D9081992399F3B4
:101940009BE0929FA001939F500D1124DA01AC5AA5
:10195000B34D1196ED91FC9112970480F581E02D25
:101960001196ED93FC931297495A534DE417F507DE
:1019700029F444815581FD01418352839BE0929F6C
:10198000F001939FF00D1124EC5AF34D0180F28188
:10199000E02D208531852093802C3093812C8093FD
:1019A0001E2C0895CF92DF92EF92FF926A017B0185
:1019B0006091802C7091812C625F7F4F0E94A40304
:1019C00041E0C701B6010E94EA08FF90EF90DF9066
:1019D000CF900895CF92DF92EF92FF920F931F93D3
:1019E00068017901E091802CF091812C7068468724
:1019F0005787608B718B6091802C7091812C625F16
:101A00007F4F0E94830341E0C701B6010E94EA08AC
:101A10001F910F91FF90EF90DF90CF900895CF929C
:101A2000DF92EF92FF92CF936A017B01C22F609108
:101A3000802C7091812C625F7F4F0E948303CC23A6
:101A400021F0CC24CA94DC2C76014C2FC701B601BE
:101A50000E94EA08CF91FF90EF90DF90CF90089519
:101A60000F931F93CF93DF93DC011796ED91FC91B9
:101A70001897C085D1858E01025F1F4FC8010E9453
:101A8000E1038091122C811116C00C501109C8017C
:101A90000E94E1038A8D90911E2C981710F4809378
:101AA0001E2CBBE08B9FC0011124B8018C5A934DB2
:101AB0000E94830305C0B8018FE29CE20E94830369
:101AC000E091802CF091812C9A8D828D891720F4E1
:101AD00081E080931B2C01C080E0DF91CF911F91AA
:101AE0000F9108950F931F93CF93DF937068FC01BC
:101AF0004083518362837383C085D1850E94E10353
:101B00008E010E5F1F4FC8010E94E1038A8D9091E4
:101B10001E2C981710F480931E2CFBE08F9FC001A1
:101B20001124B8018C5A934D0E948303E091802CBC
:101B3000F091812C9A8D828D891718F481E0809321
:101B40001B2CDF91CF911F910F91089520911A2C9A
:101B5000FC01208340911F2C5091202C6091212C5E
:101B60007091222C41835283638374830895CF92B2
:101B7000DF92EF92FF920F931F93CF93DF93DB01DE
:101B8000F091A200FF93F87FF093A20040911F2CE8
:101B90005091202C6091212C7091222C0D911D913F
:101BA0002D913C9113970F3FCFEF1C072C073C075B
:101BB00069F1FC01C180D280E380F480E0911A2CAD
:101BC000EC01F881FE1729F04C155D056E057F05C7
:101BD000F8F44C195D096E097F0940175107620737
:101BE000730768F4FD01041B150B260B370B0083EC
:101BF0001183228333830E94A60D80E00AC01D92C8
:101C00001D921D921C92139781E003C080E001C0D9
:101C100081E0FF91F093A200DF91CF911F910F918E
:101C2000FF90EF90DF90CF90089581E080931B2C80
:101C3000089580911D2C882331F08091122C8823E7
:101C400021F080E0089581E0089582E00895CF9228
:101C5000DF92EF92FF92E091802CF091812C6685CB
:101C6000778580899189E091802CF091812CA091D9
:101C7000802CB091812C5A962C91C12CD12C7601BC
:101C80006894C2F8C21AD108E108F108C686D7865E
:101C9000E08AF18AFF90EF90DF90CF900895CF9285
:101CA000DF92EF92FF920F931F93FC0142835383C5
:101CB0006483758382879387041715072607370780
:101CC000C0F00C191D092E093F0986859785A0894A
:101CD000B189081719072A073B0700F5BF016E5F96
:101CE0007F4F80918A2C90918B2C0E94A40380E0DE
:101CF00018C00C151D052E053F0528F44C155D0573
:101D00006E057F0568F4BF016E5F7F4F80918C2C5C
:101D100090918D2C0E94A40380E003C081E001C05B
:101D200081E01F910F91FF90EF90DF90CF90089589
:101D3000F091A200FF93F87FF093A2008091882C8D
:101D40009091892C892BE9F489E99CE20E946E0329
:101D50008EE89CE20E946E0389E99CE280938C2CC1
:101D600090938D2C8EE89CE280938A2C90938B2C00
:101D700040E069E085E00E94D1068093882C909332
:101D8000892CFF91F093A2000895EF92FF920F9398
:101D90000E94980E8091882C9091892C892B91F02B
:101DA0000F2EF6E8EF2EFCE2FF2EF02D03E020E0F0
:101DB00030E048EC50E065E070E288ED9FE00E9482
:101DC0006B0901C080E00F91FF90EF9008958F9212
:101DD0009F92AF92BF92CF92DF92EF92FF920F93BA
:101DE0001F93CF93DF93CDB7DEB72997CDBFDEBF6B
:101DF000E091882CF091892C309789F169832A83AE
:101E00003B834C835D838E839F836630FCF40E940A
:101E1000190E823069F400E0A7019601BE016F5FE0
:101E20007F4F8091882C9091892C0E94020718C0C6
:101E300000E020E030E0A901BE016F5F7F4F80919C
:101E4000882C9091892C0E9402070AC020E0A801EA
:101E5000BE016F5F7F4FCF010E94A80701C080E0E5
:101E60002996CDBFDEBFDF91CF911F910F91FF90DB
:101E7000EF90DF90CF90BF90AF909F908F9008959C
:101E80002F923F924F925F926F927F928F929F928A
:101E9000AF92BF92CF92DF92EF92FF920F931F9378
:101EA000CF93DF931C010E94C10A2B013C0180915A
:101EB000822C9091832CA091842CB091852C481673
:101EC00059066A067B0608F054C03CC00780F085BE
:101ED000E02D80809180A280B380C085D1858E0165
:101EE0000E5F1F4FC8010E94E103ED89FE89CE01FC
:101EF00019958A89813031F58E859F85A889B989A0
:101F0000880D991DAA1DBB1D88169906AA06BB0639
:101F100070F48A839B83AC83BD83CA87DB87B80157
:101F200080918C2C90918D2C0E94A4030BC0C12C0D
:101F3000D12C760100E010E0A501940160E0CE0113
:101F40000E94E70EE0918C2CF0918D2C8081811104
:101F5000BDCF80918A2C90918B2C80938C2C909368
:101F60008D2CE0938A2CF0938B2C81E0F1018083FF
:101F700002C0F10110824092822C5092832C609218
:101F8000842C7092852CC301B201DF91CF911F91F7
:101F90000F91FF90EF90DF90CF90BF90AF909F9008
:101FA0008F907F906F905F904F903F902F9008950B
:101FB000CF93DF93CDB7DEB72E97CDBFDEBFCE0177
:101FC00001961C01A82EB32CE0918C2CF0918D2C45
:101FD0008081882309F403C10780F085E02D4080CB
:101FE0005180628073800E94BB0AC1010E94400F31
:101FF0006B877C878D879E87898181115EC08B85E9
:102000009C85AD85BE8584159505A605B705E8F1C7
:102010000E94A60BE0918C2CF0918D2C0780F0850E
:10202000E02D80849184C40102960E94E103D401D2
:1020300052968C915297813001F51E964D915D918B
:102040006D917C915197440D551D661D771D73014F
:1020500062010B851C852D853E85C4010E944F0EB3
:10206000882359F0C12CD12C760100E010E0A301A7
:10207000920160E0C4010E94E70ED4015596ED91F3
:10208000FC915697C40119959CC020E0B301A201B0
:102090008B859C85AD85BE85481B590B6A0B7B0BD8
:1020A0008091882C9091892C0E949F080E94A60BF9
:1020B000811187C00E94CC0484C00E94A60B81C0FD
:1020C000898188236CF44E815F8168857985EA81F6
:1020D000FB818C819D811995898188230CF471C0C5
:1020E0008E809F80D4011C968D919C911D97892B89
:1020F00021F0C40102960E94E103CE010A960E94DB
:10210000400F8B019C018981082E000C990BAA0BB2
:10211000BB0B8A30910508F054C0FC018827E250BF
:10212000FF4F8F4F0C945F1ACA80DB80EC80FD80DC
:10213000F40146855785608971894C0D5D1D6E1DC2
:102140007F1DC4010E944F0E8823D9F1D4015596FA
:10215000ED91FC915697C4011995F4018289813063
:1021600081F54A815B816C817D8186859785A08917
:10217000B1899A01AB01280F391F4A1F5B1FC12C7F
:10218000D12C760100E010E060E0C4010E94E70E6F
:1021900018C04A815B816C817D81D4011E964D936C
:1021A0005D936D937C935197400F511F621F731F76
:1021B00068017901C4010E944F0E03C0C4010E944E
:1021C0006D0320E030E0A9016A2D7B2D8091882CE1
:1021D0009091892C0E94ED07811172CFF5CE0E945B
:1021E000BB0AC1010E94400F6B877C878D879E8749
:1021F0008981811162CFE0918A2CF0918B2C8081B2
:1022000021E0811120E0412C512C32013FCF0F936E
:102210001F93CF93DF93CDB7DEB72997CDBFDEBF36
:10222000EEEFE9838A839B836C837D832E833F83D8
:102230004887598720E0A801BE016F5F7F4F8091DA
:10224000882C9091892C0E94A8072996CDBFDEBFCB
:10225000DF91CF911F910F910895E0E5F0E080812B
:1022600081608083818180FFFDCF80E00E947901C1
:102270008EE10E94690160E080E00E94730143E00A
:1022800060E080E40E945A01E0E5F0E0808188602F
:102290008083818183FFFDCF64E080EC0E94640134
:1022A000E0E5F0E080818061808360E080E00E9472
:1022B0007301E0E5F0E0818184FFFDCF84E00E94BE
:1022C000790187E00E9469010895E0EAF6E081E083
:1022D0008183848300EA16E0C1E0F801C78364E6E5
:1022E00070E080E090E00E94280CF7CF0895EF9214
:1022F000FF920F93CF930E94FB17C82F0E942D11BE
:102300000E94D1120F2EFDECEF2EFCE2FF2EF02DDD
:1023100001E020E030E042ED50E06DE070E285E663
:1023200091E10E946B090E944D1486E190E29F9317
:102330008F931F921F921F921F920E94581486E241
:1023400090E29F938F931F921F921F9281E08F9331
:102350000E94581483E390E29F938F931F921F92E1
:102360001F9282E08F930E9458141F92CF938CE3A8
:1023700090E29F938F931F921F921F9283E08F93FF
:102380000E9458140E94800A8DB79EB74A968DBF4E
:102390009EBF80E090E0CF910F91FF90EF90089565
:1023A0001F920F920FB60F9211240BB60F922F931C
:1023B0003F934F935F936F937F938F939F93AF93CD
:1023C000BF93EF93FF93CF93DF931F92CDB7DEB709
:1023D00019829E012F5F3F4F41E050E060E070E0C6
:1023E0008091D12C9091D22C0E943A0360E080E041
:1023F0009BE00E948E011092060B0F90DF91CF910F
:10240000FF91EF91BF91AF919F918F917F916F91CC
:102410005F914F913F912F910F900BBE0F900FBE88
:102420000F901F901895CF92DF92EF92FF920F932B
:102430006B017C0182E0C816D104E104F10408F4C8
:102440004EC0E0E0FBE081E0868310A211A260E0D4
:1024500080E09BE00E9494018EEFC8168FEFD806B3
:10246000E104F10470F4F694E794D794C794C09211
:10247000260BD092270B65E080E09BE00E948E0146
:1024800019C080E4C81682E4D8068FE0E806F1049B
:1024900088F4689414F8F694E794D794C794169443
:1024A000D1F7C092260BD092270B67E080E09BE02B
:1024B0000E948E010F2EF4EFCF2EDD24D394E12C59
:1024C000F12CF02D00E021E041E050E060E070E010
:1024D0008091D12C9091D22C0E94BF0111C0E0E0DC
:1024E000FBE081E0868310A211A260E080E09BE027
:1024F0000E949401C12CD12C76016894C1F8B3CF0D
:102500000F91FF90EF90DF90CF9008958295807F9C
:10251000E0E0F6E09481282F2F6092239483948149
:10252000892B848308951F93CF93DF93C0E6D6E071
:1025300014E01D8361E070E080E090E00E941312DF
:102540001E83DF91CF911F910895CF93C82F82955D
:102550008F700E948612E0E6F6E081E0868382E0DA
:1025600086830E9493128C2F8F700E9486120E9485
:102570009312CF910895CF93C82F82958F700E94A8
:102580008612E0E6F6E081E0858382E086830E94A1
:1025900093128C2F8F700E9486120E949312CF91FB
:1025A0000895EF92FF920F93E0E0F6E080E18183DF
:1025B00080E2818380E4818380E88183A0E6B6E0C5
:1025C00081E011968C93119782E011968C9311976C
:1025D00084E011968C93119784818F708483149674
:1025E0008C911497887F14968C9340E066E188E084
:1025F0000E94D1068093CF2C9093D02C0E94AA01E8
:102600008093D12C9093D22CE12CF12C01E020E08E
:1026100030E04EE551E06CE470E28FE693E10E9419
:102620006B090F91FF90EF9008958130910579F03B
:102630001CF4892B39F019C08230910569F0039799
:1026400081F013C080E8860F0E94A5120EC080ECB6
:10265000860F0E94A51209C084E9860F0E94A51268
:1026600004C084ED860F0E94A51267E270E080E04E
:1026700090E00E94131208950E94BB126BE270E07A
:1026800080E090E00E94131208950F931F93CF9360
:10269000DF93FC01808181110AC011C089918823D8
:1026A00071F00E943C130C171D07C1F708C08F0181
:1026B0000E943C13E80121960C5E1F4FEFCFDF9183
:1026C000CF911F910F910895CF93DF93EA010E945C
:1026D0001513CE010E944513DF91CF910895CF933A
:1026E000DF93CDB7DEB7C656D109CDBFDEBF5E01E1
:1026F00041E5A40EB11CFE01319620E208C02193F1
:10270000E817F907E1F7FC01A816B90619F0CF019F
:102710004496F5CF60E47CE980E090E00E941312DB
:1027200083E00E94861268E873E180E090E00E94F6
:1027300013120E94931260EA70E080E090E00E9421
:1027400013120E94931260EA70E080E090E00E9411
:1027500013120E94931260EA70E080E090E00E9401
:10276000131282E00E9486120E94931288E20E9455
:10277000A51280E10E94A5128CE00E94A51286E0BD
:102780000E94A51210E26E0151E5C50ED11C0F2E5C
:10279000F4E14F2EF02D0F2EF6E18F2E912CF02D1F
:1027A0005C2C0D2D68EC70E080E090E00E94280C1D
:1027B00040E050E0BA018091D12C9091D22C0E943F
:1027C0008402672B682B692B09F449C042E050E072
:1027D00060E070E08091D12C9091D22C0E94840214
:1027E000FE01319608C01193E817F907E1F7FC01E3
:1027F0008A159B05A1F1CF014496F5CF2FEF3FEF4E
:10280000A901652D702F8091CF2C9091D02C0E9422
:10281000ED07882321F1F6012181822F90E0449772
:10282000F4F482818823D9F0908130E0D901499E67
:10283000A00DB11D112441E050E04C0F5D1FA40F0D
:10284000B51F3396A401421B530B9A012C0D3D1D5D
:102850008D93E217F30719F081918111F9CF8091DF
:10286000CF2C9091D02C0E9493088111C7CFCE011C
:1028700001967C01612C712CA70160E070E0C3011E
:102880000E9464139FEF691A790AE4E1EE0EF11CCD
:10289000F4E06F16710481F785CF42E050E060E00C
:1028A00070E08091D12C9091D22C0E94A5020895C5
:1028B0002F923F924F925F926F927F928F929F9250
:1028C000AF92BF92CF92DF92EF92FF920F931F933E
:1028D000CF93DF93CDB7DEB76D97CDBFDEBF2BA90A
:1028E0002B8FAFA9B8AD7E0139E3E30EF11C2CECC0
:1028F0003CE2E8EBFCE21192E217F307E1F70F2E5E
:10290000F4EAAF2EFCE2BF2EF02D28EB3CE2F501FD
:102910001192E217F307E1F7812C912C0F2EF8EBBF
:10292000CF2EFCE2DF2EF02DFCC2853209F0E8C28A
:102930002D0182E0480E511C11968C91853609F4C8
:10294000DBC138F48336C1F008F048C0853251F05D
:10295000E7C28337F9F0883709F468C0863609F092
:10296000DFC28CC0F401EC55F34D95E29083AFEFDC
:102970008A1A9A0AD201D5C2F401EC55F34DD70157
:102980008C918083BFEF8B1A9B0AF70132967F01EF
:10299000D201C7C2A7014E5F5F4FD7018D919C91B5
:1029A0009C01B401F401EC55F34D00E010E006C0C9
:1029B000D901FD909D01F1920F5F1F4FDC010D9039
:1029C0000020E9F71197A81BB90B0A171B0780F322
:1029D0004D01860E971E7A01D201A3C287010E5FB8
:1029E0001F4F4AE0B601F701808191810E94771A5A
:1029F0009401D401AC55B34D48EB5CE280E090E02B
:102A000005C0FA016191AF016D930196F601019045
:102A10000020E9F73197E85BFC428E179F0788F3A7
:102A20004F01820E931E7801D2017BC287010E5F97
:102A30001F4F40E1B601D7018D919C910E94771AFA
:102A40009401F401EC55F34D48EB5CE280E090E03A
:102A500005C0DA016D91AD0161930196D6010D902B
:102A60000020E9F71197A85BBC428A179B0788F3FF
:102A70004D01820E931E7801D20153C21701B4E0BA
:102A80002B0E311CD7018D919D910D90BC91A02DE5
:102A90008F8B988FA98FBA8F20E030E0A901BC01FD
:102AA000CD010E948E18811105C020E3F60120831C
:102AB000118204C120E030E0A9016F89788D898DF1
:102AC0009A8D0E948E1888239CF4EDE2D601EC9337
:102AD0008F89988DA98DBA8DB0588F8B988FA98FBB
:102AE000BA8F0F2EF9EB6F2EFCE27F2EF02D01C076
:102AF000360120E030E040E85FE36F89788D898D12
:102B00009A8D0E94ED1988230CF444C200E010E075
:102B100020E030E040E251E46F89788D898D9A8D14
:102B20000E9493186F8B788F898F9A8F0F5F1F4F3A
:102B300020E030E040E85FE30E94ED19882344F78D
:102B40002DEC3CEC4CEC5DE36F89788D898D9A8D92
:102B50000E948E1888231CF01AC000E010E020E0CC
:102B600030E040E251E46F89788D898D9A8D0E9422
:102B7000F2196F8B788F898F9A8F015011092DEC84
:102B80003CEC4CEC5DE30E948E18882344F3101655
:102B90001106ACF57301D301A00FB11FAC8FBD8F2F
:102BA0003D016F89788D898D9A8D20E030E040E27B
:102BB00051E40E94F2196F8B788F898F9A8F0E944F
:102BC000051920E3260FF70121937F01072E000C42
:102BD000880B990B0E943D199B01AC016F89788D80
:102BE000898D9A8D0E942118E614F704F1F66F8BF7
:102BF000788F898F9A8F0115110589F4DBC1C8017F
:102C0000E0E3D301EC937301F2E0EF0EF11C2EE24E
:102C100011962C9399236CF000E010E01FC0EC8C0F
:102C2000FD8C3FEFE31AF30AEEE2AC8DBD8DEC9321
:102C300012C000E010E0FFEFEF1AFF0AF701319732
:102C400020E3208301970F5F1F4F992324F4043062
:102C500011058CF331C00430110574F5370184E09F
:102C600090E0801B910BE80EF91E87016F89788D2B
:102C7000898D9A8D20E030E040E251E40E94F21903
:102C80006F8B788F898F9A8F0E94051920E3260F0A
:102C9000D3012D933D01072E000C880B990B0E9448
:102CA0003D199B01AC016F89788D898D9A8D0E94A9
:102CB000211860167106F1F6F70110829401F401F3
:102CC000EC55F34D48EB5CE280E090E005C0DA01A2
:102CD0006D91AD0161930196D6010D900020E9F749
:102CE0001197A85BBC428A179B0788F34D01820E9F
:102CF000931E7101D20115C11701B4E02B0E311CD6
:102D0000D7018D919D910D90BC91A02D8F8B988FA7
:102D1000A98FBA8F20E030E0A901BC01CD010E944B
:102D20008E18811105C020E3F60120831182CAC0EC
:102D300020E030E0A9016F89788D898D9A8D0E94FD
:102D40008E1888239CF4EDE2D601EC938F89988D40
:102D5000A98DBA8DB0588F8B988FA98FBA8F0F2EEF
:102D6000F9EB6F2EFCE27F2EF02D01C0360120E042
:102D700030E040E85FE36F89788D898D9A8D0E94FD
:102D8000ED198823DCF000E010E020E030E040E2C4
:102D900051E46F89788D898D9A8D0E9493186F8B7D
:102DA000788F898F9A8F0F5F1F4F20E030E040E8C7
:102DB0005FE30E94ED19882344F702C000E010E0B1
:102DC0002DEC3CEC4CEC5DE36F89788D898D9A8D10
:102DD0000E948E188823C4F420E030E040E251E4E1
:102DE0006F89788D898D9A8D0E94F2196F8B788FFB
:102DF000898F9A8F015011092DEC3CEC4CEC5DE36E
:102E00000E948E18882344F320E030E040E251E431
:102E10006F89788D898D9A8D0E94F2196F8B788FCA
:102E2000898F9A8F0E94051920E3260FD3012C93D6
:102E3000072E000C880B990B0E943D199B01AC01D9
:102E40006F89788D898D9A8D0E942118F8013197AC
:102E5000EC8FFD8FEEE2D3011196EC9383010E5FB0
:102E60001F4F7301F6E0EF0EF11C20E030E040E26E
:102E700051E40E94F2196F8B788F898F9A8F0E948C
:102E8000051920E3260FD8012D938D01072E000C84
:102E9000880B990B0E943D199B01AC016F89788DBD
:102EA000898D9A8D0E9421180E151F05F1F625E6D1
:102EB000F3012683B301695F7F4F4AE08C8D9D8DBE
:102EC0000E94771A9401F401EC55F34D48EB5CE253
:102ED00080E090E005C0DA016D91AD01619301964B
:102EE000D6010D900020E9F71197A85BBC428A1724
:102EF0009B0788F34D01820E931E7101D20111C010
:102F00008A3029F0F401EC55F34D808304C0F401BC
:102F1000EC55F34D10821196EFEF8E1A9E0A01C008
:102F2000D2018C91811101CD8DA99EA9880D991D89
:102F300044973CF084E190E04C012DA93EA9821A0F
:102F4000930AFE013396CE014796DF011D92A81722
:102F5000B907E1F73B8D39838DA98A8318141904C9
:102F60005CF4CE01880D991D0396D5012D915D016C
:102F700021938E179F07C9F700E02FEF3FEFA901BC
:102F8000BE016F5F7F4F8091CF2C9091D02C0E941B
:102F900002071BC02DEC3CEC4CEC5DE36F89788D97
:102FA000898D9A8D0E948E1888230CF4D6CD80E0EE
:102FB00090E026CE20E3EC8DFD8D20837F0132E072
:102FC000E30EF11C8EE2818346CE6D96CDBFDEBF4F
:102FD000DF91CF911F910F91FF90EF90DF90CF90F5
:102FE000BF90AF909F908F907F906F905F904F9029
:102FF0003F902F9008958091780085FF05C080E272
:103000008093780081E008958091780080FF05C06A
:1030100081E08093780082E008958091780084FFB9
:1030200005C080E18093780083E008958091780066
:1030300081FF05C082E08093780084E0089582E0FB
:1030400008955058BB27AA270E9439180C94B31929
:103050000E94A51938F00E94AC1920F039F49F3F66
:1030600019F426F40C94A2190EF4E095E7FB0C94E5
:103070009C19E92F0E94C41958F3BA176207730705
:103080008407950720F079F4A6F50C94E6190EF460
:10309000E0950B2EBA2FA02D0B01B90190010C0168
:1030A000CA01A0011124FF27591B99F0593F50F480
:1030B000503E68F11A16F040A22F232F342F4427D8
:1030C000585FF3CF469537952795A795F0405395D0
:1030D000C9F77EF41F16BA0B620B730B840BBAF0A0
:1030E0009150A1F0FF0FBB1F661F771F881FC2F70B
:1030F0000EC0BA0F621F731F841F48F4879577951F
:103100006795B795F7959E3F08F0B0CF9395880FD8
:1031100008F09927EE0F9795879508950E947819E2
:1031200008F481E008950E94A7180C94B3190E9436
:10313000AC1958F00E94A51940F029F45F3F29F01E
:103140000C949C1951110C94E7190C94A2190E942B
:10315000C41968F39923B1F3552391F3951B550BCB
:10316000BB27AA2762177307840738F09F5F5F4F5A
:10317000220F331F441FAA1FA9F335D00E2E3AF099
:10318000E0E832D091505040E695001CCAF72BD0B1
:10319000FE2F29D0660F771F881FBB1F2617370702
:1031A0004807AB07B0E809F0BB0B802DBF01FF2734
:1031B00093585F4F3AF09E3F510578F00C949C195C
:1031C0000C94E7195F3FE4F3983ED4F38695779526
:1031D0006795B795F7959F5FC9F7880F911D9695ED
:1031E000879597F90895E1E0660F771F881FBB1F49
:1031F000621773078407BA0720F0621B730B840BF6
:10320000BA0BEE1F88F7E09508950E940C19689498
:10321000B1110C94E71908950E94CC1988F09F57BA
:1032200098F0B92F9927B751B0F0E1F0660F771FEA
:10323000881F991F1AF0BA95C9F714C0B13091F0E0
:103240000E94E619B1E008950C94E619672F782FD3
:103250008827B85F39F0B93FCCF3869577956795A5
:10326000B395D9F73EF490958095709561957F4F11
:103270008F4F9F4F0895E89409C097FB3EF49095B7
:103280008095709561957F4F8F4F9F4F9923A9F03F
:10329000F92F96E9BB279395F695879577956795CE
:1032A000B795F111F8CFFAF4BB0F11F460FF1BC012
:1032B0006F5F7F4F8F4F9F4F16C0882311F096E9A5
:1032C00011C0772321F09EE8872F762F05C0662353
:1032D00071F096E8862F70E060E02AF09A95660F0C
:1032E000771F881FDAF7880F9695879597F90895C5
:1032F000990F0008550FAA0BE0E8FEEF1616170607
:10330000E807F907C0F012161306E407F50798F06E
:10331000621B730B840B950B39F40A2661F0232B87
:10332000242B252B21F408950A2609F4A140A69503
:103330008FEF811D811D089597F99F6780E870E0E8
:1033400060E008959FEF80EC089500240A9416161B
:10335000170618060906089500240A941216130683
:10336000140605060895092E0394000C11F4882311
:1033700052F0BB0F40F4BF2B11F460FF04C06F5F2D
:103380007F4F8F4F9F4F089557FD9058440F551F03
:1033900059F05F3F71F04795880F97FB991F61F0D7
:1033A0009F3F79F087950895121613061406551F4E
:1033B000F2CF4695F1DF08C0161617061806991FBA
:1033C000F1CF86957105610508940895E894BB27AF
:1033D00066277727CB0197F908950E94781908F49A
:1033E0008FEF08950E94051A0C94B3190E94A51935
:1033F00038F00E94AC1920F0952311F00C949C1920
:103400000C94A21911240C94E7190E94C41970F3AA
:10341000959FC1F3950F50E0551F629FF001729F79
:10342000BB27F00DB11D639FAA27F00DB11DAA1F88
:10343000649F6627B00DA11D661F829F2227B00DD5
:10344000A11D621F739FB00DA11D621F839FA00D60
:10345000611D221F749F3327A00D611D231F849FB0
:10346000600D211D822F762F6A2F11249F57504007
:103470009AF0F1F088234AF0EE0FFF1FBB1F661F82
:10348000771F881F91505040A9F79E3F510580F04B
:103490000C949C190C94E7195F3FE4F3983ED4F325
:1034A000869577956795B795F795E7959F5FC1F7EF
:1034B000FE2B880F911D9695879597F90895EE0F2D
:1034C000FF1F881F8BBF0790F691E02D1994FB0119
:1034D000DC0102C001900D9241505040D8F7089590
:1034E000DC0101C06D9341505040E0F70895BB27C7
:1034F0004A3031F4992322F4BDE2909581959F4F93
:103500000C94831ABB27FB015527AA27880F991F04
:10351000AA1FA41710F0A41B83955051B9F7A05D02
:10352000AA3308F0A95DA193009779F7B111B1937F
:103530001192CB010C949C1ADC01FC01672F719154
:103540007723E1F7329704C07C916D937083629189
:0C355000AE17BF07C8F30895F894FFCF32
:10355C0049444C4500546D7220537663006C65648D
:10356C00426C696E6B004672656552544F53203144
:10357C00302E302E3100454455426F61726420313B
:10358C002E300054656D706C617465005265736506
:10359C0074526561736F6E3A2025640064697370B0
:0835AC005570646174650000B4
:00000001FF
